{
  "contractName": "LipAttack",
  "abi": [
    {
      "anonymous": false,
      "inputs": [
        {
          "indexed": true,
          "internalType": "address",
          "name": "owner",
          "type": "address"
        },
        {
          "indexed": true,
          "internalType": "address",
          "name": "approved",
          "type": "address"
        },
        {
          "indexed": true,
          "internalType": "uint256",
          "name": "tokenId",
          "type": "uint256"
        }
      ],
      "name": "Approval",
      "type": "event"
    },
    {
      "anonymous": false,
      "inputs": [
        {
          "indexed": true,
          "internalType": "address",
          "name": "owner",
          "type": "address"
        },
        {
          "indexed": true,
          "internalType": "address",
          "name": "operator",
          "type": "address"
        },
        {
          "indexed": false,
          "internalType": "bool",
          "name": "approved",
          "type": "bool"
        }
      ],
      "name": "ApprovalForAll",
      "type": "event"
    },
    {
      "anonymous": false,
      "inputs": [
        {
          "indexed": true,
          "internalType": "address",
          "name": "owner",
          "type": "address"
        },
        {
          "indexed": false,
          "internalType": "uint256",
          "name": "id",
          "type": "uint256"
        },
        {
          "indexed": false,
          "internalType": "uint256",
          "name": "dna",
          "type": "uint256"
        }
      ],
      "name": "NewLipCreated",
      "type": "event"
    },
    {
      "anonymous": false,
      "inputs": [
        {
          "indexed": true,
          "internalType": "address",
          "name": "previousOwner",
          "type": "address"
        },
        {
          "indexed": true,
          "internalType": "address",
          "name": "newOwner",
          "type": "address"
        }
      ],
      "name": "OwnershipTransferred",
      "type": "event"
    },
    {
      "anonymous": false,
      "inputs": [
        {
          "indexed": true,
          "internalType": "address",
          "name": "from",
          "type": "address"
        },
        {
          "indexed": true,
          "internalType": "address",
          "name": "to",
          "type": "address"
        },
        {
          "indexed": true,
          "internalType": "uint256",
          "name": "tokenId",
          "type": "uint256"
        }
      ],
      "name": "Transfer",
      "type": "event"
    },
    {
      "inputs": [
        {
          "internalType": "address",
          "name": "to",
          "type": "address"
        },
        {
          "internalType": "uint256",
          "name": "tokenId",
          "type": "uint256"
        }
      ],
      "name": "approve",
      "outputs": [],
      "stateMutability": "nonpayable",
      "type": "function"
    },
    {
      "inputs": [
        {
          "internalType": "address",
          "name": "owner",
          "type": "address"
        }
      ],
      "name": "balanceOf",
      "outputs": [
        {
          "internalType": "uint256",
          "name": "",
          "type": "uint256"
        }
      ],
      "stateMutability": "view",
      "type": "function",
      "constant": true
    },
    {
      "inputs": [
        {
          "internalType": "uint256",
          "name": "_lipId",
          "type": "uint256"
        },
        {
          "internalType": "string",
          "name": "_newName",
          "type": "string"
        }
      ],
      "name": "changeName",
      "outputs": [],
      "stateMutability": "nonpayable",
      "type": "function"
    },
    {
      "inputs": [
        {
          "internalType": "string",
          "name": "_name",
          "type": "string"
        }
      ],
      "name": "createRandomLip",
      "outputs": [],
      "stateMutability": "payable",
      "type": "function",
      "payable": true
    },
    {
      "inputs": [],
      "name": "getAllLips",
      "outputs": [
        {
          "components": [
            {
              "internalType": "uint256",
              "name": "id",
              "type": "uint256"
            },
            {
              "internalType": "string",
              "name": "name",
              "type": "string"
            },
            {
              "internalType": "uint256",
              "name": "dna",
              "type": "uint256"
            },
            {
              "internalType": "uint8",
              "name": "level",
              "type": "uint8"
            },
            {
              "internalType": "uint8",
              "name": "rarity",
              "type": "uint8"
            },
            {
              "internalType": "uint32",
              "name": "readyTime",
              "type": "uint32"
            },
            {
              "internalType": "uint16",
              "name": "winCount",
              "type": "uint16"
            },
            {
              "internalType": "uint16",
              "name": "lossCount",
              "type": "uint16"
            }
          ],
          "internalType": "struct LipFactory.Lip[]",
          "name": "",
          "type": "tuple[]"
        }
      ],
      "stateMutability": "view",
      "type": "function",
      "constant": true
    },
    {
      "inputs": [
        {
          "internalType": "uint256",
          "name": "tokenId",
          "type": "uint256"
        }
      ],
      "name": "getApproved",
      "outputs": [
        {
          "internalType": "address",
          "name": "",
          "type": "address"
        }
      ],
      "stateMutability": "view",
      "type": "function",
      "constant": true
    },
    {
      "inputs": [
        {
          "internalType": "address",
          "name": "_owner",
          "type": "address"
        }
      ],
      "name": "getEnemy",
      "outputs": [
        {
          "components": [
            {
              "internalType": "uint256",
              "name": "id",
              "type": "uint256"
            },
            {
              "internalType": "string",
              "name": "name",
              "type": "string"
            },
            {
              "internalType": "uint256",
              "name": "dna",
              "type": "uint256"
            },
            {
              "internalType": "uint8",
              "name": "level",
              "type": "uint8"
            },
            {
              "internalType": "uint8",
              "name": "rarity",
              "type": "uint8"
            },
            {
              "internalType": "uint32",
              "name": "readyTime",
              "type": "uint32"
            },
            {
              "internalType": "uint16",
              "name": "winCount",
              "type": "uint16"
            },
            {
              "internalType": "uint16",
              "name": "lossCount",
              "type": "uint16"
            }
          ],
          "internalType": "struct LipFactory.Lip[]",
          "name": "",
          "type": "tuple[]"
        }
      ],
      "stateMutability": "view",
      "type": "function",
      "constant": true
    },
    {
      "inputs": [
        {
          "internalType": "address",
          "name": "_owner",
          "type": "address"
        }
      ],
      "name": "getOwnerLips",
      "outputs": [
        {
          "components": [
            {
              "internalType": "uint256",
              "name": "id",
              "type": "uint256"
            },
            {
              "internalType": "string",
              "name": "name",
              "type": "string"
            },
            {
              "internalType": "uint256",
              "name": "dna",
              "type": "uint256"
            },
            {
              "internalType": "uint8",
              "name": "level",
              "type": "uint8"
            },
            {
              "internalType": "uint8",
              "name": "rarity",
              "type": "uint8"
            },
            {
              "internalType": "uint32",
              "name": "readyTime",
              "type": "uint32"
            },
            {
              "internalType": "uint16",
              "name": "winCount",
              "type": "uint16"
            },
            {
              "internalType": "uint16",
              "name": "lossCount",
              "type": "uint16"
            }
          ],
          "internalType": "struct LipFactory.Lip[]",
          "name": "",
          "type": "tuple[]"
        }
      ],
      "stateMutability": "view",
      "type": "function",
      "constant": true
    },
    {
      "inputs": [
        {
          "internalType": "address",
          "name": "owner",
          "type": "address"
        },
        {
          "internalType": "address",
          "name": "operator",
          "type": "address"
        }
      ],
      "name": "isApprovedForAll",
      "outputs": [
        {
          "internalType": "bool",
          "name": "",
          "type": "bool"
        }
      ],
      "stateMutability": "view",
      "type": "function",
      "constant": true
    },
    {
      "inputs": [
        {
          "internalType": "uint256",
          "name": "_lipId",
          "type": "uint256"
        }
      ],
      "name": "levelUp",
      "outputs": [],
      "stateMutability": "payable",
      "type": "function",
      "payable": true
    },
    {
      "inputs": [
        {
          "internalType": "uint256",
          "name": "",
          "type": "uint256"
        }
      ],
      "name": "lips",
      "outputs": [
        {
          "internalType": "uint256",
          "name": "id",
          "type": "uint256"
        },
        {
          "internalType": "string",
          "name": "name",
          "type": "string"
        },
        {
          "internalType": "uint256",
          "name": "dna",
          "type": "uint256"
        },
        {
          "internalType": "uint8",
          "name": "level",
          "type": "uint8"
        },
        {
          "internalType": "uint8",
          "name": "rarity",
          "type": "uint8"
        },
        {
          "internalType": "uint32",
          "name": "readyTime",
          "type": "uint32"
        },
        {
          "internalType": "uint16",
          "name": "winCount",
          "type": "uint16"
        },
        {
          "internalType": "uint16",
          "name": "lossCount",
          "type": "uint16"
        }
      ],
      "stateMutability": "view",
      "type": "function",
      "constant": true
    },
    {
      "inputs": [],
      "name": "name",
      "outputs": [
        {
          "internalType": "string",
          "name": "",
          "type": "string"
        }
      ],
      "stateMutability": "view",
      "type": "function",
      "constant": true
    },
    {
      "inputs": [],
      "name": "owner",
      "outputs": [
        {
          "internalType": "address",
          "name": "",
          "type": "address"
        }
      ],
      "stateMutability": "view",
      "type": "function",
      "constant": true
    },
    {
      "inputs": [
        {
          "internalType": "uint256",
          "name": "tokenId",
          "type": "uint256"
        }
      ],
      "name": "ownerOf",
      "outputs": [
        {
          "internalType": "address",
          "name": "",
          "type": "address"
        }
      ],
      "stateMutability": "view",
      "type": "function",
      "constant": true
    },
    {
      "inputs": [],
      "name": "renounceOwnership",
      "outputs": [],
      "stateMutability": "nonpayable",
      "type": "function"
    },
    {
      "inputs": [
        {
          "internalType": "address",
          "name": "from",
          "type": "address"
        },
        {
          "internalType": "address",
          "name": "to",
          "type": "address"
        },
        {
          "internalType": "uint256",
          "name": "tokenId",
          "type": "uint256"
        }
      ],
      "name": "safeTransferFrom",
      "outputs": [],
      "stateMutability": "nonpayable",
      "type": "function"
    },
    {
      "inputs": [
        {
          "internalType": "address",
          "name": "from",
          "type": "address"
        },
        {
          "internalType": "address",
          "name": "to",
          "type": "address"
        },
        {
          "internalType": "uint256",
          "name": "tokenId",
          "type": "uint256"
        },
        {
          "internalType": "bytes",
          "name": "_data",
          "type": "bytes"
        }
      ],
      "name": "safeTransferFrom",
      "outputs": [],
      "stateMutability": "nonpayable",
      "type": "function"
    },
    {
      "inputs": [
        {
          "internalType": "address",
          "name": "operator",
          "type": "address"
        },
        {
          "internalType": "bool",
          "name": "approved",
          "type": "bool"
        }
      ],
      "name": "setApprovalForAll",
      "outputs": [],
      "stateMutability": "nonpayable",
      "type": "function"
    },
    {
      "inputs": [
        {
          "internalType": "uint256",
          "name": "_fee",
          "type": "uint256"
        }
      ],
      "name": "setLevelUpFee",
      "outputs": [],
      "stateMutability": "nonpayable",
      "type": "function"
    },
    {
      "inputs": [
        {
          "internalType": "bytes4",
          "name": "interfaceId",
          "type": "bytes4"
        }
      ],
      "name": "supportsInterface",
      "outputs": [
        {
          "internalType": "bool",
          "name": "",
          "type": "bool"
        }
      ],
      "stateMutability": "view",
      "type": "function",
      "constant": true
    },
    {
      "inputs": [],
      "name": "symbol",
      "outputs": [
        {
          "internalType": "string",
          "name": "",
          "type": "string"
        }
      ],
      "stateMutability": "view",
      "type": "function",
      "constant": true
    },
    {
      "inputs": [
        {
          "internalType": "uint256",
          "name": "tokenId",
          "type": "uint256"
        }
      ],
      "name": "tokenURI",
      "outputs": [
        {
          "internalType": "string",
          "name": "",
          "type": "string"
        }
      ],
      "stateMutability": "view",
      "type": "function",
      "constant": true
    },
    {
      "inputs": [
        {
          "internalType": "address",
          "name": "from",
          "type": "address"
        },
        {
          "internalType": "address",
          "name": "to",
          "type": "address"
        },
        {
          "internalType": "uint256",
          "name": "tokenId",
          "type": "uint256"
        }
      ],
      "name": "transferFrom",
      "outputs": [],
      "stateMutability": "nonpayable",
      "type": "function"
    },
    {
      "inputs": [
        {
          "internalType": "address",
          "name": "newOwner",
          "type": "address"
        }
      ],
      "name": "transferOwnership",
      "outputs": [],
      "stateMutability": "nonpayable",
      "type": "function"
    },
    {
      "inputs": [],
      "name": "withDraw",
      "outputs": [],
      "stateMutability": "payable",
      "type": "function",
      "payable": true
    },
    {
      "inputs": [
        {
          "internalType": "uint256",
          "name": "_lipId",
          "type": "uint256"
        },
        {
          "internalType": "uint256",
          "name": "_targetId",
          "type": "uint256"
        }
      ],
      "name": "attack",
      "outputs": [
        {
          "internalType": "int256",
          "name": "",
          "type": "int256"
        }
      ],
      "stateMutability": "nonpayable",
      "type": "function"
    }
  ],
  "bytecode": "0x6080604052662386f26fc10000600855620151806009556010600a55600a54600a6200002c91906200043f565b600b556064600c60006101000a81548160ff021916908360ff160217905550662386f26fc10000600f55600060105560466011553480156200006d57600080fd5b506040518060400160405280600981526020017f4c697020546f6b656e00000000000000000000000000000000000000000000008152506040518060400160405280600381526020017f4c505400000000000000000000000000000000000000000000000000000000008152508160009080519060200190620000f292919062000202565b5080600190805190602001906200010b92919062000202565b5050506200012e620001226200013460201b60201c565b6200013c60201b60201c565b620004f5565b600033905090565b6000600660009054906101000a900473ffffffffffffffffffffffffffffffffffffffff16905081600660006101000a81548173ffffffffffffffffffffffffffffffffffffffff021916908373ffffffffffffffffffffffffffffffffffffffff1602179055508173ffffffffffffffffffffffffffffffffffffffff168173ffffffffffffffffffffffffffffffffffffffff167f8be0079c531659141344cd1fd0a4f28419497f9722a3daafe3b4186f6b6457e060405160405180910390a35050565b8280546200021090620004bf565b90600052602060002090601f01602090048101928262000234576000855562000280565b82601f106200024f57805160ff191683800117855562000280565b8280016001018555821562000280579182015b828111156200027f57825182559160200191906001019062000262565b5b5090506200028f919062000293565b5090565b5b80821115620002ae57600081600090555060010162000294565b5090565b7f4e487b7100000000000000000000000000000000000000000000000000000000600052601160045260246000fd5b60008160011c9050919050565b6000808291508390505b60018511156200034057808604811115620003185762000317620002b2565b5b6001851615620003285780820291505b80810290506200033885620002e1565b9450620002f8565b94509492505050565b6000826200035b57600190506200042e565b816200036b57600090506200042e565b81600181146200038457600281146200038f57620003c5565b60019150506200042e565b60ff841115620003a457620003a3620002b2565b5b8360020a915084821115620003be57620003bd620002b2565b5b506200042e565b5060208310610133831016604e8410600b8410161715620003ff5782820a905083811115620003f957620003f8620002b2565b5b6200042e565b6200040e8484846001620002ee565b92509050818404811115620004285762000427620002b2565b5b81810290505b9392505050565b6000819050919050565b60006200044c8262000435565b9150620004598362000435565b9250620004887fffffffffffffffffffffffffffffffffffffffffffffffffffffffffffffffff848462000349565b905092915050565b7f4e487b7100000000000000000000000000000000000000000000000000000000600052602260045260246000fd5b60006002820490506001821680620004d857607f821691505b60208210811415620004ef57620004ee62000490565b5b50919050565b61477080620005056000396000f3fe6080604052600436106101815760003560e01c8063715018a6116100d1578063b88d4fde1161008a578063ccf670f811610064578063ccf670f814610570578063e1fa763814610599578063e985e9c5146105d6578063f2fde38b1461061357610181565b8063b88d4fde146104e1578063c39cbef11461050a578063c87b56dd1461053357610181565b8063715018a6146103d157806376c2edc9146103e85780638c0b9c54146104255780638da5cb5b1461046257806395d89b411461048d578063a22cb465146104b857610181565b806323b872dd1161013e5780635ec163db116101185780635ec163db146102f75780636352211e1461033b578063698d640c1461037857806370a082311461039457610181565b806323b872dd1461027a5780632c44cfc3146102a357806342842e0e146102ce57610181565b806301ffc9a71461018657806306fdde03146101c3578063081812fc146101ee578063095ea7b31461022b5780630ce90ec2146102545780630fdb1c1014610270575b600080fd5b34801561019257600080fd5b506101ad60048036038101906101a89190612ee0565b61063c565b6040516101ba9190612f28565b60405180910390f35b3480156101cf57600080fd5b506101d861071e565b6040516101e59190612fdc565b60405180910390f35b3480156101fa57600080fd5b5061021560048036038101906102109190613034565b6107b0565b60405161022291906130a2565b60405180910390f35b34801561023757600080fd5b50610252600480360381019061024d91906130e9565b610835565b005b61026e60048036038101906102699190613034565b61094d565b005b610278610a1d565b005b34801561028657600080fd5b506102a1600480360381019061029c9190613129565b610aef565b005b3480156102af57600080fd5b506102b8610b4f565b6040516102c5919061339f565b60405180910390f35b3480156102da57600080fd5b506102f560048036038101906102f09190613129565b610cf5565b005b34801561030357600080fd5b5061031e60048036038101906103199190613034565b610d15565b6040516103329897969594939291906133fd565b60405180910390f35b34801561034757600080fd5b50610362600480360381019061035d9190613034565b610e3b565b60405161036f91906130a2565b60405180910390f35b610392600480360381019061038d91906135b7565b610eed565b005b3480156103a057600080fd5b506103bb60048036038101906103b69190613600565b610f08565b6040516103c8919061362d565b60405180910390f35b3480156103dd57600080fd5b506103e6610fc0565b005b3480156103f457600080fd5b5061040f600480360381019061040a9190613600565b611048565b60405161041c919061339f565b60405180910390f35b34801561043157600080fd5b5061044c60048036038101906104479190613600565b6112c6565b604051610459919061339f565b60405180910390f35b34801561046e57600080fd5b50610477611535565b60405161048491906130a2565b60405180910390f35b34801561049957600080fd5b506104a261155f565b6040516104af9190612fdc565b60405180910390f35b3480156104c457600080fd5b506104df60048036038101906104da9190613674565b6115f1565b005b3480156104ed57600080fd5b5061050860048036038101906105039190613755565b611607565b005b34801561051657600080fd5b50610531600480360381019061052c9190613838565b611669565b005b34801561053f57600080fd5b5061055a60048036038101906105559190613034565b611732565b6040516105679190612fdc565b60405180910390f35b34801561057c57600080fd5b5061059760048036038101906105929190613034565b6117d9565b005b3480156105a557600080fd5b506105c060048036038101906105bb9190613898565b61185f565b6040516105cd91906138f1565b60405180910390f35b3480156105e257600080fd5b506105fd60048036038101906105f8919061390c565b611af5565b60405161060a9190612f28565b60405180910390f35b34801561061f57600080fd5b5061063a60048036038101906106359190613600565b611b89565b005b60007f80ac58cd000000000000000000000000000000000000000000000000000000007bffffffffffffffffffffffffffffffffffffffffffffffffffffffff1916827bffffffffffffffffffffffffffffffffffffffffffffffffffffffff1916148061070757507f5b5e139f000000000000000000000000000000000000000000000000000000007bffffffffffffffffffffffffffffffffffffffffffffffffffffffff1916827bffffffffffffffffffffffffffffffffffffffffffffffffffffffff1916145b80610717575061071682611c81565b5b9050919050565b60606000805461072d9061397b565b80601f01602080910402602001604051908101604052809291908181526020018280546107599061397b565b80156107a65780601f1061077b576101008083540402835291602001916107a6565b820191906000526020600020905b81548152906001019060200180831161078957829003601f168201915b5050505050905090565b60006107bb82611ceb565b6107fa576040517f08c379a00000000000000000000000000000000000000000000000000000000081526004016107f190613a1f565b60405180910390fd5b6004600083815260200190815260200160002060009054906101000a900473ffffffffffffffffffffffffffffffffffffffff169050919050565b600061084082610e3b565b90508073ffffffffffffffffffffffffffffffffffffffff168373ffffffffffffffffffffffffffffffffffffffff1614156108b1576040517f08c379a00000000000000000000000000000000000000000000000000000000081526004016108a890613ab1565b60405180910390fd5b8073ffffffffffffffffffffffffffffffffffffffff166108d0611d57565b73ffffffffffffffffffffffffffffffffffffffff1614806108ff57506108fe816108f9611d57565b611af5565b5b61093e576040517f08c379a000000000000000000000000000000000000000000000000000000000815260040161093590613b43565b60405180910390fd5b6109488383611d5f565b505050565b8061095781610e3b565b73ffffffffffffffffffffffffffffffffffffffff163373ffffffffffffffffffffffffffffffffffffffff161461098e57600080fd5b6000600d83815481106109a4576109a3613b63565b5b906000526020600020906004020190506109bd81611e18565b6109c657600080fd5b600f543410156109d557600080fd5b80600301600081819054906101000a900460ff16809291906109f690613bc1565b91906101000a81548160ff021916908360ff16021790555050610a1881611e3f565b505050565b610a25611d57565b73ffffffffffffffffffffffffffffffffffffffff16610a43611535565b73ffffffffffffffffffffffffffffffffffffffff1614610a99576040517f08c379a0000000000000000000000000000000000000000000000000000000008152600401610a9090613c37565b60405180910390fd5b6000610aa3611535565b90508073ffffffffffffffffffffffffffffffffffffffff166108fc479081150290604051600060405180830381858888f19350505050158015610aeb573d6000803e3d6000fd5b5050565b610b00610afa611d57565b82611e72565b610b3f576040517f08c379a0000000000000000000000000000000000000000000000000000000008152600401610b3690613cc9565b60405180910390fd5b610b4a838383611f50565b505050565b6060600d805480602002602001604051908101604052809291908181526020016000905b82821015610cec57838290600052602060002090600402016040518061010001604052908160008201548152602001600182018054610bb19061397b565b80601f0160208091040260200160405190810160405280929190818152602001828054610bdd9061397b565b8015610c2a5780601f10610bff57610100808354040283529160200191610c2a565b820191906000526020600020905b815481529060010190602001808311610c0d57829003601f168201915b50505050508152602001600282015481526020016003820160009054906101000a900460ff1660ff1660ff1681526020016003820160019054906101000a900460ff1660ff1660ff1681526020016003820160029054906101000a900463ffffffff1663ffffffff1663ffffffff1681526020016003820160069054906101000a900461ffff1661ffff1661ffff1681526020016003820160089054906101000a900461ffff1661ffff1661ffff168152505081526020019060010190610b73565b50505050905090565b610d1083838360405180602001604052806000815250611607565b505050565b600d8181548110610d2557600080fd5b9060005260206000209060040201600091509050806000015490806001018054610d4e9061397b565b80601f0160208091040260200160405190810160405280929190818152602001828054610d7a9061397b565b8015610dc75780601f10610d9c57610100808354040283529160200191610dc7565b820191906000526020600020905b815481529060010190602001808311610daa57829003601f168201915b5050505050908060020154908060030160009054906101000a900460ff16908060030160019054906101000a900460ff16908060030160029054906101000a900463ffffffff16908060030160069054906101000a900461ffff16908060030160089054906101000a900461ffff16905088565b6000806002600084815260200190815260200160002060009054906101000a900473ffffffffffffffffffffffffffffffffffffffff169050600073ffffffffffffffffffffffffffffffffffffffff168173ffffffffffffffffffffffffffffffffffffffff161415610ee4576040517f08c379a0000000000000000000000000000000000000000000000000000000008152600401610edb90613d5b565b60405180910390fd5b80915050919050565b600854341015610efc57600080fd5b610f05816121ac565b50565b60008073ffffffffffffffffffffffffffffffffffffffff168273ffffffffffffffffffffffffffffffffffffffff161415610f79576040517f08c379a0000000000000000000000000000000000000000000000000000000008152600401610f7090613ded565b60405180910390fd5b600360008373ffffffffffffffffffffffffffffffffffffffff1673ffffffffffffffffffffffffffffffffffffffff168152602001908152602001600020549050919050565b610fc8611d57565b73ffffffffffffffffffffffffffffffffffffffff16610fe6611535565b73ffffffffffffffffffffffffffffffffffffffff161461103c576040517f08c379a000000000000000000000000000000000000000000000000000000000815260040161103390613c37565b60405180910390fd5b6110466000612450565b565b6060600061105583610f08565b600d805490506110659190613e0d565b67ffffffffffffffff81111561107e5761107d61348c565b5b6040519080825280602002602001820160405280156110b757816020015b6110a4612cf2565b81526020019060019003908161109c5790505b5090506000805b600d805490508110156112bb578473ffffffffffffffffffffffffffffffffffffffff166110eb82610e3b565b73ffffffffffffffffffffffffffffffffffffffff16146112a857600d818154811061111a57611119613b63565b5b9060005260206000209060040201604051806101000160405290816000820154815260200160018201805461114e9061397b565b80601f016020809104026020016040519081016040528092919081815260200182805461117a9061397b565b80156111c75780601f1061119c576101008083540402835291602001916111c7565b820191906000526020600020905b8154815290600101906020018083116111aa57829003601f168201915b50505050508152602001600282015481526020016003820160009054906101000a900460ff1660ff1660ff1681526020016003820160019054906101000a900460ff1660ff1660ff1681526020016003820160029054906101000a900463ffffffff1663ffffffff1663ffffffff1681526020016003820160069054906101000a900461ffff1661ffff1661ffff1681526020016003820160089054906101000a900461ffff1661ffff1661ffff168152505083838151811061128d5761128c613b63565b5b60200260200101819052506001826112a59190613e41565b91505b80806112b390613e97565b9150506110be565b508192505050919050565b606060006112d383610f08565b67ffffffffffffffff8111156112ec576112eb61348c565b5b60405190808252806020026020018201604052801561132557816020015b611312612cf2565b81526020019060019003908161130a5790505b5090506000805b600d8054905081101561152a578473ffffffffffffffffffffffffffffffffffffffff1661135982610e3b565b73ffffffffffffffffffffffffffffffffffffffff16141561151757600d818154811061138957611388613b63565b5b906000526020600020906004020160405180610100016040529081600082015481526020016001820180546113bd9061397b565b80601f01602080910402602001604051908101604052809291908181526020018280546113e99061397b565b80156114365780601f1061140b57610100808354040283529160200191611436565b820191906000526020600020905b81548152906001019060200180831161141957829003601f168201915b50505050508152602001600282015481526020016003820160009054906101000a900460ff1660ff1660ff1681526020016003820160019054906101000a900460ff1660ff1660ff1681526020016003820160029054906101000a900463ffffffff1663ffffffff1663ffffffff1681526020016003820160069054906101000a900461ffff1661ffff1661ffff1681526020016003820160089054906101000a900461ffff1661ffff1661ffff16815250508383815181106114fc576114fb613b63565b5b60200260200101819052506001826115149190613e41565b91505b808061152290613e97565b91505061132c565b508192505050919050565b6000600660009054906101000a900473ffffffffffffffffffffffffffffffffffffffff16905090565b60606001805461156e9061397b565b80601f016020809104026020016040519081016040528092919081815260200182805461159a9061397b565b80156115e75780601f106115bc576101008083540402835291602001916115e7565b820191906000526020600020905b8154815290600101906020018083116115ca57829003601f168201915b5050505050905090565b6116036115fc611d57565b8383612516565b5050565b611618611612611d57565b83611e72565b611657576040517f08c379a000000000000000000000000000000000000000000000000000000000815260040161164e90613cc9565b60405180910390fd5b61166384848484612683565b50505050565b60028381600d828154811061168157611680613b63565b5b906000526020600020906004020160030160009054906101000a900460ff1660ff1610156116ae57600080fd5b846116b881610e3b565b73ffffffffffffffffffffffffffffffffffffffff163373ffffffffffffffffffffffffffffffffffffffff16146116ef57600080fd5b6000600d878154811061170557611704613b63565b5b906000526020600020906004020190508585826001019190611728929190612d4b565b5050505050505050565b606061173d82611ceb565b61177c576040517f08c379a000000000000000000000000000000000000000000000000000000000815260040161177390613f52565b60405180910390fd5b60006117866126df565b905060008151116117a657604051806020016040528060008152506117d1565b806117b0846126f6565b6040516020016117c1929190613fae565b6040516020818303038152906040525b915050919050565b6117e1611d57565b73ffffffffffffffffffffffffffffffffffffffff166117ff611535565b73ffffffffffffffffffffffffffffffffffffffff1614611855576040517f08c379a000000000000000000000000000000000000000000000000000000000815260040161184c90613c37565b60405180910390fd5b80600f8190555050565b60008261186b81610e3b565b73ffffffffffffffffffffffffffffffffffffffff163373ffffffffffffffffffffffffffffffffffffffff16146118a257600080fd5b6000600d85815481106118b8576118b7613b63565b5b906000526020600020906004020190506000600d85815481106118de576118dd613b63565b5b906000526020600020906004020190506118f782611e18565b61190057600080fd5b8060030160009054906101000a900460ff1660ff168260030160009054906101000a900460ff1660ff161461196a576040517f08c379a00000000000000000000000000000000000000000000000000000000081526004016119619061401e565b60405180910390fd5b60006119766064612857565b905060007fffffffffffffffffffffffffffffffffffffffffffffffffffffffffffffffff90506011548211611a635760018460030160069054906101000a900461ffff166119c5919061403e565b8460030160066101000a81548161ffff021916908361ffff16021790555060018460030160009054906101000a900460ff16611a019190614076565b8460030160006101000a81548160ff021916908360ff16021790555060018360030160089054906101000a900461ffff16611a3c919061403e565b8360030160086101000a81548161ffff021916908361ffff16021790555060019050611ade565b60018460030160089054906101000a900461ffff16611a82919061403e565b8460030160086101000a81548161ffff021916908361ffff16021790555060018360030160069054906101000a900461ffff16611abf919061403e565b8360030160066101000a81548161ffff021916908361ffff1602179055505b611ae784611e3f565b809550505050505092915050565b6000600560008473ffffffffffffffffffffffffffffffffffffffff1673ffffffffffffffffffffffffffffffffffffffff16815260200190815260200160002060008373ffffffffffffffffffffffffffffffffffffffff1673ffffffffffffffffffffffffffffffffffffffff16815260200190815260200160002060009054906101000a900460ff16905092915050565b611b91611d57565b73ffffffffffffffffffffffffffffffffffffffff16611baf611535565b73ffffffffffffffffffffffffffffffffffffffff1614611c05576040517f08c379a0000000000000000000000000000000000000000000000000000000008152600401611bfc90613c37565b60405180910390fd5b600073ffffffffffffffffffffffffffffffffffffffff168173ffffffffffffffffffffffffffffffffffffffff161415611c75576040517f08c379a0000000000000000000000000000000000000000000000000000000008152600401611c6c9061411f565b60405180910390fd5b611c7e81612450565b50565b60007f01ffc9a7000000000000000000000000000000000000000000000000000000007bffffffffffffffffffffffffffffffffffffffffffffffffffffffff1916827bffffffffffffffffffffffffffffffffffffffffffffffffffffffff1916149050919050565b60008073ffffffffffffffffffffffffffffffffffffffff166002600084815260200190815260200160002060009054906101000a900473ffffffffffffffffffffffffffffffffffffffff1673ffffffffffffffffffffffffffffffffffffffff1614159050919050565b600033905090565b816004600083815260200190815260200160002060006101000a81548173ffffffffffffffffffffffffffffffffffffffff021916908373ffffffffffffffffffffffffffffffffffffffff160217905550808273ffffffffffffffffffffffffffffffffffffffff16611dd283610e3b565b73ffffffffffffffffffffffffffffffffffffffff167f8c5be1e5ebec7d5bd14f71427d1e84f3dd0314c0f7b2291e5b200ac8c7c3b92560405160405180910390a45050565b6000428260030160029054906101000a900463ffffffff1663ffffffff1611159050919050565b60095442611e4d9190613e41565b8160030160026101000a81548163ffffffff021916908363ffffffff16021790555050565b6000611e7d82611ceb565b611ebc576040517f08c379a0000000000000000000000000000000000000000000000000000000008152600401611eb3906141b1565b60405180910390fd5b6000611ec783610e3b565b90508073ffffffffffffffffffffffffffffffffffffffff168473ffffffffffffffffffffffffffffffffffffffff161480611f3657508373ffffffffffffffffffffffffffffffffffffffff16611f1e846107b0565b73ffffffffffffffffffffffffffffffffffffffff16145b80611f475750611f468185611af5565b5b91505092915050565b8273ffffffffffffffffffffffffffffffffffffffff16611f7082610e3b565b73ffffffffffffffffffffffffffffffffffffffff1614611fc6576040517f08c379a0000000000000000000000000000000000000000000000000000000008152600401611fbd90614243565b60405180910390fd5b600073ffffffffffffffffffffffffffffffffffffffff168273ffffffffffffffffffffffffffffffffffffffff161415612036576040517f08c379a000000000000000000000000000000000000000000000000000000000815260040161202d906142d5565b60405180910390fd5b6120418383836128b0565b61204c600082611d5f565b6001600360008573ffffffffffffffffffffffffffffffffffffffff1673ffffffffffffffffffffffffffffffffffffffff168152602001908152602001600020600082825461209c9190613e0d565b925050819055506001600360008473ffffffffffffffffffffffffffffffffffffffff1673ffffffffffffffffffffffffffffffffffffffff16815260200190815260200160002060008282546120f39190613e41565b92505081905550816002600083815260200190815260200160002060006101000a81548173ffffffffffffffffffffffffffffffffffffffff021916908373ffffffffffffffffffffffffffffffffffffffff160217905550808273ffffffffffffffffffffffffffffffffffffffff168473ffffffffffffffffffffffffffffffffffffffff167fddf252ad1be2c89b69c2b068fc378daa952ba7f163c4a11628f55a4df523b3ef60405160405180910390a4505050565b60006121b9600b546128b5565b905060006121d8600c60009054906101000a900460ff1660ff166128b5565b9050600d6040518061010001604052806007548152602001858152602001848152602001600160ff1681526020018360ff168152602001600063ffffffff168152602001600061ffff168152602001600061ffff16815250908060018154018082558091505060019003906000526020600020906004020160009091909190915060008201518160000155602082015181600101908051906020019061227f929190612dd1565b506040820151816002015560608201518160030160006101000a81548160ff021916908360ff16021790555060808201518160030160016101000a81548160ff021916908360ff16021790555060a08201518160030160026101000a81548163ffffffff021916908363ffffffff16021790555060c08201518160030160066101000a81548161ffff021916908361ffff16021790555060e08201518160030160086101000a81548161ffff021916908361ffff1602179055505050612347336007546128fa565b61239a6001600e60003373ffffffffffffffffffffffffffffffffffffffff1673ffffffffffffffffffffffffffffffffffffffff1681526020019081526020016000205461291890919063ffffffff16565b600e60003373ffffffffffffffffffffffffffffffffffffffff1673ffffffffffffffffffffffffffffffffffffffff168152602001908152602001600020819055503373ffffffffffffffffffffffffffffffffffffffff167f29c4292b8838988609f9bd8e9042f7e77158b1f5ebfcae6494b7b709c3d20ffc600754846040516124279291906142f5565b60405180910390a2612445600160075461291890919063ffffffff16565b600781905550505050565b6000600660009054906101000a900473ffffffffffffffffffffffffffffffffffffffff16905081600660006101000a81548173ffffffffffffffffffffffffffffffffffffffff021916908373ffffffffffffffffffffffffffffffffffffffff1602179055508173ffffffffffffffffffffffffffffffffffffffff168173ffffffffffffffffffffffffffffffffffffffff167f8be0079c531659141344cd1fd0a4f28419497f9722a3daafe3b4186f6b6457e060405160405180910390a35050565b8173ffffffffffffffffffffffffffffffffffffffff168373ffffffffffffffffffffffffffffffffffffffff161415612585576040517f08c379a000000000000000000000000000000000000000000000000000000000815260040161257c9061436a565b60405180910390fd5b80600560008573ffffffffffffffffffffffffffffffffffffffff1673ffffffffffffffffffffffffffffffffffffffff16815260200190815260200160002060008473ffffffffffffffffffffffffffffffffffffffff1673ffffffffffffffffffffffffffffffffffffffff16815260200190815260200160002060006101000a81548160ff0219169083151502179055508173ffffffffffffffffffffffffffffffffffffffff168373ffffffffffffffffffffffffffffffffffffffff167f17307eab39ab6107e8899845ad3d59bd9653f200f220920489ca2b5937696c31836040516126769190612f28565b60405180910390a3505050565b61268e848484611f50565b61269a8484848461292e565b6126d9576040517f08c379a00000000000000000000000000000000000000000000000000000000081526004016126d0906143fc565b60405180910390fd5b50505050565b606060405180602001604052806000815250905090565b6060600082141561273e576040518060400160405280600181526020017f30000000000000000000000000000000000000000000000000000000000000008152509050612852565b600082905060005b6000821461277057808061275990613e97565b915050600a82612769919061444b565b9150612746565b60008167ffffffffffffffff81111561278c5761278b61348c565b5b6040519080825280601f01601f1916602001820160405280156127be5781602001600182028036833780820191505090505b5090505b6000851461284b576001826127d79190613e0d565b9150600a856127e6919061447c565b60306127f29190613e41565b60f81b81838151811061280857612807613b63565b5b60200101907effffffffffffffffffffffffffffffffffffffffffffffffffffffffffffff1916908160001a905350600a85612844919061444b565b94506127c2565b8093505050505b919050565b600060016010546128689190613e41565b60108190555081423360105460405160200161288693929190614516565b6040516020818303038152906040528051906020012060001c6128a9919061447c565b9050919050565b505050565b60008042336040516020016128cb929190614553565b6040516020818303038152906040528051906020012060001c905082816128f2919061447c565b915050919050565b612914828260405180602001604052806000815250612ab6565b5050565b600081836129269190613e41565b905092915050565b600061294f8473ffffffffffffffffffffffffffffffffffffffff16612b11565b15612aa9578373ffffffffffffffffffffffffffffffffffffffff1663150b7a02612978611d57565b8786866040518563ffffffff1660e01b815260040161299a94939291906145d4565b6020604051808303816000875af19250505080156129d657506040513d601f19601f820116820180604052508101906129d39190614635565b60015b612a59573d8060008114612a06576040519150601f19603f3d011682016040523d82523d6000602084013e612a0b565b606091505b50600081511415612a51576040517f08c379a0000000000000000000000000000000000000000000000000000000008152600401612a48906143fc565b60405180910390fd5b805181602001fd5b63150b7a0260e01b7bffffffffffffffffffffffffffffffffffffffffffffffffffffffff1916817bffffffffffffffffffffffffffffffffffffffffffffffffffffffff191614915050612aae565b600190505b949350505050565b612ac08383612b24565b612acd600084848461292e565b612b0c576040517f08c379a0000000000000000000000000000000000000000000000000000000008152600401612b03906143fc565b60405180910390fd5b505050565b600080823b905060008111915050919050565b600073ffffffffffffffffffffffffffffffffffffffff168273ffffffffffffffffffffffffffffffffffffffff161415612b94576040517f08c379a0000000000000000000000000000000000000000000000000000000008152600401612b8b906146ae565b60405180910390fd5b612b9d81611ceb565b15612bdd576040517f08c379a0000000000000000000000000000000000000000000000000000000008152600401612bd49061471a565b60405180910390fd5b612be9600083836128b0565b6001600360008473ffffffffffffffffffffffffffffffffffffffff1673ffffffffffffffffffffffffffffffffffffffff1681526020019081526020016000206000828254612c399190613e41565b92505081905550816002600083815260200190815260200160002060006101000a81548173ffffffffffffffffffffffffffffffffffffffff021916908373ffffffffffffffffffffffffffffffffffffffff160217905550808273ffffffffffffffffffffffffffffffffffffffff16600073ffffffffffffffffffffffffffffffffffffffff167fddf252ad1be2c89b69c2b068fc378daa952ba7f163c4a11628f55a4df523b3ef60405160405180910390a45050565b604051806101000160405280600081526020016060815260200160008152602001600060ff168152602001600060ff168152602001600063ffffffff168152602001600061ffff168152602001600061ffff1681525090565b828054612d579061397b565b90600052602060002090601f016020900481019282612d795760008555612dc0565b82601f10612d9257803560ff1916838001178555612dc0565b82800160010185558215612dc0579182015b82811115612dbf578235825591602001919060010190612da4565b5b509050612dcd9190612e57565b5090565b828054612ddd9061397b565b90600052602060002090601f016020900481019282612dff5760008555612e46565b82601f10612e1857805160ff1916838001178555612e46565b82800160010185558215612e46579182015b82811115612e45578251825591602001919060010190612e2a565b5b509050612e539190612e57565b5090565b5b80821115612e70576000816000905550600101612e58565b5090565b6000604051905090565b600080fd5b600080fd5b60007fffffffff0000000000000000000000000000000000000000000000000000000082169050919050565b612ebd81612e88565b8114612ec857600080fd5b50565b600081359050612eda81612eb4565b92915050565b600060208284031215612ef657612ef5612e7e565b5b6000612f0484828501612ecb565b91505092915050565b60008115159050919050565b612f2281612f0d565b82525050565b6000602082019050612f3d6000830184612f19565b92915050565b600081519050919050565b600082825260208201905092915050565b60005b83811015612f7d578082015181840152602081019050612f62565b83811115612f8c576000848401525b50505050565b6000601f19601f8301169050919050565b6000612fae82612f43565b612fb88185612f4e565b9350612fc8818560208601612f5f565b612fd181612f92565b840191505092915050565b60006020820190508181036000830152612ff68184612fa3565b905092915050565b6000819050919050565b61301181612ffe565b811461301c57600080fd5b50565b60008135905061302e81613008565b92915050565b60006020828403121561304a57613049612e7e565b5b60006130588482850161301f565b91505092915050565b600073ffffffffffffffffffffffffffffffffffffffff82169050919050565b600061308c82613061565b9050919050565b61309c81613081565b82525050565b60006020820190506130b76000830184613093565b92915050565b6130c681613081565b81146130d157600080fd5b50565b6000813590506130e3816130bd565b92915050565b60008060408385031215613100576130ff612e7e565b5b600061310e858286016130d4565b925050602061311f8582860161301f565b9150509250929050565b60008060006060848603121561314257613141612e7e565b5b6000613150868287016130d4565b9350506020613161868287016130d4565b92505060406131728682870161301f565b9150509250925092565b600081519050919050565b600082825260208201905092915050565b6000819050602082019050919050565b6131b181612ffe565b82525050565b600082825260208201905092915050565b60006131d382612f43565b6131dd81856131b7565b93506131ed818560208601612f5f565b6131f681612f92565b840191505092915050565b600060ff82169050919050565b61321781613201565b82525050565b600063ffffffff82169050919050565b6132368161321d565b82525050565b600061ffff82169050919050565b6132538161323c565b82525050565b60006101008301600083015161327260008601826131a8565b506020830151848203602086015261328a82826131c8565b915050604083015161329f60408601826131a8565b5060608301516132b2606086018261320e565b5060808301516132c5608086018261320e565b5060a08301516132d860a086018261322d565b5060c08301516132eb60c086018261324a565b5060e08301516132fe60e086018261324a565b508091505092915050565b60006133158383613259565b905092915050565b6000602082019050919050565b60006133358261317c565b61333f8185613187565b93508360208202850161335185613198565b8060005b8581101561338d578484038952815161336e8582613309565b94506133798361331d565b925060208a01995050600181019050613355565b50829750879550505050505092915050565b600060208201905081810360008301526133b9818461332a565b905092915050565b6133ca81612ffe565b82525050565b6133d981613201565b82525050565b6133e88161321d565b82525050565b6133f78161323c565b82525050565b600061010082019050613413600083018b6133c1565b8181036020830152613425818a612fa3565b905061343460408301896133c1565b61344160608301886133d0565b61344e60808301876133d0565b61345b60a08301866133df565b61346860c08301856133ee565b61347560e08301846133ee565b9998505050505050505050565b600080fd5b600080fd5b7f4e487b7100000000000000000000000000000000000000000000000000000000600052604160045260246000fd5b6134c482612f92565b810181811067ffffffffffffffff821117156134e3576134e261348c565b5b80604052505050565b60006134f6612e74565b905061350282826134bb565b919050565b600067ffffffffffffffff8211156135225761352161348c565b5b61352b82612f92565b9050602081019050919050565b82818337600083830152505050565b600061355a61355584613507565b6134ec565b90508281526020810184848401111561357657613575613487565b5b613581848285613538565b509392505050565b600082601f83011261359e5761359d613482565b5b81356135ae848260208601613547565b91505092915050565b6000602082840312156135cd576135cc612e7e565b5b600082013567ffffffffffffffff8111156135eb576135ea612e83565b5b6135f784828501613589565b91505092915050565b60006020828403121561361657613615612e7e565b5b6000613624848285016130d4565b91505092915050565b600060208201905061364260008301846133c1565b92915050565b61365181612f0d565b811461365c57600080fd5b50565b60008135905061366e81613648565b92915050565b6000806040838503121561368b5761368a612e7e565b5b6000613699858286016130d4565b92505060206136aa8582860161365f565b9150509250929050565b600067ffffffffffffffff8211156136cf576136ce61348c565b5b6136d882612f92565b9050602081019050919050565b60006136f86136f3846136b4565b6134ec565b90508281526020810184848401111561371457613713613487565b5b61371f848285613538565b509392505050565b600082601f83011261373c5761373b613482565b5b813561374c8482602086016136e5565b91505092915050565b6000806000806080858703121561376f5761376e612e7e565b5b600061377d878288016130d4565b945050602061378e878288016130d4565b935050604061379f8782880161301f565b925050606085013567ffffffffffffffff8111156137c0576137bf612e83565b5b6137cc87828801613727565b91505092959194509250565b600080fd5b600080fd5b60008083601f8401126137f8576137f7613482565b5b8235905067ffffffffffffffff811115613815576138146137d8565b5b602083019150836001820283011115613831576138306137dd565b5b9250929050565b60008060006040848603121561385157613850612e7e565b5b600061385f8682870161301f565b935050602084013567ffffffffffffffff8111156138805761387f612e83565b5b61388c868287016137e2565b92509250509250925092565b600080604083850312156138af576138ae612e7e565b5b60006138bd8582860161301f565b92505060206138ce8582860161301f565b9150509250929050565b6000819050919050565b6138eb816138d8565b82525050565b600060208201905061390660008301846138e2565b92915050565b6000806040838503121561392357613922612e7e565b5b6000613931858286016130d4565b9250506020613942858286016130d4565b9150509250929050565b7f4e487b7100000000000000000000000000000000000000000000000000000000600052602260045260246000fd5b6000600282049050600182168061399357607f821691505b602082108114156139a7576139a661394c565b5b50919050565b7f4552433732313a20617070726f76656420717565727920666f72206e6f6e657860008201527f697374656e7420746f6b656e0000000000000000000000000000000000000000602082015250565b6000613a09602c83612f4e565b9150613a14826139ad565b604082019050919050565b60006020820190508181036000830152613a38816139fc565b9050919050565b7f4552433732313a20617070726f76616c20746f2063757272656e74206f776e6560008201527f7200000000000000000000000000000000000000000000000000000000000000602082015250565b6000613a9b602183612f4e565b9150613aa682613a3f565b604082019050919050565b60006020820190508181036000830152613aca81613a8e565b9050919050565b7f4552433732313a20617070726f76652063616c6c6572206973206e6f74206f7760008201527f6e6572206e6f7220617070726f76656420666f7220616c6c0000000000000000602082015250565b6000613b2d603883612f4e565b9150613b3882613ad1565b604082019050919050565b60006020820190508181036000830152613b5c81613b20565b9050919050565b7f4e487b7100000000000000000000000000000000000000000000000000000000600052603260045260246000fd5b7f4e487b7100000000000000000000000000000000000000000000000000000000600052601160045260246000fd5b6000613bcc82613201565b915060ff821415613be057613bdf613b92565b5b600182019050919050565b7f4f776e61626c653a2063616c6c6572206973206e6f7420746865206f776e6572600082015250565b6000613c21602083612f4e565b9150613c2c82613beb565b602082019050919050565b60006020820190508181036000830152613c5081613c14565b9050919050565b7f4552433732313a207472616e736665722063616c6c6572206973206e6f74206f60008201527f776e6572206e6f7220617070726f766564000000000000000000000000000000602082015250565b6000613cb3603183612f4e565b9150613cbe82613c57565b604082019050919050565b60006020820190508181036000830152613ce281613ca6565b9050919050565b7f4552433732313a206f776e657220717565727920666f72206e6f6e657869737460008201527f656e7420746f6b656e0000000000000000000000000000000000000000000000602082015250565b6000613d45602983612f4e565b9150613d5082613ce9565b604082019050919050565b60006020820190508181036000830152613d7481613d38565b9050919050565b7f4552433732313a2062616c616e636520717565727920666f7220746865207a6560008201527f726f206164647265737300000000000000000000000000000000000000000000602082015250565b6000613dd7602a83612f4e565b9150613de282613d7b565b604082019050919050565b60006020820190508181036000830152613e0681613dca565b9050919050565b6000613e1882612ffe565b9150613e2383612ffe565b925082821015613e3657613e35613b92565b5b828203905092915050565b6000613e4c82612ffe565b9150613e5783612ffe565b9250827fffffffffffffffffffffffffffffffffffffffffffffffffffffffffffffffff03821115613e8c57613e8b613b92565b5b828201905092915050565b6000613ea282612ffe565b91507fffffffffffffffffffffffffffffffffffffffffffffffffffffffffffffffff821415613ed557613ed4613b92565b5b600182019050919050565b7f4552433732314d657461646174613a2055524920717565727920666f72206e6f60008201527f6e6578697374656e7420746f6b656e0000000000000000000000000000000000602082015250565b6000613f3c602f83612f4e565b9150613f4782613ee0565b604082019050919050565b60006020820190508181036000830152613f6b81613f2f565b9050919050565b600081905092915050565b6000613f8882612f43565b613f928185613f72565b9350613fa2818560208601612f5f565b80840191505092915050565b6000613fba8285613f7d565b9150613fc68284613f7d565b91508190509392505050565b7f4f6e6c79207468652073616d65206c6576656c2063616e206669676874000000600082015250565b6000614008601d83612f4e565b915061401382613fd2565b602082019050919050565b6000602082019050818103600083015261403781613ffb565b9050919050565b60006140498261323c565b91506140548361323c565b92508261ffff0382111561406b5761406a613b92565b5b828201905092915050565b600061408182613201565b915061408c83613201565b92508260ff038211156140a2576140a1613b92565b5b828201905092915050565b7f4f776e61626c653a206e6577206f776e657220697320746865207a65726f206160008201527f6464726573730000000000000000000000000000000000000000000000000000602082015250565b6000614109602683612f4e565b9150614114826140ad565b604082019050919050565b60006020820190508181036000830152614138816140fc565b9050919050565b7f4552433732313a206f70657261746f7220717565727920666f72206e6f6e657860008201527f697374656e7420746f6b656e0000000000000000000000000000000000000000602082015250565b600061419b602c83612f4e565b91506141a68261413f565b604082019050919050565b600060208201905081810360008301526141ca8161418e565b9050919050565b7f4552433732313a207472616e73666572206f6620746f6b656e2074686174206960008201527f73206e6f74206f776e0000000000000000000000000000000000000000000000602082015250565b600061422d602983612f4e565b9150614238826141d1565b604082019050919050565b6000602082019050818103600083015261425c81614220565b9050919050565b7f4552433732313a207472616e7366657220746f20746865207a65726f2061646460008201527f7265737300000000000000000000000000000000000000000000000000000000602082015250565b60006142bf602483612f4e565b91506142ca82614263565b604082019050919050565b600060208201905081810360008301526142ee816142b2565b9050919050565b600060408201905061430a60008301856133c1565b61431760208301846133c1565b9392505050565b7f4552433732313a20617070726f766520746f2063616c6c657200000000000000600082015250565b6000614354601983612f4e565b915061435f8261431e565b602082019050919050565b6000602082019050818103600083015261438381614347565b9050919050565b7f4552433732313a207472616e7366657220746f206e6f6e20455243373231526560008201527f63656976657220696d706c656d656e7465720000000000000000000000000000602082015250565b60006143e6603283612f4e565b91506143f18261438a565b604082019050919050565b60006020820190508181036000830152614415816143d9565b9050919050565b7f4e487b7100000000000000000000000000000000000000000000000000000000600052601260045260246000fd5b600061445682612ffe565b915061446183612ffe565b9250826144715761447061441c565b5b828204905092915050565b600061448782612ffe565b915061449283612ffe565b9250826144a2576144a161441c565b5b828206905092915050565b6000819050919050565b6144c86144c382612ffe565b6144ad565b82525050565b60008160601b9050919050565b60006144e6826144ce565b9050919050565b60006144f8826144db565b9050919050565b61451061450b82613081565b6144ed565b82525050565b600061452282866144b7565b60208201915061453282856144ff565b60148201915061454282846144b7565b602082019150819050949350505050565b600061455f82856144b7565b60208201915061456f82846144ff565b6014820191508190509392505050565b600081519050919050565b600082825260208201905092915050565b60006145a68261457f565b6145b0818561458a565b93506145c0818560208601612f5f565b6145c981612f92565b840191505092915050565b60006080820190506145e96000830187613093565b6145f66020830186613093565b61460360408301856133c1565b8181036060830152614615818461459b565b905095945050505050565b60008151905061462f81612eb4565b92915050565b60006020828403121561464b5761464a612e7e565b5b600061465984828501614620565b91505092915050565b7f4552433732313a206d696e7420746f20746865207a65726f2061646472657373600082015250565b6000614698602083612f4e565b91506146a382614662565b602082019050919050565b600060208201905081810360008301526146c78161468b565b9050919050565b7f4552433732313a20746f6b656e20616c7265616479206d696e74656400000000600082015250565b6000614704601c83612f4e565b915061470f826146ce565b602082019050919050565b60006020820190508181036000830152614733816146f7565b905091905056fea2646970667358221220b243cba03dec02fa63ad24dc123399fb89f912be586ce277d1baeef416bfe10064736f6c634300080b0033",
  "immutableReferences": {},
  "source": "// SPDX-License-Identifier: MIT\r\n\r\npragma solidity >=0.4.22 <0.9.0;\r\nimport \"./liphelper.sol\";\r\n\r\ncontract LipAttack is LipHelper {\r\n  uint256 randNonce = 0;\r\n  uint256 attackVictoryProbability = 70;\r\n\r\n  function randMod(uint _modulus) internal returns(uint256) {\r\n    randNonce = randNonce + 1;\r\n    return uint256(keccak256(abi.encodePacked(block.timestamp, msg.sender, randNonce))) % _modulus;\r\n  }\r\n\r\n  function attack(uint256 _lipId, uint256 _targetId) external onlyOwnerOf(_lipId) returns(int) {\r\n    Lip storage myLip = lips[_lipId];\r\n    Lip storage enemyLip = lips[_targetId];\r\n    require(_isReady(myLip));\r\n    require(myLip.level == enemyLip.level, \"Only the same level can fight\");\r\n    uint256 rand = randMod(100);\r\n    int isWin = -1;\r\n    // if rand < 70 => you win else enemy win\r\n    if (rand <= attackVictoryProbability) {\r\n      myLip.winCount = myLip.winCount+1;\r\n      myLip.level = myLip.level + 1;\r\n      enemyLip.lossCount = enemyLip.lossCount + 1;\r\n      isWin = 1;\r\n    } else {\r\n      myLip.lossCount = myLip.lossCount+1;\r\n      enemyLip.winCount = enemyLip.winCount + 1;\r\n    }\r\n    _triggerCooldown(myLip);\r\n    return isWin;\r\n  }\r\n}",
  "sourcePath": "C:\\Github\\nft_game\\src\\contracts\\lipattack.sol",
  "compiler": {
    "name": "solc",
    "version": "0.8.11+commit.d7f03943.Emscripten.clang"
  },
  "schemaVersion": "3.4.4",
  "updatedAt": "2022-02-20T05:50:58.528Z",
  "networkType": "ethereum",
  "devdoc": {
    "kind": "dev",
    "methods": {
      "approve(address,uint256)": {
        "details": "See {IERC721-approve}."
      },
      "balanceOf(address)": {
        "details": "See {IERC721-balanceOf}."
      },
      "getApproved(uint256)": {
        "details": "See {IERC721-getApproved}."
      },
      "isApprovedForAll(address,address)": {
        "details": "See {IERC721-isApprovedForAll}."
      },
      "name()": {
        "details": "See {IERC721Metadata-name}."
      },
      "owner()": {
        "details": "Returns the address of the current owner."
      },
      "ownerOf(uint256)": {
        "details": "See {IERC721-ownerOf}."
      },
      "renounceOwnership()": {
        "details": "Leaves the contract without owner. It will not be possible to call `onlyOwner` functions anymore. Can only be called by the current owner. NOTE: Renouncing ownership will leave the contract without an owner, thereby removing any functionality that is only available to the owner."
      },
      "safeTransferFrom(address,address,uint256)": {
        "details": "See {IERC721-safeTransferFrom}."
      },
      "safeTransferFrom(address,address,uint256,bytes)": {
        "details": "See {IERC721-safeTransferFrom}."
      },
      "setApprovalForAll(address,bool)": {
        "details": "See {IERC721-setApprovalForAll}."
      },
      "supportsInterface(bytes4)": {
        "details": "See {IERC165-supportsInterface}."
      },
      "symbol()": {
        "details": "See {IERC721Metadata-symbol}."
      },
      "tokenURI(uint256)": {
        "details": "See {IERC721Metadata-tokenURI}."
      },
      "transferFrom(address,address,uint256)": {
        "details": "See {IERC721-transferFrom}."
      },
      "transferOwnership(address)": {
        "details": "Transfers ownership of the contract to a new account (`newOwner`). Can only be called by the current owner."
      }
    },
    "version": 1
  },
  "userdoc": {
    "kind": "user",
    "methods": {},
    "version": 1
  }
}