{
  "contractName": "LipAttack",
  "abi": [
    {
      "anonymous": false,
      "inputs": [
        {
          "indexed": true,
          "internalType": "address",
          "name": "owner",
          "type": "address"
        },
        {
          "indexed": true,
          "internalType": "address",
          "name": "approved",
          "type": "address"
        },
        {
          "indexed": true,
          "internalType": "uint256",
          "name": "tokenId",
          "type": "uint256"
        }
      ],
      "name": "Approval",
      "type": "event"
    },
    {
      "anonymous": false,
      "inputs": [
        {
          "indexed": true,
          "internalType": "address",
          "name": "owner",
          "type": "address"
        },
        {
          "indexed": true,
          "internalType": "address",
          "name": "operator",
          "type": "address"
        },
        {
          "indexed": false,
          "internalType": "bool",
          "name": "approved",
          "type": "bool"
        }
      ],
      "name": "ApprovalForAll",
      "type": "event"
    },
    {
      "anonymous": false,
      "inputs": [
        {
          "indexed": true,
          "internalType": "address",
          "name": "owner",
          "type": "address"
        },
        {
          "indexed": false,
          "internalType": "uint256",
          "name": "id",
          "type": "uint256"
        },
        {
          "indexed": false,
          "internalType": "uint256",
          "name": "dna",
          "type": "uint256"
        }
      ],
      "name": "NewLipCreated",
      "type": "event"
    },
    {
      "anonymous": false,
      "inputs": [
        {
          "indexed": true,
          "internalType": "address",
          "name": "previousOwner",
          "type": "address"
        },
        {
          "indexed": true,
          "internalType": "address",
          "name": "newOwner",
          "type": "address"
        }
      ],
      "name": "OwnershipTransferred",
      "type": "event"
    },
    {
      "anonymous": false,
      "inputs": [
        {
          "indexed": true,
          "internalType": "address",
          "name": "from",
          "type": "address"
        },
        {
          "indexed": true,
          "internalType": "address",
          "name": "to",
          "type": "address"
        },
        {
          "indexed": true,
          "internalType": "uint256",
          "name": "tokenId",
          "type": "uint256"
        }
      ],
      "name": "Transfer",
      "type": "event"
    },
    {
      "inputs": [
        {
          "internalType": "address",
          "name": "to",
          "type": "address"
        },
        {
          "internalType": "uint256",
          "name": "tokenId",
          "type": "uint256"
        }
      ],
      "name": "approve",
      "outputs": [],
      "stateMutability": "nonpayable",
      "type": "function"
    },
    {
      "inputs": [
        {
          "internalType": "address",
          "name": "owner",
          "type": "address"
        }
      ],
      "name": "balanceOf",
      "outputs": [
        {
          "internalType": "uint256",
          "name": "",
          "type": "uint256"
        }
      ],
      "stateMutability": "view",
      "type": "function",
      "constant": true
    },
    {
      "inputs": [
        {
          "internalType": "uint256",
          "name": "_lipId",
          "type": "uint256"
        },
        {
          "internalType": "string",
          "name": "_newName",
          "type": "string"
        }
      ],
      "name": "changeName",
      "outputs": [],
      "stateMutability": "nonpayable",
      "type": "function"
    },
    {
      "inputs": [
        {
          "internalType": "string",
          "name": "_name",
          "type": "string"
        }
      ],
      "name": "createRandomLip",
      "outputs": [],
      "stateMutability": "payable",
      "type": "function",
      "payable": true
    },
    {
      "inputs": [],
      "name": "getAllLips",
      "outputs": [
        {
          "components": [
            {
              "internalType": "uint256",
              "name": "id",
              "type": "uint256"
            },
            {
              "internalType": "string",
              "name": "name",
              "type": "string"
            },
            {
              "internalType": "uint256",
              "name": "dna",
              "type": "uint256"
            },
            {
              "internalType": "uint8",
              "name": "level",
              "type": "uint8"
            },
            {
              "internalType": "uint8",
              "name": "rarity",
              "type": "uint8"
            },
            {
              "internalType": "uint32",
              "name": "readyTime",
              "type": "uint32"
            },
            {
              "internalType": "uint16",
              "name": "winCount",
              "type": "uint16"
            },
            {
              "internalType": "uint16",
              "name": "lossCount",
              "type": "uint16"
            }
          ],
          "internalType": "struct LipFactory.Lip[]",
          "name": "",
          "type": "tuple[]"
        }
      ],
      "stateMutability": "view",
      "type": "function",
      "constant": true
    },
    {
      "inputs": [
        {
          "internalType": "uint256",
          "name": "tokenId",
          "type": "uint256"
        }
      ],
      "name": "getApproved",
      "outputs": [
        {
          "internalType": "address",
          "name": "",
          "type": "address"
        }
      ],
      "stateMutability": "view",
      "type": "function",
      "constant": true
    },
    {
      "inputs": [
        {
          "internalType": "address",
          "name": "_owner",
          "type": "address"
        }
      ],
      "name": "getEnemy",
      "outputs": [
        {
          "components": [
            {
              "internalType": "uint256",
              "name": "id",
              "type": "uint256"
            },
            {
              "internalType": "string",
              "name": "name",
              "type": "string"
            },
            {
              "internalType": "uint256",
              "name": "dna",
              "type": "uint256"
            },
            {
              "internalType": "uint8",
              "name": "level",
              "type": "uint8"
            },
            {
              "internalType": "uint8",
              "name": "rarity",
              "type": "uint8"
            },
            {
              "internalType": "uint32",
              "name": "readyTime",
              "type": "uint32"
            },
            {
              "internalType": "uint16",
              "name": "winCount",
              "type": "uint16"
            },
            {
              "internalType": "uint16",
              "name": "lossCount",
              "type": "uint16"
            }
          ],
          "internalType": "struct LipFactory.Lip[]",
          "name": "",
          "type": "tuple[]"
        }
      ],
      "stateMutability": "view",
      "type": "function",
      "constant": true
    },
    {
      "inputs": [
        {
          "internalType": "address",
          "name": "_owner",
          "type": "address"
        }
      ],
      "name": "getOwnerLips",
      "outputs": [
        {
          "components": [
            {
              "internalType": "uint256",
              "name": "id",
              "type": "uint256"
            },
            {
              "internalType": "string",
              "name": "name",
              "type": "string"
            },
            {
              "internalType": "uint256",
              "name": "dna",
              "type": "uint256"
            },
            {
              "internalType": "uint8",
              "name": "level",
              "type": "uint8"
            },
            {
              "internalType": "uint8",
              "name": "rarity",
              "type": "uint8"
            },
            {
              "internalType": "uint32",
              "name": "readyTime",
              "type": "uint32"
            },
            {
              "internalType": "uint16",
              "name": "winCount",
              "type": "uint16"
            },
            {
              "internalType": "uint16",
              "name": "lossCount",
              "type": "uint16"
            }
          ],
          "internalType": "struct LipFactory.Lip[]",
          "name": "",
          "type": "tuple[]"
        }
      ],
      "stateMutability": "view",
      "type": "function",
      "constant": true
    },
    {
      "inputs": [
        {
          "internalType": "address",
          "name": "owner",
          "type": "address"
        },
        {
          "internalType": "address",
          "name": "operator",
          "type": "address"
        }
      ],
      "name": "isApprovedForAll",
      "outputs": [
        {
          "internalType": "bool",
          "name": "",
          "type": "bool"
        }
      ],
      "stateMutability": "view",
      "type": "function",
      "constant": true
    },
    {
      "inputs": [
        {
          "internalType": "uint256",
          "name": "_lipId",
          "type": "uint256"
        }
      ],
      "name": "levelUp",
      "outputs": [],
      "stateMutability": "payable",
      "type": "function",
      "payable": true
    },
    {
      "inputs": [
        {
          "internalType": "uint256",
          "name": "",
          "type": "uint256"
        }
      ],
      "name": "lips",
      "outputs": [
        {
          "internalType": "uint256",
          "name": "id",
          "type": "uint256"
        },
        {
          "internalType": "string",
          "name": "name",
          "type": "string"
        },
        {
          "internalType": "uint256",
          "name": "dna",
          "type": "uint256"
        },
        {
          "internalType": "uint8",
          "name": "level",
          "type": "uint8"
        },
        {
          "internalType": "uint8",
          "name": "rarity",
          "type": "uint8"
        },
        {
          "internalType": "uint32",
          "name": "readyTime",
          "type": "uint32"
        },
        {
          "internalType": "uint16",
          "name": "winCount",
          "type": "uint16"
        },
        {
          "internalType": "uint16",
          "name": "lossCount",
          "type": "uint16"
        }
      ],
      "stateMutability": "view",
      "type": "function",
      "constant": true
    },
    {
      "inputs": [],
      "name": "name",
      "outputs": [
        {
          "internalType": "string",
          "name": "",
          "type": "string"
        }
      ],
      "stateMutability": "view",
      "type": "function",
      "constant": true
    },
    {
      "inputs": [],
      "name": "owner",
      "outputs": [
        {
          "internalType": "address",
          "name": "",
          "type": "address"
        }
      ],
      "stateMutability": "view",
      "type": "function",
      "constant": true
    },
    {
      "inputs": [
        {
          "internalType": "uint256",
          "name": "tokenId",
          "type": "uint256"
        }
      ],
      "name": "ownerOf",
      "outputs": [
        {
          "internalType": "address",
          "name": "",
          "type": "address"
        }
      ],
      "stateMutability": "view",
      "type": "function",
      "constant": true
    },
    {
      "inputs": [],
      "name": "renounceOwnership",
      "outputs": [],
      "stateMutability": "nonpayable",
      "type": "function"
    },
    {
      "inputs": [
        {
          "internalType": "address",
          "name": "from",
          "type": "address"
        },
        {
          "internalType": "address",
          "name": "to",
          "type": "address"
        },
        {
          "internalType": "uint256",
          "name": "tokenId",
          "type": "uint256"
        }
      ],
      "name": "safeTransferFrom",
      "outputs": [],
      "stateMutability": "nonpayable",
      "type": "function"
    },
    {
      "inputs": [
        {
          "internalType": "address",
          "name": "from",
          "type": "address"
        },
        {
          "internalType": "address",
          "name": "to",
          "type": "address"
        },
        {
          "internalType": "uint256",
          "name": "tokenId",
          "type": "uint256"
        },
        {
          "internalType": "bytes",
          "name": "_data",
          "type": "bytes"
        }
      ],
      "name": "safeTransferFrom",
      "outputs": [],
      "stateMutability": "nonpayable",
      "type": "function"
    },
    {
      "inputs": [
        {
          "internalType": "address",
          "name": "operator",
          "type": "address"
        },
        {
          "internalType": "bool",
          "name": "approved",
          "type": "bool"
        }
      ],
      "name": "setApprovalForAll",
      "outputs": [],
      "stateMutability": "nonpayable",
      "type": "function"
    },
    {
      "inputs": [
        {
          "internalType": "uint256",
          "name": "_fee",
          "type": "uint256"
        }
      ],
      "name": "setLevelUpFee",
      "outputs": [],
      "stateMutability": "nonpayable",
      "type": "function"
    },
    {
      "inputs": [
        {
          "components": [
            {
              "internalType": "uint256",
              "name": "id",
              "type": "uint256"
            },
            {
              "internalType": "string",
              "name": "name",
              "type": "string"
            },
            {
              "internalType": "uint256",
              "name": "dna",
              "type": "uint256"
            },
            {
              "internalType": "uint8",
              "name": "level",
              "type": "uint8"
            },
            {
              "internalType": "uint8",
              "name": "rarity",
              "type": "uint8"
            },
            {
              "internalType": "uint32",
              "name": "readyTime",
              "type": "uint32"
            },
            {
              "internalType": "uint16",
              "name": "winCount",
              "type": "uint16"
            },
            {
              "internalType": "uint16",
              "name": "lossCount",
              "type": "uint16"
            }
          ],
          "internalType": "struct LipFactory.Lip[]",
          "name": "data",
          "type": "tuple[]"
        }
      ],
      "name": "sort",
      "outputs": [
        {
          "components": [
            {
              "internalType": "uint256",
              "name": "id",
              "type": "uint256"
            },
            {
              "internalType": "string",
              "name": "name",
              "type": "string"
            },
            {
              "internalType": "uint256",
              "name": "dna",
              "type": "uint256"
            },
            {
              "internalType": "uint8",
              "name": "level",
              "type": "uint8"
            },
            {
              "internalType": "uint8",
              "name": "rarity",
              "type": "uint8"
            },
            {
              "internalType": "uint32",
              "name": "readyTime",
              "type": "uint32"
            },
            {
              "internalType": "uint16",
              "name": "winCount",
              "type": "uint16"
            },
            {
              "internalType": "uint16",
              "name": "lossCount",
              "type": "uint16"
            }
          ],
          "internalType": "struct LipFactory.Lip[]",
          "name": "",
          "type": "tuple[]"
        }
      ],
      "stateMutability": "pure",
      "type": "function",
      "constant": true
    },
    {
      "inputs": [
        {
          "internalType": "bytes4",
          "name": "interfaceId",
          "type": "bytes4"
        }
      ],
      "name": "supportsInterface",
      "outputs": [
        {
          "internalType": "bool",
          "name": "",
          "type": "bool"
        }
      ],
      "stateMutability": "view",
      "type": "function",
      "constant": true
    },
    {
      "inputs": [],
      "name": "symbol",
      "outputs": [
        {
          "internalType": "string",
          "name": "",
          "type": "string"
        }
      ],
      "stateMutability": "view",
      "type": "function",
      "constant": true
    },
    {
      "inputs": [
        {
          "internalType": "uint256",
          "name": "tokenId",
          "type": "uint256"
        }
      ],
      "name": "tokenURI",
      "outputs": [
        {
          "internalType": "string",
          "name": "",
          "type": "string"
        }
      ],
      "stateMutability": "view",
      "type": "function",
      "constant": true
    },
    {
      "inputs": [
        {
          "internalType": "address",
          "name": "from",
          "type": "address"
        },
        {
          "internalType": "address",
          "name": "to",
          "type": "address"
        },
        {
          "internalType": "uint256",
          "name": "tokenId",
          "type": "uint256"
        }
      ],
      "name": "transferFrom",
      "outputs": [],
      "stateMutability": "nonpayable",
      "type": "function"
    },
    {
      "inputs": [
        {
          "internalType": "address",
          "name": "newOwner",
          "type": "address"
        }
      ],
      "name": "transferOwnership",
      "outputs": [],
      "stateMutability": "nonpayable",
      "type": "function"
    },
    {
      "inputs": [],
      "name": "withDraw",
      "outputs": [],
      "stateMutability": "payable",
      "type": "function",
      "payable": true
    },
    {
      "inputs": [
        {
          "internalType": "uint256",
          "name": "_lipId",
          "type": "uint256"
        },
        {
          "internalType": "uint256",
          "name": "_targetId",
          "type": "uint256"
        }
      ],
      "name": "attack",
      "outputs": [
        {
          "internalType": "int256",
          "name": "",
          "type": "int256"
        }
      ],
      "stateMutability": "nonpayable",
      "type": "function"
    }
  ],
  "bytecode": "0x6080604052662386f26fc10000600855620151806009556010600a55600a54600a6200002c91906200043f565b600b556064600c60006101000a81548160ff021916908360ff160217905550662386f26fc10000600f55600060105560466011553480156200006d57600080fd5b506040518060400160405280600981526020017f4c697020546f6b656e00000000000000000000000000000000000000000000008152506040518060400160405280600381526020017f4c505400000000000000000000000000000000000000000000000000000000008152508160009080519060200190620000f292919062000202565b5080600190805190602001906200010b92919062000202565b5050506200012e620001226200013460201b60201c565b6200013c60201b60201c565b620004f5565b600033905090565b6000600660009054906101000a900473ffffffffffffffffffffffffffffffffffffffff16905081600660006101000a81548173ffffffffffffffffffffffffffffffffffffffff021916908373ffffffffffffffffffffffffffffffffffffffff1602179055508173ffffffffffffffffffffffffffffffffffffffff168173ffffffffffffffffffffffffffffffffffffffff167f8be0079c531659141344cd1fd0a4f28419497f9722a3daafe3b4186f6b6457e060405160405180910390a35050565b8280546200021090620004bf565b90600052602060002090601f01602090048101928262000234576000855562000280565b82601f106200024f57805160ff191683800117855562000280565b8280016001018555821562000280579182015b828111156200027f57825182559160200191906001019062000262565b5b5090506200028f919062000293565b5090565b5b80821115620002ae57600081600090555060010162000294565b5090565b7f4e487b7100000000000000000000000000000000000000000000000000000000600052601160045260246000fd5b60008160011c9050919050565b6000808291508390505b60018511156200034057808604811115620003185762000317620002b2565b5b6001851615620003285780820291505b80810290506200033885620002e1565b9450620002f8565b94509492505050565b6000826200035b57600190506200042e565b816200036b57600090506200042e565b81600181146200038457600281146200038f57620003c5565b60019150506200042e565b60ff841115620003a457620003a3620002b2565b5b8360020a915084821115620003be57620003bd620002b2565b5b506200042e565b5060208310610133831016604e8410600b8410161715620003ff5782820a905083811115620003f957620003f8620002b2565b5b6200042e565b6200040e8484846001620002ee565b92509050818404811115620004285762000427620002b2565b5b81810290505b9392505050565b6000819050919050565b60006200044c8262000435565b9150620004598362000435565b9250620004887fffffffffffffffffffffffffffffffffffffffffffffffffffffffffffffffff848462000349565b905092915050565b7f4e487b7100000000000000000000000000000000000000000000000000000000600052602260045260246000fd5b60006002820490506001821680620004d857607f821691505b60208210811415620004ef57620004ee62000490565b5b50919050565b614cf080620005056000396000f3fe60806040526004361061019c5760003560e01c8063715018a6116100ec578063b88d4fde1161008a578063ccf670f811610064578063ccf670f8146105c8578063e1fa7638146105f1578063e985e9c51461062e578063f2fde38b1461066b5761019c565b8063b88d4fde14610539578063c39cbef114610562578063c87b56dd1461058b5761019c565b80638da5cb5b116100c65780638da5cb5b1461047d578063906435f1146104a857806395d89b41146104e5578063a22cb465146105105761019c565b8063715018a6146103ec57806376c2edc9146104035780638c0b9c54146104405761019c565b806323b872dd116101595780635ec163db116101335780635ec163db146103125780636352211e14610356578063698d640c1461039357806370a08231146103af5761019c565b806323b872dd146102955780632c44cfc3146102be57806342842e0e146102e95761019c565b806301ffc9a7146101a157806306fdde03146101de578063081812fc14610209578063095ea7b3146102465780630ce90ec21461026f5780630fdb1c101461028b575b600080fd5b3480156101ad57600080fd5b506101c860048036038101906101c39190613163565b610694565b6040516101d591906131ab565b60405180910390f35b3480156101ea57600080fd5b506101f3610776565b604051610200919061325f565b60405180910390f35b34801561021557600080fd5b50610230600480360381019061022b91906132b7565b610808565b60405161023d9190613325565b60405180910390f35b34801561025257600080fd5b5061026d6004803603810190610268919061336c565b61088d565b005b610289600480360381019061028491906132b7565b6109a5565b005b610293610a75565b005b3480156102a157600080fd5b506102bc60048036038101906102b791906133ac565b610b47565b005b3480156102ca57600080fd5b506102d3610ba7565b6040516102e09190613622565b60405180910390f35b3480156102f557600080fd5b50610310600480360381019061030b91906133ac565b610d5e565b005b34801561031e57600080fd5b50610339600480360381019061033491906132b7565b610d7e565b60405161034d989796959493929190613680565b60405180910390f35b34801561036257600080fd5b5061037d600480360381019061037891906132b7565b610ea4565b60405161038a9190613325565b60405180910390f35b6103ad60048036038101906103a8919061383a565b610f56565b005b3480156103bb57600080fd5b506103d660048036038101906103d19190613883565b610f71565b6040516103e391906138b0565b60405180910390f35b3480156103f857600080fd5b50610401611029565b005b34801561040f57600080fd5b5061042a60048036038101906104259190613883565b6110b1565b6040516104379190613622565b60405180910390f35b34801561044c57600080fd5b5061046760048036038101906104629190613883565b61133a565b6040516104749190613622565b60405180910390f35b34801561048957600080fd5b506104926115a9565b60405161049f9190613325565b60405180910390f35b3480156104b457600080fd5b506104cf60048036038101906104ca9190613b25565b6115d3565b6040516104dc9190613622565b60405180910390f35b3480156104f157600080fd5b506104fa6115f6565b604051610507919061325f565b60405180910390f35b34801561051c57600080fd5b5061053760048036038101906105329190613b9a565b611688565b005b34801561054557600080fd5b50610560600480360381019061055b9190613c7b565b61169e565b005b34801561056e57600080fd5b5061058960048036038101906105849190613d59565b611700565b005b34801561059757600080fd5b506105b260048036038101906105ad91906132b7565b6117c9565b6040516105bf919061325f565b60405180910390f35b3480156105d457600080fd5b506105ef60048036038101906105ea91906132b7565b611870565b005b3480156105fd57600080fd5b5061061860048036038101906106139190613db9565b6118f6565b6040516106259190613e12565b60405180910390f35b34801561063a57600080fd5b5061065560048036038101906106509190613e2d565b611bc2565b60405161066291906131ab565b60405180910390f35b34801561067757600080fd5b50610692600480360381019061068d9190613883565b611c56565b005b60007f80ac58cd000000000000000000000000000000000000000000000000000000007bffffffffffffffffffffffffffffffffffffffffffffffffffffffff1916827bffffffffffffffffffffffffffffffffffffffffffffffffffffffff1916148061075f57507f5b5e139f000000000000000000000000000000000000000000000000000000007bffffffffffffffffffffffffffffffffffffffffffffffffffffffff1916827bffffffffffffffffffffffffffffffffffffffffffffffffffffffff1916145b8061076f575061076e82611d4e565b5b9050919050565b60606000805461078590613e9c565b80601f01602080910402602001604051908101604052809291908181526020018280546107b190613e9c565b80156107fe5780601f106107d3576101008083540402835291602001916107fe565b820191906000526020600020905b8154815290600101906020018083116107e157829003601f168201915b5050505050905090565b600061081382611db8565b610852576040517f08c379a000000000000000000000000000000000000000000000000000000000815260040161084990613f40565b60405180910390fd5b6004600083815260200190815260200160002060009054906101000a900473ffffffffffffffffffffffffffffffffffffffff169050919050565b600061089882610ea4565b90508073ffffffffffffffffffffffffffffffffffffffff168373ffffffffffffffffffffffffffffffffffffffff161415610909576040517f08c379a000000000000000000000000000000000000000000000000000000000815260040161090090613fd2565b60405180910390fd5b8073ffffffffffffffffffffffffffffffffffffffff16610928611e24565b73ffffffffffffffffffffffffffffffffffffffff161480610957575061095681610951611e24565b611bc2565b5b610996576040517f08c379a000000000000000000000000000000000000000000000000000000000815260040161098d90614064565b60405180910390fd5b6109a08383611e2c565b505050565b806109af81610ea4565b73ffffffffffffffffffffffffffffffffffffffff163373ffffffffffffffffffffffffffffffffffffffff16146109e657600080fd5b6000600d83815481106109fc576109fb614084565b5b90600052602060002090600402019050610a1581611ee5565b610a1e57600080fd5b600f54341015610a2d57600080fd5b80600301600081819054906101000a900460ff1680929190610a4e906140e2565b91906101000a81548160ff021916908360ff16021790555050610a7081611f0c565b505050565b610a7d611e24565b73ffffffffffffffffffffffffffffffffffffffff16610a9b6115a9565b73ffffffffffffffffffffffffffffffffffffffff1614610af1576040517f08c379a0000000000000000000000000000000000000000000000000000000008152600401610ae890614158565b60405180910390fd5b6000610afb6115a9565b90508073ffffffffffffffffffffffffffffffffffffffff166108fc479081150290604051600060405180830381858888f19350505050158015610b43573d6000803e3d6000fd5b5050565b610b58610b52611e24565b82611f3f565b610b97576040517f08c379a0000000000000000000000000000000000000000000000000000000008152600401610b8e906141ea565b60405180910390fd5b610ba283838361201d565b505050565b60606000600d805480602002602001604051908101604052809291908181526020016000905b82821015610d4657838290600052602060002090600402016040518061010001604052908160008201548152602001600182018054610c0b90613e9c565b80601f0160208091040260200160405190810160405280929190818152602001828054610c3790613e9c565b8015610c845780601f10610c5957610100808354040283529160200191610c84565b820191906000526020600020905b815481529060010190602001808311610c6757829003601f168201915b50505050508152602001600282015481526020016003820160009054906101000a900460ff1660ff1660ff1681526020016003820160019054906101000a900460ff1660ff1660ff1681526020016003820160029054906101000a900463ffffffff1663ffffffff1663ffffffff1681526020016003820160069054906101000a900461ffff1661ffff1661ffff1681526020016003820160089054906101000a900461ffff1661ffff1661ffff168152505081526020019060010190610bcd565b505050509050610d55816115d3565b90508091505090565b610d798383836040518060200160405280600081525061169e565b505050565b600d8181548110610d8e57600080fd5b9060005260206000209060040201600091509050806000015490806001018054610db790613e9c565b80601f0160208091040260200160405190810160405280929190818152602001828054610de390613e9c565b8015610e305780601f10610e0557610100808354040283529160200191610e30565b820191906000526020600020905b815481529060010190602001808311610e1357829003601f168201915b5050505050908060020154908060030160009054906101000a900460ff16908060030160019054906101000a900460ff16908060030160029054906101000a900463ffffffff16908060030160069054906101000a900461ffff16908060030160089054906101000a900461ffff16905088565b6000806002600084815260200190815260200160002060009054906101000a900473ffffffffffffffffffffffffffffffffffffffff169050600073ffffffffffffffffffffffffffffffffffffffff168173ffffffffffffffffffffffffffffffffffffffff161415610f4d576040517f08c379a0000000000000000000000000000000000000000000000000000000008152600401610f449061427c565b60405180910390fd5b80915050919050565b600854341015610f6557600080fd5b610f6e81612279565b50565b60008073ffffffffffffffffffffffffffffffffffffffff168273ffffffffffffffffffffffffffffffffffffffff161415610fe2576040517f08c379a0000000000000000000000000000000000000000000000000000000008152600401610fd99061430e565b60405180910390fd5b600360008373ffffffffffffffffffffffffffffffffffffffff1673ffffffffffffffffffffffffffffffffffffffff168152602001908152602001600020549050919050565b611031611e24565b73ffffffffffffffffffffffffffffffffffffffff1661104f6115a9565b73ffffffffffffffffffffffffffffffffffffffff16146110a5576040517f08c379a000000000000000000000000000000000000000000000000000000000815260040161109c90614158565b60405180910390fd5b6110af600061251d565b565b606060006110be83610f71565b600d805490506110ce919061432e565b67ffffffffffffffff8111156110e7576110e661370f565b5b60405190808252806020026020018201604052801561112057816020015b61110d612f75565b8152602001906001900390816111055790505b5090506000805b600d80549050811015611324578473ffffffffffffffffffffffffffffffffffffffff1661115482610ea4565b73ffffffffffffffffffffffffffffffffffffffff161461131157600d818154811061118357611182614084565b5b906000526020600020906004020160405180610100016040529081600082015481526020016001820180546111b790613e9c565b80601f01602080910402602001604051908101604052809291908181526020018280546111e390613e9c565b80156112305780601f1061120557610100808354040283529160200191611230565b820191906000526020600020905b81548152906001019060200180831161121357829003601f168201915b50505050508152602001600282015481526020016003820160009054906101000a900460ff1660ff1660ff1681526020016003820160019054906101000a900460ff1660ff1660ff1681526020016003820160029054906101000a900463ffffffff1663ffffffff1663ffffffff1681526020016003820160069054906101000a900461ffff1661ffff1661ffff1681526020016003820160089054906101000a900461ffff1661ffff1661ffff16815250508383815181106112f6576112f5614084565b5b602002602001018190525060018261130e9190614362565b91505b808061131c906143b8565b915050611127565b5061132e826115d3565b91508192505050919050565b6060600061134783610f71565b67ffffffffffffffff8111156113605761135f61370f565b5b60405190808252806020026020018201604052801561139957816020015b611386612f75565b81526020019060019003908161137e5790505b5090506000805b600d8054905081101561159e578473ffffffffffffffffffffffffffffffffffffffff166113cd82610ea4565b73ffffffffffffffffffffffffffffffffffffffff16141561158b57600d81815481106113fd576113fc614084565b5b9060005260206000209060040201604051806101000160405290816000820154815260200160018201805461143190613e9c565b80601f016020809104026020016040519081016040528092919081815260200182805461145d90613e9c565b80156114aa5780601f1061147f576101008083540402835291602001916114aa565b820191906000526020600020905b81548152906001019060200180831161148d57829003601f168201915b50505050508152602001600282015481526020016003820160009054906101000a900460ff1660ff1660ff1681526020016003820160019054906101000a900460ff1660ff1660ff1681526020016003820160029054906101000a900463ffffffff1663ffffffff1663ffffffff1681526020016003820160069054906101000a900461ffff1661ffff1661ffff1681526020016003820160089054906101000a900461ffff1661ffff1661ffff16815250508383815181106115705761156f614084565b5b60200260200101819052506001826115889190614362565b91505b8080611596906143b8565b9150506113a0565b508192505050919050565b6000600660009054906101000a900473ffffffffffffffffffffffffffffffffffffffff16905090565b60606115ee826000600185516115e9919061432e565b6125e3565b819050919050565b60606001805461160590613e9c565b80601f016020809104026020016040519081016040528092919081815260200182805461163190613e9c565b801561167e5780601f106116535761010080835404028352916020019161167e565b820191906000526020600020905b81548152906001019060200180831161166157829003601f168201915b5050505050905090565b61169a611693611e24565b8383612799565b5050565b6116af6116a9611e24565b83611f3f565b6116ee576040517f08c379a00000000000000000000000000000000000000000000000000000000081526004016116e5906141ea565b60405180910390fd5b6116fa84848484612906565b50505050565b60028381600d828154811061171857611717614084565b5b906000526020600020906004020160030160009054906101000a900460ff1660ff16101561174557600080fd5b8461174f81610ea4565b73ffffffffffffffffffffffffffffffffffffffff163373ffffffffffffffffffffffffffffffffffffffff161461178657600080fd5b6000600d878154811061179c5761179b614084565b5b9060005260206000209060040201905085858260010191906117bf929190612fce565b5050505050505050565b60606117d482611db8565b611813576040517f08c379a000000000000000000000000000000000000000000000000000000000815260040161180a90614473565b60405180910390fd5b600061181d612962565b9050600081511161183d5760405180602001604052806000815250611868565b8061184784612979565b6040516020016118589291906144cf565b6040516020818303038152906040525b915050919050565b611878611e24565b73ffffffffffffffffffffffffffffffffffffffff166118966115a9565b73ffffffffffffffffffffffffffffffffffffffff16146118ec576040517f08c379a00000000000000000000000000000000000000000000000000000000081526004016118e390614158565b60405180910390fd5b80600f8190555050565b60008261190281610ea4565b73ffffffffffffffffffffffffffffffffffffffff163373ffffffffffffffffffffffffffffffffffffffff161461193957600080fd5b6000600d858154811061194f5761194e614084565b5b906000526020600020906004020190506000600d858154811061197557611974614084565b5b9060005260206000209060040201905061198e82611ee5565b6119cd576040517f08c379a00000000000000000000000000000000000000000000000000000000081526004016119c49061453f565b60405180910390fd5b8060030160009054906101000a900460ff1660ff168260030160009054906101000a900460ff1660ff1614611a37576040517f08c379a0000000000000000000000000000000000000000000000000000000008152600401611a2e906145ab565b60405180910390fd5b6000611a436064612ada565b905060007fffffffffffffffffffffffffffffffffffffffffffffffffffffffffffffffff90506011548211611b305760018460030160069054906101000a900461ffff16611a9291906145cb565b8460030160066101000a81548161ffff021916908361ffff16021790555083600301600081819054906101000a900460ff1680929190611ad1906140e2565b91906101000a81548160ff021916908360ff1602179055505060018360030160089054906101000a900461ffff16611b0991906145cb565b8360030160086101000a81548161ffff021916908361ffff16021790555060019050611bab565b60018460030160089054906101000a900461ffff16611b4f91906145cb565b8460030160086101000a81548161ffff021916908361ffff16021790555060018360030160069054906101000a900461ffff16611b8c91906145cb565b8360030160066101000a81548161ffff021916908361ffff1602179055505b611bb484611f0c565b809550505050505092915050565b6000600560008473ffffffffffffffffffffffffffffffffffffffff1673ffffffffffffffffffffffffffffffffffffffff16815260200190815260200160002060008373ffffffffffffffffffffffffffffffffffffffff1673ffffffffffffffffffffffffffffffffffffffff16815260200190815260200160002060009054906101000a900460ff16905092915050565b611c5e611e24565b73ffffffffffffffffffffffffffffffffffffffff16611c7c6115a9565b73ffffffffffffffffffffffffffffffffffffffff1614611cd2576040517f08c379a0000000000000000000000000000000000000000000000000000000008152600401611cc990614158565b60405180910390fd5b600073ffffffffffffffffffffffffffffffffffffffff168173ffffffffffffffffffffffffffffffffffffffff161415611d42576040517f08c379a0000000000000000000000000000000000000000000000000000000008152600401611d3990614675565b60405180910390fd5b611d4b8161251d565b50565b60007f01ffc9a7000000000000000000000000000000000000000000000000000000007bffffffffffffffffffffffffffffffffffffffffffffffffffffffff1916827bffffffffffffffffffffffffffffffffffffffffffffffffffffffff1916149050919050565b60008073ffffffffffffffffffffffffffffffffffffffff166002600084815260200190815260200160002060009054906101000a900473ffffffffffffffffffffffffffffffffffffffff1673ffffffffffffffffffffffffffffffffffffffff1614159050919050565b600033905090565b816004600083815260200190815260200160002060006101000a81548173ffffffffffffffffffffffffffffffffffffffff021916908373ffffffffffffffffffffffffffffffffffffffff160217905550808273ffffffffffffffffffffffffffffffffffffffff16611e9f83610ea4565b73ffffffffffffffffffffffffffffffffffffffff167f8c5be1e5ebec7d5bd14f71427d1e84f3dd0314c0f7b2291e5b200ac8c7c3b92560405160405180910390a45050565b6000428260030160029054906101000a900463ffffffff1663ffffffff1611159050919050565b60095442611f1a9190614362565b8160030160026101000a81548163ffffffff021916908363ffffffff16021790555050565b6000611f4a82611db8565b611f89576040517f08c379a0000000000000000000000000000000000000000000000000000000008152600401611f8090614707565b60405180910390fd5b6000611f9483610ea4565b90508073ffffffffffffffffffffffffffffffffffffffff168473ffffffffffffffffffffffffffffffffffffffff16148061200357508373ffffffffffffffffffffffffffffffffffffffff16611feb84610808565b73ffffffffffffffffffffffffffffffffffffffff16145b8061201457506120138185611bc2565b5b91505092915050565b8273ffffffffffffffffffffffffffffffffffffffff1661203d82610ea4565b73ffffffffffffffffffffffffffffffffffffffff1614612093576040517f08c379a000000000000000000000000000000000000000000000000000000000815260040161208a90614799565b60405180910390fd5b600073ffffffffffffffffffffffffffffffffffffffff168273ffffffffffffffffffffffffffffffffffffffff161415612103576040517f08c379a00000000000000000000000000000000000000000000000000000000081526004016120fa9061482b565b60405180910390fd5b61210e838383612b33565b612119600082611e2c565b6001600360008573ffffffffffffffffffffffffffffffffffffffff1673ffffffffffffffffffffffffffffffffffffffff1681526020019081526020016000206000828254612169919061432e565b925050819055506001600360008473ffffffffffffffffffffffffffffffffffffffff1673ffffffffffffffffffffffffffffffffffffffff16815260200190815260200160002060008282546121c09190614362565b92505081905550816002600083815260200190815260200160002060006101000a81548173ffffffffffffffffffffffffffffffffffffffff021916908373ffffffffffffffffffffffffffffffffffffffff160217905550808273ffffffffffffffffffffffffffffffffffffffff168473ffffffffffffffffffffffffffffffffffffffff167fddf252ad1be2c89b69c2b068fc378daa952ba7f163c4a11628f55a4df523b3ef60405160405180910390a4505050565b6000612286600b54612b38565b905060006122a5600c60009054906101000a900460ff1660ff16612b38565b9050600d6040518061010001604052806007548152602001858152602001848152602001600160ff1681526020018360ff168152602001600063ffffffff168152602001600061ffff168152602001600061ffff16815250908060018154018082558091505060019003906000526020600020906004020160009091909190915060008201518160000155602082015181600101908051906020019061234c929190613054565b506040820151816002015560608201518160030160006101000a81548160ff021916908360ff16021790555060808201518160030160016101000a81548160ff021916908360ff16021790555060a08201518160030160026101000a81548163ffffffff021916908363ffffffff16021790555060c08201518160030160066101000a81548161ffff021916908361ffff16021790555060e08201518160030160086101000a81548161ffff021916908361ffff160217905550505061241433600754612b7d565b6124676001600e60003373ffffffffffffffffffffffffffffffffffffffff1673ffffffffffffffffffffffffffffffffffffffff16815260200190815260200160002054612b9b90919063ffffffff16565b600e60003373ffffffffffffffffffffffffffffffffffffffff1673ffffffffffffffffffffffffffffffffffffffff168152602001908152602001600020819055503373ffffffffffffffffffffffffffffffffffffffff167f29c4292b8838988609f9bd8e9042f7e77158b1f5ebfcae6494b7b709c3d20ffc600754846040516124f492919061484b565b60405180910390a26125126001600754612b9b90919063ffffffff16565b600781905550505050565b6000600660009054906101000a900473ffffffffffffffffffffffffffffffffffffffff16905081600660006101000a81548173ffffffffffffffffffffffffffffffffffffffff021916908373ffffffffffffffffffffffffffffffffffffffff1602179055508173ffffffffffffffffffffffffffffffffffffffff168173ffffffffffffffffffffffffffffffffffffffff167f8be0079c531659141344cd1fd0a4f28419497f9722a3daafe3b4186f6b6457e060405160405180910390a35050565b60008290506000829050808214156125fc575050612794565b6000856002868661260d919061432e565b61261791906148a3565b866126229190614362565b8151811061263357612632614084565b5b602002602001015190505b818311612768575b806060015160ff1686848151811061266157612660614084565b5b60200260200101516060015160ff161015612689578280612681906143b8565b935050612646565b5b85828151811061269d5761269c614084565b5b60200260200101516060015160ff16816060015160ff1610156126cd5781806126c5906148d4565b92505061268a565b818311612763578582815181106126e7576126e6614084565b5b602002602001015186848151811061270257612701614084565b5b602002602001015187858151811061271d5761271c614084565b5b6020026020010188858151811061273757612736614084565b5b6020026020010182905282905250508280612751906143b8565b935050818061275f906148d4565b9250505b61263e565b8185101561277c5761277b8686846125e3565b5b838310156127905761278f8684866125e3565b5b5050505b505050565b8173ffffffffffffffffffffffffffffffffffffffff168373ffffffffffffffffffffffffffffffffffffffff161415612808576040517f08c379a00000000000000000000000000000000000000000000000000000000081526004016127ff9061494a565b60405180910390fd5b80600560008573ffffffffffffffffffffffffffffffffffffffff1673ffffffffffffffffffffffffffffffffffffffff16815260200190815260200160002060008473ffffffffffffffffffffffffffffffffffffffff1673ffffffffffffffffffffffffffffffffffffffff16815260200190815260200160002060006101000a81548160ff0219169083151502179055508173ffffffffffffffffffffffffffffffffffffffff168373ffffffffffffffffffffffffffffffffffffffff167f17307eab39ab6107e8899845ad3d59bd9653f200f220920489ca2b5937696c31836040516128f991906131ab565b60405180910390a3505050565b61291184848461201d565b61291d84848484612bb1565b61295c576040517f08c379a0000000000000000000000000000000000000000000000000000000008152600401612953906149dc565b60405180910390fd5b50505050565b606060405180602001604052806000815250905090565b606060008214156129c1576040518060400160405280600181526020017f30000000000000000000000000000000000000000000000000000000000000008152509050612ad5565b600082905060005b600082146129f35780806129dc906143b8565b915050600a826129ec91906148a3565b91506129c9565b60008167ffffffffffffffff811115612a0f57612a0e61370f565b5b6040519080825280601f01601f191660200182016040528015612a415781602001600182028036833780820191505090505b5090505b60008514612ace57600182612a5a919061432e565b9150600a85612a6991906149fc565b6030612a759190614362565b60f81b818381518110612a8b57612a8a614084565b5b60200101907effffffffffffffffffffffffffffffffffffffffffffffffffffffffffffff1916908160001a905350600a85612ac791906148a3565b9450612a45565b8093505050505b919050565b60006001601054612aeb9190614362565b601081905550814233601054604051602001612b0993929190614a96565b6040516020818303038152906040528051906020012060001c612b2c91906149fc565b9050919050565b505050565b6000804233604051602001612b4e929190614ad3565b6040516020818303038152906040528051906020012060001c90508281612b7591906149fc565b915050919050565b612b97828260405180602001604052806000815250612d39565b5050565b60008183612ba99190614362565b905092915050565b6000612bd28473ffffffffffffffffffffffffffffffffffffffff16612d94565b15612d2c578373ffffffffffffffffffffffffffffffffffffffff1663150b7a02612bfb611e24565b8786866040518563ffffffff1660e01b8152600401612c1d9493929190614b54565b6020604051808303816000875af1925050508015612c5957506040513d601f19601f82011682018060405250810190612c569190614bb5565b60015b612cdc573d8060008114612c89576040519150601f19603f3d011682016040523d82523d6000602084013e612c8e565b606091505b50600081511415612cd4576040517f08c379a0000000000000000000000000000000000000000000000000000000008152600401612ccb906149dc565b60405180910390fd5b805181602001fd5b63150b7a0260e01b7bffffffffffffffffffffffffffffffffffffffffffffffffffffffff1916817bffffffffffffffffffffffffffffffffffffffffffffffffffffffff191614915050612d31565b600190505b949350505050565b612d438383612da7565b612d506000848484612bb1565b612d8f576040517f08c379a0000000000000000000000000000000000000000000000000000000008152600401612d86906149dc565b60405180910390fd5b505050565b600080823b905060008111915050919050565b600073ffffffffffffffffffffffffffffffffffffffff168273ffffffffffffffffffffffffffffffffffffffff161415612e17576040517f08c379a0000000000000000000000000000000000000000000000000000000008152600401612e0e90614c2e565b60405180910390fd5b612e2081611db8565b15612e60576040517f08c379a0000000000000000000000000000000000000000000000000000000008152600401612e5790614c9a565b60405180910390fd5b612e6c60008383612b33565b6001600360008473ffffffffffffffffffffffffffffffffffffffff1673ffffffffffffffffffffffffffffffffffffffff1681526020019081526020016000206000828254612ebc9190614362565b92505081905550816002600083815260200190815260200160002060006101000a81548173ffffffffffffffffffffffffffffffffffffffff021916908373ffffffffffffffffffffffffffffffffffffffff160217905550808273ffffffffffffffffffffffffffffffffffffffff16600073ffffffffffffffffffffffffffffffffffffffff167fddf252ad1be2c89b69c2b068fc378daa952ba7f163c4a11628f55a4df523b3ef60405160405180910390a45050565b604051806101000160405280600081526020016060815260200160008152602001600060ff168152602001600060ff168152602001600063ffffffff168152602001600061ffff168152602001600061ffff1681525090565b828054612fda90613e9c565b90600052602060002090601f016020900481019282612ffc5760008555613043565b82601f1061301557803560ff1916838001178555613043565b82800160010185558215613043579182015b82811115613042578235825591602001919060010190613027565b5b50905061305091906130da565b5090565b82805461306090613e9c565b90600052602060002090601f01602090048101928261308257600085556130c9565b82601f1061309b57805160ff19168380011785556130c9565b828001600101855582156130c9579182015b828111156130c85782518255916020019190600101906130ad565b5b5090506130d691906130da565b5090565b5b808211156130f35760008160009055506001016130db565b5090565b6000604051905090565b600080fd5b600080fd5b60007fffffffff0000000000000000000000000000000000000000000000000000000082169050919050565b6131408161310b565b811461314b57600080fd5b50565b60008135905061315d81613137565b92915050565b60006020828403121561317957613178613101565b5b60006131878482850161314e565b91505092915050565b60008115159050919050565b6131a581613190565b82525050565b60006020820190506131c0600083018461319c565b92915050565b600081519050919050565b600082825260208201905092915050565b60005b838110156132005780820151818401526020810190506131e5565b8381111561320f576000848401525b50505050565b6000601f19601f8301169050919050565b6000613231826131c6565b61323b81856131d1565b935061324b8185602086016131e2565b61325481613215565b840191505092915050565b600060208201905081810360008301526132798184613226565b905092915050565b6000819050919050565b61329481613281565b811461329f57600080fd5b50565b6000813590506132b18161328b565b92915050565b6000602082840312156132cd576132cc613101565b5b60006132db848285016132a2565b91505092915050565b600073ffffffffffffffffffffffffffffffffffffffff82169050919050565b600061330f826132e4565b9050919050565b61331f81613304565b82525050565b600060208201905061333a6000830184613316565b92915050565b61334981613304565b811461335457600080fd5b50565b60008135905061336681613340565b92915050565b6000806040838503121561338357613382613101565b5b600061339185828601613357565b92505060206133a2858286016132a2565b9150509250929050565b6000806000606084860312156133c5576133c4613101565b5b60006133d386828701613357565b93505060206133e486828701613357565b92505060406133f5868287016132a2565b9150509250925092565b600081519050919050565b600082825260208201905092915050565b6000819050602082019050919050565b61343481613281565b82525050565b600082825260208201905092915050565b6000613456826131c6565b613460818561343a565b93506134708185602086016131e2565b61347981613215565b840191505092915050565b600060ff82169050919050565b61349a81613484565b82525050565b600063ffffffff82169050919050565b6134b9816134a0565b82525050565b600061ffff82169050919050565b6134d6816134bf565b82525050565b6000610100830160008301516134f5600086018261342b565b506020830151848203602086015261350d828261344b565b9150506040830151613522604086018261342b565b5060608301516135356060860182613491565b5060808301516135486080860182613491565b5060a083015161355b60a08601826134b0565b5060c083015161356e60c08601826134cd565b5060e083015161358160e08601826134cd565b508091505092915050565b600061359883836134dc565b905092915050565b6000602082019050919050565b60006135b8826133ff565b6135c2818561340a565b9350836020820285016135d48561341b565b8060005b8581101561361057848403895281516135f1858261358c565b94506135fc836135a0565b925060208a019950506001810190506135d8565b50829750879550505050505092915050565b6000602082019050818103600083015261363c81846135ad565b905092915050565b61364d81613281565b82525050565b61365c81613484565b82525050565b61366b816134a0565b82525050565b61367a816134bf565b82525050565b600061010082019050613696600083018b613644565b81810360208301526136a8818a613226565b90506136b76040830189613644565b6136c46060830188613653565b6136d16080830187613653565b6136de60a0830186613662565b6136eb60c0830185613671565b6136f860e0830184613671565b9998505050505050505050565b600080fd5b600080fd5b7f4e487b7100000000000000000000000000000000000000000000000000000000600052604160045260246000fd5b61374782613215565b810181811067ffffffffffffffff821117156137665761376561370f565b5b80604052505050565b60006137796130f7565b9050613785828261373e565b919050565b600067ffffffffffffffff8211156137a5576137a461370f565b5b6137ae82613215565b9050602081019050919050565b82818337600083830152505050565b60006137dd6137d88461378a565b61376f565b9050828152602081018484840111156137f9576137f861370a565b5b6138048482856137bb565b509392505050565b600082601f83011261382157613820613705565b5b81356138318482602086016137ca565b91505092915050565b6000602082840312156138505761384f613101565b5b600082013567ffffffffffffffff81111561386e5761386d613106565b5b61387a8482850161380c565b91505092915050565b60006020828403121561389957613898613101565b5b60006138a784828501613357565b91505092915050565b60006020820190506138c56000830184613644565b92915050565b600067ffffffffffffffff8211156138e6576138e561370f565b5b602082029050602081019050919050565b600080fd5b600080fd5b600080fd5b61390f81613484565b811461391a57600080fd5b50565b60008135905061392c81613906565b92915050565b61393b816134a0565b811461394657600080fd5b50565b60008135905061395881613932565b92915050565b613967816134bf565b811461397257600080fd5b50565b6000813590506139848161395e565b92915050565b600061010082840312156139a1576139a06138fc565b5b6139ac61010061376f565b905060006139bc848285016132a2565b600083015250602082013567ffffffffffffffff8111156139e0576139df613901565b5b6139ec8482850161380c565b6020830152506040613a00848285016132a2565b6040830152506060613a148482850161391d565b6060830152506080613a288482850161391d565b60808301525060a0613a3c84828501613949565b60a08301525060c0613a5084828501613975565b60c08301525060e0613a6484828501613975565b60e08301525092915050565b6000613a83613a7e846138cb565b61376f565b90508083825260208201905060208402830185811115613aa657613aa56138f7565b5b835b81811015613aed57803567ffffffffffffffff811115613acb57613aca613705565b5b808601613ad8898261398a565b85526020850194505050602081019050613aa8565b5050509392505050565b600082601f830112613b0c57613b0b613705565b5b8135613b1c848260208601613a70565b91505092915050565b600060208284031215613b3b57613b3a613101565b5b600082013567ffffffffffffffff811115613b5957613b58613106565b5b613b6584828501613af7565b91505092915050565b613b7781613190565b8114613b8257600080fd5b50565b600081359050613b9481613b6e565b92915050565b60008060408385031215613bb157613bb0613101565b5b6000613bbf85828601613357565b9250506020613bd085828601613b85565b9150509250929050565b600067ffffffffffffffff821115613bf557613bf461370f565b5b613bfe82613215565b9050602081019050919050565b6000613c1e613c1984613bda565b61376f565b905082815260208101848484011115613c3a57613c3961370a565b5b613c458482856137bb565b509392505050565b600082601f830112613c6257613c61613705565b5b8135613c72848260208601613c0b565b91505092915050565b60008060008060808587031215613c9557613c94613101565b5b6000613ca387828801613357565b9450506020613cb487828801613357565b9350506040613cc5878288016132a2565b925050606085013567ffffffffffffffff811115613ce657613ce5613106565b5b613cf287828801613c4d565b91505092959194509250565b600080fd5b60008083601f840112613d1957613d18613705565b5b8235905067ffffffffffffffff811115613d3657613d35613cfe565b5b602083019150836001820283011115613d5257613d516138f7565b5b9250929050565b600080600060408486031215613d7257613d71613101565b5b6000613d80868287016132a2565b935050602084013567ffffffffffffffff811115613da157613da0613106565b5b613dad86828701613d03565b92509250509250925092565b60008060408385031215613dd057613dcf613101565b5b6000613dde858286016132a2565b9250506020613def858286016132a2565b9150509250929050565b6000819050919050565b613e0c81613df9565b82525050565b6000602082019050613e276000830184613e03565b92915050565b60008060408385031215613e4457613e43613101565b5b6000613e5285828601613357565b9250506020613e6385828601613357565b9150509250929050565b7f4e487b7100000000000000000000000000000000000000000000000000000000600052602260045260246000fd5b60006002820490506001821680613eb457607f821691505b60208210811415613ec857613ec7613e6d565b5b50919050565b7f4552433732313a20617070726f76656420717565727920666f72206e6f6e657860008201527f697374656e7420746f6b656e0000000000000000000000000000000000000000602082015250565b6000613f2a602c836131d1565b9150613f3582613ece565b604082019050919050565b60006020820190508181036000830152613f5981613f1d565b9050919050565b7f4552433732313a20617070726f76616c20746f2063757272656e74206f776e6560008201527f7200000000000000000000000000000000000000000000000000000000000000602082015250565b6000613fbc6021836131d1565b9150613fc782613f60565b604082019050919050565b60006020820190508181036000830152613feb81613faf565b9050919050565b7f4552433732313a20617070726f76652063616c6c6572206973206e6f74206f7760008201527f6e6572206e6f7220617070726f76656420666f7220616c6c0000000000000000602082015250565b600061404e6038836131d1565b915061405982613ff2565b604082019050919050565b6000602082019050818103600083015261407d81614041565b9050919050565b7f4e487b7100000000000000000000000000000000000000000000000000000000600052603260045260246000fd5b7f4e487b7100000000000000000000000000000000000000000000000000000000600052601160045260246000fd5b60006140ed82613484565b915060ff821415614101576141006140b3565b5b600182019050919050565b7f4f776e61626c653a2063616c6c6572206973206e6f7420746865206f776e6572600082015250565b60006141426020836131d1565b915061414d8261410c565b602082019050919050565b6000602082019050818103600083015261417181614135565b9050919050565b7f4552433732313a207472616e736665722063616c6c6572206973206e6f74206f60008201527f776e6572206e6f7220617070726f766564000000000000000000000000000000602082015250565b60006141d46031836131d1565b91506141df82614178565b604082019050919050565b60006020820190508181036000830152614203816141c7565b9050919050565b7f4552433732313a206f776e657220717565727920666f72206e6f6e657869737460008201527f656e7420746f6b656e0000000000000000000000000000000000000000000000602082015250565b60006142666029836131d1565b91506142718261420a565b604082019050919050565b6000602082019050818103600083015261429581614259565b9050919050565b7f4552433732313a2062616c616e636520717565727920666f7220746865207a6560008201527f726f206164647265737300000000000000000000000000000000000000000000602082015250565b60006142f8602a836131d1565b91506143038261429c565b604082019050919050565b60006020820190508181036000830152614327816142eb565b9050919050565b600061433982613281565b915061434483613281565b925082821015614357576143566140b3565b5b828203905092915050565b600061436d82613281565b915061437883613281565b9250827fffffffffffffffffffffffffffffffffffffffffffffffffffffffffffffffff038211156143ad576143ac6140b3565b5b828201905092915050565b60006143c382613281565b91507fffffffffffffffffffffffffffffffffffffffffffffffffffffffffffffffff8214156143f6576143f56140b3565b5b600182019050919050565b7f4552433732314d657461646174613a2055524920717565727920666f72206e6f60008201527f6e6578697374656e7420746f6b656e0000000000000000000000000000000000602082015250565b600061445d602f836131d1565b915061446882614401565b604082019050919050565b6000602082019050818103600083015261448c81614450565b9050919050565b600081905092915050565b60006144a9826131c6565b6144b38185614493565b93506144c38185602086016131e2565b80840191505092915050565b60006144db828561449e565b91506144e7828461449e565b91508190509392505050565b7f596f7572206c6970206973206e6f742072656164790000000000000000000000600082015250565b60006145296015836131d1565b9150614534826144f3565b602082019050919050565b600060208201905081810360008301526145588161451c565b9050919050565b7f4f6e6c79207468652073616d65206c6576656c2063616e206669676874000000600082015250565b6000614595601d836131d1565b91506145a08261455f565b602082019050919050565b600060208201905081810360008301526145c481614588565b9050919050565b60006145d6826134bf565b91506145e1836134bf565b92508261ffff038211156145f8576145f76140b3565b5b828201905092915050565b7f4f776e61626c653a206e6577206f776e657220697320746865207a65726f206160008201527f6464726573730000000000000000000000000000000000000000000000000000602082015250565b600061465f6026836131d1565b915061466a82614603565b604082019050919050565b6000602082019050818103600083015261468e81614652565b9050919050565b7f4552433732313a206f70657261746f7220717565727920666f72206e6f6e657860008201527f697374656e7420746f6b656e0000000000000000000000000000000000000000602082015250565b60006146f1602c836131d1565b91506146fc82614695565b604082019050919050565b60006020820190508181036000830152614720816146e4565b9050919050565b7f4552433732313a207472616e73666572206f6620746f6b656e2074686174206960008201527f73206e6f74206f776e0000000000000000000000000000000000000000000000602082015250565b60006147836029836131d1565b915061478e82614727565b604082019050919050565b600060208201905081810360008301526147b281614776565b9050919050565b7f4552433732313a207472616e7366657220746f20746865207a65726f2061646460008201527f7265737300000000000000000000000000000000000000000000000000000000602082015250565b60006148156024836131d1565b9150614820826147b9565b604082019050919050565b6000602082019050818103600083015261484481614808565b9050919050565b60006040820190506148606000830185613644565b61486d6020830184613644565b9392505050565b7f4e487b7100000000000000000000000000000000000000000000000000000000600052601260045260246000fd5b60006148ae82613281565b91506148b983613281565b9250826148c9576148c8614874565b5b828204905092915050565b60006148df82613281565b915060008214156148f3576148f26140b3565b5b600182039050919050565b7f4552433732313a20617070726f766520746f2063616c6c657200000000000000600082015250565b60006149346019836131d1565b915061493f826148fe565b602082019050919050565b6000602082019050818103600083015261496381614927565b9050919050565b7f4552433732313a207472616e7366657220746f206e6f6e20455243373231526560008201527f63656976657220696d706c656d656e7465720000000000000000000000000000602082015250565b60006149c66032836131d1565b91506149d18261496a565b604082019050919050565b600060208201905081810360008301526149f5816149b9565b9050919050565b6000614a0782613281565b9150614a1283613281565b925082614a2257614a21614874565b5b828206905092915050565b6000819050919050565b614a48614a4382613281565b614a2d565b82525050565b60008160601b9050919050565b6000614a6682614a4e565b9050919050565b6000614a7882614a5b565b9050919050565b614a90614a8b82613304565b614a6d565b82525050565b6000614aa28286614a37565b602082019150614ab28285614a7f565b601482019150614ac28284614a37565b602082019150819050949350505050565b6000614adf8285614a37565b602082019150614aef8284614a7f565b6014820191508190509392505050565b600081519050919050565b600082825260208201905092915050565b6000614b2682614aff565b614b308185614b0a565b9350614b408185602086016131e2565b614b4981613215565b840191505092915050565b6000608082019050614b696000830187613316565b614b766020830186613316565b614b836040830185613644565b8181036060830152614b958184614b1b565b905095945050505050565b600081519050614baf81613137565b92915050565b600060208284031215614bcb57614bca613101565b5b6000614bd984828501614ba0565b91505092915050565b7f4552433732313a206d696e7420746f20746865207a65726f2061646472657373600082015250565b6000614c186020836131d1565b9150614c2382614be2565b602082019050919050565b60006020820190508181036000830152614c4781614c0b565b9050919050565b7f4552433732313a20746f6b656e20616c7265616479206d696e74656400000000600082015250565b6000614c84601c836131d1565b9150614c8f82614c4e565b602082019050919050565b60006020820190508181036000830152614cb381614c77565b905091905056fea26469706673582212204b01ce1a64b4a01ca170c5ea17cb291199b3240995a7704bf6380dfb56f1165b64736f6c634300080b0033",
  "immutableReferences": {},
  "source": "// SPDX-License-Identifier: MIT\r\n\r\npragma solidity >=0.4.22 <0.9.0;\r\nimport \"./liphelper.sol\";\r\n\r\ncontract LipAttack is LipHelper {\r\n  uint256 randNonce = 0;\r\n  uint256 attackVictoryProbability = 70;\r\n\r\n  function randMod(uint _modulus) internal returns(uint256) {\r\n    randNonce = randNonce + 1;\r\n    return uint256(keccak256(abi.encodePacked(block.timestamp, msg.sender, randNonce))) % _modulus;\r\n  }\r\n\r\n  function attack(uint256 _lipId, uint256 _targetId) external onlyOwnerOf(_lipId) returns(int) {\r\n    Lip storage myLip = lips[_lipId];\r\n    Lip storage enemyLip = lips[_targetId];\r\n    require(_isReady(myLip), \"Your lip is not ready\");\r\n    require(myLip.level == enemyLip.level, \"Only the same level can fight\");\r\n    uint256 rand = randMod(100);\r\n    int isWin = -1;\r\n    // if rand < 70 => you win else enemy win\r\n    if (rand <= attackVictoryProbability) {\r\n      myLip.winCount = myLip.winCount+1;\r\n      myLip.level++;\r\n      enemyLip.lossCount = enemyLip.lossCount + 1;\r\n      isWin = 1;\r\n    } else {\r\n      myLip.lossCount = myLip.lossCount+1;\r\n      enemyLip.winCount = enemyLip.winCount + 1;\r\n    }\r\n    _triggerCooldown(myLip);\r\n    return isWin;\r\n  }\r\n}",
  "sourcePath": "C:\\Github\\nft_game\\src\\contracts\\lipattack.sol",
  "compiler": {
    "name": "solc",
    "version": "0.8.11+commit.d7f03943.Emscripten.clang"
  },
  "schemaVersion": "3.4.4",
  "updatedAt": "2022-02-24T05:58:34.284Z",
  "networkType": "ethereum",
  "devdoc": {
    "kind": "dev",
    "methods": {
      "approve(address,uint256)": {
        "details": "See {IERC721-approve}."
      },
      "balanceOf(address)": {
        "details": "See {IERC721-balanceOf}."
      },
      "getApproved(uint256)": {
        "details": "See {IERC721-getApproved}."
      },
      "isApprovedForAll(address,address)": {
        "details": "See {IERC721-isApprovedForAll}."
      },
      "name()": {
        "details": "See {IERC721Metadata-name}."
      },
      "owner()": {
        "details": "Returns the address of the current owner."
      },
      "ownerOf(uint256)": {
        "details": "See {IERC721-ownerOf}."
      },
      "renounceOwnership()": {
        "details": "Leaves the contract without owner. It will not be possible to call `onlyOwner` functions anymore. Can only be called by the current owner. NOTE: Renouncing ownership will leave the contract without an owner, thereby removing any functionality that is only available to the owner."
      },
      "safeTransferFrom(address,address,uint256)": {
        "details": "See {IERC721-safeTransferFrom}."
      },
      "safeTransferFrom(address,address,uint256,bytes)": {
        "details": "See {IERC721-safeTransferFrom}."
      },
      "setApprovalForAll(address,bool)": {
        "details": "See {IERC721-setApprovalForAll}."
      },
      "supportsInterface(bytes4)": {
        "details": "See {IERC165-supportsInterface}."
      },
      "symbol()": {
        "details": "See {IERC721Metadata-symbol}."
      },
      "tokenURI(uint256)": {
        "details": "See {IERC721Metadata-tokenURI}."
      },
      "transferFrom(address,address,uint256)": {
        "details": "See {IERC721-transferFrom}."
      },
      "transferOwnership(address)": {
        "details": "Transfers ownership of the contract to a new account (`newOwner`). Can only be called by the current owner."
      }
    },
    "version": 1
  },
  "userdoc": {
    "kind": "user",
    "methods": {},
    "version": 1
  }
}