{
  "contractName": "LipAttack",
  "abi": [
    {
      "anonymous": false,
      "inputs": [
        {
          "indexed": true,
          "internalType": "address",
          "name": "owner",
          "type": "address"
        },
        {
          "indexed": true,
          "internalType": "address",
          "name": "approved",
          "type": "address"
        },
        {
          "indexed": true,
          "internalType": "uint256",
          "name": "tokenId",
          "type": "uint256"
        }
      ],
      "name": "Approval",
      "type": "event"
    },
    {
      "anonymous": false,
      "inputs": [
        {
          "indexed": true,
          "internalType": "address",
          "name": "owner",
          "type": "address"
        },
        {
          "indexed": true,
          "internalType": "address",
          "name": "operator",
          "type": "address"
        },
        {
          "indexed": false,
          "internalType": "bool",
          "name": "approved",
          "type": "bool"
        }
      ],
      "name": "ApprovalForAll",
      "type": "event"
    },
    {
      "anonymous": false,
      "inputs": [
        {
          "indexed": true,
          "internalType": "address",
          "name": "owner",
          "type": "address"
        },
        {
          "indexed": false,
          "internalType": "uint256",
          "name": "id",
          "type": "uint256"
        },
        {
          "indexed": false,
          "internalType": "uint256",
          "name": "dna",
          "type": "uint256"
        }
      ],
      "name": "NewLipCreated",
      "type": "event"
    },
    {
      "anonymous": false,
      "inputs": [
        {
          "indexed": true,
          "internalType": "address",
          "name": "previousOwner",
          "type": "address"
        },
        {
          "indexed": true,
          "internalType": "address",
          "name": "newOwner",
          "type": "address"
        }
      ],
      "name": "OwnershipTransferred",
      "type": "event"
    },
    {
      "anonymous": false,
      "inputs": [
        {
          "indexed": true,
          "internalType": "address",
          "name": "from",
          "type": "address"
        },
        {
          "indexed": true,
          "internalType": "address",
          "name": "to",
          "type": "address"
        },
        {
          "indexed": true,
          "internalType": "uint256",
          "name": "tokenId",
          "type": "uint256"
        }
      ],
      "name": "Transfer",
      "type": "event"
    },
    {
      "inputs": [
        {
          "internalType": "address",
          "name": "to",
          "type": "address"
        },
        {
          "internalType": "uint256",
          "name": "tokenId",
          "type": "uint256"
        }
      ],
      "name": "approve",
      "outputs": [],
      "stateMutability": "nonpayable",
      "type": "function"
    },
    {
      "inputs": [
        {
          "internalType": "address",
          "name": "owner",
          "type": "address"
        }
      ],
      "name": "balanceOf",
      "outputs": [
        {
          "internalType": "uint256",
          "name": "",
          "type": "uint256"
        }
      ],
      "stateMutability": "view",
      "type": "function",
      "constant": true
    },
    {
      "inputs": [
        {
          "internalType": "uint256",
          "name": "_lipId",
          "type": "uint256"
        },
        {
          "internalType": "string",
          "name": "_newName",
          "type": "string"
        }
      ],
      "name": "changeName",
      "outputs": [],
      "stateMutability": "nonpayable",
      "type": "function"
    },
    {
      "inputs": [
        {
          "internalType": "string",
          "name": "_name",
          "type": "string"
        }
      ],
      "name": "createRandomLip",
      "outputs": [],
      "stateMutability": "payable",
      "type": "function",
      "payable": true
    },
    {
      "inputs": [],
      "name": "getAllLips",
      "outputs": [
        {
          "components": [
            {
              "internalType": "uint256",
              "name": "id",
              "type": "uint256"
            },
            {
              "internalType": "string",
              "name": "name",
              "type": "string"
            },
            {
              "internalType": "uint256",
              "name": "dna",
              "type": "uint256"
            },
            {
              "internalType": "uint8",
              "name": "level",
              "type": "uint8"
            },
            {
              "internalType": "uint8",
              "name": "rarity",
              "type": "uint8"
            },
            {
              "internalType": "uint32",
              "name": "readyTime",
              "type": "uint32"
            },
            {
              "internalType": "uint16",
              "name": "winCount",
              "type": "uint16"
            },
            {
              "internalType": "uint16",
              "name": "lossCount",
              "type": "uint16"
            }
          ],
          "internalType": "struct LipFactory.Lip[]",
          "name": "",
          "type": "tuple[]"
        }
      ],
      "stateMutability": "view",
      "type": "function",
      "constant": true
    },
    {
      "inputs": [
        {
          "internalType": "uint256",
          "name": "tokenId",
          "type": "uint256"
        }
      ],
      "name": "getApproved",
      "outputs": [
        {
          "internalType": "address",
          "name": "",
          "type": "address"
        }
      ],
      "stateMutability": "view",
      "type": "function",
      "constant": true
    },
    {
      "inputs": [
        {
          "internalType": "address",
          "name": "_owner",
          "type": "address"
        }
      ],
      "name": "getEnemy",
      "outputs": [
        {
          "components": [
            {
              "internalType": "uint256",
              "name": "id",
              "type": "uint256"
            },
            {
              "internalType": "string",
              "name": "name",
              "type": "string"
            },
            {
              "internalType": "uint256",
              "name": "dna",
              "type": "uint256"
            },
            {
              "internalType": "uint8",
              "name": "level",
              "type": "uint8"
            },
            {
              "internalType": "uint8",
              "name": "rarity",
              "type": "uint8"
            },
            {
              "internalType": "uint32",
              "name": "readyTime",
              "type": "uint32"
            },
            {
              "internalType": "uint16",
              "name": "winCount",
              "type": "uint16"
            },
            {
              "internalType": "uint16",
              "name": "lossCount",
              "type": "uint16"
            }
          ],
          "internalType": "struct LipFactory.Lip[]",
          "name": "",
          "type": "tuple[]"
        }
      ],
      "stateMutability": "view",
      "type": "function",
      "constant": true
    },
    {
      "inputs": [
        {
          "internalType": "address",
          "name": "_owner",
          "type": "address"
        }
      ],
      "name": "getOwnerLips",
      "outputs": [
        {
          "components": [
            {
              "internalType": "uint256",
              "name": "id",
              "type": "uint256"
            },
            {
              "internalType": "string",
              "name": "name",
              "type": "string"
            },
            {
              "internalType": "uint256",
              "name": "dna",
              "type": "uint256"
            },
            {
              "internalType": "uint8",
              "name": "level",
              "type": "uint8"
            },
            {
              "internalType": "uint8",
              "name": "rarity",
              "type": "uint8"
            },
            {
              "internalType": "uint32",
              "name": "readyTime",
              "type": "uint32"
            },
            {
              "internalType": "uint16",
              "name": "winCount",
              "type": "uint16"
            },
            {
              "internalType": "uint16",
              "name": "lossCount",
              "type": "uint16"
            }
          ],
          "internalType": "struct LipFactory.Lip[]",
          "name": "",
          "type": "tuple[]"
        }
      ],
      "stateMutability": "view",
      "type": "function",
      "constant": true
    },
    {
      "inputs": [
        {
          "internalType": "address",
          "name": "owner",
          "type": "address"
        },
        {
          "internalType": "address",
          "name": "operator",
          "type": "address"
        }
      ],
      "name": "isApprovedForAll",
      "outputs": [
        {
          "internalType": "bool",
          "name": "",
          "type": "bool"
        }
      ],
      "stateMutability": "view",
      "type": "function",
      "constant": true
    },
    {
      "inputs": [
        {
          "internalType": "uint256",
          "name": "_lipId",
          "type": "uint256"
        }
      ],
      "name": "levelUp",
      "outputs": [],
      "stateMutability": "payable",
      "type": "function",
      "payable": true
    },
    {
      "inputs": [
        {
          "internalType": "uint256",
          "name": "",
          "type": "uint256"
        }
      ],
      "name": "lips",
      "outputs": [
        {
          "internalType": "uint256",
          "name": "id",
          "type": "uint256"
        },
        {
          "internalType": "string",
          "name": "name",
          "type": "string"
        },
        {
          "internalType": "uint256",
          "name": "dna",
          "type": "uint256"
        },
        {
          "internalType": "uint8",
          "name": "level",
          "type": "uint8"
        },
        {
          "internalType": "uint8",
          "name": "rarity",
          "type": "uint8"
        },
        {
          "internalType": "uint32",
          "name": "readyTime",
          "type": "uint32"
        },
        {
          "internalType": "uint16",
          "name": "winCount",
          "type": "uint16"
        },
        {
          "internalType": "uint16",
          "name": "lossCount",
          "type": "uint16"
        }
      ],
      "stateMutability": "view",
      "type": "function",
      "constant": true
    },
    {
      "inputs": [],
      "name": "name",
      "outputs": [
        {
          "internalType": "string",
          "name": "",
          "type": "string"
        }
      ],
      "stateMutability": "view",
      "type": "function",
      "constant": true
    },
    {
      "inputs": [],
      "name": "owner",
      "outputs": [
        {
          "internalType": "address",
          "name": "",
          "type": "address"
        }
      ],
      "stateMutability": "view",
      "type": "function",
      "constant": true
    },
    {
      "inputs": [
        {
          "internalType": "uint256",
          "name": "tokenId",
          "type": "uint256"
        }
      ],
      "name": "ownerOf",
      "outputs": [
        {
          "internalType": "address",
          "name": "",
          "type": "address"
        }
      ],
      "stateMutability": "view",
      "type": "function",
      "constant": true
    },
    {
      "inputs": [],
      "name": "renounceOwnership",
      "outputs": [],
      "stateMutability": "nonpayable",
      "type": "function"
    },
    {
      "inputs": [
        {
          "internalType": "address",
          "name": "from",
          "type": "address"
        },
        {
          "internalType": "address",
          "name": "to",
          "type": "address"
        },
        {
          "internalType": "uint256",
          "name": "tokenId",
          "type": "uint256"
        }
      ],
      "name": "safeTransferFrom",
      "outputs": [],
      "stateMutability": "nonpayable",
      "type": "function"
    },
    {
      "inputs": [
        {
          "internalType": "address",
          "name": "from",
          "type": "address"
        },
        {
          "internalType": "address",
          "name": "to",
          "type": "address"
        },
        {
          "internalType": "uint256",
          "name": "tokenId",
          "type": "uint256"
        },
        {
          "internalType": "bytes",
          "name": "_data",
          "type": "bytes"
        }
      ],
      "name": "safeTransferFrom",
      "outputs": [],
      "stateMutability": "nonpayable",
      "type": "function"
    },
    {
      "inputs": [
        {
          "internalType": "address",
          "name": "operator",
          "type": "address"
        },
        {
          "internalType": "bool",
          "name": "approved",
          "type": "bool"
        }
      ],
      "name": "setApprovalForAll",
      "outputs": [],
      "stateMutability": "nonpayable",
      "type": "function"
    },
    {
      "inputs": [
        {
          "internalType": "uint256",
          "name": "_fee",
          "type": "uint256"
        }
      ],
      "name": "setLevelUpFee",
      "outputs": [],
      "stateMutability": "nonpayable",
      "type": "function"
    },
    {
      "inputs": [
        {
          "components": [
            {
              "internalType": "uint256",
              "name": "id",
              "type": "uint256"
            },
            {
              "internalType": "string",
              "name": "name",
              "type": "string"
            },
            {
              "internalType": "uint256",
              "name": "dna",
              "type": "uint256"
            },
            {
              "internalType": "uint8",
              "name": "level",
              "type": "uint8"
            },
            {
              "internalType": "uint8",
              "name": "rarity",
              "type": "uint8"
            },
            {
              "internalType": "uint32",
              "name": "readyTime",
              "type": "uint32"
            },
            {
              "internalType": "uint16",
              "name": "winCount",
              "type": "uint16"
            },
            {
              "internalType": "uint16",
              "name": "lossCount",
              "type": "uint16"
            }
          ],
          "internalType": "struct LipFactory.Lip[]",
          "name": "data",
          "type": "tuple[]"
        }
      ],
      "name": "sort",
      "outputs": [
        {
          "components": [
            {
              "internalType": "uint256",
              "name": "id",
              "type": "uint256"
            },
            {
              "internalType": "string",
              "name": "name",
              "type": "string"
            },
            {
              "internalType": "uint256",
              "name": "dna",
              "type": "uint256"
            },
            {
              "internalType": "uint8",
              "name": "level",
              "type": "uint8"
            },
            {
              "internalType": "uint8",
              "name": "rarity",
              "type": "uint8"
            },
            {
              "internalType": "uint32",
              "name": "readyTime",
              "type": "uint32"
            },
            {
              "internalType": "uint16",
              "name": "winCount",
              "type": "uint16"
            },
            {
              "internalType": "uint16",
              "name": "lossCount",
              "type": "uint16"
            }
          ],
          "internalType": "struct LipFactory.Lip[]",
          "name": "",
          "type": "tuple[]"
        }
      ],
      "stateMutability": "pure",
      "type": "function",
      "constant": true
    },
    {
      "inputs": [
        {
          "internalType": "bytes4",
          "name": "interfaceId",
          "type": "bytes4"
        }
      ],
      "name": "supportsInterface",
      "outputs": [
        {
          "internalType": "bool",
          "name": "",
          "type": "bool"
        }
      ],
      "stateMutability": "view",
      "type": "function",
      "constant": true
    },
    {
      "inputs": [],
      "name": "symbol",
      "outputs": [
        {
          "internalType": "string",
          "name": "",
          "type": "string"
        }
      ],
      "stateMutability": "view",
      "type": "function",
      "constant": true
    },
    {
      "inputs": [
        {
          "internalType": "uint256",
          "name": "tokenId",
          "type": "uint256"
        }
      ],
      "name": "tokenURI",
      "outputs": [
        {
          "internalType": "string",
          "name": "",
          "type": "string"
        }
      ],
      "stateMutability": "view",
      "type": "function",
      "constant": true
    },
    {
      "inputs": [
        {
          "internalType": "address",
          "name": "from",
          "type": "address"
        },
        {
          "internalType": "address",
          "name": "to",
          "type": "address"
        },
        {
          "internalType": "uint256",
          "name": "tokenId",
          "type": "uint256"
        }
      ],
      "name": "transferFrom",
      "outputs": [],
      "stateMutability": "nonpayable",
      "type": "function"
    },
    {
      "inputs": [
        {
          "internalType": "address",
          "name": "newOwner",
          "type": "address"
        }
      ],
      "name": "transferOwnership",
      "outputs": [],
      "stateMutability": "nonpayable",
      "type": "function"
    },
    {
      "inputs": [],
      "name": "withDraw",
      "outputs": [],
      "stateMutability": "payable",
      "type": "function",
      "payable": true
    },
    {
      "inputs": [
        {
          "internalType": "uint256",
          "name": "_lipId",
          "type": "uint256"
        },
        {
          "internalType": "uint256",
          "name": "_targetId",
          "type": "uint256"
        }
      ],
      "name": "attack",
      "outputs": [
        {
          "internalType": "int256",
          "name": "",
          "type": "int256"
        }
      ],
      "stateMutability": "nonpayable",
      "type": "function"
    }
  ],
  "bytecode": "0x6080604052662386f26fc10000600855620151806009556010600a55600a54600a6200002c91906200043f565b600b556064600c60006101000a81548160ff021916908360ff160217905550662386f26fc10000600f55600060105560466011553480156200006d57600080fd5b506040518060400160405280600981526020017f4c697020546f6b656e00000000000000000000000000000000000000000000008152506040518060400160405280600381526020017f4c505400000000000000000000000000000000000000000000000000000000008152508160009080519060200190620000f292919062000202565b5080600190805190602001906200010b92919062000202565b5050506200012e620001226200013460201b60201c565b6200013c60201b60201c565b620004f5565b600033905090565b6000600660009054906101000a900473ffffffffffffffffffffffffffffffffffffffff16905081600660006101000a81548173ffffffffffffffffffffffffffffffffffffffff021916908373ffffffffffffffffffffffffffffffffffffffff1602179055508173ffffffffffffffffffffffffffffffffffffffff168173ffffffffffffffffffffffffffffffffffffffff167f8be0079c531659141344cd1fd0a4f28419497f9722a3daafe3b4186f6b6457e060405160405180910390a35050565b8280546200021090620004bf565b90600052602060002090601f01602090048101928262000234576000855562000280565b82601f106200024f57805160ff191683800117855562000280565b8280016001018555821562000280579182015b828111156200027f57825182559160200191906001019062000262565b5b5090506200028f919062000293565b5090565b5b80821115620002ae57600081600090555060010162000294565b5090565b7f4e487b7100000000000000000000000000000000000000000000000000000000600052601160045260246000fd5b60008160011c9050919050565b6000808291508390505b60018511156200034057808604811115620003185762000317620002b2565b5b6001851615620003285780820291505b80810290506200033885620002e1565b9450620002f8565b94509492505050565b6000826200035b57600190506200042e565b816200036b57600090506200042e565b81600181146200038457600281146200038f57620003c5565b60019150506200042e565b60ff841115620003a457620003a3620002b2565b5b8360020a915084821115620003be57620003bd620002b2565b5b506200042e565b5060208310610133831016604e8410600b8410161715620003ff5782820a905083811115620003f957620003f8620002b2565b5b6200042e565b6200040e8484846001620002ee565b92509050818404811115620004285762000427620002b2565b5b81810290505b9392505050565b6000819050919050565b60006200044c8262000435565b9150620004598362000435565b9250620004887fffffffffffffffffffffffffffffffffffffffffffffffffffffffffffffffff848462000349565b905092915050565b7f4e487b7100000000000000000000000000000000000000000000000000000000600052602260045260246000fd5b60006002820490506001821680620004d857607f821691505b60208210811415620004ef57620004ee62000490565b5b50919050565b614d3280620005056000396000f3fe60806040526004361061019c5760003560e01c8063715018a6116100ec578063b88d4fde1161008a578063ccf670f811610064578063ccf670f8146105c8578063e1fa7638146105f1578063e985e9c51461062e578063f2fde38b1461066b5761019c565b8063b88d4fde14610539578063c39cbef114610562578063c87b56dd1461058b5761019c565b80638da5cb5b116100c65780638da5cb5b1461047d578063906435f1146104a857806395d89b41146104e5578063a22cb465146105105761019c565b8063715018a6146103ec57806376c2edc9146104035780638c0b9c54146104405761019c565b806323b872dd116101595780635ec163db116101335780635ec163db146103125780636352211e14610356578063698d640c1461039357806370a08231146103af5761019c565b806323b872dd146102955780632c44cfc3146102be57806342842e0e146102e95761019c565b806301ffc9a7146101a157806306fdde03146101de578063081812fc14610209578063095ea7b3146102465780630ce90ec21461026f5780630fdb1c101461028b575b600080fd5b3480156101ad57600080fd5b506101c860048036038101906101c3919061316e565b610694565b6040516101d591906131b6565b60405180910390f35b3480156101ea57600080fd5b506101f3610776565b604051610200919061326a565b60405180910390f35b34801561021557600080fd5b50610230600480360381019061022b91906132c2565b610808565b60405161023d9190613330565b60405180910390f35b34801561025257600080fd5b5061026d60048036038101906102689190613377565b61088d565b005b610289600480360381019061028491906132c2565b6109a5565b005b610293610a75565b005b3480156102a157600080fd5b506102bc60048036038101906102b791906133b7565b610b47565b005b3480156102ca57600080fd5b506102d3610ba7565b6040516102e0919061362d565b60405180910390f35b3480156102f557600080fd5b50610310600480360381019061030b91906133b7565b610d5e565b005b34801561031e57600080fd5b50610339600480360381019061033491906132c2565b610d7e565b60405161034d98979695949392919061368b565b60405180910390f35b34801561036257600080fd5b5061037d600480360381019061037891906132c2565b610ea4565b60405161038a9190613330565b60405180910390f35b6103ad60048036038101906103a89190613845565b610f56565b005b3480156103bb57600080fd5b506103d660048036038101906103d1919061388e565b610f71565b6040516103e391906138bb565b60405180910390f35b3480156103f857600080fd5b50610401611029565b005b34801561040f57600080fd5b5061042a6004803603810190610425919061388e565b6110b1565b604051610437919061362d565b60405180910390f35b34801561044c57600080fd5b506104676004803603810190610462919061388e565b61133a565b604051610474919061362d565b60405180910390f35b34801561048957600080fd5b506104926115b4565b60405161049f9190613330565b60405180910390f35b3480156104b457600080fd5b506104cf60048036038101906104ca9190613b30565b6115de565b6040516104dc919061362d565b60405180910390f35b3480156104f157600080fd5b506104fa611601565b604051610507919061326a565b60405180910390f35b34801561051c57600080fd5b5061053760048036038101906105329190613ba5565b611693565b005b34801561054557600080fd5b50610560600480360381019061055b9190613c86565b6116a9565b005b34801561056e57600080fd5b5061058960048036038101906105849190613d64565b61170b565b005b34801561059757600080fd5b506105b260048036038101906105ad91906132c2565b6117d4565b6040516105bf919061326a565b60405180910390f35b3480156105d457600080fd5b506105ef60048036038101906105ea91906132c2565b61187b565b005b3480156105fd57600080fd5b5061061860048036038101906106139190613dc4565b611901565b6040516106259190613e1d565b60405180910390f35b34801561063a57600080fd5b5061065560048036038101906106509190613e38565b611bcd565b60405161066291906131b6565b60405180910390f35b34801561067757600080fd5b50610692600480360381019061068d919061388e565b611c61565b005b60007f80ac58cd000000000000000000000000000000000000000000000000000000007bffffffffffffffffffffffffffffffffffffffffffffffffffffffff1916827bffffffffffffffffffffffffffffffffffffffffffffffffffffffff1916148061075f57507f5b5e139f000000000000000000000000000000000000000000000000000000007bffffffffffffffffffffffffffffffffffffffffffffffffffffffff1916827bffffffffffffffffffffffffffffffffffffffffffffffffffffffff1916145b8061076f575061076e82611d59565b5b9050919050565b60606000805461078590613ea7565b80601f01602080910402602001604051908101604052809291908181526020018280546107b190613ea7565b80156107fe5780601f106107d3576101008083540402835291602001916107fe565b820191906000526020600020905b8154815290600101906020018083116107e157829003601f168201915b5050505050905090565b600061081382611dc3565b610852576040517f08c379a000000000000000000000000000000000000000000000000000000000815260040161084990613f4b565b60405180910390fd5b6004600083815260200190815260200160002060009054906101000a900473ffffffffffffffffffffffffffffffffffffffff169050919050565b600061089882610ea4565b90508073ffffffffffffffffffffffffffffffffffffffff168373ffffffffffffffffffffffffffffffffffffffff161415610909576040517f08c379a000000000000000000000000000000000000000000000000000000000815260040161090090613fdd565b60405180910390fd5b8073ffffffffffffffffffffffffffffffffffffffff16610928611e2f565b73ffffffffffffffffffffffffffffffffffffffff161480610957575061095681610951611e2f565b611bcd565b5b610996576040517f08c379a000000000000000000000000000000000000000000000000000000000815260040161098d9061406f565b60405180910390fd5b6109a08383611e37565b505050565b806109af81610ea4565b73ffffffffffffffffffffffffffffffffffffffff163373ffffffffffffffffffffffffffffffffffffffff16146109e657600080fd5b6000600d83815481106109fc576109fb61408f565b5b90600052602060002090600402019050610a1581611ef0565b610a1e57600080fd5b600f54341015610a2d57600080fd5b80600301600081819054906101000a900460ff1680929190610a4e906140ed565b91906101000a81548160ff021916908360ff16021790555050610a7081611f17565b505050565b610a7d611e2f565b73ffffffffffffffffffffffffffffffffffffffff16610a9b6115b4565b73ffffffffffffffffffffffffffffffffffffffff1614610af1576040517f08c379a0000000000000000000000000000000000000000000000000000000008152600401610ae890614163565b60405180910390fd5b6000610afb6115b4565b90508073ffffffffffffffffffffffffffffffffffffffff166108fc479081150290604051600060405180830381858888f19350505050158015610b43573d6000803e3d6000fd5b5050565b610b58610b52611e2f565b82611f4a565b610b97576040517f08c379a0000000000000000000000000000000000000000000000000000000008152600401610b8e906141f5565b60405180910390fd5b610ba2838383612028565b505050565b60606000600d805480602002602001604051908101604052809291908181526020016000905b82821015610d4657838290600052602060002090600402016040518061010001604052908160008201548152602001600182018054610c0b90613ea7565b80601f0160208091040260200160405190810160405280929190818152602001828054610c3790613ea7565b8015610c845780601f10610c5957610100808354040283529160200191610c84565b820191906000526020600020905b815481529060010190602001808311610c6757829003601f168201915b50505050508152602001600282015481526020016003820160009054906101000a900460ff1660ff1660ff1681526020016003820160019054906101000a900460ff1660ff1660ff1681526020016003820160029054906101000a900463ffffffff1663ffffffff1663ffffffff1681526020016003820160069054906101000a900461ffff1661ffff1661ffff1681526020016003820160089054906101000a900461ffff1661ffff1661ffff168152505081526020019060010190610bcd565b505050509050610d55816115de565b90508091505090565b610d79838383604051806020016040528060008152506116a9565b505050565b600d8181548110610d8e57600080fd5b9060005260206000209060040201600091509050806000015490806001018054610db790613ea7565b80601f0160208091040260200160405190810160405280929190818152602001828054610de390613ea7565b8015610e305780601f10610e0557610100808354040283529160200191610e30565b820191906000526020600020905b815481529060010190602001808311610e1357829003601f168201915b5050505050908060020154908060030160009054906101000a900460ff16908060030160019054906101000a900460ff16908060030160029054906101000a900463ffffffff16908060030160069054906101000a900461ffff16908060030160089054906101000a900461ffff16905088565b6000806002600084815260200190815260200160002060009054906101000a900473ffffffffffffffffffffffffffffffffffffffff169050600073ffffffffffffffffffffffffffffffffffffffff168173ffffffffffffffffffffffffffffffffffffffff161415610f4d576040517f08c379a0000000000000000000000000000000000000000000000000000000008152600401610f4490614287565b60405180910390fd5b80915050919050565b600854341015610f6557600080fd5b610f6e81612284565b50565b60008073ffffffffffffffffffffffffffffffffffffffff168273ffffffffffffffffffffffffffffffffffffffff161415610fe2576040517f08c379a0000000000000000000000000000000000000000000000000000000008152600401610fd990614319565b60405180910390fd5b600360008373ffffffffffffffffffffffffffffffffffffffff1673ffffffffffffffffffffffffffffffffffffffff168152602001908152602001600020549050919050565b611031611e2f565b73ffffffffffffffffffffffffffffffffffffffff1661104f6115b4565b73ffffffffffffffffffffffffffffffffffffffff16146110a5576040517f08c379a000000000000000000000000000000000000000000000000000000000815260040161109c90614163565b60405180910390fd5b6110af6000612528565b565b606060006110be83610f71565b600d805490506110ce9190614339565b67ffffffffffffffff8111156110e7576110e661371a565b5b60405190808252806020026020018201604052801561112057816020015b61110d612f80565b8152602001906001900390816111055790505b5090506000805b600d80549050811015611324578473ffffffffffffffffffffffffffffffffffffffff1661115482610ea4565b73ffffffffffffffffffffffffffffffffffffffff161461131157600d81815481106111835761118261408f565b5b906000526020600020906004020160405180610100016040529081600082015481526020016001820180546111b790613ea7565b80601f01602080910402602001604051908101604052809291908181526020018280546111e390613ea7565b80156112305780601f1061120557610100808354040283529160200191611230565b820191906000526020600020905b81548152906001019060200180831161121357829003601f168201915b50505050508152602001600282015481526020016003820160009054906101000a900460ff1660ff1660ff1681526020016003820160019054906101000a900460ff1660ff1660ff1681526020016003820160029054906101000a900463ffffffff1663ffffffff1663ffffffff1681526020016003820160069054906101000a900461ffff1661ffff1661ffff1681526020016003820160089054906101000a900461ffff1661ffff1661ffff16815250508383815181106112f6576112f561408f565b5b602002602001018190525060018261130e919061436d565b91505b808061131c906143c3565b915050611127565b5061132e826115de565b91508192505050919050565b6060600061134783610f71565b67ffffffffffffffff8111156113605761135f61371a565b5b60405190808252806020026020018201604052801561139957816020015b611386612f80565b81526020019060019003908161137e5790505b5090506000805b600d8054905081101561159e578473ffffffffffffffffffffffffffffffffffffffff166113cd82610ea4565b73ffffffffffffffffffffffffffffffffffffffff16141561158b57600d81815481106113fd576113fc61408f565b5b9060005260206000209060040201604051806101000160405290816000820154815260200160018201805461143190613ea7565b80601f016020809104026020016040519081016040528092919081815260200182805461145d90613ea7565b80156114aa5780601f1061147f576101008083540402835291602001916114aa565b820191906000526020600020905b81548152906001019060200180831161148d57829003601f168201915b50505050508152602001600282015481526020016003820160009054906101000a900460ff1660ff1660ff1681526020016003820160019054906101000a900460ff1660ff1660ff1681526020016003820160029054906101000a900463ffffffff1663ffffffff1663ffffffff1681526020016003820160069054906101000a900461ffff1661ffff1661ffff1681526020016003820160089054906101000a900461ffff1661ffff1661ffff16815250508383815181106115705761156f61408f565b5b6020026020010181905250600182611588919061436d565b91505b8080611596906143c3565b9150506113a0565b506115a8826115de565b91508192505050919050565b6000600660009054906101000a900473ffffffffffffffffffffffffffffffffffffffff16905090565b60606115f9826000600185516115f49190614339565b6125ee565b819050919050565b60606001805461161090613ea7565b80601f016020809104026020016040519081016040528092919081815260200182805461163c90613ea7565b80156116895780601f1061165e57610100808354040283529160200191611689565b820191906000526020600020905b81548152906001019060200180831161166c57829003601f168201915b5050505050905090565b6116a561169e611e2f565b83836127a4565b5050565b6116ba6116b4611e2f565b83611f4a565b6116f9576040517f08c379a00000000000000000000000000000000000000000000000000000000081526004016116f0906141f5565b60405180910390fd5b61170584848484612911565b50505050565b60028381600d82815481106117235761172261408f565b5b906000526020600020906004020160030160009054906101000a900460ff1660ff16101561175057600080fd5b8461175a81610ea4565b73ffffffffffffffffffffffffffffffffffffffff163373ffffffffffffffffffffffffffffffffffffffff161461179157600080fd5b6000600d87815481106117a7576117a661408f565b5b9060005260206000209060040201905085858260010191906117ca929190612fd9565b5050505050505050565b60606117df82611dc3565b61181e576040517f08c379a00000000000000000000000000000000000000000000000000000000081526004016118159061447e565b60405180910390fd5b600061182861296d565b905060008151116118485760405180602001604052806000815250611873565b8061185284612984565b6040516020016118639291906144da565b6040516020818303038152906040525b915050919050565b611883611e2f565b73ffffffffffffffffffffffffffffffffffffffff166118a16115b4565b73ffffffffffffffffffffffffffffffffffffffff16146118f7576040517f08c379a00000000000000000000000000000000000000000000000000000000081526004016118ee90614163565b60405180910390fd5b80600f8190555050565b60008261190d81610ea4565b73ffffffffffffffffffffffffffffffffffffffff163373ffffffffffffffffffffffffffffffffffffffff161461194457600080fd5b6000600d858154811061195a5761195961408f565b5b906000526020600020906004020190506000600d85815481106119805761197f61408f565b5b9060005260206000209060040201905061199982611ef0565b6119d8576040517f08c379a00000000000000000000000000000000000000000000000000000000081526004016119cf9061454a565b60405180910390fd5b8060030160009054906101000a900460ff1660ff168260030160009054906101000a900460ff1660ff1614611a42576040517f08c379a0000000000000000000000000000000000000000000000000000000008152600401611a39906145b6565b60405180910390fd5b6000611a4e6064612ae5565b905060007fffffffffffffffffffffffffffffffffffffffffffffffffffffffffffffffff90506011548211611b3b5760018460030160069054906101000a900461ffff16611a9d91906145d6565b8460030160066101000a81548161ffff021916908361ffff16021790555060018460030160009054906101000a900460ff16611ad9919061460e565b8460030160006101000a81548160ff021916908360ff16021790555060018360030160089054906101000a900461ffff16611b1491906145d6565b8360030160086101000a81548161ffff021916908361ffff16021790555060019050611bb6565b60018460030160089054906101000a900461ffff16611b5a91906145d6565b8460030160086101000a81548161ffff021916908361ffff16021790555060018360030160069054906101000a900461ffff16611b9791906145d6565b8360030160066101000a81548161ffff021916908361ffff1602179055505b611bbf84611f17565b809550505050505092915050565b6000600560008473ffffffffffffffffffffffffffffffffffffffff1673ffffffffffffffffffffffffffffffffffffffff16815260200190815260200160002060008373ffffffffffffffffffffffffffffffffffffffff1673ffffffffffffffffffffffffffffffffffffffff16815260200190815260200160002060009054906101000a900460ff16905092915050565b611c69611e2f565b73ffffffffffffffffffffffffffffffffffffffff16611c876115b4565b73ffffffffffffffffffffffffffffffffffffffff1614611cdd576040517f08c379a0000000000000000000000000000000000000000000000000000000008152600401611cd490614163565b60405180910390fd5b600073ffffffffffffffffffffffffffffffffffffffff168173ffffffffffffffffffffffffffffffffffffffff161415611d4d576040517f08c379a0000000000000000000000000000000000000000000000000000000008152600401611d44906146b7565b60405180910390fd5b611d5681612528565b50565b60007f01ffc9a7000000000000000000000000000000000000000000000000000000007bffffffffffffffffffffffffffffffffffffffffffffffffffffffff1916827bffffffffffffffffffffffffffffffffffffffffffffffffffffffff1916149050919050565b60008073ffffffffffffffffffffffffffffffffffffffff166002600084815260200190815260200160002060009054906101000a900473ffffffffffffffffffffffffffffffffffffffff1673ffffffffffffffffffffffffffffffffffffffff1614159050919050565b600033905090565b816004600083815260200190815260200160002060006101000a81548173ffffffffffffffffffffffffffffffffffffffff021916908373ffffffffffffffffffffffffffffffffffffffff160217905550808273ffffffffffffffffffffffffffffffffffffffff16611eaa83610ea4565b73ffffffffffffffffffffffffffffffffffffffff167f8c5be1e5ebec7d5bd14f71427d1e84f3dd0314c0f7b2291e5b200ac8c7c3b92560405160405180910390a45050565b6000428260030160029054906101000a900463ffffffff1663ffffffff1611159050919050565b60095442611f25919061436d565b8160030160026101000a81548163ffffffff021916908363ffffffff16021790555050565b6000611f5582611dc3565b611f94576040517f08c379a0000000000000000000000000000000000000000000000000000000008152600401611f8b90614749565b60405180910390fd5b6000611f9f83610ea4565b90508073ffffffffffffffffffffffffffffffffffffffff168473ffffffffffffffffffffffffffffffffffffffff16148061200e57508373ffffffffffffffffffffffffffffffffffffffff16611ff684610808565b73ffffffffffffffffffffffffffffffffffffffff16145b8061201f575061201e8185611bcd565b5b91505092915050565b8273ffffffffffffffffffffffffffffffffffffffff1661204882610ea4565b73ffffffffffffffffffffffffffffffffffffffff161461209e576040517f08c379a0000000000000000000000000000000000000000000000000000000008152600401612095906147db565b60405180910390fd5b600073ffffffffffffffffffffffffffffffffffffffff168273ffffffffffffffffffffffffffffffffffffffff16141561210e576040517f08c379a00000000000000000000000000000000000000000000000000000000081526004016121059061486d565b60405180910390fd5b612119838383612b3e565b612124600082611e37565b6001600360008573ffffffffffffffffffffffffffffffffffffffff1673ffffffffffffffffffffffffffffffffffffffff16815260200190815260200160002060008282546121749190614339565b925050819055506001600360008473ffffffffffffffffffffffffffffffffffffffff1673ffffffffffffffffffffffffffffffffffffffff16815260200190815260200160002060008282546121cb919061436d565b92505081905550816002600083815260200190815260200160002060006101000a81548173ffffffffffffffffffffffffffffffffffffffff021916908373ffffffffffffffffffffffffffffffffffffffff160217905550808273ffffffffffffffffffffffffffffffffffffffff168473ffffffffffffffffffffffffffffffffffffffff167fddf252ad1be2c89b69c2b068fc378daa952ba7f163c4a11628f55a4df523b3ef60405160405180910390a4505050565b6000612291600b54612b43565b905060006122b0600c60009054906101000a900460ff1660ff16612b43565b9050600d6040518061010001604052806007548152602001858152602001848152602001600160ff1681526020018360ff168152602001600063ffffffff168152602001600061ffff168152602001600061ffff16815250908060018154018082558091505060019003906000526020600020906004020160009091909190915060008201518160000155602082015181600101908051906020019061235792919061305f565b506040820151816002015560608201518160030160006101000a81548160ff021916908360ff16021790555060808201518160030160016101000a81548160ff021916908360ff16021790555060a08201518160030160026101000a81548163ffffffff021916908363ffffffff16021790555060c08201518160030160066101000a81548161ffff021916908361ffff16021790555060e08201518160030160086101000a81548161ffff021916908361ffff160217905550505061241f33600754612b88565b6124726001600e60003373ffffffffffffffffffffffffffffffffffffffff1673ffffffffffffffffffffffffffffffffffffffff16815260200190815260200160002054612ba690919063ffffffff16565b600e60003373ffffffffffffffffffffffffffffffffffffffff1673ffffffffffffffffffffffffffffffffffffffff168152602001908152602001600020819055503373ffffffffffffffffffffffffffffffffffffffff167f29c4292b8838988609f9bd8e9042f7e77158b1f5ebfcae6494b7b709c3d20ffc600754846040516124ff92919061488d565b60405180910390a261251d6001600754612ba690919063ffffffff16565b600781905550505050565b6000600660009054906101000a900473ffffffffffffffffffffffffffffffffffffffff16905081600660006101000a81548173ffffffffffffffffffffffffffffffffffffffff021916908373ffffffffffffffffffffffffffffffffffffffff1602179055508173ffffffffffffffffffffffffffffffffffffffff168173ffffffffffffffffffffffffffffffffffffffff167f8be0079c531659141344cd1fd0a4f28419497f9722a3daafe3b4186f6b6457e060405160405180910390a35050565b600082905060008290508082141561260757505061279f565b600085600286866126189190614339565b61262291906148e5565b8661262d919061436d565b8151811061263e5761263d61408f565b5b602002602001015190505b818311612773575b806060015160ff1686848151811061266c5761266b61408f565b5b60200260200101516060015160ff16101561269457828061268c906143c3565b935050612651565b5b8582815181106126a8576126a761408f565b5b60200260200101516060015160ff16816060015160ff1610156126d85781806126d090614916565b925050612695565b81831161276e578582815181106126f2576126f161408f565b5b602002602001015186848151811061270d5761270c61408f565b5b60200260200101518785815181106127285761272761408f565b5b602002602001018885815181106127425761274161408f565b5b602002602001018290528290525050828061275c906143c3565b935050818061276a90614916565b9250505b612649565b81851015612787576127868686846125ee565b5b8383101561279b5761279a8684866125ee565b5b5050505b505050565b8173ffffffffffffffffffffffffffffffffffffffff168373ffffffffffffffffffffffffffffffffffffffff161415612813576040517f08c379a000000000000000000000000000000000000000000000000000000000815260040161280a9061498c565b60405180910390fd5b80600560008573ffffffffffffffffffffffffffffffffffffffff1673ffffffffffffffffffffffffffffffffffffffff16815260200190815260200160002060008473ffffffffffffffffffffffffffffffffffffffff1673ffffffffffffffffffffffffffffffffffffffff16815260200190815260200160002060006101000a81548160ff0219169083151502179055508173ffffffffffffffffffffffffffffffffffffffff168373ffffffffffffffffffffffffffffffffffffffff167f17307eab39ab6107e8899845ad3d59bd9653f200f220920489ca2b5937696c318360405161290491906131b6565b60405180910390a3505050565b61291c848484612028565b61292884848484612bbc565b612967576040517f08c379a000000000000000000000000000000000000000000000000000000000815260040161295e90614a1e565b60405180910390fd5b50505050565b606060405180602001604052806000815250905090565b606060008214156129cc576040518060400160405280600181526020017f30000000000000000000000000000000000000000000000000000000000000008152509050612ae0565b600082905060005b600082146129fe5780806129e7906143c3565b915050600a826129f791906148e5565b91506129d4565b60008167ffffffffffffffff811115612a1a57612a1961371a565b5b6040519080825280601f01601f191660200182016040528015612a4c5781602001600182028036833780820191505090505b5090505b60008514612ad957600182612a659190614339565b9150600a85612a749190614a3e565b6030612a80919061436d565b60f81b818381518110612a9657612a9561408f565b5b60200101907effffffffffffffffffffffffffffffffffffffffffffffffffffffffffffff1916908160001a905350600a85612ad291906148e5565b9450612a50565b8093505050505b919050565b60006001601054612af6919061436d565b601081905550814233601054604051602001612b1493929190614ad8565b6040516020818303038152906040528051906020012060001c612b379190614a3e565b9050919050565b505050565b6000804233604051602001612b59929190614b15565b6040516020818303038152906040528051906020012060001c90508281612b809190614a3e565b915050919050565b612ba2828260405180602001604052806000815250612d44565b5050565b60008183612bb4919061436d565b905092915050565b6000612bdd8473ffffffffffffffffffffffffffffffffffffffff16612d9f565b15612d37578373ffffffffffffffffffffffffffffffffffffffff1663150b7a02612c06611e2f565b8786866040518563ffffffff1660e01b8152600401612c289493929190614b96565b6020604051808303816000875af1925050508015612c6457506040513d601f19601f82011682018060405250810190612c619190614bf7565b60015b612ce7573d8060008114612c94576040519150601f19603f3d011682016040523d82523d6000602084013e612c99565b606091505b50600081511415612cdf576040517f08c379a0000000000000000000000000000000000000000000000000000000008152600401612cd690614a1e565b60405180910390fd5b805181602001fd5b63150b7a0260e01b7bffffffffffffffffffffffffffffffffffffffffffffffffffffffff1916817bffffffffffffffffffffffffffffffffffffffffffffffffffffffff191614915050612d3c565b600190505b949350505050565b612d4e8383612db2565b612d5b6000848484612bbc565b612d9a576040517f08c379a0000000000000000000000000000000000000000000000000000000008152600401612d9190614a1e565b60405180910390fd5b505050565b600080823b905060008111915050919050565b600073ffffffffffffffffffffffffffffffffffffffff168273ffffffffffffffffffffffffffffffffffffffff161415612e22576040517f08c379a0000000000000000000000000000000000000000000000000000000008152600401612e1990614c70565b60405180910390fd5b612e2b81611dc3565b15612e6b576040517f08c379a0000000000000000000000000000000000000000000000000000000008152600401612e6290614cdc565b60405180910390fd5b612e7760008383612b3e565b6001600360008473ffffffffffffffffffffffffffffffffffffffff1673ffffffffffffffffffffffffffffffffffffffff1681526020019081526020016000206000828254612ec7919061436d565b92505081905550816002600083815260200190815260200160002060006101000a81548173ffffffffffffffffffffffffffffffffffffffff021916908373ffffffffffffffffffffffffffffffffffffffff160217905550808273ffffffffffffffffffffffffffffffffffffffff16600073ffffffffffffffffffffffffffffffffffffffff167fddf252ad1be2c89b69c2b068fc378daa952ba7f163c4a11628f55a4df523b3ef60405160405180910390a45050565b604051806101000160405280600081526020016060815260200160008152602001600060ff168152602001600060ff168152602001600063ffffffff168152602001600061ffff168152602001600061ffff1681525090565b828054612fe590613ea7565b90600052602060002090601f016020900481019282613007576000855561304e565b82601f1061302057803560ff191683800117855561304e565b8280016001018555821561304e579182015b8281111561304d578235825591602001919060010190613032565b5b50905061305b91906130e5565b5090565b82805461306b90613ea7565b90600052602060002090601f01602090048101928261308d57600085556130d4565b82601f106130a657805160ff19168380011785556130d4565b828001600101855582156130d4579182015b828111156130d35782518255916020019190600101906130b8565b5b5090506130e191906130e5565b5090565b5b808211156130fe5760008160009055506001016130e6565b5090565b6000604051905090565b600080fd5b600080fd5b60007fffffffff0000000000000000000000000000000000000000000000000000000082169050919050565b61314b81613116565b811461315657600080fd5b50565b60008135905061316881613142565b92915050565b6000602082840312156131845761318361310c565b5b600061319284828501613159565b91505092915050565b60008115159050919050565b6131b08161319b565b82525050565b60006020820190506131cb60008301846131a7565b92915050565b600081519050919050565b600082825260208201905092915050565b60005b8381101561320b5780820151818401526020810190506131f0565b8381111561321a576000848401525b50505050565b6000601f19601f8301169050919050565b600061323c826131d1565b61324681856131dc565b93506132568185602086016131ed565b61325f81613220565b840191505092915050565b600060208201905081810360008301526132848184613231565b905092915050565b6000819050919050565b61329f8161328c565b81146132aa57600080fd5b50565b6000813590506132bc81613296565b92915050565b6000602082840312156132d8576132d761310c565b5b60006132e6848285016132ad565b91505092915050565b600073ffffffffffffffffffffffffffffffffffffffff82169050919050565b600061331a826132ef565b9050919050565b61332a8161330f565b82525050565b60006020820190506133456000830184613321565b92915050565b6133548161330f565b811461335f57600080fd5b50565b6000813590506133718161334b565b92915050565b6000806040838503121561338e5761338d61310c565b5b600061339c85828601613362565b92505060206133ad858286016132ad565b9150509250929050565b6000806000606084860312156133d0576133cf61310c565b5b60006133de86828701613362565b93505060206133ef86828701613362565b9250506040613400868287016132ad565b9150509250925092565b600081519050919050565b600082825260208201905092915050565b6000819050602082019050919050565b61343f8161328c565b82525050565b600082825260208201905092915050565b6000613461826131d1565b61346b8185613445565b935061347b8185602086016131ed565b61348481613220565b840191505092915050565b600060ff82169050919050565b6134a58161348f565b82525050565b600063ffffffff82169050919050565b6134c4816134ab565b82525050565b600061ffff82169050919050565b6134e1816134ca565b82525050565b6000610100830160008301516135006000860182613436565b50602083015184820360208601526135188282613456565b915050604083015161352d6040860182613436565b506060830151613540606086018261349c565b506080830151613553608086018261349c565b5060a083015161356660a08601826134bb565b5060c083015161357960c08601826134d8565b5060e083015161358c60e08601826134d8565b508091505092915050565b60006135a383836134e7565b905092915050565b6000602082019050919050565b60006135c38261340a565b6135cd8185613415565b9350836020820285016135df85613426565b8060005b8581101561361b57848403895281516135fc8582613597565b9450613607836135ab565b925060208a019950506001810190506135e3565b50829750879550505050505092915050565b6000602082019050818103600083015261364781846135b8565b905092915050565b6136588161328c565b82525050565b6136678161348f565b82525050565b613676816134ab565b82525050565b613685816134ca565b82525050565b6000610100820190506136a1600083018b61364f565b81810360208301526136b3818a613231565b90506136c2604083018961364f565b6136cf606083018861365e565b6136dc608083018761365e565b6136e960a083018661366d565b6136f660c083018561367c565b61370360e083018461367c565b9998505050505050505050565b600080fd5b600080fd5b7f4e487b7100000000000000000000000000000000000000000000000000000000600052604160045260246000fd5b61375282613220565b810181811067ffffffffffffffff821117156137715761377061371a565b5b80604052505050565b6000613784613102565b90506137908282613749565b919050565b600067ffffffffffffffff8211156137b0576137af61371a565b5b6137b982613220565b9050602081019050919050565b82818337600083830152505050565b60006137e86137e384613795565b61377a565b90508281526020810184848401111561380457613803613715565b5b61380f8482856137c6565b509392505050565b600082601f83011261382c5761382b613710565b5b813561383c8482602086016137d5565b91505092915050565b60006020828403121561385b5761385a61310c565b5b600082013567ffffffffffffffff81111561387957613878613111565b5b61388584828501613817565b91505092915050565b6000602082840312156138a4576138a361310c565b5b60006138b284828501613362565b91505092915050565b60006020820190506138d0600083018461364f565b92915050565b600067ffffffffffffffff8211156138f1576138f061371a565b5b602082029050602081019050919050565b600080fd5b600080fd5b600080fd5b61391a8161348f565b811461392557600080fd5b50565b60008135905061393781613911565b92915050565b613946816134ab565b811461395157600080fd5b50565b6000813590506139638161393d565b92915050565b613972816134ca565b811461397d57600080fd5b50565b60008135905061398f81613969565b92915050565b600061010082840312156139ac576139ab613907565b5b6139b761010061377a565b905060006139c7848285016132ad565b600083015250602082013567ffffffffffffffff8111156139eb576139ea61390c565b5b6139f784828501613817565b6020830152506040613a0b848285016132ad565b6040830152506060613a1f84828501613928565b6060830152506080613a3384828501613928565b60808301525060a0613a4784828501613954565b60a08301525060c0613a5b84828501613980565b60c08301525060e0613a6f84828501613980565b60e08301525092915050565b6000613a8e613a89846138d6565b61377a565b90508083825260208201905060208402830185811115613ab157613ab0613902565b5b835b81811015613af857803567ffffffffffffffff811115613ad657613ad5613710565b5b808601613ae38982613995565b85526020850194505050602081019050613ab3565b5050509392505050565b600082601f830112613b1757613b16613710565b5b8135613b27848260208601613a7b565b91505092915050565b600060208284031215613b4657613b4561310c565b5b600082013567ffffffffffffffff811115613b6457613b63613111565b5b613b7084828501613b02565b91505092915050565b613b828161319b565b8114613b8d57600080fd5b50565b600081359050613b9f81613b79565b92915050565b60008060408385031215613bbc57613bbb61310c565b5b6000613bca85828601613362565b9250506020613bdb85828601613b90565b9150509250929050565b600067ffffffffffffffff821115613c0057613bff61371a565b5b613c0982613220565b9050602081019050919050565b6000613c29613c2484613be5565b61377a565b905082815260208101848484011115613c4557613c44613715565b5b613c508482856137c6565b509392505050565b600082601f830112613c6d57613c6c613710565b5b8135613c7d848260208601613c16565b91505092915050565b60008060008060808587031215613ca057613c9f61310c565b5b6000613cae87828801613362565b9450506020613cbf87828801613362565b9350506040613cd0878288016132ad565b925050606085013567ffffffffffffffff811115613cf157613cf0613111565b5b613cfd87828801613c58565b91505092959194509250565b600080fd5b60008083601f840112613d2457613d23613710565b5b8235905067ffffffffffffffff811115613d4157613d40613d09565b5b602083019150836001820283011115613d5d57613d5c613902565b5b9250929050565b600080600060408486031215613d7d57613d7c61310c565b5b6000613d8b868287016132ad565b935050602084013567ffffffffffffffff811115613dac57613dab613111565b5b613db886828701613d0e565b92509250509250925092565b60008060408385031215613ddb57613dda61310c565b5b6000613de9858286016132ad565b9250506020613dfa858286016132ad565b9150509250929050565b6000819050919050565b613e1781613e04565b82525050565b6000602082019050613e326000830184613e0e565b92915050565b60008060408385031215613e4f57613e4e61310c565b5b6000613e5d85828601613362565b9250506020613e6e85828601613362565b9150509250929050565b7f4e487b7100000000000000000000000000000000000000000000000000000000600052602260045260246000fd5b60006002820490506001821680613ebf57607f821691505b60208210811415613ed357613ed2613e78565b5b50919050565b7f4552433732313a20617070726f76656420717565727920666f72206e6f6e657860008201527f697374656e7420746f6b656e0000000000000000000000000000000000000000602082015250565b6000613f35602c836131dc565b9150613f4082613ed9565b604082019050919050565b60006020820190508181036000830152613f6481613f28565b9050919050565b7f4552433732313a20617070726f76616c20746f2063757272656e74206f776e6560008201527f7200000000000000000000000000000000000000000000000000000000000000602082015250565b6000613fc76021836131dc565b9150613fd282613f6b565b604082019050919050565b60006020820190508181036000830152613ff681613fba565b9050919050565b7f4552433732313a20617070726f76652063616c6c6572206973206e6f74206f7760008201527f6e6572206e6f7220617070726f76656420666f7220616c6c0000000000000000602082015250565b60006140596038836131dc565b915061406482613ffd565b604082019050919050565b600060208201905081810360008301526140888161404c565b9050919050565b7f4e487b7100000000000000000000000000000000000000000000000000000000600052603260045260246000fd5b7f4e487b7100000000000000000000000000000000000000000000000000000000600052601160045260246000fd5b60006140f88261348f565b915060ff82141561410c5761410b6140be565b5b600182019050919050565b7f4f776e61626c653a2063616c6c6572206973206e6f7420746865206f776e6572600082015250565b600061414d6020836131dc565b915061415882614117565b602082019050919050565b6000602082019050818103600083015261417c81614140565b9050919050565b7f4552433732313a207472616e736665722063616c6c6572206973206e6f74206f60008201527f776e6572206e6f7220617070726f766564000000000000000000000000000000602082015250565b60006141df6031836131dc565b91506141ea82614183565b604082019050919050565b6000602082019050818103600083015261420e816141d2565b9050919050565b7f4552433732313a206f776e657220717565727920666f72206e6f6e657869737460008201527f656e7420746f6b656e0000000000000000000000000000000000000000000000602082015250565b60006142716029836131dc565b915061427c82614215565b604082019050919050565b600060208201905081810360008301526142a081614264565b9050919050565b7f4552433732313a2062616c616e636520717565727920666f7220746865207a6560008201527f726f206164647265737300000000000000000000000000000000000000000000602082015250565b6000614303602a836131dc565b915061430e826142a7565b604082019050919050565b60006020820190508181036000830152614332816142f6565b9050919050565b60006143448261328c565b915061434f8361328c565b925082821015614362576143616140be565b5b828203905092915050565b60006143788261328c565b91506143838361328c565b9250827fffffffffffffffffffffffffffffffffffffffffffffffffffffffffffffffff038211156143b8576143b76140be565b5b828201905092915050565b60006143ce8261328c565b91507fffffffffffffffffffffffffffffffffffffffffffffffffffffffffffffffff821415614401576144006140be565b5b600182019050919050565b7f4552433732314d657461646174613a2055524920717565727920666f72206e6f60008201527f6e6578697374656e7420746f6b656e0000000000000000000000000000000000602082015250565b6000614468602f836131dc565b91506144738261440c565b604082019050919050565b600060208201905081810360008301526144978161445b565b9050919050565b600081905092915050565b60006144b4826131d1565b6144be818561449e565b93506144ce8185602086016131ed565b80840191505092915050565b60006144e682856144a9565b91506144f282846144a9565b91508190509392505050565b7f596f7572206c6970206973206e6f742072656164790000000000000000000000600082015250565b60006145346015836131dc565b915061453f826144fe565b602082019050919050565b6000602082019050818103600083015261456381614527565b9050919050565b7f4f6e6c79207468652073616d65206c6576656c2063616e206669676874000000600082015250565b60006145a0601d836131dc565b91506145ab8261456a565b602082019050919050565b600060208201905081810360008301526145cf81614593565b9050919050565b60006145e1826134ca565b91506145ec836134ca565b92508261ffff03821115614603576146026140be565b5b828201905092915050565b60006146198261348f565b91506146248361348f565b92508260ff0382111561463a576146396140be565b5b828201905092915050565b7f4f776e61626c653a206e6577206f776e657220697320746865207a65726f206160008201527f6464726573730000000000000000000000000000000000000000000000000000602082015250565b60006146a16026836131dc565b91506146ac82614645565b604082019050919050565b600060208201905081810360008301526146d081614694565b9050919050565b7f4552433732313a206f70657261746f7220717565727920666f72206e6f6e657860008201527f697374656e7420746f6b656e0000000000000000000000000000000000000000602082015250565b6000614733602c836131dc565b915061473e826146d7565b604082019050919050565b6000602082019050818103600083015261476281614726565b9050919050565b7f4552433732313a207472616e73666572206f6620746f6b656e2074686174206960008201527f73206e6f74206f776e0000000000000000000000000000000000000000000000602082015250565b60006147c56029836131dc565b91506147d082614769565b604082019050919050565b600060208201905081810360008301526147f4816147b8565b9050919050565b7f4552433732313a207472616e7366657220746f20746865207a65726f2061646460008201527f7265737300000000000000000000000000000000000000000000000000000000602082015250565b60006148576024836131dc565b9150614862826147fb565b604082019050919050565b600060208201905081810360008301526148868161484a565b9050919050565b60006040820190506148a2600083018561364f565b6148af602083018461364f565b9392505050565b7f4e487b7100000000000000000000000000000000000000000000000000000000600052601260045260246000fd5b60006148f08261328c565b91506148fb8361328c565b92508261490b5761490a6148b6565b5b828204905092915050565b60006149218261328c565b91506000821415614935576149346140be565b5b600182039050919050565b7f4552433732313a20617070726f766520746f2063616c6c657200000000000000600082015250565b60006149766019836131dc565b915061498182614940565b602082019050919050565b600060208201905081810360008301526149a581614969565b9050919050565b7f4552433732313a207472616e7366657220746f206e6f6e20455243373231526560008201527f63656976657220696d706c656d656e7465720000000000000000000000000000602082015250565b6000614a086032836131dc565b9150614a13826149ac565b604082019050919050565b60006020820190508181036000830152614a37816149fb565b9050919050565b6000614a498261328c565b9150614a548361328c565b925082614a6457614a636148b6565b5b828206905092915050565b6000819050919050565b614a8a614a858261328c565b614a6f565b82525050565b60008160601b9050919050565b6000614aa882614a90565b9050919050565b6000614aba82614a9d565b9050919050565b614ad2614acd8261330f565b614aaf565b82525050565b6000614ae48286614a79565b602082019150614af48285614ac1565b601482019150614b048284614a79565b602082019150819050949350505050565b6000614b218285614a79565b602082019150614b318284614ac1565b6014820191508190509392505050565b600081519050919050565b600082825260208201905092915050565b6000614b6882614b41565b614b728185614b4c565b9350614b828185602086016131ed565b614b8b81613220565b840191505092915050565b6000608082019050614bab6000830187613321565b614bb86020830186613321565b614bc5604083018561364f565b8181036060830152614bd78184614b5d565b905095945050505050565b600081519050614bf181613142565b92915050565b600060208284031215614c0d57614c0c61310c565b5b6000614c1b84828501614be2565b91505092915050565b7f4552433732313a206d696e7420746f20746865207a65726f2061646472657373600082015250565b6000614c5a6020836131dc565b9150614c6582614c24565b602082019050919050565b60006020820190508181036000830152614c8981614c4d565b9050919050565b7f4552433732313a20746f6b656e20616c7265616479206d696e74656400000000600082015250565b6000614cc6601c836131dc565b9150614cd182614c90565b602082019050919050565b60006020820190508181036000830152614cf581614cb9565b905091905056fea264697066735822122090d631538d155590a70a61a7b4da12ef96abc0111cf13ad357529f4e10e32d2f64736f6c634300080b0033",
  "immutableReferences": {},
  "source": "// SPDX-License-Identifier: MIT\r\n\r\npragma solidity >=0.4.22 <0.9.0;\r\nimport \"./liphelper.sol\";\r\n\r\ncontract LipAttack is LipHelper {\r\n  uint256 randNonce = 0;\r\n  uint256 attackVictoryProbability = 70;\r\n\r\n  function randMod(uint _modulus) internal returns(uint256) {\r\n    randNonce = randNonce + 1;\r\n    return uint256(keccak256(abi.encodePacked(block.timestamp, msg.sender, randNonce))) % _modulus;\r\n  }\r\n\r\n  function attack(uint256 _lipId, uint256 _targetId) external onlyOwnerOf(_lipId) returns(int) {\r\n    Lip storage myLip = lips[_lipId];\r\n    Lip storage enemyLip = lips[_targetId];\r\n    require(_isReady(myLip), \"Your lip is not ready\");\r\n    require(myLip.level == enemyLip.level, \"Only the same level can fight\");\r\n    uint256 rand = randMod(100);\r\n    int isWin = -1;\r\n    // if rand < 70 => you win else enemy win\r\n    if (rand <= attackVictoryProbability) {\r\n      myLip.winCount = myLip.winCount+1;\r\n      myLip.level = myLip.level + 1;\r\n      enemyLip.lossCount = enemyLip.lossCount + 1;\r\n      isWin = 1;\r\n    } else {\r\n      myLip.lossCount = myLip.lossCount+1;\r\n      enemyLip.winCount = enemyLip.winCount + 1;\r\n    }\r\n    _triggerCooldown(myLip);\r\n    return isWin;\r\n  }\r\n}",
  "sourcePath": "C:\\Github\\nft_game\\src\\contracts\\lipattack.sol",
  "compiler": {
    "name": "solc",
    "version": "0.8.11+commit.d7f03943.Emscripten.clang"
  },
  "schemaVersion": "3.4.4",
  "updatedAt": "2022-02-23T13:18:40.864Z",
  "networkType": "ethereum",
  "devdoc": {
    "kind": "dev",
    "methods": {
      "approve(address,uint256)": {
        "details": "See {IERC721-approve}."
      },
      "balanceOf(address)": {
        "details": "See {IERC721-balanceOf}."
      },
      "getApproved(uint256)": {
        "details": "See {IERC721-getApproved}."
      },
      "isApprovedForAll(address,address)": {
        "details": "See {IERC721-isApprovedForAll}."
      },
      "name()": {
        "details": "See {IERC721Metadata-name}."
      },
      "owner()": {
        "details": "Returns the address of the current owner."
      },
      "ownerOf(uint256)": {
        "details": "See {IERC721-ownerOf}."
      },
      "renounceOwnership()": {
        "details": "Leaves the contract without owner. It will not be possible to call `onlyOwner` functions anymore. Can only be called by the current owner. NOTE: Renouncing ownership will leave the contract without an owner, thereby removing any functionality that is only available to the owner."
      },
      "safeTransferFrom(address,address,uint256)": {
        "details": "See {IERC721-safeTransferFrom}."
      },
      "safeTransferFrom(address,address,uint256,bytes)": {
        "details": "See {IERC721-safeTransferFrom}."
      },
      "setApprovalForAll(address,bool)": {
        "details": "See {IERC721-setApprovalForAll}."
      },
      "supportsInterface(bytes4)": {
        "details": "See {IERC165-supportsInterface}."
      },
      "symbol()": {
        "details": "See {IERC721Metadata-symbol}."
      },
      "tokenURI(uint256)": {
        "details": "See {IERC721Metadata-tokenURI}."
      },
      "transferFrom(address,address,uint256)": {
        "details": "See {IERC721-transferFrom}."
      },
      "transferOwnership(address)": {
        "details": "Transfers ownership of the contract to a new account (`newOwner`). Can only be called by the current owner."
      }
    },
    "version": 1
  },
  "userdoc": {
    "kind": "user",
    "methods": {},
    "version": 1
  }
}