{
  "contractName": "LipAttack",
  "abi": [
    {
      "anonymous": false,
      "inputs": [
        {
          "indexed": true,
          "internalType": "address",
          "name": "owner",
          "type": "address"
        },
        {
          "indexed": true,
          "internalType": "address",
          "name": "approved",
          "type": "address"
        },
        {
          "indexed": true,
          "internalType": "uint256",
          "name": "tokenId",
          "type": "uint256"
        }
      ],
      "name": "Approval",
      "type": "event"
    },
    {
      "anonymous": false,
      "inputs": [
        {
          "indexed": true,
          "internalType": "address",
          "name": "owner",
          "type": "address"
        },
        {
          "indexed": true,
          "internalType": "address",
          "name": "operator",
          "type": "address"
        },
        {
          "indexed": false,
          "internalType": "bool",
          "name": "approved",
          "type": "bool"
        }
      ],
      "name": "ApprovalForAll",
      "type": "event"
    },
    {
      "anonymous": false,
      "inputs": [
        {
          "indexed": true,
          "internalType": "address",
          "name": "owner",
          "type": "address"
        },
        {
          "indexed": false,
          "internalType": "uint256",
          "name": "id",
          "type": "uint256"
        },
        {
          "indexed": false,
          "internalType": "uint256",
          "name": "dna",
          "type": "uint256"
        }
      ],
      "name": "NewLipCreated",
      "type": "event"
    },
    {
      "anonymous": false,
      "inputs": [
        {
          "indexed": true,
          "internalType": "address",
          "name": "previousOwner",
          "type": "address"
        },
        {
          "indexed": true,
          "internalType": "address",
          "name": "newOwner",
          "type": "address"
        }
      ],
      "name": "OwnershipTransferred",
      "type": "event"
    },
    {
      "anonymous": false,
      "inputs": [
        {
          "indexed": true,
          "internalType": "address",
          "name": "from",
          "type": "address"
        },
        {
          "indexed": true,
          "internalType": "address",
          "name": "to",
          "type": "address"
        },
        {
          "indexed": true,
          "internalType": "uint256",
          "name": "tokenId",
          "type": "uint256"
        }
      ],
      "name": "Transfer",
      "type": "event"
    },
    {
      "inputs": [
        {
          "internalType": "address",
          "name": "to",
          "type": "address"
        },
        {
          "internalType": "uint256",
          "name": "tokenId",
          "type": "uint256"
        }
      ],
      "name": "approve",
      "outputs": [],
      "stateMutability": "nonpayable",
      "type": "function"
    },
    {
      "inputs": [
        {
          "internalType": "address",
          "name": "owner",
          "type": "address"
        }
      ],
      "name": "balanceOf",
      "outputs": [
        {
          "internalType": "uint256",
          "name": "",
          "type": "uint256"
        }
      ],
      "stateMutability": "view",
      "type": "function",
      "constant": true
    },
    {
      "inputs": [
        {
          "internalType": "uint256",
          "name": "_lipId",
          "type": "uint256"
        },
        {
          "internalType": "string",
          "name": "_newName",
          "type": "string"
        }
      ],
      "name": "changeName",
      "outputs": [],
      "stateMutability": "nonpayable",
      "type": "function"
    },
    {
      "inputs": [
        {
          "internalType": "string",
          "name": "_name",
          "type": "string"
        }
      ],
      "name": "createRandomLip",
      "outputs": [],
      "stateMutability": "payable",
      "type": "function",
      "payable": true
    },
    {
      "inputs": [],
      "name": "getAllLips",
      "outputs": [
        {
          "components": [
            {
              "internalType": "uint256",
              "name": "id",
              "type": "uint256"
            },
            {
              "internalType": "string",
              "name": "name",
              "type": "string"
            },
            {
              "internalType": "uint256",
              "name": "dna",
              "type": "uint256"
            },
            {
              "internalType": "uint8",
              "name": "level",
              "type": "uint8"
            },
            {
              "internalType": "uint8",
              "name": "rarity",
              "type": "uint8"
            },
            {
              "internalType": "uint32",
              "name": "readyTime",
              "type": "uint32"
            },
            {
              "internalType": "uint16",
              "name": "winCount",
              "type": "uint16"
            },
            {
              "internalType": "uint16",
              "name": "lossCount",
              "type": "uint16"
            }
          ],
          "internalType": "struct LipFactory.Lip[]",
          "name": "",
          "type": "tuple[]"
        }
      ],
      "stateMutability": "view",
      "type": "function",
      "constant": true
    },
    {
      "inputs": [
        {
          "internalType": "uint256",
          "name": "tokenId",
          "type": "uint256"
        }
      ],
      "name": "getApproved",
      "outputs": [
        {
          "internalType": "address",
          "name": "",
          "type": "address"
        }
      ],
      "stateMutability": "view",
      "type": "function",
      "constant": true
    },
    {
      "inputs": [
        {
          "internalType": "address",
          "name": "_owner",
          "type": "address"
        }
      ],
      "name": "getEnemy",
      "outputs": [
        {
          "components": [
            {
              "internalType": "uint256",
              "name": "id",
              "type": "uint256"
            },
            {
              "internalType": "string",
              "name": "name",
              "type": "string"
            },
            {
              "internalType": "uint256",
              "name": "dna",
              "type": "uint256"
            },
            {
              "internalType": "uint8",
              "name": "level",
              "type": "uint8"
            },
            {
              "internalType": "uint8",
              "name": "rarity",
              "type": "uint8"
            },
            {
              "internalType": "uint32",
              "name": "readyTime",
              "type": "uint32"
            },
            {
              "internalType": "uint16",
              "name": "winCount",
              "type": "uint16"
            },
            {
              "internalType": "uint16",
              "name": "lossCount",
              "type": "uint16"
            }
          ],
          "internalType": "struct LipFactory.Lip[]",
          "name": "",
          "type": "tuple[]"
        }
      ],
      "stateMutability": "view",
      "type": "function",
      "constant": true
    },
    {
      "inputs": [
        {
          "internalType": "address",
          "name": "_owner",
          "type": "address"
        }
      ],
      "name": "getOwnerLips",
      "outputs": [
        {
          "components": [
            {
              "internalType": "uint256",
              "name": "id",
              "type": "uint256"
            },
            {
              "internalType": "string",
              "name": "name",
              "type": "string"
            },
            {
              "internalType": "uint256",
              "name": "dna",
              "type": "uint256"
            },
            {
              "internalType": "uint8",
              "name": "level",
              "type": "uint8"
            },
            {
              "internalType": "uint8",
              "name": "rarity",
              "type": "uint8"
            },
            {
              "internalType": "uint32",
              "name": "readyTime",
              "type": "uint32"
            },
            {
              "internalType": "uint16",
              "name": "winCount",
              "type": "uint16"
            },
            {
              "internalType": "uint16",
              "name": "lossCount",
              "type": "uint16"
            }
          ],
          "internalType": "struct LipFactory.Lip[]",
          "name": "",
          "type": "tuple[]"
        }
      ],
      "stateMutability": "view",
      "type": "function",
      "constant": true
    },
    {
      "inputs": [
        {
          "internalType": "address",
          "name": "owner",
          "type": "address"
        },
        {
          "internalType": "address",
          "name": "operator",
          "type": "address"
        }
      ],
      "name": "isApprovedForAll",
      "outputs": [
        {
          "internalType": "bool",
          "name": "",
          "type": "bool"
        }
      ],
      "stateMutability": "view",
      "type": "function",
      "constant": true
    },
    {
      "inputs": [
        {
          "internalType": "uint256",
          "name": "_lipId",
          "type": "uint256"
        }
      ],
      "name": "levelUp",
      "outputs": [],
      "stateMutability": "payable",
      "type": "function",
      "payable": true
    },
    {
      "inputs": [
        {
          "internalType": "uint256",
          "name": "",
          "type": "uint256"
        }
      ],
      "name": "lips",
      "outputs": [
        {
          "internalType": "uint256",
          "name": "id",
          "type": "uint256"
        },
        {
          "internalType": "string",
          "name": "name",
          "type": "string"
        },
        {
          "internalType": "uint256",
          "name": "dna",
          "type": "uint256"
        },
        {
          "internalType": "uint8",
          "name": "level",
          "type": "uint8"
        },
        {
          "internalType": "uint8",
          "name": "rarity",
          "type": "uint8"
        },
        {
          "internalType": "uint32",
          "name": "readyTime",
          "type": "uint32"
        },
        {
          "internalType": "uint16",
          "name": "winCount",
          "type": "uint16"
        },
        {
          "internalType": "uint16",
          "name": "lossCount",
          "type": "uint16"
        }
      ],
      "stateMutability": "view",
      "type": "function",
      "constant": true
    },
    {
      "inputs": [],
      "name": "name",
      "outputs": [
        {
          "internalType": "string",
          "name": "",
          "type": "string"
        }
      ],
      "stateMutability": "view",
      "type": "function",
      "constant": true
    },
    {
      "inputs": [],
      "name": "owner",
      "outputs": [
        {
          "internalType": "address",
          "name": "",
          "type": "address"
        }
      ],
      "stateMutability": "view",
      "type": "function",
      "constant": true
    },
    {
      "inputs": [
        {
          "internalType": "uint256",
          "name": "tokenId",
          "type": "uint256"
        }
      ],
      "name": "ownerOf",
      "outputs": [
        {
          "internalType": "address",
          "name": "",
          "type": "address"
        }
      ],
      "stateMutability": "view",
      "type": "function",
      "constant": true
    },
    {
      "inputs": [],
      "name": "renounceOwnership",
      "outputs": [],
      "stateMutability": "nonpayable",
      "type": "function"
    },
    {
      "inputs": [
        {
          "internalType": "address",
          "name": "from",
          "type": "address"
        },
        {
          "internalType": "address",
          "name": "to",
          "type": "address"
        },
        {
          "internalType": "uint256",
          "name": "tokenId",
          "type": "uint256"
        }
      ],
      "name": "safeTransferFrom",
      "outputs": [],
      "stateMutability": "nonpayable",
      "type": "function"
    },
    {
      "inputs": [
        {
          "internalType": "address",
          "name": "from",
          "type": "address"
        },
        {
          "internalType": "address",
          "name": "to",
          "type": "address"
        },
        {
          "internalType": "uint256",
          "name": "tokenId",
          "type": "uint256"
        },
        {
          "internalType": "bytes",
          "name": "_data",
          "type": "bytes"
        }
      ],
      "name": "safeTransferFrom",
      "outputs": [],
      "stateMutability": "nonpayable",
      "type": "function"
    },
    {
      "inputs": [
        {
          "internalType": "address",
          "name": "operator",
          "type": "address"
        },
        {
          "internalType": "bool",
          "name": "approved",
          "type": "bool"
        }
      ],
      "name": "setApprovalForAll",
      "outputs": [],
      "stateMutability": "nonpayable",
      "type": "function"
    },
    {
      "inputs": [
        {
          "internalType": "uint256",
          "name": "_fee",
          "type": "uint256"
        }
      ],
      "name": "setLevelUpFee",
      "outputs": [],
      "stateMutability": "nonpayable",
      "type": "function"
    },
    {
      "inputs": [
        {
          "internalType": "bytes4",
          "name": "interfaceId",
          "type": "bytes4"
        }
      ],
      "name": "supportsInterface",
      "outputs": [
        {
          "internalType": "bool",
          "name": "",
          "type": "bool"
        }
      ],
      "stateMutability": "view",
      "type": "function",
      "constant": true
    },
    {
      "inputs": [],
      "name": "symbol",
      "outputs": [
        {
          "internalType": "string",
          "name": "",
          "type": "string"
        }
      ],
      "stateMutability": "view",
      "type": "function",
      "constant": true
    },
    {
      "inputs": [
        {
          "internalType": "uint256",
          "name": "tokenId",
          "type": "uint256"
        }
      ],
      "name": "tokenURI",
      "outputs": [
        {
          "internalType": "string",
          "name": "",
          "type": "string"
        }
      ],
      "stateMutability": "view",
      "type": "function",
      "constant": true
    },
    {
      "inputs": [
        {
          "internalType": "address",
          "name": "from",
          "type": "address"
        },
        {
          "internalType": "address",
          "name": "to",
          "type": "address"
        },
        {
          "internalType": "uint256",
          "name": "tokenId",
          "type": "uint256"
        }
      ],
      "name": "transferFrom",
      "outputs": [],
      "stateMutability": "nonpayable",
      "type": "function"
    },
    {
      "inputs": [
        {
          "internalType": "address",
          "name": "newOwner",
          "type": "address"
        }
      ],
      "name": "transferOwnership",
      "outputs": [],
      "stateMutability": "nonpayable",
      "type": "function"
    },
    {
      "inputs": [],
      "name": "withDraw",
      "outputs": [],
      "stateMutability": "payable",
      "type": "function",
      "payable": true
    },
    {
      "inputs": [
        {
          "internalType": "uint256",
          "name": "_lipId",
          "type": "uint256"
        },
        {
          "internalType": "uint256",
          "name": "_targetId",
          "type": "uint256"
        }
      ],
      "name": "attack",
      "outputs": [
        {
          "internalType": "int256",
          "name": "",
          "type": "int256"
        }
      ],
      "stateMutability": "nonpayable",
      "type": "function"
    }
  ],
  "bytecode": "0x6080604052662386f26fc10000600855620151806009556010600a55600a54600a6200002c91906200043f565b600b556064600c60006101000a81548160ff021916908360ff160217905550662386f26fc10000600f55600060105560466011553480156200006d57600080fd5b506040518060400160405280600981526020017f4c697020546f6b656e00000000000000000000000000000000000000000000008152506040518060400160405280600381526020017f4c505400000000000000000000000000000000000000000000000000000000008152508160009080519060200190620000f292919062000202565b5080600190805190602001906200010b92919062000202565b5050506200012e620001226200013460201b60201c565b6200013c60201b60201c565b620004f5565b600033905090565b6000600660009054906101000a900473ffffffffffffffffffffffffffffffffffffffff16905081600660006101000a81548173ffffffffffffffffffffffffffffffffffffffff021916908373ffffffffffffffffffffffffffffffffffffffff1602179055508173ffffffffffffffffffffffffffffffffffffffff168173ffffffffffffffffffffffffffffffffffffffff167f8be0079c531659141344cd1fd0a4f28419497f9722a3daafe3b4186f6b6457e060405160405180910390a35050565b8280546200021090620004bf565b90600052602060002090601f01602090048101928262000234576000855562000280565b82601f106200024f57805160ff191683800117855562000280565b8280016001018555821562000280579182015b828111156200027f57825182559160200191906001019062000262565b5b5090506200028f919062000293565b5090565b5b80821115620002ae57600081600090555060010162000294565b5090565b7f4e487b7100000000000000000000000000000000000000000000000000000000600052601160045260246000fd5b60008160011c9050919050565b6000808291508390505b60018511156200034057808604811115620003185762000317620002b2565b5b6001851615620003285780820291505b80810290506200033885620002e1565b9450620002f8565b94509492505050565b6000826200035b57600190506200042e565b816200036b57600090506200042e565b81600181146200038457600281146200038f57620003c5565b60019150506200042e565b60ff841115620003a457620003a3620002b2565b5b8360020a915084821115620003be57620003bd620002b2565b5b506200042e565b5060208310610133831016604e8410600b8410161715620003ff5782820a905083811115620003f957620003f8620002b2565b5b6200042e565b6200040e8484846001620002ee565b92509050818404811115620004285762000427620002b2565b5b81810290505b9392505050565b6000819050919050565b60006200044c8262000435565b9150620004598362000435565b9250620004887fffffffffffffffffffffffffffffffffffffffffffffffffffffffffffffffff848462000349565b905092915050565b7f4e487b7100000000000000000000000000000000000000000000000000000000600052602260045260246000fd5b60006002820490506001821680620004d857607f821691505b60208210811415620004ef57620004ee62000490565b5b50919050565b61481280620005056000396000f3fe6080604052600436106101815760003560e01c8063715018a6116100d1578063b88d4fde1161008a578063ccf670f811610064578063ccf670f814610570578063e1fa763814610599578063e985e9c5146105d6578063f2fde38b1461061357610181565b8063b88d4fde146104e1578063c39cbef11461050a578063c87b56dd1461053357610181565b8063715018a6146103d157806376c2edc9146103e85780638c0b9c54146104255780638da5cb5b1461046257806395d89b411461048d578063a22cb465146104b857610181565b806323b872dd1161013e5780635ec163db116101185780635ec163db146102f75780636352211e1461033b578063698d640c1461037857806370a082311461039457610181565b806323b872dd1461027a5780632c44cfc3146102a357806342842e0e146102ce57610181565b806301ffc9a71461018657806306fdde03146101c3578063081812fc146101ee578063095ea7b31461022b5780630ce90ec2146102545780630fdb1c1014610270575b600080fd5b34801561019257600080fd5b506101ad60048036038101906101a89190612f16565b61063c565b6040516101ba9190612f5e565b60405180910390f35b3480156101cf57600080fd5b506101d861071e565b6040516101e59190613012565b60405180910390f35b3480156101fa57600080fd5b506102156004803603810190610210919061306a565b6107b0565b60405161022291906130d8565b60405180910390f35b34801561023757600080fd5b50610252600480360381019061024d919061311f565b610835565b005b61026e6004803603810190610269919061306a565b61094d565b005b610278610a1d565b005b34801561028657600080fd5b506102a1600480360381019061029c919061315f565b610aef565b005b3480156102af57600080fd5b506102b8610b4f565b6040516102c591906133d5565b60405180910390f35b3480156102da57600080fd5b506102f560048036038101906102f0919061315f565b610cf5565b005b34801561030357600080fd5b5061031e6004803603810190610319919061306a565b610d15565b604051610332989796959493929190613433565b60405180910390f35b34801561034757600080fd5b50610362600480360381019061035d919061306a565b610e3b565b60405161036f91906130d8565b60405180910390f35b610392600480360381019061038d91906135ed565b610eed565b005b3480156103a057600080fd5b506103bb60048036038101906103b69190613636565b610f08565b6040516103c89190613663565b60405180910390f35b3480156103dd57600080fd5b506103e6610fc0565b005b3480156103f457600080fd5b5061040f600480360381019061040a9190613636565b611048565b60405161041c91906133d5565b60405180910390f35b34801561043157600080fd5b5061044c60048036038101906104479190613636565b6112c6565b60405161045991906133d5565b60405180910390f35b34801561046e57600080fd5b50610477611535565b60405161048491906130d8565b60405180910390f35b34801561049957600080fd5b506104a261155f565b6040516104af9190613012565b60405180910390f35b3480156104c457600080fd5b506104df60048036038101906104da91906136aa565b6115f1565b005b3480156104ed57600080fd5b506105086004803603810190610503919061378b565b611607565b005b34801561051657600080fd5b50610531600480360381019061052c919061386e565b611669565b005b34801561053f57600080fd5b5061055a6004803603810190610555919061306a565b611732565b6040516105679190613012565b60405180910390f35b34801561057c57600080fd5b506105976004803603810190610592919061306a565b6117d9565b005b3480156105a557600080fd5b506105c060048036038101906105bb91906138ce565b61185f565b6040516105cd9190613927565b60405180910390f35b3480156105e257600080fd5b506105fd60048036038101906105f89190613942565b611b2b565b60405161060a9190612f5e565b60405180910390f35b34801561061f57600080fd5b5061063a60048036038101906106359190613636565b611bbf565b005b60007f80ac58cd000000000000000000000000000000000000000000000000000000007bffffffffffffffffffffffffffffffffffffffffffffffffffffffff1916827bffffffffffffffffffffffffffffffffffffffffffffffffffffffff1916148061070757507f5b5e139f000000000000000000000000000000000000000000000000000000007bffffffffffffffffffffffffffffffffffffffffffffffffffffffff1916827bffffffffffffffffffffffffffffffffffffffffffffffffffffffff1916145b80610717575061071682611cb7565b5b9050919050565b60606000805461072d906139b1565b80601f0160208091040260200160405190810160405280929190818152602001828054610759906139b1565b80156107a65780601f1061077b576101008083540402835291602001916107a6565b820191906000526020600020905b81548152906001019060200180831161078957829003601f168201915b5050505050905090565b60006107bb82611d21565b6107fa576040517f08c379a00000000000000000000000000000000000000000000000000000000081526004016107f190613a55565b60405180910390fd5b6004600083815260200190815260200160002060009054906101000a900473ffffffffffffffffffffffffffffffffffffffff169050919050565b600061084082610e3b565b90508073ffffffffffffffffffffffffffffffffffffffff168373ffffffffffffffffffffffffffffffffffffffff1614156108b1576040517f08c379a00000000000000000000000000000000000000000000000000000000081526004016108a890613ae7565b60405180910390fd5b8073ffffffffffffffffffffffffffffffffffffffff166108d0611d8d565b73ffffffffffffffffffffffffffffffffffffffff1614806108ff57506108fe816108f9611d8d565b611b2b565b5b61093e576040517f08c379a000000000000000000000000000000000000000000000000000000000815260040161093590613b79565b60405180910390fd5b6109488383611d95565b505050565b8061095781610e3b565b73ffffffffffffffffffffffffffffffffffffffff163373ffffffffffffffffffffffffffffffffffffffff161461098e57600080fd5b6000600d83815481106109a4576109a3613b99565b5b906000526020600020906004020190506109bd81611e4e565b6109c657600080fd5b600f543410156109d557600080fd5b80600301600081819054906101000a900460ff16809291906109f690613bf7565b91906101000a81548160ff021916908360ff16021790555050610a1881611e75565b505050565b610a25611d8d565b73ffffffffffffffffffffffffffffffffffffffff16610a43611535565b73ffffffffffffffffffffffffffffffffffffffff1614610a99576040517f08c379a0000000000000000000000000000000000000000000000000000000008152600401610a9090613c6d565b60405180910390fd5b6000610aa3611535565b90508073ffffffffffffffffffffffffffffffffffffffff166108fc479081150290604051600060405180830381858888f19350505050158015610aeb573d6000803e3d6000fd5b5050565b610b00610afa611d8d565b82611ea8565b610b3f576040517f08c379a0000000000000000000000000000000000000000000000000000000008152600401610b3690613cff565b60405180910390fd5b610b4a838383611f86565b505050565b6060600d805480602002602001604051908101604052809291908181526020016000905b82821015610cec57838290600052602060002090600402016040518061010001604052908160008201548152602001600182018054610bb1906139b1565b80601f0160208091040260200160405190810160405280929190818152602001828054610bdd906139b1565b8015610c2a5780601f10610bff57610100808354040283529160200191610c2a565b820191906000526020600020905b815481529060010190602001808311610c0d57829003601f168201915b50505050508152602001600282015481526020016003820160009054906101000a900460ff1660ff1660ff1681526020016003820160019054906101000a900460ff1660ff1660ff1681526020016003820160029054906101000a900463ffffffff1663ffffffff1663ffffffff1681526020016003820160069054906101000a900461ffff1661ffff1661ffff1681526020016003820160089054906101000a900461ffff1661ffff1661ffff168152505081526020019060010190610b73565b50505050905090565b610d1083838360405180602001604052806000815250611607565b505050565b600d8181548110610d2557600080fd5b9060005260206000209060040201600091509050806000015490806001018054610d4e906139b1565b80601f0160208091040260200160405190810160405280929190818152602001828054610d7a906139b1565b8015610dc75780601f10610d9c57610100808354040283529160200191610dc7565b820191906000526020600020905b815481529060010190602001808311610daa57829003601f168201915b5050505050908060020154908060030160009054906101000a900460ff16908060030160019054906101000a900460ff16908060030160029054906101000a900463ffffffff16908060030160069054906101000a900461ffff16908060030160089054906101000a900461ffff16905088565b6000806002600084815260200190815260200160002060009054906101000a900473ffffffffffffffffffffffffffffffffffffffff169050600073ffffffffffffffffffffffffffffffffffffffff168173ffffffffffffffffffffffffffffffffffffffff161415610ee4576040517f08c379a0000000000000000000000000000000000000000000000000000000008152600401610edb90613d91565b60405180910390fd5b80915050919050565b600854341015610efc57600080fd5b610f05816121e2565b50565b60008073ffffffffffffffffffffffffffffffffffffffff168273ffffffffffffffffffffffffffffffffffffffff161415610f79576040517f08c379a0000000000000000000000000000000000000000000000000000000008152600401610f7090613e23565b60405180910390fd5b600360008373ffffffffffffffffffffffffffffffffffffffff1673ffffffffffffffffffffffffffffffffffffffff168152602001908152602001600020549050919050565b610fc8611d8d565b73ffffffffffffffffffffffffffffffffffffffff16610fe6611535565b73ffffffffffffffffffffffffffffffffffffffff161461103c576040517f08c379a000000000000000000000000000000000000000000000000000000000815260040161103390613c6d565b60405180910390fd5b6110466000612486565b565b6060600061105583610f08565b600d805490506110659190613e43565b67ffffffffffffffff81111561107e5761107d6134c2565b5b6040519080825280602002602001820160405280156110b757816020015b6110a4612d28565b81526020019060019003908161109c5790505b5090506000805b600d805490508110156112bb578473ffffffffffffffffffffffffffffffffffffffff166110eb82610e3b565b73ffffffffffffffffffffffffffffffffffffffff16146112a857600d818154811061111a57611119613b99565b5b9060005260206000209060040201604051806101000160405290816000820154815260200160018201805461114e906139b1565b80601f016020809104026020016040519081016040528092919081815260200182805461117a906139b1565b80156111c75780601f1061119c576101008083540402835291602001916111c7565b820191906000526020600020905b8154815290600101906020018083116111aa57829003601f168201915b50505050508152602001600282015481526020016003820160009054906101000a900460ff1660ff1660ff1681526020016003820160019054906101000a900460ff1660ff1660ff1681526020016003820160029054906101000a900463ffffffff1663ffffffff1663ffffffff1681526020016003820160069054906101000a900461ffff1661ffff1661ffff1681526020016003820160089054906101000a900461ffff1661ffff1661ffff168152505083838151811061128d5761128c613b99565b5b60200260200101819052506001826112a59190613e77565b91505b80806112b390613ecd565b9150506110be565b508192505050919050565b606060006112d383610f08565b67ffffffffffffffff8111156112ec576112eb6134c2565b5b60405190808252806020026020018201604052801561132557816020015b611312612d28565b81526020019060019003908161130a5790505b5090506000805b600d8054905081101561152a578473ffffffffffffffffffffffffffffffffffffffff1661135982610e3b565b73ffffffffffffffffffffffffffffffffffffffff16141561151757600d818154811061138957611388613b99565b5b906000526020600020906004020160405180610100016040529081600082015481526020016001820180546113bd906139b1565b80601f01602080910402602001604051908101604052809291908181526020018280546113e9906139b1565b80156114365780601f1061140b57610100808354040283529160200191611436565b820191906000526020600020905b81548152906001019060200180831161141957829003601f168201915b50505050508152602001600282015481526020016003820160009054906101000a900460ff1660ff1660ff1681526020016003820160019054906101000a900460ff1660ff1660ff1681526020016003820160029054906101000a900463ffffffff1663ffffffff1663ffffffff1681526020016003820160069054906101000a900461ffff1661ffff1661ffff1681526020016003820160089054906101000a900461ffff1661ffff1661ffff16815250508383815181106114fc576114fb613b99565b5b60200260200101819052506001826115149190613e77565b91505b808061152290613ecd565b91505061132c565b508192505050919050565b6000600660009054906101000a900473ffffffffffffffffffffffffffffffffffffffff16905090565b60606001805461156e906139b1565b80601f016020809104026020016040519081016040528092919081815260200182805461159a906139b1565b80156115e75780601f106115bc576101008083540402835291602001916115e7565b820191906000526020600020905b8154815290600101906020018083116115ca57829003601f168201915b5050505050905090565b6116036115fc611d8d565b838361254c565b5050565b611618611612611d8d565b83611ea8565b611657576040517f08c379a000000000000000000000000000000000000000000000000000000000815260040161164e90613cff565b60405180910390fd5b611663848484846126b9565b50505050565b60028381600d828154811061168157611680613b99565b5b906000526020600020906004020160030160009054906101000a900460ff1660ff1610156116ae57600080fd5b846116b881610e3b565b73ffffffffffffffffffffffffffffffffffffffff163373ffffffffffffffffffffffffffffffffffffffff16146116ef57600080fd5b6000600d878154811061170557611704613b99565b5b906000526020600020906004020190508585826001019190611728929190612d81565b5050505050505050565b606061173d82611d21565b61177c576040517f08c379a000000000000000000000000000000000000000000000000000000000815260040161177390613f88565b60405180910390fd5b6000611786612715565b905060008151116117a657604051806020016040528060008152506117d1565b806117b08461272c565b6040516020016117c1929190613fe4565b6040516020818303038152906040525b915050919050565b6117e1611d8d565b73ffffffffffffffffffffffffffffffffffffffff166117ff611535565b73ffffffffffffffffffffffffffffffffffffffff1614611855576040517f08c379a000000000000000000000000000000000000000000000000000000000815260040161184c90613c6d565b60405180910390fd5b80600f8190555050565b60008261186b81610e3b565b73ffffffffffffffffffffffffffffffffffffffff163373ffffffffffffffffffffffffffffffffffffffff16146118a257600080fd5b6000600d85815481106118b8576118b7613b99565b5b906000526020600020906004020190506000600d85815481106118de576118dd613b99565b5b906000526020600020906004020190506118f782611e4e565b611936576040517f08c379a000000000000000000000000000000000000000000000000000000000815260040161192d90614054565b60405180910390fd5b8060030160009054906101000a900460ff1660ff168260030160009054906101000a900460ff1660ff16146119a0576040517f08c379a0000000000000000000000000000000000000000000000000000000008152600401611997906140c0565b60405180910390fd5b60006119ac606461288d565b905060007fffffffffffffffffffffffffffffffffffffffffffffffffffffffffffffffff90506011548211611a995760018460030160069054906101000a900461ffff166119fb91906140e0565b8460030160066101000a81548161ffff021916908361ffff16021790555060018460030160009054906101000a900460ff16611a379190614118565b8460030160006101000a81548160ff021916908360ff16021790555060018360030160089054906101000a900461ffff16611a7291906140e0565b8360030160086101000a81548161ffff021916908361ffff16021790555060019050611b14565b60018460030160089054906101000a900461ffff16611ab891906140e0565b8460030160086101000a81548161ffff021916908361ffff16021790555060018360030160069054906101000a900461ffff16611af591906140e0565b8360030160066101000a81548161ffff021916908361ffff1602179055505b611b1d84611e75565b809550505050505092915050565b6000600560008473ffffffffffffffffffffffffffffffffffffffff1673ffffffffffffffffffffffffffffffffffffffff16815260200190815260200160002060008373ffffffffffffffffffffffffffffffffffffffff1673ffffffffffffffffffffffffffffffffffffffff16815260200190815260200160002060009054906101000a900460ff16905092915050565b611bc7611d8d565b73ffffffffffffffffffffffffffffffffffffffff16611be5611535565b73ffffffffffffffffffffffffffffffffffffffff1614611c3b576040517f08c379a0000000000000000000000000000000000000000000000000000000008152600401611c3290613c6d565b60405180910390fd5b600073ffffffffffffffffffffffffffffffffffffffff168173ffffffffffffffffffffffffffffffffffffffff161415611cab576040517f08c379a0000000000000000000000000000000000000000000000000000000008152600401611ca2906141c1565b60405180910390fd5b611cb481612486565b50565b60007f01ffc9a7000000000000000000000000000000000000000000000000000000007bffffffffffffffffffffffffffffffffffffffffffffffffffffffff1916827bffffffffffffffffffffffffffffffffffffffffffffffffffffffff1916149050919050565b60008073ffffffffffffffffffffffffffffffffffffffff166002600084815260200190815260200160002060009054906101000a900473ffffffffffffffffffffffffffffffffffffffff1673ffffffffffffffffffffffffffffffffffffffff1614159050919050565b600033905090565b816004600083815260200190815260200160002060006101000a81548173ffffffffffffffffffffffffffffffffffffffff021916908373ffffffffffffffffffffffffffffffffffffffff160217905550808273ffffffffffffffffffffffffffffffffffffffff16611e0883610e3b565b73ffffffffffffffffffffffffffffffffffffffff167f8c5be1e5ebec7d5bd14f71427d1e84f3dd0314c0f7b2291e5b200ac8c7c3b92560405160405180910390a45050565b6000428260030160029054906101000a900463ffffffff1663ffffffff1611159050919050565b60095442611e839190613e77565b8160030160026101000a81548163ffffffff021916908363ffffffff16021790555050565b6000611eb382611d21565b611ef2576040517f08c379a0000000000000000000000000000000000000000000000000000000008152600401611ee990614253565b60405180910390fd5b6000611efd83610e3b565b90508073ffffffffffffffffffffffffffffffffffffffff168473ffffffffffffffffffffffffffffffffffffffff161480611f6c57508373ffffffffffffffffffffffffffffffffffffffff16611f54846107b0565b73ffffffffffffffffffffffffffffffffffffffff16145b80611f7d5750611f7c8185611b2b565b5b91505092915050565b8273ffffffffffffffffffffffffffffffffffffffff16611fa682610e3b565b73ffffffffffffffffffffffffffffffffffffffff1614611ffc576040517f08c379a0000000000000000000000000000000000000000000000000000000008152600401611ff3906142e5565b60405180910390fd5b600073ffffffffffffffffffffffffffffffffffffffff168273ffffffffffffffffffffffffffffffffffffffff16141561206c576040517f08c379a000000000000000000000000000000000000000000000000000000000815260040161206390614377565b60405180910390fd5b6120778383836128e6565b612082600082611d95565b6001600360008573ffffffffffffffffffffffffffffffffffffffff1673ffffffffffffffffffffffffffffffffffffffff16815260200190815260200160002060008282546120d29190613e43565b925050819055506001600360008473ffffffffffffffffffffffffffffffffffffffff1673ffffffffffffffffffffffffffffffffffffffff16815260200190815260200160002060008282546121299190613e77565b92505081905550816002600083815260200190815260200160002060006101000a81548173ffffffffffffffffffffffffffffffffffffffff021916908373ffffffffffffffffffffffffffffffffffffffff160217905550808273ffffffffffffffffffffffffffffffffffffffff168473ffffffffffffffffffffffffffffffffffffffff167fddf252ad1be2c89b69c2b068fc378daa952ba7f163c4a11628f55a4df523b3ef60405160405180910390a4505050565b60006121ef600b546128eb565b9050600061220e600c60009054906101000a900460ff1660ff166128eb565b9050600d6040518061010001604052806007548152602001858152602001848152602001600160ff1681526020018360ff168152602001600063ffffffff168152602001600061ffff168152602001600061ffff1681525090806001815401808255809150506001900390600052602060002090600402016000909190919091506000820151816000015560208201518160010190805190602001906122b5929190612e07565b506040820151816002015560608201518160030160006101000a81548160ff021916908360ff16021790555060808201518160030160016101000a81548160ff021916908360ff16021790555060a08201518160030160026101000a81548163ffffffff021916908363ffffffff16021790555060c08201518160030160066101000a81548161ffff021916908361ffff16021790555060e08201518160030160086101000a81548161ffff021916908361ffff160217905550505061237d33600754612930565b6123d06001600e60003373ffffffffffffffffffffffffffffffffffffffff1673ffffffffffffffffffffffffffffffffffffffff1681526020019081526020016000205461294e90919063ffffffff16565b600e60003373ffffffffffffffffffffffffffffffffffffffff1673ffffffffffffffffffffffffffffffffffffffff168152602001908152602001600020819055503373ffffffffffffffffffffffffffffffffffffffff167f29c4292b8838988609f9bd8e9042f7e77158b1f5ebfcae6494b7b709c3d20ffc6007548460405161245d929190614397565b60405180910390a261247b600160075461294e90919063ffffffff16565b600781905550505050565b6000600660009054906101000a900473ffffffffffffffffffffffffffffffffffffffff16905081600660006101000a81548173ffffffffffffffffffffffffffffffffffffffff021916908373ffffffffffffffffffffffffffffffffffffffff1602179055508173ffffffffffffffffffffffffffffffffffffffff168173ffffffffffffffffffffffffffffffffffffffff167f8be0079c531659141344cd1fd0a4f28419497f9722a3daafe3b4186f6b6457e060405160405180910390a35050565b8173ffffffffffffffffffffffffffffffffffffffff168373ffffffffffffffffffffffffffffffffffffffff1614156125bb576040517f08c379a00000000000000000000000000000000000000000000000000000000081526004016125b29061440c565b60405180910390fd5b80600560008573ffffffffffffffffffffffffffffffffffffffff1673ffffffffffffffffffffffffffffffffffffffff16815260200190815260200160002060008473ffffffffffffffffffffffffffffffffffffffff1673ffffffffffffffffffffffffffffffffffffffff16815260200190815260200160002060006101000a81548160ff0219169083151502179055508173ffffffffffffffffffffffffffffffffffffffff168373ffffffffffffffffffffffffffffffffffffffff167f17307eab39ab6107e8899845ad3d59bd9653f200f220920489ca2b5937696c31836040516126ac9190612f5e565b60405180910390a3505050565b6126c4848484611f86565b6126d084848484612964565b61270f576040517f08c379a00000000000000000000000000000000000000000000000000000000081526004016127069061449e565b60405180910390fd5b50505050565b606060405180602001604052806000815250905090565b60606000821415612774576040518060400160405280600181526020017f30000000000000000000000000000000000000000000000000000000000000008152509050612888565b600082905060005b600082146127a657808061278f90613ecd565b915050600a8261279f91906144ed565b915061277c565b60008167ffffffffffffffff8111156127c2576127c16134c2565b5b6040519080825280601f01601f1916602001820160405280156127f45781602001600182028036833780820191505090505b5090505b600085146128815760018261280d9190613e43565b9150600a8561281c919061451e565b60306128289190613e77565b60f81b81838151811061283e5761283d613b99565b5b60200101907effffffffffffffffffffffffffffffffffffffffffffffffffffffffffffff1916908160001a905350600a8561287a91906144ed565b94506127f8565b8093505050505b919050565b6000600160105461289e9190613e77565b6010819055508142336010546040516020016128bc939291906145b8565b6040516020818303038152906040528051906020012060001c6128df919061451e565b9050919050565b505050565b60008042336040516020016129019291906145f5565b6040516020818303038152906040528051906020012060001c90508281612928919061451e565b915050919050565b61294a828260405180602001604052806000815250612aec565b5050565b6000818361295c9190613e77565b905092915050565b60006129858473ffffffffffffffffffffffffffffffffffffffff16612b47565b15612adf578373ffffffffffffffffffffffffffffffffffffffff1663150b7a026129ae611d8d565b8786866040518563ffffffff1660e01b81526004016129d09493929190614676565b6020604051808303816000875af1925050508015612a0c57506040513d601f19601f82011682018060405250810190612a0991906146d7565b60015b612a8f573d8060008114612a3c576040519150601f19603f3d011682016040523d82523d6000602084013e612a41565b606091505b50600081511415612a87576040517f08c379a0000000000000000000000000000000000000000000000000000000008152600401612a7e9061449e565b60405180910390fd5b805181602001fd5b63150b7a0260e01b7bffffffffffffffffffffffffffffffffffffffffffffffffffffffff1916817bffffffffffffffffffffffffffffffffffffffffffffffffffffffff191614915050612ae4565b600190505b949350505050565b612af68383612b5a565b612b036000848484612964565b612b42576040517f08c379a0000000000000000000000000000000000000000000000000000000008152600401612b399061449e565b60405180910390fd5b505050565b600080823b905060008111915050919050565b600073ffffffffffffffffffffffffffffffffffffffff168273ffffffffffffffffffffffffffffffffffffffff161415612bca576040517f08c379a0000000000000000000000000000000000000000000000000000000008152600401612bc190614750565b60405180910390fd5b612bd381611d21565b15612c13576040517f08c379a0000000000000000000000000000000000000000000000000000000008152600401612c0a906147bc565b60405180910390fd5b612c1f600083836128e6565b6001600360008473ffffffffffffffffffffffffffffffffffffffff1673ffffffffffffffffffffffffffffffffffffffff1681526020019081526020016000206000828254612c6f9190613e77565b92505081905550816002600083815260200190815260200160002060006101000a81548173ffffffffffffffffffffffffffffffffffffffff021916908373ffffffffffffffffffffffffffffffffffffffff160217905550808273ffffffffffffffffffffffffffffffffffffffff16600073ffffffffffffffffffffffffffffffffffffffff167fddf252ad1be2c89b69c2b068fc378daa952ba7f163c4a11628f55a4df523b3ef60405160405180910390a45050565b604051806101000160405280600081526020016060815260200160008152602001600060ff168152602001600060ff168152602001600063ffffffff168152602001600061ffff168152602001600061ffff1681525090565b828054612d8d906139b1565b90600052602060002090601f016020900481019282612daf5760008555612df6565b82601f10612dc857803560ff1916838001178555612df6565b82800160010185558215612df6579182015b82811115612df5578235825591602001919060010190612dda565b5b509050612e039190612e8d565b5090565b828054612e13906139b1565b90600052602060002090601f016020900481019282612e355760008555612e7c565b82601f10612e4e57805160ff1916838001178555612e7c565b82800160010185558215612e7c579182015b82811115612e7b578251825591602001919060010190612e60565b5b509050612e899190612e8d565b5090565b5b80821115612ea6576000816000905550600101612e8e565b5090565b6000604051905090565b600080fd5b600080fd5b60007fffffffff0000000000000000000000000000000000000000000000000000000082169050919050565b612ef381612ebe565b8114612efe57600080fd5b50565b600081359050612f1081612eea565b92915050565b600060208284031215612f2c57612f2b612eb4565b5b6000612f3a84828501612f01565b91505092915050565b60008115159050919050565b612f5881612f43565b82525050565b6000602082019050612f736000830184612f4f565b92915050565b600081519050919050565b600082825260208201905092915050565b60005b83811015612fb3578082015181840152602081019050612f98565b83811115612fc2576000848401525b50505050565b6000601f19601f8301169050919050565b6000612fe482612f79565b612fee8185612f84565b9350612ffe818560208601612f95565b61300781612fc8565b840191505092915050565b6000602082019050818103600083015261302c8184612fd9565b905092915050565b6000819050919050565b61304781613034565b811461305257600080fd5b50565b6000813590506130648161303e565b92915050565b6000602082840312156130805761307f612eb4565b5b600061308e84828501613055565b91505092915050565b600073ffffffffffffffffffffffffffffffffffffffff82169050919050565b60006130c282613097565b9050919050565b6130d2816130b7565b82525050565b60006020820190506130ed60008301846130c9565b92915050565b6130fc816130b7565b811461310757600080fd5b50565b600081359050613119816130f3565b92915050565b6000806040838503121561313657613135612eb4565b5b60006131448582860161310a565b925050602061315585828601613055565b9150509250929050565b60008060006060848603121561317857613177612eb4565b5b60006131868682870161310a565b93505060206131978682870161310a565b92505060406131a886828701613055565b9150509250925092565b600081519050919050565b600082825260208201905092915050565b6000819050602082019050919050565b6131e781613034565b82525050565b600082825260208201905092915050565b600061320982612f79565b61321381856131ed565b9350613223818560208601612f95565b61322c81612fc8565b840191505092915050565b600060ff82169050919050565b61324d81613237565b82525050565b600063ffffffff82169050919050565b61326c81613253565b82525050565b600061ffff82169050919050565b61328981613272565b82525050565b6000610100830160008301516132a860008601826131de565b50602083015184820360208601526132c082826131fe565b91505060408301516132d560408601826131de565b5060608301516132e86060860182613244565b5060808301516132fb6080860182613244565b5060a083015161330e60a0860182613263565b5060c083015161332160c0860182613280565b5060e083015161333460e0860182613280565b508091505092915050565b600061334b838361328f565b905092915050565b6000602082019050919050565b600061336b826131b2565b61337581856131bd565b935083602082028501613387856131ce565b8060005b858110156133c357848403895281516133a4858261333f565b94506133af83613353565b925060208a0199505060018101905061338b565b50829750879550505050505092915050565b600060208201905081810360008301526133ef8184613360565b905092915050565b61340081613034565b82525050565b61340f81613237565b82525050565b61341e81613253565b82525050565b61342d81613272565b82525050565b600061010082019050613449600083018b6133f7565b818103602083015261345b818a612fd9565b905061346a60408301896133f7565b6134776060830188613406565b6134846080830187613406565b61349160a0830186613415565b61349e60c0830185613424565b6134ab60e0830184613424565b9998505050505050505050565b600080fd5b600080fd5b7f4e487b7100000000000000000000000000000000000000000000000000000000600052604160045260246000fd5b6134fa82612fc8565b810181811067ffffffffffffffff82111715613519576135186134c2565b5b80604052505050565b600061352c612eaa565b905061353882826134f1565b919050565b600067ffffffffffffffff821115613558576135576134c2565b5b61356182612fc8565b9050602081019050919050565b82818337600083830152505050565b600061359061358b8461353d565b613522565b9050828152602081018484840111156135ac576135ab6134bd565b5b6135b784828561356e565b509392505050565b600082601f8301126135d4576135d36134b8565b5b81356135e484826020860161357d565b91505092915050565b60006020828403121561360357613602612eb4565b5b600082013567ffffffffffffffff81111561362157613620612eb9565b5b61362d848285016135bf565b91505092915050565b60006020828403121561364c5761364b612eb4565b5b600061365a8482850161310a565b91505092915050565b600060208201905061367860008301846133f7565b92915050565b61368781612f43565b811461369257600080fd5b50565b6000813590506136a48161367e565b92915050565b600080604083850312156136c1576136c0612eb4565b5b60006136cf8582860161310a565b92505060206136e085828601613695565b9150509250929050565b600067ffffffffffffffff821115613705576137046134c2565b5b61370e82612fc8565b9050602081019050919050565b600061372e613729846136ea565b613522565b90508281526020810184848401111561374a576137496134bd565b5b61375584828561356e565b509392505050565b600082601f830112613772576137716134b8565b5b813561378284826020860161371b565b91505092915050565b600080600080608085870312156137a5576137a4612eb4565b5b60006137b38782880161310a565b94505060206137c48782880161310a565b93505060406137d587828801613055565b925050606085013567ffffffffffffffff8111156137f6576137f5612eb9565b5b6138028782880161375d565b91505092959194509250565b600080fd5b600080fd5b60008083601f84011261382e5761382d6134b8565b5b8235905067ffffffffffffffff81111561384b5761384a61380e565b5b60208301915083600182028301111561386757613866613813565b5b9250929050565b60008060006040848603121561388757613886612eb4565b5b600061389586828701613055565b935050602084013567ffffffffffffffff8111156138b6576138b5612eb9565b5b6138c286828701613818565b92509250509250925092565b600080604083850312156138e5576138e4612eb4565b5b60006138f385828601613055565b925050602061390485828601613055565b9150509250929050565b6000819050919050565b6139218161390e565b82525050565b600060208201905061393c6000830184613918565b92915050565b6000806040838503121561395957613958612eb4565b5b60006139678582860161310a565b92505060206139788582860161310a565b9150509250929050565b7f4e487b7100000000000000000000000000000000000000000000000000000000600052602260045260246000fd5b600060028204905060018216806139c957607f821691505b602082108114156139dd576139dc613982565b5b50919050565b7f4552433732313a20617070726f76656420717565727920666f72206e6f6e657860008201527f697374656e7420746f6b656e0000000000000000000000000000000000000000602082015250565b6000613a3f602c83612f84565b9150613a4a826139e3565b604082019050919050565b60006020820190508181036000830152613a6e81613a32565b9050919050565b7f4552433732313a20617070726f76616c20746f2063757272656e74206f776e6560008201527f7200000000000000000000000000000000000000000000000000000000000000602082015250565b6000613ad1602183612f84565b9150613adc82613a75565b604082019050919050565b60006020820190508181036000830152613b0081613ac4565b9050919050565b7f4552433732313a20617070726f76652063616c6c6572206973206e6f74206f7760008201527f6e6572206e6f7220617070726f76656420666f7220616c6c0000000000000000602082015250565b6000613b63603883612f84565b9150613b6e82613b07565b604082019050919050565b60006020820190508181036000830152613b9281613b56565b9050919050565b7f4e487b7100000000000000000000000000000000000000000000000000000000600052603260045260246000fd5b7f4e487b7100000000000000000000000000000000000000000000000000000000600052601160045260246000fd5b6000613c0282613237565b915060ff821415613c1657613c15613bc8565b5b600182019050919050565b7f4f776e61626c653a2063616c6c6572206973206e6f7420746865206f776e6572600082015250565b6000613c57602083612f84565b9150613c6282613c21565b602082019050919050565b60006020820190508181036000830152613c8681613c4a565b9050919050565b7f4552433732313a207472616e736665722063616c6c6572206973206e6f74206f60008201527f776e6572206e6f7220617070726f766564000000000000000000000000000000602082015250565b6000613ce9603183612f84565b9150613cf482613c8d565b604082019050919050565b60006020820190508181036000830152613d1881613cdc565b9050919050565b7f4552433732313a206f776e657220717565727920666f72206e6f6e657869737460008201527f656e7420746f6b656e0000000000000000000000000000000000000000000000602082015250565b6000613d7b602983612f84565b9150613d8682613d1f565b604082019050919050565b60006020820190508181036000830152613daa81613d6e565b9050919050565b7f4552433732313a2062616c616e636520717565727920666f7220746865207a6560008201527f726f206164647265737300000000000000000000000000000000000000000000602082015250565b6000613e0d602a83612f84565b9150613e1882613db1565b604082019050919050565b60006020820190508181036000830152613e3c81613e00565b9050919050565b6000613e4e82613034565b9150613e5983613034565b925082821015613e6c57613e6b613bc8565b5b828203905092915050565b6000613e8282613034565b9150613e8d83613034565b9250827fffffffffffffffffffffffffffffffffffffffffffffffffffffffffffffffff03821115613ec257613ec1613bc8565b5b828201905092915050565b6000613ed882613034565b91507fffffffffffffffffffffffffffffffffffffffffffffffffffffffffffffffff821415613f0b57613f0a613bc8565b5b600182019050919050565b7f4552433732314d657461646174613a2055524920717565727920666f72206e6f60008201527f6e6578697374656e7420746f6b656e0000000000000000000000000000000000602082015250565b6000613f72602f83612f84565b9150613f7d82613f16565b604082019050919050565b60006020820190508181036000830152613fa181613f65565b9050919050565b600081905092915050565b6000613fbe82612f79565b613fc88185613fa8565b9350613fd8818560208601612f95565b80840191505092915050565b6000613ff08285613fb3565b9150613ffc8284613fb3565b91508190509392505050565b7f596f7572206c6970206973206e6f742072656164790000000000000000000000600082015250565b600061403e601583612f84565b915061404982614008565b602082019050919050565b6000602082019050818103600083015261406d81614031565b9050919050565b7f4f6e6c79207468652073616d65206c6576656c2063616e206669676874000000600082015250565b60006140aa601d83612f84565b91506140b582614074565b602082019050919050565b600060208201905081810360008301526140d98161409d565b9050919050565b60006140eb82613272565b91506140f683613272565b92508261ffff0382111561410d5761410c613bc8565b5b828201905092915050565b600061412382613237565b915061412e83613237565b92508260ff0382111561414457614143613bc8565b5b828201905092915050565b7f4f776e61626c653a206e6577206f776e657220697320746865207a65726f206160008201527f6464726573730000000000000000000000000000000000000000000000000000602082015250565b60006141ab602683612f84565b91506141b68261414f565b604082019050919050565b600060208201905081810360008301526141da8161419e565b9050919050565b7f4552433732313a206f70657261746f7220717565727920666f72206e6f6e657860008201527f697374656e7420746f6b656e0000000000000000000000000000000000000000602082015250565b600061423d602c83612f84565b9150614248826141e1565b604082019050919050565b6000602082019050818103600083015261426c81614230565b9050919050565b7f4552433732313a207472616e73666572206f6620746f6b656e2074686174206960008201527f73206e6f74206f776e0000000000000000000000000000000000000000000000602082015250565b60006142cf602983612f84565b91506142da82614273565b604082019050919050565b600060208201905081810360008301526142fe816142c2565b9050919050565b7f4552433732313a207472616e7366657220746f20746865207a65726f2061646460008201527f7265737300000000000000000000000000000000000000000000000000000000602082015250565b6000614361602483612f84565b915061436c82614305565b604082019050919050565b6000602082019050818103600083015261439081614354565b9050919050565b60006040820190506143ac60008301856133f7565b6143b960208301846133f7565b9392505050565b7f4552433732313a20617070726f766520746f2063616c6c657200000000000000600082015250565b60006143f6601983612f84565b9150614401826143c0565b602082019050919050565b60006020820190508181036000830152614425816143e9565b9050919050565b7f4552433732313a207472616e7366657220746f206e6f6e20455243373231526560008201527f63656976657220696d706c656d656e7465720000000000000000000000000000602082015250565b6000614488603283612f84565b91506144938261442c565b604082019050919050565b600060208201905081810360008301526144b78161447b565b9050919050565b7f4e487b7100000000000000000000000000000000000000000000000000000000600052601260045260246000fd5b60006144f882613034565b915061450383613034565b925082614513576145126144be565b5b828204905092915050565b600061452982613034565b915061453483613034565b925082614544576145436144be565b5b828206905092915050565b6000819050919050565b61456a61456582613034565b61454f565b82525050565b60008160601b9050919050565b600061458882614570565b9050919050565b600061459a8261457d565b9050919050565b6145b26145ad826130b7565b61458f565b82525050565b60006145c48286614559565b6020820191506145d482856145a1565b6014820191506145e48284614559565b602082019150819050949350505050565b60006146018285614559565b60208201915061461182846145a1565b6014820191508190509392505050565b600081519050919050565b600082825260208201905092915050565b600061464882614621565b614652818561462c565b9350614662818560208601612f95565b61466b81612fc8565b840191505092915050565b600060808201905061468b60008301876130c9565b61469860208301866130c9565b6146a560408301856133f7565b81810360608301526146b7818461463d565b905095945050505050565b6000815190506146d181612eea565b92915050565b6000602082840312156146ed576146ec612eb4565b5b60006146fb848285016146c2565b91505092915050565b7f4552433732313a206d696e7420746f20746865207a65726f2061646472657373600082015250565b600061473a602083612f84565b915061474582614704565b602082019050919050565b600060208201905081810360008301526147698161472d565b9050919050565b7f4552433732313a20746f6b656e20616c7265616479206d696e74656400000000600082015250565b60006147a6601c83612f84565b91506147b182614770565b602082019050919050565b600060208201905081810360008301526147d581614799565b905091905056fea2646970667358221220ddeb6550a07cfade1f17279ae0caf4743db8d7f2f8d44f1c8a428c394776dc8c64736f6c634300080b0033",
  "immutableReferences": {},
  "source": "// SPDX-License-Identifier: MIT\r\n\r\npragma solidity >=0.4.22 <0.9.0;\r\nimport \"./liphelper.sol\";\r\n\r\ncontract LipAttack is LipHelper {\r\n  uint256 randNonce = 0;\r\n  uint256 attackVictoryProbability = 70;\r\n\r\n  function randMod(uint _modulus) internal returns(uint256) {\r\n    randNonce = randNonce + 1;\r\n    return uint256(keccak256(abi.encodePacked(block.timestamp, msg.sender, randNonce))) % _modulus;\r\n  }\r\n\r\n  function attack(uint256 _lipId, uint256 _targetId) external onlyOwnerOf(_lipId) returns(int) {\r\n    Lip storage myLip = lips[_lipId];\r\n    Lip storage enemyLip = lips[_targetId];\r\n    require(_isReady(myLip), \"Your lip is not ready\");\r\n    require(myLip.level == enemyLip.level, \"Only the same level can fight\");\r\n    uint256 rand = randMod(100);\r\n    int isWin = -1;\r\n    // if rand < 70 => you win else enemy win\r\n    if (rand <= attackVictoryProbability) {\r\n      myLip.winCount = myLip.winCount+1;\r\n      myLip.level = myLip.level + 1;\r\n      enemyLip.lossCount = enemyLip.lossCount + 1;\r\n      isWin = 1;\r\n    } else {\r\n      myLip.lossCount = myLip.lossCount+1;\r\n      enemyLip.winCount = enemyLip.winCount + 1;\r\n    }\r\n    _triggerCooldown(myLip);\r\n    return isWin;\r\n  }\r\n}",
  "sourcePath": "C:\\Github\\nft_game\\src\\contracts\\lipattack.sol",
  "compiler": {
    "name": "solc",
    "version": "0.8.11+commit.d7f03943.Emscripten.clang"
  },
  "schemaVersion": "3.4.4",
  "updatedAt": "2022-02-20T08:28:13.230Z",
  "networkType": "ethereum",
  "devdoc": {
    "kind": "dev",
    "methods": {
      "approve(address,uint256)": {
        "details": "See {IERC721-approve}."
      },
      "balanceOf(address)": {
        "details": "See {IERC721-balanceOf}."
      },
      "getApproved(uint256)": {
        "details": "See {IERC721-getApproved}."
      },
      "isApprovedForAll(address,address)": {
        "details": "See {IERC721-isApprovedForAll}."
      },
      "name()": {
        "details": "See {IERC721Metadata-name}."
      },
      "owner()": {
        "details": "Returns the address of the current owner."
      },
      "ownerOf(uint256)": {
        "details": "See {IERC721-ownerOf}."
      },
      "renounceOwnership()": {
        "details": "Leaves the contract without owner. It will not be possible to call `onlyOwner` functions anymore. Can only be called by the current owner. NOTE: Renouncing ownership will leave the contract without an owner, thereby removing any functionality that is only available to the owner."
      },
      "safeTransferFrom(address,address,uint256)": {
        "details": "See {IERC721-safeTransferFrom}."
      },
      "safeTransferFrom(address,address,uint256,bytes)": {
        "details": "See {IERC721-safeTransferFrom}."
      },
      "setApprovalForAll(address,bool)": {
        "details": "See {IERC721-setApprovalForAll}."
      },
      "supportsInterface(bytes4)": {
        "details": "See {IERC165-supportsInterface}."
      },
      "symbol()": {
        "details": "See {IERC721Metadata-symbol}."
      },
      "tokenURI(uint256)": {
        "details": "See {IERC721Metadata-tokenURI}."
      },
      "transferFrom(address,address,uint256)": {
        "details": "See {IERC721-transferFrom}."
      },
      "transferOwnership(address)": {
        "details": "Transfers ownership of the contract to a new account (`newOwner`). Can only be called by the current owner."
      }
    },
    "version": 1
  },
  "userdoc": {
    "kind": "user",
    "methods": {},
    "version": 1
  }
}