{
  "contractName": "LipFactory",
  "abi": [
    {
      "inputs": [],
      "stateMutability": "nonpayable",
      "type": "constructor"
    },
    {
      "anonymous": false,
      "inputs": [
        {
          "indexed": true,
          "internalType": "address",
          "name": "owner",
          "type": "address"
        },
        {
          "indexed": true,
          "internalType": "address",
          "name": "approved",
          "type": "address"
        },
        {
          "indexed": true,
          "internalType": "uint256",
          "name": "tokenId",
          "type": "uint256"
        }
      ],
      "name": "Approval",
      "type": "event"
    },
    {
      "anonymous": false,
      "inputs": [
        {
          "indexed": true,
          "internalType": "address",
          "name": "owner",
          "type": "address"
        },
        {
          "indexed": true,
          "internalType": "address",
          "name": "operator",
          "type": "address"
        },
        {
          "indexed": false,
          "internalType": "bool",
          "name": "approved",
          "type": "bool"
        }
      ],
      "name": "ApprovalForAll",
      "type": "event"
    },
    {
      "anonymous": false,
      "inputs": [
        {
          "indexed": true,
          "internalType": "address",
          "name": "owner",
          "type": "address"
        },
        {
          "indexed": false,
          "internalType": "uint256",
          "name": "id",
          "type": "uint256"
        },
        {
          "indexed": false,
          "internalType": "uint256",
          "name": "dna",
          "type": "uint256"
        }
      ],
      "name": "NewLipCreated",
      "type": "event"
    },
    {
      "anonymous": false,
      "inputs": [
        {
          "indexed": true,
          "internalType": "address",
          "name": "previousOwner",
          "type": "address"
        },
        {
          "indexed": true,
          "internalType": "address",
          "name": "newOwner",
          "type": "address"
        }
      ],
      "name": "OwnershipTransferred",
      "type": "event"
    },
    {
      "anonymous": false,
      "inputs": [
        {
          "indexed": true,
          "internalType": "address",
          "name": "from",
          "type": "address"
        },
        {
          "indexed": true,
          "internalType": "address",
          "name": "to",
          "type": "address"
        },
        {
          "indexed": true,
          "internalType": "uint256",
          "name": "tokenId",
          "type": "uint256"
        }
      ],
      "name": "Transfer",
      "type": "event"
    },
    {
      "inputs": [
        {
          "internalType": "address",
          "name": "to",
          "type": "address"
        },
        {
          "internalType": "uint256",
          "name": "tokenId",
          "type": "uint256"
        }
      ],
      "name": "approve",
      "outputs": [],
      "stateMutability": "nonpayable",
      "type": "function"
    },
    {
      "inputs": [
        {
          "internalType": "address",
          "name": "owner",
          "type": "address"
        }
      ],
      "name": "balanceOf",
      "outputs": [
        {
          "internalType": "uint256",
          "name": "",
          "type": "uint256"
        }
      ],
      "stateMutability": "view",
      "type": "function"
    },
    {
      "inputs": [
        {
          "internalType": "uint256",
          "name": "tokenId",
          "type": "uint256"
        }
      ],
      "name": "getApproved",
      "outputs": [
        {
          "internalType": "address",
          "name": "",
          "type": "address"
        }
      ],
      "stateMutability": "view",
      "type": "function"
    },
    {
      "inputs": [
        {
          "internalType": "address",
          "name": "owner",
          "type": "address"
        },
        {
          "internalType": "address",
          "name": "operator",
          "type": "address"
        }
      ],
      "name": "isApprovedForAll",
      "outputs": [
        {
          "internalType": "bool",
          "name": "",
          "type": "bool"
        }
      ],
      "stateMutability": "view",
      "type": "function"
    },
    {
      "inputs": [
        {
          "internalType": "uint256",
          "name": "",
          "type": "uint256"
        }
      ],
      "name": "lips",
      "outputs": [
        {
          "internalType": "uint256",
          "name": "id",
          "type": "uint256"
        },
        {
          "internalType": "string",
          "name": "name",
          "type": "string"
        },
        {
          "internalType": "uint256",
          "name": "dna",
          "type": "uint256"
        },
        {
          "internalType": "uint8",
          "name": "level",
          "type": "uint8"
        },
        {
          "internalType": "uint8",
          "name": "rarity",
          "type": "uint8"
        },
        {
          "internalType": "uint32",
          "name": "readyTime",
          "type": "uint32"
        },
        {
          "internalType": "uint16",
          "name": "winCount",
          "type": "uint16"
        },
        {
          "internalType": "uint16",
          "name": "lossCount",
          "type": "uint16"
        }
      ],
      "stateMutability": "view",
      "type": "function"
    },
    {
      "inputs": [],
      "name": "name",
      "outputs": [
        {
          "internalType": "string",
          "name": "",
          "type": "string"
        }
      ],
      "stateMutability": "view",
      "type": "function"
    },
    {
      "inputs": [],
      "name": "owner",
      "outputs": [
        {
          "internalType": "address",
          "name": "",
          "type": "address"
        }
      ],
      "stateMutability": "view",
      "type": "function"
    },
    {
      "inputs": [
        {
          "internalType": "uint256",
          "name": "tokenId",
          "type": "uint256"
        }
      ],
      "name": "ownerOf",
      "outputs": [
        {
          "internalType": "address",
          "name": "",
          "type": "address"
        }
      ],
      "stateMutability": "view",
      "type": "function"
    },
    {
      "inputs": [],
      "name": "renounceOwnership",
      "outputs": [],
      "stateMutability": "nonpayable",
      "type": "function"
    },
    {
      "inputs": [
        {
          "internalType": "address",
          "name": "from",
          "type": "address"
        },
        {
          "internalType": "address",
          "name": "to",
          "type": "address"
        },
        {
          "internalType": "uint256",
          "name": "tokenId",
          "type": "uint256"
        }
      ],
      "name": "safeTransferFrom",
      "outputs": [],
      "stateMutability": "nonpayable",
      "type": "function"
    },
    {
      "inputs": [
        {
          "internalType": "address",
          "name": "from",
          "type": "address"
        },
        {
          "internalType": "address",
          "name": "to",
          "type": "address"
        },
        {
          "internalType": "uint256",
          "name": "tokenId",
          "type": "uint256"
        },
        {
          "internalType": "bytes",
          "name": "_data",
          "type": "bytes"
        }
      ],
      "name": "safeTransferFrom",
      "outputs": [],
      "stateMutability": "nonpayable",
      "type": "function"
    },
    {
      "inputs": [
        {
          "internalType": "address",
          "name": "operator",
          "type": "address"
        },
        {
          "internalType": "bool",
          "name": "approved",
          "type": "bool"
        }
      ],
      "name": "setApprovalForAll",
      "outputs": [],
      "stateMutability": "nonpayable",
      "type": "function"
    },
    {
      "inputs": [
        {
          "internalType": "bytes4",
          "name": "interfaceId",
          "type": "bytes4"
        }
      ],
      "name": "supportsInterface",
      "outputs": [
        {
          "internalType": "bool",
          "name": "",
          "type": "bool"
        }
      ],
      "stateMutability": "view",
      "type": "function"
    },
    {
      "inputs": [],
      "name": "symbol",
      "outputs": [
        {
          "internalType": "string",
          "name": "",
          "type": "string"
        }
      ],
      "stateMutability": "view",
      "type": "function"
    },
    {
      "inputs": [
        {
          "internalType": "uint256",
          "name": "tokenId",
          "type": "uint256"
        }
      ],
      "name": "tokenURI",
      "outputs": [
        {
          "internalType": "string",
          "name": "",
          "type": "string"
        }
      ],
      "stateMutability": "view",
      "type": "function"
    },
    {
      "inputs": [
        {
          "internalType": "address",
          "name": "from",
          "type": "address"
        },
        {
          "internalType": "address",
          "name": "to",
          "type": "address"
        },
        {
          "internalType": "uint256",
          "name": "tokenId",
          "type": "uint256"
        }
      ],
      "name": "transferFrom",
      "outputs": [],
      "stateMutability": "nonpayable",
      "type": "function"
    },
    {
      "inputs": [
        {
          "internalType": "address",
          "name": "newOwner",
          "type": "address"
        }
      ],
      "name": "transferOwnership",
      "outputs": [],
      "stateMutability": "nonpayable",
      "type": "function"
    },
    {
      "inputs": [
        {
          "internalType": "string",
          "name": "_name",
          "type": "string"
        }
      ],
      "name": "createRandomLip",
      "outputs": [],
      "stateMutability": "payable",
      "type": "function"
    }
  ],
  "bytecode": "0x6080604052662386f26fc10000600855620151806009556010600a55600a54600a6200002c91906200042a565b600b556064600c60006101000a81548160ff021916908360ff1602179055503480156200005857600080fd5b506040518060400160405280600981526020017f4c697020546f6b656e00000000000000000000000000000000000000000000008152506040518060400160405280600381526020017f4c505400000000000000000000000000000000000000000000000000000000008152508160009080519060200190620000dd929190620001ed565b508060019080519060200190620000f6929190620001ed565b505050620001196200010d6200011f60201b60201c565b6200012760201b60201c565b620004e0565b600033905090565b6000600660009054906101000a900473ffffffffffffffffffffffffffffffffffffffff16905081600660006101000a81548173ffffffffffffffffffffffffffffffffffffffff021916908373ffffffffffffffffffffffffffffffffffffffff1602179055508173ffffffffffffffffffffffffffffffffffffffff168173ffffffffffffffffffffffffffffffffffffffff167f8be0079c531659141344cd1fd0a4f28419497f9722a3daafe3b4186f6b6457e060405160405180910390a35050565b828054620001fb90620004aa565b90600052602060002090601f0160209004810192826200021f57600085556200026b565b82601f106200023a57805160ff19168380011785556200026b565b828001600101855582156200026b579182015b828111156200026a5782518255916020019190600101906200024d565b5b5090506200027a91906200027e565b5090565b5b80821115620002995760008160009055506001016200027f565b5090565b7f4e487b7100000000000000000000000000000000000000000000000000000000600052601160045260246000fd5b60008160011c9050919050565b6000808291508390505b60018511156200032b578086048111156200030357620003026200029d565b5b6001851615620003135780820291505b80810290506200032385620002cc565b9450620002e3565b94509492505050565b60008262000346576001905062000419565b8162000356576000905062000419565b81600181146200036f57600281146200037a57620003b0565b600191505062000419565b60ff8411156200038f576200038e6200029d565b5b8360020a915084821115620003a957620003a86200029d565b5b5062000419565b5060208310610133831016604e8410600b8410161715620003ea5782820a905083811115620003e457620003e36200029d565b5b62000419565b620003f98484846001620002d9565b925090508184048111156200041357620004126200029d565b5b81810290505b9392505050565b6000819050919050565b6000620004378262000420565b9150620004448362000420565b9250620004737fffffffffffffffffffffffffffffffffffffffffffffffffffffffffffffffff848462000334565b905092915050565b7f4e487b7100000000000000000000000000000000000000000000000000000000600052602260045260246000fd5b60006002820490506001821680620004c357607f821691505b60208210811415620004da57620004d96200047b565b5b50919050565b61336280620004f06000396000f3fe6080604052600436106101095760003560e01c806370a0823111610095578063a22cb46511610064578063a22cb46514610375578063b88d4fde1461039e578063c87b56dd146103c7578063e985e9c514610404578063f2fde38b1461044157610109565b806370a08231146102cb578063715018a6146103085780638da5cb5b1461031f57806395d89b411461034a57610109565b806323b872dd116100dc57806323b872dd146101dc57806342842e0e146102055780635ec163db1461022e5780636352211e14610272578063698d640c146102af57610109565b806301ffc9a71461010e57806306fdde031461014b578063081812fc14610176578063095ea7b3146101b3575b600080fd5b34801561011a57600080fd5b5061013560048036038101906101309190611f62565b61046a565b6040516101429190611faa565b60405180910390f35b34801561015757600080fd5b5061016061054c565b60405161016d919061205e565b60405180910390f35b34801561018257600080fd5b5061019d600480360381019061019891906120b6565b6105de565b6040516101aa9190612124565b60405180910390f35b3480156101bf57600080fd5b506101da60048036038101906101d5919061216b565b610663565b005b3480156101e857600080fd5b5061020360048036038101906101fe91906121ab565b61077b565b005b34801561021157600080fd5b5061022c600480360381019061022791906121ab565b6107db565b005b34801561023a57600080fd5b50610255600480360381019061025091906120b6565b6107fb565b604051610269989796959493929190612265565b60405180910390f35b34801561027e57600080fd5b50610299600480360381019061029491906120b6565b610921565b6040516102a69190612124565b60405180910390f35b6102c960048036038101906102c4919061241f565b6109d3565b005b3480156102d757600080fd5b506102f260048036038101906102ed9190612468565b6109ee565b6040516102ff9190612495565b60405180910390f35b34801561031457600080fd5b5061031d610aa6565b005b34801561032b57600080fd5b50610334610b2e565b6040516103419190612124565b60405180910390f35b34801561035657600080fd5b5061035f610b58565b60405161036c919061205e565b60405180910390f35b34801561038157600080fd5b5061039c600480360381019061039791906124dc565b610bea565b005b3480156103aa57600080fd5b506103c560048036038101906103c091906125bd565b610c00565b005b3480156103d357600080fd5b506103ee60048036038101906103e991906120b6565b610c62565b6040516103fb919061205e565b60405180910390f35b34801561041057600080fd5b5061042b60048036038101906104269190612640565b610d09565b6040516104389190611faa565b60405180910390f35b34801561044d57600080fd5b5061046860048036038101906104639190612468565b610d9d565b005b60007f80ac58cd000000000000000000000000000000000000000000000000000000007bffffffffffffffffffffffffffffffffffffffffffffffffffffffff1916827bffffffffffffffffffffffffffffffffffffffffffffffffffffffff1916148061053557507f5b5e139f000000000000000000000000000000000000000000000000000000007bffffffffffffffffffffffffffffffffffffffffffffffffffffffff1916827bffffffffffffffffffffffffffffffffffffffffffffffffffffffff1916145b80610545575061054482610e95565b5b9050919050565b60606000805461055b906126af565b80601f0160208091040260200160405190810160405280929190818152602001828054610587906126af565b80156105d45780601f106105a9576101008083540402835291602001916105d4565b820191906000526020600020905b8154815290600101906020018083116105b757829003601f168201915b5050505050905090565b60006105e982610eff565b610628576040517f08c379a000000000000000000000000000000000000000000000000000000000815260040161061f90612753565b60405180910390fd5b6004600083815260200190815260200160002060009054906101000a900473ffffffffffffffffffffffffffffffffffffffff169050919050565b600061066e82610921565b90508073ffffffffffffffffffffffffffffffffffffffff168373ffffffffffffffffffffffffffffffffffffffff1614156106df576040517f08c379a00000000000000000000000000000000000000000000000000000000081526004016106d6906127e5565b60405180910390fd5b8073ffffffffffffffffffffffffffffffffffffffff166106fe610f6b565b73ffffffffffffffffffffffffffffffffffffffff16148061072d575061072c81610727610f6b565b610d09565b5b61076c576040517f08c379a000000000000000000000000000000000000000000000000000000000815260040161076390612877565b60405180910390fd5b6107768383610f73565b505050565b61078c610786610f6b565b8261102c565b6107cb576040517f08c379a00000000000000000000000000000000000000000000000000000000081526004016107c290612909565b60405180910390fd5b6107d683838361110a565b505050565b6107f683838360405180602001604052806000815250610c00565b505050565b600d818154811061080b57600080fd5b9060005260206000209060040201600091509050806000015490806001018054610834906126af565b80601f0160208091040260200160405190810160405280929190818152602001828054610860906126af565b80156108ad5780601f10610882576101008083540402835291602001916108ad565b820191906000526020600020905b81548152906001019060200180831161089057829003601f168201915b5050505050908060020154908060030160009054906101000a900460ff16908060030160019054906101000a900460ff16908060030160029054906101000a900463ffffffff16908060030160069054906101000a900461ffff16908060030160089054906101000a900461ffff16905088565b6000806002600084815260200190815260200160002060009054906101000a900473ffffffffffffffffffffffffffffffffffffffff169050600073ffffffffffffffffffffffffffffffffffffffff168173ffffffffffffffffffffffffffffffffffffffff1614156109ca576040517f08c379a00000000000000000000000000000000000000000000000000000000081526004016109c19061299b565b60405180910390fd5b80915050919050565b6008543410156109e257600080fd5b6109eb81611366565b50565b60008073ffffffffffffffffffffffffffffffffffffffff168273ffffffffffffffffffffffffffffffffffffffff161415610a5f576040517f08c379a0000000000000000000000000000000000000000000000000000000008152600401610a5690612a2d565b60405180910390fd5b600360008373ffffffffffffffffffffffffffffffffffffffff1673ffffffffffffffffffffffffffffffffffffffff168152602001908152602001600020549050919050565b610aae610f6b565b73ffffffffffffffffffffffffffffffffffffffff16610acc610b2e565b73ffffffffffffffffffffffffffffffffffffffff1614610b22576040517f08c379a0000000000000000000000000000000000000000000000000000000008152600401610b1990612a99565b60405180910390fd5b610b2c600061160a565b565b6000600660009054906101000a900473ffffffffffffffffffffffffffffffffffffffff16905090565b606060018054610b67906126af565b80601f0160208091040260200160405190810160405280929190818152602001828054610b93906126af565b8015610be05780601f10610bb557610100808354040283529160200191610be0565b820191906000526020600020905b815481529060010190602001808311610bc357829003601f168201915b5050505050905090565b610bfc610bf5610f6b565b83836116d0565b5050565b610c11610c0b610f6b565b8361102c565b610c50576040517f08c379a0000000000000000000000000000000000000000000000000000000008152600401610c4790612909565b60405180910390fd5b610c5c8484848461183d565b50505050565b6060610c6d82610eff565b610cac576040517f08c379a0000000000000000000000000000000000000000000000000000000008152600401610ca390612b2b565b60405180910390fd5b6000610cb6611899565b90506000815111610cd65760405180602001604052806000815250610d01565b80610ce0846118b0565b604051602001610cf1929190612b87565b6040516020818303038152906040525b915050919050565b6000600560008473ffffffffffffffffffffffffffffffffffffffff1673ffffffffffffffffffffffffffffffffffffffff16815260200190815260200160002060008373ffffffffffffffffffffffffffffffffffffffff1673ffffffffffffffffffffffffffffffffffffffff16815260200190815260200160002060009054906101000a900460ff16905092915050565b610da5610f6b565b73ffffffffffffffffffffffffffffffffffffffff16610dc3610b2e565b73ffffffffffffffffffffffffffffffffffffffff1614610e19576040517f08c379a0000000000000000000000000000000000000000000000000000000008152600401610e1090612a99565b60405180910390fd5b600073ffffffffffffffffffffffffffffffffffffffff168173ffffffffffffffffffffffffffffffffffffffff161415610e89576040517f08c379a0000000000000000000000000000000000000000000000000000000008152600401610e8090612c1d565b60405180910390fd5b610e928161160a565b50565b60007f01ffc9a7000000000000000000000000000000000000000000000000000000007bffffffffffffffffffffffffffffffffffffffffffffffffffffffff1916827bffffffffffffffffffffffffffffffffffffffffffffffffffffffff1916149050919050565b60008073ffffffffffffffffffffffffffffffffffffffff166002600084815260200190815260200160002060009054906101000a900473ffffffffffffffffffffffffffffffffffffffff1673ffffffffffffffffffffffffffffffffffffffff1614159050919050565b600033905090565b816004600083815260200190815260200160002060006101000a81548173ffffffffffffffffffffffffffffffffffffffff021916908373ffffffffffffffffffffffffffffffffffffffff160217905550808273ffffffffffffffffffffffffffffffffffffffff16610fe683610921565b73ffffffffffffffffffffffffffffffffffffffff167f8c5be1e5ebec7d5bd14f71427d1e84f3dd0314c0f7b2291e5b200ac8c7c3b92560405160405180910390a45050565b600061103782610eff565b611076576040517f08c379a000000000000000000000000000000000000000000000000000000000815260040161106d90612caf565b60405180910390fd5b600061108183610921565b90508073ffffffffffffffffffffffffffffffffffffffff168473ffffffffffffffffffffffffffffffffffffffff1614806110f057508373ffffffffffffffffffffffffffffffffffffffff166110d8846105de565b73ffffffffffffffffffffffffffffffffffffffff16145b8061110157506111008185610d09565b5b91505092915050565b8273ffffffffffffffffffffffffffffffffffffffff1661112a82610921565b73ffffffffffffffffffffffffffffffffffffffff1614611180576040517f08c379a000000000000000000000000000000000000000000000000000000000815260040161117790612d41565b60405180910390fd5b600073ffffffffffffffffffffffffffffffffffffffff168273ffffffffffffffffffffffffffffffffffffffff1614156111f0576040517f08c379a00000000000000000000000000000000000000000000000000000000081526004016111e790612dd3565b60405180910390fd5b6111fb838383611a11565b611206600082610f73565b6001600360008573ffffffffffffffffffffffffffffffffffffffff1673ffffffffffffffffffffffffffffffffffffffff16815260200190815260200160002060008282546112569190612e22565b925050819055506001600360008473ffffffffffffffffffffffffffffffffffffffff1673ffffffffffffffffffffffffffffffffffffffff16815260200190815260200160002060008282546112ad9190612e56565b92505081905550816002600083815260200190815260200160002060006101000a81548173ffffffffffffffffffffffffffffffffffffffff021916908373ffffffffffffffffffffffffffffffffffffffff160217905550808273ffffffffffffffffffffffffffffffffffffffff168473ffffffffffffffffffffffffffffffffffffffff167fddf252ad1be2c89b69c2b068fc378daa952ba7f163c4a11628f55a4df523b3ef60405160405180910390a4505050565b6000611373600b54611a16565b90506000611392600c60009054906101000a900460ff1660ff16611a16565b9050600d6040518061010001604052806007548152602001858152602001848152602001600160ff1681526020018360ff168152602001600063ffffffff168152602001600061ffff168152602001600061ffff168152509080600181540180825580915050600190039060005260206000209060040201600090919091909150600082015181600001556020820151816001019080519060200190611439929190611e53565b506040820151816002015560608201518160030160006101000a81548160ff021916908360ff16021790555060808201518160030160016101000a81548160ff021916908360ff16021790555060a08201518160030160026101000a81548163ffffffff021916908363ffffffff16021790555060c08201518160030160066101000a81548161ffff021916908361ffff16021790555060e08201518160030160086101000a81548161ffff021916908361ffff160217905550505061150133600754611a5b565b6115546001600e60003373ffffffffffffffffffffffffffffffffffffffff1673ffffffffffffffffffffffffffffffffffffffff16815260200190815260200160002054611a7990919063ffffffff16565b600e60003373ffffffffffffffffffffffffffffffffffffffff1673ffffffffffffffffffffffffffffffffffffffff168152602001908152602001600020819055503373ffffffffffffffffffffffffffffffffffffffff167f29c4292b8838988609f9bd8e9042f7e77158b1f5ebfcae6494b7b709c3d20ffc600754846040516115e1929190612eac565b60405180910390a26115ff6001600754611a7990919063ffffffff16565b600781905550505050565b6000600660009054906101000a900473ffffffffffffffffffffffffffffffffffffffff16905081600660006101000a81548173ffffffffffffffffffffffffffffffffffffffff021916908373ffffffffffffffffffffffffffffffffffffffff1602179055508173ffffffffffffffffffffffffffffffffffffffff168173ffffffffffffffffffffffffffffffffffffffff167f8be0079c531659141344cd1fd0a4f28419497f9722a3daafe3b4186f6b6457e060405160405180910390a35050565b8173ffffffffffffffffffffffffffffffffffffffff168373ffffffffffffffffffffffffffffffffffffffff16141561173f576040517f08c379a000000000000000000000000000000000000000000000000000000000815260040161173690612f21565b60405180910390fd5b80600560008573ffffffffffffffffffffffffffffffffffffffff1673ffffffffffffffffffffffffffffffffffffffff16815260200190815260200160002060008473ffffffffffffffffffffffffffffffffffffffff1673ffffffffffffffffffffffffffffffffffffffff16815260200190815260200160002060006101000a81548160ff0219169083151502179055508173ffffffffffffffffffffffffffffffffffffffff168373ffffffffffffffffffffffffffffffffffffffff167f17307eab39ab6107e8899845ad3d59bd9653f200f220920489ca2b5937696c31836040516118309190611faa565b60405180910390a3505050565b61184884848461110a565b61185484848484611a8f565b611893576040517f08c379a000000000000000000000000000000000000000000000000000000000815260040161188a90612fb3565b60405180910390fd5b50505050565b606060405180602001604052806000815250905090565b606060008214156118f8576040518060400160405280600181526020017f30000000000000000000000000000000000000000000000000000000000000008152509050611a0c565b600082905060005b6000821461192a57808061191390612fd3565b915050600a82611923919061304b565b9150611900565b60008167ffffffffffffffff811115611946576119456122f4565b5b6040519080825280601f01601f1916602001820160405280156119785781602001600182028036833780820191505090505b5090505b60008514611a05576001826119919190612e22565b9150600a856119a0919061307c565b60306119ac9190612e56565b60f81b8183815181106119c2576119c16130ad565b5b60200101907effffffffffffffffffffffffffffffffffffffffffffffffffffffffffffff1916908160001a905350600a856119fe919061304b565b945061197c565b8093505050505b919050565b505050565b6000804233604051602001611a2c929190613145565b6040516020818303038152906040528051906020012060001c90508281611a53919061307c565b915050919050565b611a75828260405180602001604052806000815250611c17565b5050565b60008183611a879190612e56565b905092915050565b6000611ab08473ffffffffffffffffffffffffffffffffffffffff16611c72565b15611c0a578373ffffffffffffffffffffffffffffffffffffffff1663150b7a02611ad9610f6b565b8786866040518563ffffffff1660e01b8152600401611afb94939291906131c6565b6020604051808303816000875af1925050508015611b3757506040513d601f19601f82011682018060405250810190611b349190613227565b60015b611bba573d8060008114611b67576040519150601f19603f3d011682016040523d82523d6000602084013e611b6c565b606091505b50600081511415611bb2576040517f08c379a0000000000000000000000000000000000000000000000000000000008152600401611ba990612fb3565b60405180910390fd5b805181602001fd5b63150b7a0260e01b7bffffffffffffffffffffffffffffffffffffffffffffffffffffffff1916817bffffffffffffffffffffffffffffffffffffffffffffffffffffffff191614915050611c0f565b600190505b949350505050565b611c218383611c85565b611c2e6000848484611a8f565b611c6d576040517f08c379a0000000000000000000000000000000000000000000000000000000008152600401611c6490612fb3565b60405180910390fd5b505050565b600080823b905060008111915050919050565b600073ffffffffffffffffffffffffffffffffffffffff168273ffffffffffffffffffffffffffffffffffffffff161415611cf5576040517f08c379a0000000000000000000000000000000000000000000000000000000008152600401611cec906132a0565b60405180910390fd5b611cfe81610eff565b15611d3e576040517f08c379a0000000000000000000000000000000000000000000000000000000008152600401611d359061330c565b60405180910390fd5b611d4a60008383611a11565b6001600360008473ffffffffffffffffffffffffffffffffffffffff1673ffffffffffffffffffffffffffffffffffffffff1681526020019081526020016000206000828254611d9a9190612e56565b92505081905550816002600083815260200190815260200160002060006101000a81548173ffffffffffffffffffffffffffffffffffffffff021916908373ffffffffffffffffffffffffffffffffffffffff160217905550808273ffffffffffffffffffffffffffffffffffffffff16600073ffffffffffffffffffffffffffffffffffffffff167fddf252ad1be2c89b69c2b068fc378daa952ba7f163c4a11628f55a4df523b3ef60405160405180910390a45050565b828054611e5f906126af565b90600052602060002090601f016020900481019282611e815760008555611ec8565b82601f10611e9a57805160ff1916838001178555611ec8565b82800160010185558215611ec8579182015b82811115611ec7578251825591602001919060010190611eac565b5b509050611ed59190611ed9565b5090565b5b80821115611ef2576000816000905550600101611eda565b5090565b6000604051905090565b600080fd5b600080fd5b60007fffffffff0000000000000000000000000000000000000000000000000000000082169050919050565b611f3f81611f0a565b8114611f4a57600080fd5b50565b600081359050611f5c81611f36565b92915050565b600060208284031215611f7857611f77611f00565b5b6000611f8684828501611f4d565b91505092915050565b60008115159050919050565b611fa481611f8f565b82525050565b6000602082019050611fbf6000830184611f9b565b92915050565b600081519050919050565b600082825260208201905092915050565b60005b83811015611fff578082015181840152602081019050611fe4565b8381111561200e576000848401525b50505050565b6000601f19601f8301169050919050565b600061203082611fc5565b61203a8185611fd0565b935061204a818560208601611fe1565b61205381612014565b840191505092915050565b600060208201905081810360008301526120788184612025565b905092915050565b6000819050919050565b61209381612080565b811461209e57600080fd5b50565b6000813590506120b08161208a565b92915050565b6000602082840312156120cc576120cb611f00565b5b60006120da848285016120a1565b91505092915050565b600073ffffffffffffffffffffffffffffffffffffffff82169050919050565b600061210e826120e3565b9050919050565b61211e81612103565b82525050565b60006020820190506121396000830184612115565b92915050565b61214881612103565b811461215357600080fd5b50565b6000813590506121658161213f565b92915050565b6000806040838503121561218257612181611f00565b5b600061219085828601612156565b92505060206121a1858286016120a1565b9150509250929050565b6000806000606084860312156121c4576121c3611f00565b5b60006121d286828701612156565b93505060206121e386828701612156565b92505060406121f4868287016120a1565b9150509250925092565b61220781612080565b82525050565b600060ff82169050919050565b6122238161220d565b82525050565b600063ffffffff82169050919050565b61224281612229565b82525050565b600061ffff82169050919050565b61225f81612248565b82525050565b60006101008201905061227b600083018b6121fe565b818103602083015261228d818a612025565b905061229c60408301896121fe565b6122a9606083018861221a565b6122b6608083018761221a565b6122c360a0830186612239565b6122d060c0830185612256565b6122dd60e0830184612256565b9998505050505050505050565b600080fd5b600080fd5b7f4e487b7100000000000000000000000000000000000000000000000000000000600052604160045260246000fd5b61232c82612014565b810181811067ffffffffffffffff8211171561234b5761234a6122f4565b5b80604052505050565b600061235e611ef6565b905061236a8282612323565b919050565b600067ffffffffffffffff82111561238a576123896122f4565b5b61239382612014565b9050602081019050919050565b82818337600083830152505050565b60006123c26123bd8461236f565b612354565b9050828152602081018484840111156123de576123dd6122ef565b5b6123e98482856123a0565b509392505050565b600082601f830112612406576124056122ea565b5b81356124168482602086016123af565b91505092915050565b60006020828403121561243557612434611f00565b5b600082013567ffffffffffffffff81111561245357612452611f05565b5b61245f848285016123f1565b91505092915050565b60006020828403121561247e5761247d611f00565b5b600061248c84828501612156565b91505092915050565b60006020820190506124aa60008301846121fe565b92915050565b6124b981611f8f565b81146124c457600080fd5b50565b6000813590506124d6816124b0565b92915050565b600080604083850312156124f3576124f2611f00565b5b600061250185828601612156565b9250506020612512858286016124c7565b9150509250929050565b600067ffffffffffffffff821115612537576125366122f4565b5b61254082612014565b9050602081019050919050565b600061256061255b8461251c565b612354565b90508281526020810184848401111561257c5761257b6122ef565b5b6125878482856123a0565b509392505050565b600082601f8301126125a4576125a36122ea565b5b81356125b484826020860161254d565b91505092915050565b600080600080608085870312156125d7576125d6611f00565b5b60006125e587828801612156565b94505060206125f687828801612156565b9350506040612607878288016120a1565b925050606085013567ffffffffffffffff81111561262857612627611f05565b5b6126348782880161258f565b91505092959194509250565b6000806040838503121561265757612656611f00565b5b600061266585828601612156565b925050602061267685828601612156565b9150509250929050565b7f4e487b7100000000000000000000000000000000000000000000000000000000600052602260045260246000fd5b600060028204905060018216806126c757607f821691505b602082108114156126db576126da612680565b5b50919050565b7f4552433732313a20617070726f76656420717565727920666f72206e6f6e657860008201527f697374656e7420746f6b656e0000000000000000000000000000000000000000602082015250565b600061273d602c83611fd0565b9150612748826126e1565b604082019050919050565b6000602082019050818103600083015261276c81612730565b9050919050565b7f4552433732313a20617070726f76616c20746f2063757272656e74206f776e6560008201527f7200000000000000000000000000000000000000000000000000000000000000602082015250565b60006127cf602183611fd0565b91506127da82612773565b604082019050919050565b600060208201905081810360008301526127fe816127c2565b9050919050565b7f4552433732313a20617070726f76652063616c6c6572206973206e6f74206f7760008201527f6e6572206e6f7220617070726f76656420666f7220616c6c0000000000000000602082015250565b6000612861603883611fd0565b915061286c82612805565b604082019050919050565b6000602082019050818103600083015261289081612854565b9050919050565b7f4552433732313a207472616e736665722063616c6c6572206973206e6f74206f60008201527f776e6572206e6f7220617070726f766564000000000000000000000000000000602082015250565b60006128f3603183611fd0565b91506128fe82612897565b604082019050919050565b60006020820190508181036000830152612922816128e6565b9050919050565b7f4552433732313a206f776e657220717565727920666f72206e6f6e657869737460008201527f656e7420746f6b656e0000000000000000000000000000000000000000000000602082015250565b6000612985602983611fd0565b915061299082612929565b604082019050919050565b600060208201905081810360008301526129b481612978565b9050919050565b7f4552433732313a2062616c616e636520717565727920666f7220746865207a6560008201527f726f206164647265737300000000000000000000000000000000000000000000602082015250565b6000612a17602a83611fd0565b9150612a22826129bb565b604082019050919050565b60006020820190508181036000830152612a4681612a0a565b9050919050565b7f4f776e61626c653a2063616c6c6572206973206e6f7420746865206f776e6572600082015250565b6000612a83602083611fd0565b9150612a8e82612a4d565b602082019050919050565b60006020820190508181036000830152612ab281612a76565b9050919050565b7f4552433732314d657461646174613a2055524920717565727920666f72206e6f60008201527f6e6578697374656e7420746f6b656e0000000000000000000000000000000000602082015250565b6000612b15602f83611fd0565b9150612b2082612ab9565b604082019050919050565b60006020820190508181036000830152612b4481612b08565b9050919050565b600081905092915050565b6000612b6182611fc5565b612b6b8185612b4b565b9350612b7b818560208601611fe1565b80840191505092915050565b6000612b938285612b56565b9150612b9f8284612b56565b91508190509392505050565b7f4f776e61626c653a206e6577206f776e657220697320746865207a65726f206160008201527f6464726573730000000000000000000000000000000000000000000000000000602082015250565b6000612c07602683611fd0565b9150612c1282612bab565b604082019050919050565b60006020820190508181036000830152612c3681612bfa565b9050919050565b7f4552433732313a206f70657261746f7220717565727920666f72206e6f6e657860008201527f697374656e7420746f6b656e0000000000000000000000000000000000000000602082015250565b6000612c99602c83611fd0565b9150612ca482612c3d565b604082019050919050565b60006020820190508181036000830152612cc881612c8c565b9050919050565b7f4552433732313a207472616e73666572206f6620746f6b656e2074686174206960008201527f73206e6f74206f776e0000000000000000000000000000000000000000000000602082015250565b6000612d2b602983611fd0565b9150612d3682612ccf565b604082019050919050565b60006020820190508181036000830152612d5a81612d1e565b9050919050565b7f4552433732313a207472616e7366657220746f20746865207a65726f2061646460008201527f7265737300000000000000000000000000000000000000000000000000000000602082015250565b6000612dbd602483611fd0565b9150612dc882612d61565b604082019050919050565b60006020820190508181036000830152612dec81612db0565b9050919050565b7f4e487b7100000000000000000000000000000000000000000000000000000000600052601160045260246000fd5b6000612e2d82612080565b9150612e3883612080565b925082821015612e4b57612e4a612df3565b5b828203905092915050565b6000612e6182612080565b9150612e6c83612080565b9250827fffffffffffffffffffffffffffffffffffffffffffffffffffffffffffffffff03821115612ea157612ea0612df3565b5b828201905092915050565b6000604082019050612ec160008301856121fe565b612ece60208301846121fe565b9392505050565b7f4552433732313a20617070726f766520746f2063616c6c657200000000000000600082015250565b6000612f0b601983611fd0565b9150612f1682612ed5565b602082019050919050565b60006020820190508181036000830152612f3a81612efe565b9050919050565b7f4552433732313a207472616e7366657220746f206e6f6e20455243373231526560008201527f63656976657220696d706c656d656e7465720000000000000000000000000000602082015250565b6000612f9d603283611fd0565b9150612fa882612f41565b604082019050919050565b60006020820190508181036000830152612fcc81612f90565b9050919050565b6000612fde82612080565b91507fffffffffffffffffffffffffffffffffffffffffffffffffffffffffffffffff82141561301157613010612df3565b5b600182019050919050565b7f4e487b7100000000000000000000000000000000000000000000000000000000600052601260045260246000fd5b600061305682612080565b915061306183612080565b9250826130715761307061301c565b5b828204905092915050565b600061308782612080565b915061309283612080565b9250826130a2576130a161301c565b5b828206905092915050565b7f4e487b7100000000000000000000000000000000000000000000000000000000600052603260045260246000fd5b6000819050919050565b6130f76130f282612080565b6130dc565b82525050565b60008160601b9050919050565b6000613115826130fd565b9050919050565b60006131278261310a565b9050919050565b61313f61313a82612103565b61311c565b82525050565b600061315182856130e6565b602082019150613161828461312e565b6014820191508190509392505050565b600081519050919050565b600082825260208201905092915050565b600061319882613171565b6131a2818561317c565b93506131b2818560208601611fe1565b6131bb81612014565b840191505092915050565b60006080820190506131db6000830187612115565b6131e86020830186612115565b6131f560408301856121fe565b8181036060830152613207818461318d565b905095945050505050565b60008151905061322181611f36565b92915050565b60006020828403121561323d5761323c611f00565b5b600061324b84828501613212565b91505092915050565b7f4552433732313a206d696e7420746f20746865207a65726f2061646472657373600082015250565b600061328a602083611fd0565b915061329582613254565b602082019050919050565b600060208201905081810360008301526132b98161327d565b9050919050565b7f4552433732313a20746f6b656e20616c7265616479206d696e74656400000000600082015250565b60006132f6601c83611fd0565b9150613301826132c0565b602082019050919050565b60006020820190508181036000830152613325816132e9565b905091905056fea2646970667358221220f1249aec26331664718daf47f718f2e4694b9ea4d919b189bb0ee7c429ec95f464736f6c634300080b0033",
  "immutableReferences": {},
  "source": "// SPDX-License-Identifier: MIT\r\n\r\npragma solidity >=0.4.22 <0.9.0;\r\n\r\nimport \"@openzeppelin/contracts/token/ERC721/ERC721.sol\";\r\nimport \"@openzeppelin/contracts/access/Ownable.sol\";\r\nimport \"@openzeppelin/contracts/utils/math/SafeMath.sol\";\r\n\r\ncontract LipFactory is ERC721, Ownable {\r\n  constructor() ERC721(\"Lip Token\", \"LPT\") {}\r\n\r\n  using SafeMath for uint256;\r\n\r\n  event NewLipCreated(address indexed owner, uint256 id, uint256 dna);\r\n\r\n  uint256 COUNTER;\r\n  uint256 fee = 0.01 ether;\r\n  uint256 cooldownTime = 1 days;\r\n  uint256 dnaDigits = 16;\r\n  uint256 dnaModulus = 10 ** dnaDigits;\r\n  uint8 rarityModulus = 100;\r\n\r\n  struct Lip {\r\n      uint256 id;\r\n      string name;\r\n      uint256 dna;\r\n      uint8 level;\r\n      uint8 rarity;\r\n      uint32 readyTime;\r\n      uint16 winCount;\r\n      uint16 lossCount;\r\n  }\r\n  Lip[] public lips;\r\n\r\n  mapping (address => uint256) ownerLipCount;\r\n\r\n  function _generateRandomNum(uint256 _mod) internal view returns (uint256) {\r\n    uint256 randomNumber = uint256(\r\n        keccak256(abi.encodePacked(block.timestamp, msg.sender))\r\n    );\r\n    return randomNumber % _mod;\r\n  }\r\n\r\n  function _createLip(string memory _name) internal {\r\n      uint256 randomDna = _generateRandomNum(dnaModulus);\r\n      uint8 randomRarity = uint8(_generateRandomNum(rarityModulus));\r\n      lips.push(\r\n        Lip(\r\n          COUNTER,\r\n          _name,\r\n          randomDna,\r\n          1,\r\n          randomRarity,\r\n          0,\r\n          0, 0\r\n        )\r\n      );\r\n      _safeMint(msg.sender, COUNTER);\r\n      ownerLipCount[msg.sender] = ownerLipCount[msg.sender].add(1);\r\n      emit NewLipCreated(msg.sender, COUNTER, randomDna);\r\n      COUNTER = COUNTER.add(1);\r\n  }\r\n\r\n  function createRandomLip(string memory _name) public payable {\r\n    require(msg.value >= fee);\r\n    _createLip(_name);\r\n  }\r\n}\r\n",
  "sourcePath": "C:\\Github\\nft_game\\src\\contracts\\lipfactory.sol",
  "compiler": {
    "name": "solc",
    "version": "0.8.11+commit.d7f03943.Emscripten.clang"
  },
  "schemaVersion": "3.4.4",
  "updatedAt": "2022-02-24T05:58:25.182Z",
  "devdoc": {
    "kind": "dev",
    "methods": {
      "approve(address,uint256)": {
        "details": "See {IERC721-approve}."
      },
      "balanceOf(address)": {
        "details": "See {IERC721-balanceOf}."
      },
      "getApproved(uint256)": {
        "details": "See {IERC721-getApproved}."
      },
      "isApprovedForAll(address,address)": {
        "details": "See {IERC721-isApprovedForAll}."
      },
      "name()": {
        "details": "See {IERC721Metadata-name}."
      },
      "owner()": {
        "details": "Returns the address of the current owner."
      },
      "ownerOf(uint256)": {
        "details": "See {IERC721-ownerOf}."
      },
      "renounceOwnership()": {
        "details": "Leaves the contract without owner. It will not be possible to call `onlyOwner` functions anymore. Can only be called by the current owner. NOTE: Renouncing ownership will leave the contract without an owner, thereby removing any functionality that is only available to the owner."
      },
      "safeTransferFrom(address,address,uint256)": {
        "details": "See {IERC721-safeTransferFrom}."
      },
      "safeTransferFrom(address,address,uint256,bytes)": {
        "details": "See {IERC721-safeTransferFrom}."
      },
      "setApprovalForAll(address,bool)": {
        "details": "See {IERC721-setApprovalForAll}."
      },
      "supportsInterface(bytes4)": {
        "details": "See {IERC165-supportsInterface}."
      },
      "symbol()": {
        "details": "See {IERC721Metadata-symbol}."
      },
      "tokenURI(uint256)": {
        "details": "See {IERC721Metadata-tokenURI}."
      },
      "transferFrom(address,address,uint256)": {
        "details": "See {IERC721-transferFrom}."
      },
      "transferOwnership(address)": {
        "details": "Transfers ownership of the contract to a new account (`newOwner`). Can only be called by the current owner."
      }
    },
    "version": 1
  },
  "userdoc": {
    "kind": "user",
    "methods": {},
    "version": 1
  }
}