{
  "contractName": "LipHelper",
  "abi": [
    {
      "anonymous": false,
      "inputs": [
        {
          "indexed": true,
          "internalType": "address",
          "name": "owner",
          "type": "address"
        },
        {
          "indexed": true,
          "internalType": "address",
          "name": "approved",
          "type": "address"
        },
        {
          "indexed": true,
          "internalType": "uint256",
          "name": "tokenId",
          "type": "uint256"
        }
      ],
      "name": "Approval",
      "type": "event"
    },
    {
      "anonymous": false,
      "inputs": [
        {
          "indexed": true,
          "internalType": "address",
          "name": "owner",
          "type": "address"
        },
        {
          "indexed": true,
          "internalType": "address",
          "name": "operator",
          "type": "address"
        },
        {
          "indexed": false,
          "internalType": "bool",
          "name": "approved",
          "type": "bool"
        }
      ],
      "name": "ApprovalForAll",
      "type": "event"
    },
    {
      "anonymous": false,
      "inputs": [
        {
          "indexed": true,
          "internalType": "address",
          "name": "owner",
          "type": "address"
        },
        {
          "indexed": false,
          "internalType": "uint256",
          "name": "id",
          "type": "uint256"
        },
        {
          "indexed": false,
          "internalType": "uint256",
          "name": "dna",
          "type": "uint256"
        }
      ],
      "name": "NewLipCreated",
      "type": "event"
    },
    {
      "anonymous": false,
      "inputs": [
        {
          "indexed": true,
          "internalType": "address",
          "name": "previousOwner",
          "type": "address"
        },
        {
          "indexed": true,
          "internalType": "address",
          "name": "newOwner",
          "type": "address"
        }
      ],
      "name": "OwnershipTransferred",
      "type": "event"
    },
    {
      "anonymous": false,
      "inputs": [
        {
          "indexed": true,
          "internalType": "address",
          "name": "from",
          "type": "address"
        },
        {
          "indexed": true,
          "internalType": "address",
          "name": "to",
          "type": "address"
        },
        {
          "indexed": true,
          "internalType": "uint256",
          "name": "tokenId",
          "type": "uint256"
        }
      ],
      "name": "Transfer",
      "type": "event"
    },
    {
      "inputs": [
        {
          "internalType": "address",
          "name": "to",
          "type": "address"
        },
        {
          "internalType": "uint256",
          "name": "tokenId",
          "type": "uint256"
        }
      ],
      "name": "approve",
      "outputs": [],
      "stateMutability": "nonpayable",
      "type": "function"
    },
    {
      "inputs": [
        {
          "internalType": "address",
          "name": "owner",
          "type": "address"
        }
      ],
      "name": "balanceOf",
      "outputs": [
        {
          "internalType": "uint256",
          "name": "",
          "type": "uint256"
        }
      ],
      "stateMutability": "view",
      "type": "function"
    },
    {
      "inputs": [
        {
          "internalType": "string",
          "name": "_name",
          "type": "string"
        }
      ],
      "name": "createRandomLip",
      "outputs": [],
      "stateMutability": "payable",
      "type": "function"
    },
    {
      "inputs": [
        {
          "internalType": "uint256",
          "name": "tokenId",
          "type": "uint256"
        }
      ],
      "name": "getApproved",
      "outputs": [
        {
          "internalType": "address",
          "name": "",
          "type": "address"
        }
      ],
      "stateMutability": "view",
      "type": "function"
    },
    {
      "inputs": [
        {
          "internalType": "address",
          "name": "owner",
          "type": "address"
        },
        {
          "internalType": "address",
          "name": "operator",
          "type": "address"
        }
      ],
      "name": "isApprovedForAll",
      "outputs": [
        {
          "internalType": "bool",
          "name": "",
          "type": "bool"
        }
      ],
      "stateMutability": "view",
      "type": "function"
    },
    {
      "inputs": [
        {
          "internalType": "uint256",
          "name": "",
          "type": "uint256"
        }
      ],
      "name": "lips",
      "outputs": [
        {
          "internalType": "uint256",
          "name": "id",
          "type": "uint256"
        },
        {
          "internalType": "string",
          "name": "name",
          "type": "string"
        },
        {
          "internalType": "uint256",
          "name": "dna",
          "type": "uint256"
        },
        {
          "internalType": "uint8",
          "name": "level",
          "type": "uint8"
        },
        {
          "internalType": "uint8",
          "name": "rarity",
          "type": "uint8"
        },
        {
          "internalType": "uint32",
          "name": "readyTime",
          "type": "uint32"
        },
        {
          "internalType": "uint16",
          "name": "winCount",
          "type": "uint16"
        },
        {
          "internalType": "uint16",
          "name": "lossCount",
          "type": "uint16"
        }
      ],
      "stateMutability": "view",
      "type": "function"
    },
    {
      "inputs": [],
      "name": "name",
      "outputs": [
        {
          "internalType": "string",
          "name": "",
          "type": "string"
        }
      ],
      "stateMutability": "view",
      "type": "function"
    },
    {
      "inputs": [],
      "name": "owner",
      "outputs": [
        {
          "internalType": "address",
          "name": "",
          "type": "address"
        }
      ],
      "stateMutability": "view",
      "type": "function"
    },
    {
      "inputs": [
        {
          "internalType": "uint256",
          "name": "tokenId",
          "type": "uint256"
        }
      ],
      "name": "ownerOf",
      "outputs": [
        {
          "internalType": "address",
          "name": "",
          "type": "address"
        }
      ],
      "stateMutability": "view",
      "type": "function"
    },
    {
      "inputs": [],
      "name": "renounceOwnership",
      "outputs": [],
      "stateMutability": "nonpayable",
      "type": "function"
    },
    {
      "inputs": [
        {
          "internalType": "address",
          "name": "from",
          "type": "address"
        },
        {
          "internalType": "address",
          "name": "to",
          "type": "address"
        },
        {
          "internalType": "uint256",
          "name": "tokenId",
          "type": "uint256"
        }
      ],
      "name": "safeTransferFrom",
      "outputs": [],
      "stateMutability": "nonpayable",
      "type": "function"
    },
    {
      "inputs": [
        {
          "internalType": "address",
          "name": "from",
          "type": "address"
        },
        {
          "internalType": "address",
          "name": "to",
          "type": "address"
        },
        {
          "internalType": "uint256",
          "name": "tokenId",
          "type": "uint256"
        },
        {
          "internalType": "bytes",
          "name": "_data",
          "type": "bytes"
        }
      ],
      "name": "safeTransferFrom",
      "outputs": [],
      "stateMutability": "nonpayable",
      "type": "function"
    },
    {
      "inputs": [
        {
          "internalType": "address",
          "name": "operator",
          "type": "address"
        },
        {
          "internalType": "bool",
          "name": "approved",
          "type": "bool"
        }
      ],
      "name": "setApprovalForAll",
      "outputs": [],
      "stateMutability": "nonpayable",
      "type": "function"
    },
    {
      "inputs": [
        {
          "internalType": "bytes4",
          "name": "interfaceId",
          "type": "bytes4"
        }
      ],
      "name": "supportsInterface",
      "outputs": [
        {
          "internalType": "bool",
          "name": "",
          "type": "bool"
        }
      ],
      "stateMutability": "view",
      "type": "function"
    },
    {
      "inputs": [],
      "name": "symbol",
      "outputs": [
        {
          "internalType": "string",
          "name": "",
          "type": "string"
        }
      ],
      "stateMutability": "view",
      "type": "function"
    },
    {
      "inputs": [
        {
          "internalType": "uint256",
          "name": "tokenId",
          "type": "uint256"
        }
      ],
      "name": "tokenURI",
      "outputs": [
        {
          "internalType": "string",
          "name": "",
          "type": "string"
        }
      ],
      "stateMutability": "view",
      "type": "function"
    },
    {
      "inputs": [
        {
          "internalType": "address",
          "name": "from",
          "type": "address"
        },
        {
          "internalType": "address",
          "name": "to",
          "type": "address"
        },
        {
          "internalType": "uint256",
          "name": "tokenId",
          "type": "uint256"
        }
      ],
      "name": "transferFrom",
      "outputs": [],
      "stateMutability": "nonpayable",
      "type": "function"
    },
    {
      "inputs": [
        {
          "internalType": "address",
          "name": "newOwner",
          "type": "address"
        }
      ],
      "name": "transferOwnership",
      "outputs": [],
      "stateMutability": "nonpayable",
      "type": "function"
    },
    {
      "inputs": [],
      "name": "withDraw",
      "outputs": [],
      "stateMutability": "payable",
      "type": "function"
    },
    {
      "inputs": [
        {
          "internalType": "uint256",
          "name": "_fee",
          "type": "uint256"
        }
      ],
      "name": "setLevelUpFee",
      "outputs": [],
      "stateMutability": "nonpayable",
      "type": "function"
    },
    {
      "inputs": [
        {
          "internalType": "uint256",
          "name": "_lipId",
          "type": "uint256"
        }
      ],
      "name": "levelUp",
      "outputs": [],
      "stateMutability": "payable",
      "type": "function"
    },
    {
      "inputs": [
        {
          "internalType": "uint256",
          "name": "_lipId",
          "type": "uint256"
        },
        {
          "internalType": "string",
          "name": "_newName",
          "type": "string"
        }
      ],
      "name": "changeName",
      "outputs": [],
      "stateMutability": "nonpayable",
      "type": "function"
    },
    {
      "inputs": [],
      "name": "getAllLips",
      "outputs": [
        {
          "components": [
            {
              "internalType": "uint256",
              "name": "id",
              "type": "uint256"
            },
            {
              "internalType": "string",
              "name": "name",
              "type": "string"
            },
            {
              "internalType": "uint256",
              "name": "dna",
              "type": "uint256"
            },
            {
              "internalType": "uint8",
              "name": "level",
              "type": "uint8"
            },
            {
              "internalType": "uint8",
              "name": "rarity",
              "type": "uint8"
            },
            {
              "internalType": "uint32",
              "name": "readyTime",
              "type": "uint32"
            },
            {
              "internalType": "uint16",
              "name": "winCount",
              "type": "uint16"
            },
            {
              "internalType": "uint16",
              "name": "lossCount",
              "type": "uint16"
            }
          ],
          "internalType": "struct LipFactory.Lip[]",
          "name": "",
          "type": "tuple[]"
        }
      ],
      "stateMutability": "view",
      "type": "function"
    },
    {
      "inputs": [
        {
          "internalType": "address",
          "name": "_owner",
          "type": "address"
        }
      ],
      "name": "getEnemy",
      "outputs": [
        {
          "components": [
            {
              "internalType": "uint256",
              "name": "id",
              "type": "uint256"
            },
            {
              "internalType": "string",
              "name": "name",
              "type": "string"
            },
            {
              "internalType": "uint256",
              "name": "dna",
              "type": "uint256"
            },
            {
              "internalType": "uint8",
              "name": "level",
              "type": "uint8"
            },
            {
              "internalType": "uint8",
              "name": "rarity",
              "type": "uint8"
            },
            {
              "internalType": "uint32",
              "name": "readyTime",
              "type": "uint32"
            },
            {
              "internalType": "uint16",
              "name": "winCount",
              "type": "uint16"
            },
            {
              "internalType": "uint16",
              "name": "lossCount",
              "type": "uint16"
            }
          ],
          "internalType": "struct LipFactory.Lip[]",
          "name": "",
          "type": "tuple[]"
        }
      ],
      "stateMutability": "view",
      "type": "function"
    },
    {
      "inputs": [
        {
          "internalType": "address",
          "name": "_owner",
          "type": "address"
        }
      ],
      "name": "getOwnerLips",
      "outputs": [
        {
          "components": [
            {
              "internalType": "uint256",
              "name": "id",
              "type": "uint256"
            },
            {
              "internalType": "string",
              "name": "name",
              "type": "string"
            },
            {
              "internalType": "uint256",
              "name": "dna",
              "type": "uint256"
            },
            {
              "internalType": "uint8",
              "name": "level",
              "type": "uint8"
            },
            {
              "internalType": "uint8",
              "name": "rarity",
              "type": "uint8"
            },
            {
              "internalType": "uint32",
              "name": "readyTime",
              "type": "uint32"
            },
            {
              "internalType": "uint16",
              "name": "winCount",
              "type": "uint16"
            },
            {
              "internalType": "uint16",
              "name": "lossCount",
              "type": "uint16"
            }
          ],
          "internalType": "struct LipFactory.Lip[]",
          "name": "",
          "type": "tuple[]"
        }
      ],
      "stateMutability": "view",
      "type": "function"
    }
  ],
  "bytecode": "0x6080604052662386f26fc10000600855620151806009556010600a55600a54600a6200002c919062000435565b600b556064600c60006101000a81548160ff021916908360ff160217905550662386f26fc10000600f553480156200006357600080fd5b506040518060400160405280600981526020017f4c697020546f6b656e00000000000000000000000000000000000000000000008152506040518060400160405280600381526020017f4c505400000000000000000000000000000000000000000000000000000000008152508160009080519060200190620000e8929190620001f8565b50806001908051906020019062000101929190620001f8565b50505062000124620001186200012a60201b60201c565b6200013260201b60201c565b620004eb565b600033905090565b6000600660009054906101000a900473ffffffffffffffffffffffffffffffffffffffff16905081600660006101000a81548173ffffffffffffffffffffffffffffffffffffffff021916908373ffffffffffffffffffffffffffffffffffffffff1602179055508173ffffffffffffffffffffffffffffffffffffffff168173ffffffffffffffffffffffffffffffffffffffff167f8be0079c531659141344cd1fd0a4f28419497f9722a3daafe3b4186f6b6457e060405160405180910390a35050565b8280546200020690620004b5565b90600052602060002090601f0160209004810192826200022a576000855562000276565b82601f106200024557805160ff191683800117855562000276565b8280016001018555821562000276579182015b828111156200027557825182559160200191906001019062000258565b5b50905062000285919062000289565b5090565b5b80821115620002a45760008160009055506001016200028a565b5090565b7f4e487b7100000000000000000000000000000000000000000000000000000000600052601160045260246000fd5b60008160011c9050919050565b6000808291508390505b600185111562000336578086048111156200030e576200030d620002a8565b5b60018516156200031e5780820291505b80810290506200032e85620002d7565b9450620002ee565b94509492505050565b60008262000351576001905062000424565b8162000361576000905062000424565b81600181146200037a57600281146200038557620003bb565b600191505062000424565b60ff8411156200039a5762000399620002a8565b5b8360020a915084821115620003b457620003b3620002a8565b5b5062000424565b5060208310610133831016604e8410600b8410161715620003f55782820a905083811115620003ef57620003ee620002a8565b5b62000424565b620004048484846001620002e4565b925090508184048111156200041e576200041d620002a8565b5b81810290505b9392505050565b6000819050919050565b600062000442826200042b565b91506200044f836200042b565b92506200047e7fffffffffffffffffffffffffffffffffffffffffffffffffffffffffffffffff84846200033f565b905092915050565b7f4e487b7100000000000000000000000000000000000000000000000000000000600052602260045260246000fd5b60006002820490506001821680620004ce57607f821691505b60208210811415620004e557620004e462000486565b5b50919050565b61429d80620004fb6000396000f3fe6080604052600436106101665760003560e01c806370a08231116100d1578063a22cb4651161008a578063c87b56dd11610064578063c87b56dd14610518578063ccf670f814610555578063e985e9c51461057e578063f2fde38b146105bb57610166565b8063a22cb4651461049d578063b88d4fde146104c6578063c39cbef1146104ef57610166565b806370a0823114610379578063715018a6146103b657806376c2edc9146103cd5780638c0b9c541461040a5780638da5cb5b1461044757806395d89b411461047257610166565b806323b872dd1161012357806323b872dd1461025f5780632c44cfc31461028857806342842e0e146102b35780635ec163db146102dc5780636352211e14610320578063698d640c1461035d57610166565b806301ffc9a71461016b57806306fdde03146101a8578063081812fc146101d3578063095ea7b3146102105780630ce90ec2146102395780630fdb1c1014610255575b600080fd5b34801561017757600080fd5b50610192600480360381019061018d9190612b99565b6105e4565b60405161019f9190612be1565b60405180910390f35b3480156101b457600080fd5b506101bd6106c6565b6040516101ca9190612c95565b60405180910390f35b3480156101df57600080fd5b506101fa60048036038101906101f59190612ced565b610758565b6040516102079190612d5b565b60405180910390f35b34801561021c57600080fd5b5061023760048036038101906102329190612da2565b6107dd565b005b610253600480360381019061024e9190612ced565b6108f5565b005b61025d6109c5565b005b34801561026b57600080fd5b5061028660048036038101906102819190612de2565b610a97565b005b34801561029457600080fd5b5061029d610af7565b6040516102aa9190613058565b60405180910390f35b3480156102bf57600080fd5b506102da60048036038101906102d59190612de2565b610c9d565b005b3480156102e857600080fd5b5061030360048036038101906102fe9190612ced565b610cbd565b6040516103179897969594939291906130b6565b60405180910390f35b34801561032c57600080fd5b5061034760048036038101906103429190612ced565b610de3565b6040516103549190612d5b565b60405180910390f35b61037760048036038101906103729190613270565b610e95565b005b34801561038557600080fd5b506103a0600480360381019061039b91906132b9565b610eb0565b6040516103ad91906132e6565b60405180910390f35b3480156103c257600080fd5b506103cb610f68565b005b3480156103d957600080fd5b506103f460048036038101906103ef91906132b9565b610ff0565b6040516104019190613058565b60405180910390f35b34801561041657600080fd5b50610431600480360381019061042c91906132b9565b61126e565b60405161043e9190613058565b60405180910390f35b34801561045357600080fd5b5061045c6114dd565b6040516104699190612d5b565b60405180910390f35b34801561047e57600080fd5b50610487611507565b6040516104949190612c95565b60405180910390f35b3480156104a957600080fd5b506104c460048036038101906104bf919061332d565b611599565b005b3480156104d257600080fd5b506104ed60048036038101906104e8919061340e565b6115af565b005b3480156104fb57600080fd5b50610516600480360381019061051191906134f1565b611611565b005b34801561052457600080fd5b5061053f600480360381019061053a9190612ced565b6116da565b60405161054c9190612c95565b60405180910390f35b34801561056157600080fd5b5061057c60048036038101906105779190612ced565b611781565b005b34801561058a57600080fd5b506105a560048036038101906105a09190613551565b611807565b6040516105b29190612be1565b60405180910390f35b3480156105c757600080fd5b506105e260048036038101906105dd91906132b9565b61189b565b005b60007f80ac58cd000000000000000000000000000000000000000000000000000000007bffffffffffffffffffffffffffffffffffffffffffffffffffffffff1916827bffffffffffffffffffffffffffffffffffffffffffffffffffffffff191614806106af57507f5b5e139f000000000000000000000000000000000000000000000000000000007bffffffffffffffffffffffffffffffffffffffffffffffffffffffff1916827bffffffffffffffffffffffffffffffffffffffffffffffffffffffff1916145b806106bf57506106be82611993565b5b9050919050565b6060600080546106d5906135c0565b80601f0160208091040260200160405190810160405280929190818152602001828054610701906135c0565b801561074e5780601f106107235761010080835404028352916020019161074e565b820191906000526020600020905b81548152906001019060200180831161073157829003601f168201915b5050505050905090565b6000610763826119fd565b6107a2576040517f08c379a000000000000000000000000000000000000000000000000000000000815260040161079990613664565b60405180910390fd5b6004600083815260200190815260200160002060009054906101000a900473ffffffffffffffffffffffffffffffffffffffff169050919050565b60006107e882610de3565b90508073ffffffffffffffffffffffffffffffffffffffff168373ffffffffffffffffffffffffffffffffffffffff161415610859576040517f08c379a0000000000000000000000000000000000000000000000000000000008152600401610850906136f6565b60405180910390fd5b8073ffffffffffffffffffffffffffffffffffffffff16610878611a69565b73ffffffffffffffffffffffffffffffffffffffff1614806108a757506108a6816108a1611a69565b611807565b5b6108e6576040517f08c379a00000000000000000000000000000000000000000000000000000000081526004016108dd90613788565b60405180910390fd5b6108f08383611a71565b505050565b806108ff81610de3565b73ffffffffffffffffffffffffffffffffffffffff163373ffffffffffffffffffffffffffffffffffffffff161461093657600080fd5b6000600d838154811061094c5761094b6137a8565b5b9060005260206000209060040201905061096581611b2a565b61096e57600080fd5b600f5434101561097d57600080fd5b80600301600081819054906101000a900460ff168092919061099e90613806565b91906101000a81548160ff021916908360ff160217905550506109c081611b51565b505050565b6109cd611a69565b73ffffffffffffffffffffffffffffffffffffffff166109eb6114dd565b73ffffffffffffffffffffffffffffffffffffffff1614610a41576040517f08c379a0000000000000000000000000000000000000000000000000000000008152600401610a389061387c565b60405180910390fd5b6000610a4b6114dd565b90508073ffffffffffffffffffffffffffffffffffffffff166108fc479081150290604051600060405180830381858888f19350505050158015610a93573d6000803e3d6000fd5b5050565b610aa8610aa2611a69565b82611b84565b610ae7576040517f08c379a0000000000000000000000000000000000000000000000000000000008152600401610ade9061390e565b60405180910390fd5b610af2838383611c62565b505050565b6060600d805480602002602001604051908101604052809291908181526020016000905b82821015610c9457838290600052602060002090600402016040518061010001604052908160008201548152602001600182018054610b59906135c0565b80601f0160208091040260200160405190810160405280929190818152602001828054610b85906135c0565b8015610bd25780601f10610ba757610100808354040283529160200191610bd2565b820191906000526020600020905b815481529060010190602001808311610bb557829003601f168201915b50505050508152602001600282015481526020016003820160009054906101000a900460ff1660ff1660ff1681526020016003820160019054906101000a900460ff1660ff1660ff1681526020016003820160029054906101000a900463ffffffff1663ffffffff1663ffffffff1681526020016003820160069054906101000a900461ffff1661ffff1661ffff1681526020016003820160089054906101000a900461ffff1661ffff1661ffff168152505081526020019060010190610b1b565b50505050905090565b610cb8838383604051806020016040528060008152506115af565b505050565b600d8181548110610ccd57600080fd5b9060005260206000209060040201600091509050806000015490806001018054610cf6906135c0565b80601f0160208091040260200160405190810160405280929190818152602001828054610d22906135c0565b8015610d6f5780601f10610d4457610100808354040283529160200191610d6f565b820191906000526020600020905b815481529060010190602001808311610d5257829003601f168201915b5050505050908060020154908060030160009054906101000a900460ff16908060030160019054906101000a900460ff16908060030160029054906101000a900463ffffffff16908060030160069054906101000a900461ffff16908060030160089054906101000a900461ffff16905088565b6000806002600084815260200190815260200160002060009054906101000a900473ffffffffffffffffffffffffffffffffffffffff169050600073ffffffffffffffffffffffffffffffffffffffff168173ffffffffffffffffffffffffffffffffffffffff161415610e8c576040517f08c379a0000000000000000000000000000000000000000000000000000000008152600401610e83906139a0565b60405180910390fd5b80915050919050565b600854341015610ea457600080fd5b610ead81611ebe565b50565b60008073ffffffffffffffffffffffffffffffffffffffff168273ffffffffffffffffffffffffffffffffffffffff161415610f21576040517f08c379a0000000000000000000000000000000000000000000000000000000008152600401610f1890613a32565b60405180910390fd5b600360008373ffffffffffffffffffffffffffffffffffffffff1673ffffffffffffffffffffffffffffffffffffffff168152602001908152602001600020549050919050565b610f70611a69565b73ffffffffffffffffffffffffffffffffffffffff16610f8e6114dd565b73ffffffffffffffffffffffffffffffffffffffff1614610fe4576040517f08c379a0000000000000000000000000000000000000000000000000000000008152600401610fdb9061387c565b60405180910390fd5b610fee6000612162565b565b60606000610ffd83610eb0565b600d8054905061100d9190613a52565b67ffffffffffffffff81111561102657611025613145565b5b60405190808252806020026020018201604052801561105f57816020015b61104c6129ab565b8152602001906001900390816110445790505b5090506000805b600d80549050811015611263578473ffffffffffffffffffffffffffffffffffffffff1661109382610de3565b73ffffffffffffffffffffffffffffffffffffffff161461125057600d81815481106110c2576110c16137a8565b5b906000526020600020906004020160405180610100016040529081600082015481526020016001820180546110f6906135c0565b80601f0160208091040260200160405190810160405280929190818152602001828054611122906135c0565b801561116f5780601f106111445761010080835404028352916020019161116f565b820191906000526020600020905b81548152906001019060200180831161115257829003601f168201915b50505050508152602001600282015481526020016003820160009054906101000a900460ff1660ff1660ff1681526020016003820160019054906101000a900460ff1660ff1660ff1681526020016003820160029054906101000a900463ffffffff1663ffffffff1663ffffffff1681526020016003820160069054906101000a900461ffff1661ffff1661ffff1681526020016003820160089054906101000a900461ffff1661ffff1661ffff1681525050838381518110611235576112346137a8565b5b602002602001018190525060018261124d9190613a86565b91505b808061125b90613adc565b915050611066565b508192505050919050565b6060600061127b83610eb0565b67ffffffffffffffff81111561129457611293613145565b5b6040519080825280602002602001820160405280156112cd57816020015b6112ba6129ab565b8152602001906001900390816112b25790505b5090506000805b600d805490508110156114d2578473ffffffffffffffffffffffffffffffffffffffff1661130182610de3565b73ffffffffffffffffffffffffffffffffffffffff1614156114bf57600d8181548110611331576113306137a8565b5b90600052602060002090600402016040518061010001604052908160008201548152602001600182018054611365906135c0565b80601f0160208091040260200160405190810160405280929190818152602001828054611391906135c0565b80156113de5780601f106113b3576101008083540402835291602001916113de565b820191906000526020600020905b8154815290600101906020018083116113c157829003601f168201915b50505050508152602001600282015481526020016003820160009054906101000a900460ff1660ff1660ff1681526020016003820160019054906101000a900460ff1660ff1660ff1681526020016003820160029054906101000a900463ffffffff1663ffffffff1663ffffffff1681526020016003820160069054906101000a900461ffff1661ffff1661ffff1681526020016003820160089054906101000a900461ffff1661ffff1661ffff16815250508383815181106114a4576114a36137a8565b5b60200260200101819052506001826114bc9190613a86565b91505b80806114ca90613adc565b9150506112d4565b508192505050919050565b6000600660009054906101000a900473ffffffffffffffffffffffffffffffffffffffff16905090565b606060018054611516906135c0565b80601f0160208091040260200160405190810160405280929190818152602001828054611542906135c0565b801561158f5780601f106115645761010080835404028352916020019161158f565b820191906000526020600020905b81548152906001019060200180831161157257829003601f168201915b5050505050905090565b6115ab6115a4611a69565b8383612228565b5050565b6115c06115ba611a69565b83611b84565b6115ff576040517f08c379a00000000000000000000000000000000000000000000000000000000081526004016115f69061390e565b60405180910390fd5b61160b84848484612395565b50505050565b60028381600d8281548110611629576116286137a8565b5b906000526020600020906004020160030160009054906101000a900460ff1660ff16101561165657600080fd5b8461166081610de3565b73ffffffffffffffffffffffffffffffffffffffff163373ffffffffffffffffffffffffffffffffffffffff161461169757600080fd5b6000600d87815481106116ad576116ac6137a8565b5b9060005260206000209060040201905085858260010191906116d0929190612a04565b5050505050505050565b60606116e5826119fd565b611724576040517f08c379a000000000000000000000000000000000000000000000000000000000815260040161171b90613b97565b60405180910390fd5b600061172e6123f1565b9050600081511161174e5760405180602001604052806000815250611779565b8061175884612408565b604051602001611769929190613bf3565b6040516020818303038152906040525b915050919050565b611789611a69565b73ffffffffffffffffffffffffffffffffffffffff166117a76114dd565b73ffffffffffffffffffffffffffffffffffffffff16146117fd576040517f08c379a00000000000000000000000000000000000000000000000000000000081526004016117f49061387c565b60405180910390fd5b80600f8190555050565b6000600560008473ffffffffffffffffffffffffffffffffffffffff1673ffffffffffffffffffffffffffffffffffffffff16815260200190815260200160002060008373ffffffffffffffffffffffffffffffffffffffff1673ffffffffffffffffffffffffffffffffffffffff16815260200190815260200160002060009054906101000a900460ff16905092915050565b6118a3611a69565b73ffffffffffffffffffffffffffffffffffffffff166118c16114dd565b73ffffffffffffffffffffffffffffffffffffffff1614611917576040517f08c379a000000000000000000000000000000000000000000000000000000000815260040161190e9061387c565b60405180910390fd5b600073ffffffffffffffffffffffffffffffffffffffff168173ffffffffffffffffffffffffffffffffffffffff161415611987576040517f08c379a000000000000000000000000000000000000000000000000000000000815260040161197e90613c89565b60405180910390fd5b61199081612162565b50565b60007f01ffc9a7000000000000000000000000000000000000000000000000000000007bffffffffffffffffffffffffffffffffffffffffffffffffffffffff1916827bffffffffffffffffffffffffffffffffffffffffffffffffffffffff1916149050919050565b60008073ffffffffffffffffffffffffffffffffffffffff166002600084815260200190815260200160002060009054906101000a900473ffffffffffffffffffffffffffffffffffffffff1673ffffffffffffffffffffffffffffffffffffffff1614159050919050565b600033905090565b816004600083815260200190815260200160002060006101000a81548173ffffffffffffffffffffffffffffffffffffffff021916908373ffffffffffffffffffffffffffffffffffffffff160217905550808273ffffffffffffffffffffffffffffffffffffffff16611ae483610de3565b73ffffffffffffffffffffffffffffffffffffffff167f8c5be1e5ebec7d5bd14f71427d1e84f3dd0314c0f7b2291e5b200ac8c7c3b92560405160405180910390a45050565b6000428260030160029054906101000a900463ffffffff1663ffffffff1611159050919050565b60095442611b5f9190613a86565b8160030160026101000a81548163ffffffff021916908363ffffffff16021790555050565b6000611b8f826119fd565b611bce576040517f08c379a0000000000000000000000000000000000000000000000000000000008152600401611bc590613d1b565b60405180910390fd5b6000611bd983610de3565b90508073ffffffffffffffffffffffffffffffffffffffff168473ffffffffffffffffffffffffffffffffffffffff161480611c4857508373ffffffffffffffffffffffffffffffffffffffff16611c3084610758565b73ffffffffffffffffffffffffffffffffffffffff16145b80611c595750611c588185611807565b5b91505092915050565b8273ffffffffffffffffffffffffffffffffffffffff16611c8282610de3565b73ffffffffffffffffffffffffffffffffffffffff1614611cd8576040517f08c379a0000000000000000000000000000000000000000000000000000000008152600401611ccf90613dad565b60405180910390fd5b600073ffffffffffffffffffffffffffffffffffffffff168273ffffffffffffffffffffffffffffffffffffffff161415611d48576040517f08c379a0000000000000000000000000000000000000000000000000000000008152600401611d3f90613e3f565b60405180910390fd5b611d53838383612569565b611d5e600082611a71565b6001600360008573ffffffffffffffffffffffffffffffffffffffff1673ffffffffffffffffffffffffffffffffffffffff1681526020019081526020016000206000828254611dae9190613a52565b925050819055506001600360008473ffffffffffffffffffffffffffffffffffffffff1673ffffffffffffffffffffffffffffffffffffffff1681526020019081526020016000206000828254611e059190613a86565b92505081905550816002600083815260200190815260200160002060006101000a81548173ffffffffffffffffffffffffffffffffffffffff021916908373ffffffffffffffffffffffffffffffffffffffff160217905550808273ffffffffffffffffffffffffffffffffffffffff168473ffffffffffffffffffffffffffffffffffffffff167fddf252ad1be2c89b69c2b068fc378daa952ba7f163c4a11628f55a4df523b3ef60405160405180910390a4505050565b6000611ecb600b5461256e565b90506000611eea600c60009054906101000a900460ff1660ff1661256e565b9050600d6040518061010001604052806007548152602001858152602001848152602001600160ff1681526020018360ff168152602001600063ffffffff168152602001600061ffff168152602001600061ffff168152509080600181540180825580915050600190039060005260206000209060040201600090919091909150600082015181600001556020820151816001019080519060200190611f91929190612a8a565b506040820151816002015560608201518160030160006101000a81548160ff021916908360ff16021790555060808201518160030160016101000a81548160ff021916908360ff16021790555060a08201518160030160026101000a81548163ffffffff021916908363ffffffff16021790555060c08201518160030160066101000a81548161ffff021916908361ffff16021790555060e08201518160030160086101000a81548161ffff021916908361ffff1602179055505050612059336007546125b3565b6120ac6001600e60003373ffffffffffffffffffffffffffffffffffffffff1673ffffffffffffffffffffffffffffffffffffffff168152602001908152602001600020546125d190919063ffffffff16565b600e60003373ffffffffffffffffffffffffffffffffffffffff1673ffffffffffffffffffffffffffffffffffffffff168152602001908152602001600020819055503373ffffffffffffffffffffffffffffffffffffffff167f29c4292b8838988609f9bd8e9042f7e77158b1f5ebfcae6494b7b709c3d20ffc60075484604051612139929190613e5f565b60405180910390a261215760016007546125d190919063ffffffff16565b600781905550505050565b6000600660009054906101000a900473ffffffffffffffffffffffffffffffffffffffff16905081600660006101000a81548173ffffffffffffffffffffffffffffffffffffffff021916908373ffffffffffffffffffffffffffffffffffffffff1602179055508173ffffffffffffffffffffffffffffffffffffffff168173ffffffffffffffffffffffffffffffffffffffff167f8be0079c531659141344cd1fd0a4f28419497f9722a3daafe3b4186f6b6457e060405160405180910390a35050565b8173ffffffffffffffffffffffffffffffffffffffff168373ffffffffffffffffffffffffffffffffffffffff161415612297576040517f08c379a000000000000000000000000000000000000000000000000000000000815260040161228e90613ed4565b60405180910390fd5b80600560008573ffffffffffffffffffffffffffffffffffffffff1673ffffffffffffffffffffffffffffffffffffffff16815260200190815260200160002060008473ffffffffffffffffffffffffffffffffffffffff1673ffffffffffffffffffffffffffffffffffffffff16815260200190815260200160002060006101000a81548160ff0219169083151502179055508173ffffffffffffffffffffffffffffffffffffffff168373ffffffffffffffffffffffffffffffffffffffff167f17307eab39ab6107e8899845ad3d59bd9653f200f220920489ca2b5937696c31836040516123889190612be1565b60405180910390a3505050565b6123a0848484611c62565b6123ac848484846125e7565b6123eb576040517f08c379a00000000000000000000000000000000000000000000000000000000081526004016123e290613f66565b60405180910390fd5b50505050565b606060405180602001604052806000815250905090565b60606000821415612450576040518060400160405280600181526020017f30000000000000000000000000000000000000000000000000000000000000008152509050612564565b600082905060005b6000821461248257808061246b90613adc565b915050600a8261247b9190613fb5565b9150612458565b60008167ffffffffffffffff81111561249e5761249d613145565b5b6040519080825280601f01601f1916602001820160405280156124d05781602001600182028036833780820191505090505b5090505b6000851461255d576001826124e99190613a52565b9150600a856124f89190613fe6565b60306125049190613a86565b60f81b81838151811061251a576125196137a8565b5b60200101907effffffffffffffffffffffffffffffffffffffffffffffffffffffffffffff1916908160001a905350600a856125569190613fb5565b94506124d4565b8093505050505b919050565b505050565b6000804233604051602001612584929190614080565b6040516020818303038152906040528051906020012060001c905082816125ab9190613fe6565b915050919050565b6125cd82826040518060200160405280600081525061276f565b5050565b600081836125df9190613a86565b905092915050565b60006126088473ffffffffffffffffffffffffffffffffffffffff166127ca565b15612762578373ffffffffffffffffffffffffffffffffffffffff1663150b7a02612631611a69565b8786866040518563ffffffff1660e01b81526004016126539493929190614101565b6020604051808303816000875af192505050801561268f57506040513d601f19601f8201168201806040525081019061268c9190614162565b60015b612712573d80600081146126bf576040519150601f19603f3d011682016040523d82523d6000602084013e6126c4565b606091505b5060008151141561270a576040517f08c379a000000000000000000000000000000000000000000000000000000000815260040161270190613f66565b60405180910390fd5b805181602001fd5b63150b7a0260e01b7bffffffffffffffffffffffffffffffffffffffffffffffffffffffff1916817bffffffffffffffffffffffffffffffffffffffffffffffffffffffff191614915050612767565b600190505b949350505050565b61277983836127dd565b61278660008484846125e7565b6127c5576040517f08c379a00000000000000000000000000000000000000000000000000000000081526004016127bc90613f66565b60405180910390fd5b505050565b600080823b905060008111915050919050565b600073ffffffffffffffffffffffffffffffffffffffff168273ffffffffffffffffffffffffffffffffffffffff16141561284d576040517f08c379a0000000000000000000000000000000000000000000000000000000008152600401612844906141db565b60405180910390fd5b612856816119fd565b15612896576040517f08c379a000000000000000000000000000000000000000000000000000000000815260040161288d90614247565b60405180910390fd5b6128a260008383612569565b6001600360008473ffffffffffffffffffffffffffffffffffffffff1673ffffffffffffffffffffffffffffffffffffffff16815260200190815260200160002060008282546128f29190613a86565b92505081905550816002600083815260200190815260200160002060006101000a81548173ffffffffffffffffffffffffffffffffffffffff021916908373ffffffffffffffffffffffffffffffffffffffff160217905550808273ffffffffffffffffffffffffffffffffffffffff16600073ffffffffffffffffffffffffffffffffffffffff167fddf252ad1be2c89b69c2b068fc378daa952ba7f163c4a11628f55a4df523b3ef60405160405180910390a45050565b604051806101000160405280600081526020016060815260200160008152602001600060ff168152602001600060ff168152602001600063ffffffff168152602001600061ffff168152602001600061ffff1681525090565b828054612a10906135c0565b90600052602060002090601f016020900481019282612a325760008555612a79565b82601f10612a4b57803560ff1916838001178555612a79565b82800160010185558215612a79579182015b82811115612a78578235825591602001919060010190612a5d565b5b509050612a869190612b10565b5090565b828054612a96906135c0565b90600052602060002090601f016020900481019282612ab85760008555612aff565b82601f10612ad157805160ff1916838001178555612aff565b82800160010185558215612aff579182015b82811115612afe578251825591602001919060010190612ae3565b5b509050612b0c9190612b10565b5090565b5b80821115612b29576000816000905550600101612b11565b5090565b6000604051905090565b600080fd5b600080fd5b60007fffffffff0000000000000000000000000000000000000000000000000000000082169050919050565b612b7681612b41565b8114612b8157600080fd5b50565b600081359050612b9381612b6d565b92915050565b600060208284031215612baf57612bae612b37565b5b6000612bbd84828501612b84565b91505092915050565b60008115159050919050565b612bdb81612bc6565b82525050565b6000602082019050612bf66000830184612bd2565b92915050565b600081519050919050565b600082825260208201905092915050565b60005b83811015612c36578082015181840152602081019050612c1b565b83811115612c45576000848401525b50505050565b6000601f19601f8301169050919050565b6000612c6782612bfc565b612c718185612c07565b9350612c81818560208601612c18565b612c8a81612c4b565b840191505092915050565b60006020820190508181036000830152612caf8184612c5c565b905092915050565b6000819050919050565b612cca81612cb7565b8114612cd557600080fd5b50565b600081359050612ce781612cc1565b92915050565b600060208284031215612d0357612d02612b37565b5b6000612d1184828501612cd8565b91505092915050565b600073ffffffffffffffffffffffffffffffffffffffff82169050919050565b6000612d4582612d1a565b9050919050565b612d5581612d3a565b82525050565b6000602082019050612d706000830184612d4c565b92915050565b612d7f81612d3a565b8114612d8a57600080fd5b50565b600081359050612d9c81612d76565b92915050565b60008060408385031215612db957612db8612b37565b5b6000612dc785828601612d8d565b9250506020612dd885828601612cd8565b9150509250929050565b600080600060608486031215612dfb57612dfa612b37565b5b6000612e0986828701612d8d565b9350506020612e1a86828701612d8d565b9250506040612e2b86828701612cd8565b9150509250925092565b600081519050919050565b600082825260208201905092915050565b6000819050602082019050919050565b612e6a81612cb7565b82525050565b600082825260208201905092915050565b6000612e8c82612bfc565b612e968185612e70565b9350612ea6818560208601612c18565b612eaf81612c4b565b840191505092915050565b600060ff82169050919050565b612ed081612eba565b82525050565b600063ffffffff82169050919050565b612eef81612ed6565b82525050565b600061ffff82169050919050565b612f0c81612ef5565b82525050565b600061010083016000830151612f2b6000860182612e61565b5060208301518482036020860152612f438282612e81565b9150506040830151612f586040860182612e61565b506060830151612f6b6060860182612ec7565b506080830151612f7e6080860182612ec7565b5060a0830151612f9160a0860182612ee6565b5060c0830151612fa460c0860182612f03565b5060e0830151612fb760e0860182612f03565b508091505092915050565b6000612fce8383612f12565b905092915050565b6000602082019050919050565b6000612fee82612e35565b612ff88185612e40565b93508360208202850161300a85612e51565b8060005b8581101561304657848403895281516130278582612fc2565b945061303283612fd6565b925060208a0199505060018101905061300e565b50829750879550505050505092915050565b600060208201905081810360008301526130728184612fe3565b905092915050565b61308381612cb7565b82525050565b61309281612eba565b82525050565b6130a181612ed6565b82525050565b6130b081612ef5565b82525050565b6000610100820190506130cc600083018b61307a565b81810360208301526130de818a612c5c565b90506130ed604083018961307a565b6130fa6060830188613089565b6131076080830187613089565b61311460a0830186613098565b61312160c08301856130a7565b61312e60e08301846130a7565b9998505050505050505050565b600080fd5b600080fd5b7f4e487b7100000000000000000000000000000000000000000000000000000000600052604160045260246000fd5b61317d82612c4b565b810181811067ffffffffffffffff8211171561319c5761319b613145565b5b80604052505050565b60006131af612b2d565b90506131bb8282613174565b919050565b600067ffffffffffffffff8211156131db576131da613145565b5b6131e482612c4b565b9050602081019050919050565b82818337600083830152505050565b600061321361320e846131c0565b6131a5565b90508281526020810184848401111561322f5761322e613140565b5b61323a8482856131f1565b509392505050565b600082601f8301126132575761325661313b565b5b8135613267848260208601613200565b91505092915050565b60006020828403121561328657613285612b37565b5b600082013567ffffffffffffffff8111156132a4576132a3612b3c565b5b6132b084828501613242565b91505092915050565b6000602082840312156132cf576132ce612b37565b5b60006132dd84828501612d8d565b91505092915050565b60006020820190506132fb600083018461307a565b92915050565b61330a81612bc6565b811461331557600080fd5b50565b60008135905061332781613301565b92915050565b6000806040838503121561334457613343612b37565b5b600061335285828601612d8d565b925050602061336385828601613318565b9150509250929050565b600067ffffffffffffffff82111561338857613387613145565b5b61339182612c4b565b9050602081019050919050565b60006133b16133ac8461336d565b6131a5565b9050828152602081018484840111156133cd576133cc613140565b5b6133d88482856131f1565b509392505050565b600082601f8301126133f5576133f461313b565b5b813561340584826020860161339e565b91505092915050565b6000806000806080858703121561342857613427612b37565b5b600061343687828801612d8d565b945050602061344787828801612d8d565b935050604061345887828801612cd8565b925050606085013567ffffffffffffffff81111561347957613478612b3c565b5b613485878288016133e0565b91505092959194509250565b600080fd5b600080fd5b60008083601f8401126134b1576134b061313b565b5b8235905067ffffffffffffffff8111156134ce576134cd613491565b5b6020830191508360018202830111156134ea576134e9613496565b5b9250929050565b60008060006040848603121561350a57613509612b37565b5b600061351886828701612cd8565b935050602084013567ffffffffffffffff81111561353957613538612b3c565b5b6135458682870161349b565b92509250509250925092565b6000806040838503121561356857613567612b37565b5b600061357685828601612d8d565b925050602061358785828601612d8d565b9150509250929050565b7f4e487b7100000000000000000000000000000000000000000000000000000000600052602260045260246000fd5b600060028204905060018216806135d857607f821691505b602082108114156135ec576135eb613591565b5b50919050565b7f4552433732313a20617070726f76656420717565727920666f72206e6f6e657860008201527f697374656e7420746f6b656e0000000000000000000000000000000000000000602082015250565b600061364e602c83612c07565b9150613659826135f2565b604082019050919050565b6000602082019050818103600083015261367d81613641565b9050919050565b7f4552433732313a20617070726f76616c20746f2063757272656e74206f776e6560008201527f7200000000000000000000000000000000000000000000000000000000000000602082015250565b60006136e0602183612c07565b91506136eb82613684565b604082019050919050565b6000602082019050818103600083015261370f816136d3565b9050919050565b7f4552433732313a20617070726f76652063616c6c6572206973206e6f74206f7760008201527f6e6572206e6f7220617070726f76656420666f7220616c6c0000000000000000602082015250565b6000613772603883612c07565b915061377d82613716565b604082019050919050565b600060208201905081810360008301526137a181613765565b9050919050565b7f4e487b7100000000000000000000000000000000000000000000000000000000600052603260045260246000fd5b7f4e487b7100000000000000000000000000000000000000000000000000000000600052601160045260246000fd5b600061381182612eba565b915060ff821415613825576138246137d7565b5b600182019050919050565b7f4f776e61626c653a2063616c6c6572206973206e6f7420746865206f776e6572600082015250565b6000613866602083612c07565b915061387182613830565b602082019050919050565b6000602082019050818103600083015261389581613859565b9050919050565b7f4552433732313a207472616e736665722063616c6c6572206973206e6f74206f60008201527f776e6572206e6f7220617070726f766564000000000000000000000000000000602082015250565b60006138f8603183612c07565b91506139038261389c565b604082019050919050565b60006020820190508181036000830152613927816138eb565b9050919050565b7f4552433732313a206f776e657220717565727920666f72206e6f6e657869737460008201527f656e7420746f6b656e0000000000000000000000000000000000000000000000602082015250565b600061398a602983612c07565b91506139958261392e565b604082019050919050565b600060208201905081810360008301526139b98161397d565b9050919050565b7f4552433732313a2062616c616e636520717565727920666f7220746865207a6560008201527f726f206164647265737300000000000000000000000000000000000000000000602082015250565b6000613a1c602a83612c07565b9150613a27826139c0565b604082019050919050565b60006020820190508181036000830152613a4b81613a0f565b9050919050565b6000613a5d82612cb7565b9150613a6883612cb7565b925082821015613a7b57613a7a6137d7565b5b828203905092915050565b6000613a9182612cb7565b9150613a9c83612cb7565b9250827fffffffffffffffffffffffffffffffffffffffffffffffffffffffffffffffff03821115613ad157613ad06137d7565b5b828201905092915050565b6000613ae782612cb7565b91507fffffffffffffffffffffffffffffffffffffffffffffffffffffffffffffffff821415613b1a57613b196137d7565b5b600182019050919050565b7f4552433732314d657461646174613a2055524920717565727920666f72206e6f60008201527f6e6578697374656e7420746f6b656e0000000000000000000000000000000000602082015250565b6000613b81602f83612c07565b9150613b8c82613b25565b604082019050919050565b60006020820190508181036000830152613bb081613b74565b9050919050565b600081905092915050565b6000613bcd82612bfc565b613bd78185613bb7565b9350613be7818560208601612c18565b80840191505092915050565b6000613bff8285613bc2565b9150613c0b8284613bc2565b91508190509392505050565b7f4f776e61626c653a206e6577206f776e657220697320746865207a65726f206160008201527f6464726573730000000000000000000000000000000000000000000000000000602082015250565b6000613c73602683612c07565b9150613c7e82613c17565b604082019050919050565b60006020820190508181036000830152613ca281613c66565b9050919050565b7f4552433732313a206f70657261746f7220717565727920666f72206e6f6e657860008201527f697374656e7420746f6b656e0000000000000000000000000000000000000000602082015250565b6000613d05602c83612c07565b9150613d1082613ca9565b604082019050919050565b60006020820190508181036000830152613d3481613cf8565b9050919050565b7f4552433732313a207472616e73666572206f6620746f6b656e2074686174206960008201527f73206e6f74206f776e0000000000000000000000000000000000000000000000602082015250565b6000613d97602983612c07565b9150613da282613d3b565b604082019050919050565b60006020820190508181036000830152613dc681613d8a565b9050919050565b7f4552433732313a207472616e7366657220746f20746865207a65726f2061646460008201527f7265737300000000000000000000000000000000000000000000000000000000602082015250565b6000613e29602483612c07565b9150613e3482613dcd565b604082019050919050565b60006020820190508181036000830152613e5881613e1c565b9050919050565b6000604082019050613e74600083018561307a565b613e81602083018461307a565b9392505050565b7f4552433732313a20617070726f766520746f2063616c6c657200000000000000600082015250565b6000613ebe601983612c07565b9150613ec982613e88565b602082019050919050565b60006020820190508181036000830152613eed81613eb1565b9050919050565b7f4552433732313a207472616e7366657220746f206e6f6e20455243373231526560008201527f63656976657220696d706c656d656e7465720000000000000000000000000000602082015250565b6000613f50603283612c07565b9150613f5b82613ef4565b604082019050919050565b60006020820190508181036000830152613f7f81613f43565b9050919050565b7f4e487b7100000000000000000000000000000000000000000000000000000000600052601260045260246000fd5b6000613fc082612cb7565b9150613fcb83612cb7565b925082613fdb57613fda613f86565b5b828204905092915050565b6000613ff182612cb7565b9150613ffc83612cb7565b92508261400c5761400b613f86565b5b828206905092915050565b6000819050919050565b61403261402d82612cb7565b614017565b82525050565b60008160601b9050919050565b600061405082614038565b9050919050565b600061406282614045565b9050919050565b61407a61407582612d3a565b614057565b82525050565b600061408c8285614021565b60208201915061409c8284614069565b6014820191508190509392505050565b600081519050919050565b600082825260208201905092915050565b60006140d3826140ac565b6140dd81856140b7565b93506140ed818560208601612c18565b6140f681612c4b565b840191505092915050565b60006080820190506141166000830187612d4c565b6141236020830186612d4c565b614130604083018561307a565b818103606083015261414281846140c8565b905095945050505050565b60008151905061415c81612b6d565b92915050565b60006020828403121561417857614177612b37565b5b60006141868482850161414d565b91505092915050565b7f4552433732313a206d696e7420746f20746865207a65726f2061646472657373600082015250565b60006141c5602083612c07565b91506141d08261418f565b602082019050919050565b600060208201905081810360008301526141f4816141b8565b9050919050565b7f4552433732313a20746f6b656e20616c7265616479206d696e74656400000000600082015250565b6000614231601c83612c07565b915061423c826141fb565b602082019050919050565b6000602082019050818103600083015261426081614224565b905091905056fea2646970667358221220a5dde33cf4bc76c929b9ef513d403faf1c93e0292dde12ac686ba214f8fa1efd64736f6c634300080b0033",
  "immutableReferences": {},
  "source": "// SPDX-License-Identifier: MIT\r\n\r\npragma solidity >=0.4.22 <0.9.0;\r\nimport \"./lipfactory.sol\";\r\n\r\ncontract LipHelper is LipFactory {\r\n  uint256 levelUpFee = 0.01 ether;\r\n  \r\n  modifier aboveLevel(uint256 _level, uint256 _lipId) {\r\n    require(lips[_lipId].level >= _level);\r\n    _;\r\n  }\r\n\r\n  modifier onlyOwnerOf(uint256 _lipId) {\r\n    require(msg.sender == ownerOf(_lipId));\r\n    _;\r\n  }\r\n\r\n  function _triggerCooldown(Lip storage _lip) internal {\r\n    _lip.readyTime = uint32(block.timestamp + cooldownTime);\r\n  }\r\n\r\n  function _isReady(Lip storage _lip) internal view returns (bool) {\r\n    return (_lip.readyTime <= block.timestamp);\r\n  }\r\n\r\n  function withDraw() external payable onlyOwner {\r\n    address payable _owner = payable(owner());\r\n    _owner.transfer(address(this).balance);\r\n  }\r\n\r\n  function setLevelUpFee(uint256 _fee) external onlyOwner {\r\n    levelUpFee = _fee;\r\n  }\r\n\r\n  function levelUp(uint256 _lipId) public payable onlyOwnerOf(_lipId) {\r\n    Lip storage lip = lips[_lipId];\r\n    require(_isReady(lip));\r\n    require(msg.value >= levelUpFee);\r\n    lip.level++;\r\n    _triggerCooldown(lip);\r\n  }\r\n\r\n  function changeName(uint256 _lipId, string calldata _newName)\r\n    external\r\n    aboveLevel(2, _lipId)\r\n    onlyOwnerOf(_lipId)\r\n  {\r\n    Lip storage lip = lips[_lipId];\r\n    lip.name = _newName;\r\n  }\r\n\r\n  function getAllLips() public view returns (Lip[] memory) {\r\n    return lips;\r\n  }\r\n\r\n  function getEnemy(address _owner) public view returns (Lip[] memory) {\r\n    Lip[] memory result = new Lip[](lips.length - balanceOf(_owner));\r\n    uint256 counter = 0;\r\n    for (uint256 i = 0; i < lips.length; i++) {\r\n      if (ownerOf(i) != _owner) {\r\n        result[counter] = lips[i];\r\n        counter = counter + 1;\r\n      }\r\n    }\r\n    return result;\r\n  }\r\n\r\n  function getOwnerLips(address _owner) public view returns (Lip[] memory) {\r\n    Lip[] memory result = new Lip[](balanceOf(_owner));\r\n    uint256 counter = 0;\r\n    for (uint256 i = 0; i < lips.length; i++) {\r\n      if (ownerOf(i) == _owner) {\r\n        result[counter] = lips[i];\r\n        counter = counter + 1;\r\n      }\r\n    }\r\n    return result;\r\n  }\r\n}",
  "sourcePath": "C:\\Github\\nft_game\\src\\contracts\\liphelper.sol",
  "compiler": {
    "name": "solc",
    "version": "0.8.11+commit.d7f03943.Emscripten.clang"
  },
  "schemaVersion": "3.4.4",
  "updatedAt": "2022-02-20T08:28:07.911Z",
  "devdoc": {
    "kind": "dev",
    "methods": {
      "approve(address,uint256)": {
        "details": "See {IERC721-approve}."
      },
      "balanceOf(address)": {
        "details": "See {IERC721-balanceOf}."
      },
      "getApproved(uint256)": {
        "details": "See {IERC721-getApproved}."
      },
      "isApprovedForAll(address,address)": {
        "details": "See {IERC721-isApprovedForAll}."
      },
      "name()": {
        "details": "See {IERC721Metadata-name}."
      },
      "owner()": {
        "details": "Returns the address of the current owner."
      },
      "ownerOf(uint256)": {
        "details": "See {IERC721-ownerOf}."
      },
      "renounceOwnership()": {
        "details": "Leaves the contract without owner. It will not be possible to call `onlyOwner` functions anymore. Can only be called by the current owner. NOTE: Renouncing ownership will leave the contract without an owner, thereby removing any functionality that is only available to the owner."
      },
      "safeTransferFrom(address,address,uint256)": {
        "details": "See {IERC721-safeTransferFrom}."
      },
      "safeTransferFrom(address,address,uint256,bytes)": {
        "details": "See {IERC721-safeTransferFrom}."
      },
      "setApprovalForAll(address,bool)": {
        "details": "See {IERC721-setApprovalForAll}."
      },
      "supportsInterface(bytes4)": {
        "details": "See {IERC165-supportsInterface}."
      },
      "symbol()": {
        "details": "See {IERC721Metadata-symbol}."
      },
      "tokenURI(uint256)": {
        "details": "See {IERC721Metadata-tokenURI}."
      },
      "transferFrom(address,address,uint256)": {
        "details": "See {IERC721-transferFrom}."
      },
      "transferOwnership(address)": {
        "details": "Transfers ownership of the contract to a new account (`newOwner`). Can only be called by the current owner."
      }
    },
    "version": 1
  },
  "userdoc": {
    "kind": "user",
    "methods": {},
    "version": 1
  }
}