{
  "contractName": "LipHelper",
  "abi": [
    {
      "anonymous": false,
      "inputs": [
        {
          "indexed": true,
          "internalType": "address",
          "name": "owner",
          "type": "address"
        },
        {
          "indexed": true,
          "internalType": "address",
          "name": "approved",
          "type": "address"
        },
        {
          "indexed": true,
          "internalType": "uint256",
          "name": "tokenId",
          "type": "uint256"
        }
      ],
      "name": "Approval",
      "type": "event"
    },
    {
      "anonymous": false,
      "inputs": [
        {
          "indexed": true,
          "internalType": "address",
          "name": "owner",
          "type": "address"
        },
        {
          "indexed": true,
          "internalType": "address",
          "name": "operator",
          "type": "address"
        },
        {
          "indexed": false,
          "internalType": "bool",
          "name": "approved",
          "type": "bool"
        }
      ],
      "name": "ApprovalForAll",
      "type": "event"
    },
    {
      "anonymous": false,
      "inputs": [
        {
          "indexed": true,
          "internalType": "address",
          "name": "owner",
          "type": "address"
        },
        {
          "indexed": false,
          "internalType": "uint256",
          "name": "id",
          "type": "uint256"
        },
        {
          "indexed": false,
          "internalType": "uint256",
          "name": "dna",
          "type": "uint256"
        }
      ],
      "name": "NewLipCreated",
      "type": "event"
    },
    {
      "anonymous": false,
      "inputs": [
        {
          "indexed": true,
          "internalType": "address",
          "name": "previousOwner",
          "type": "address"
        },
        {
          "indexed": true,
          "internalType": "address",
          "name": "newOwner",
          "type": "address"
        }
      ],
      "name": "OwnershipTransferred",
      "type": "event"
    },
    {
      "anonymous": false,
      "inputs": [
        {
          "indexed": true,
          "internalType": "address",
          "name": "from",
          "type": "address"
        },
        {
          "indexed": true,
          "internalType": "address",
          "name": "to",
          "type": "address"
        },
        {
          "indexed": true,
          "internalType": "uint256",
          "name": "tokenId",
          "type": "uint256"
        }
      ],
      "name": "Transfer",
      "type": "event"
    },
    {
      "inputs": [
        {
          "internalType": "address",
          "name": "to",
          "type": "address"
        },
        {
          "internalType": "uint256",
          "name": "tokenId",
          "type": "uint256"
        }
      ],
      "name": "approve",
      "outputs": [],
      "stateMutability": "nonpayable",
      "type": "function"
    },
    {
      "inputs": [
        {
          "internalType": "address",
          "name": "owner",
          "type": "address"
        }
      ],
      "name": "balanceOf",
      "outputs": [
        {
          "internalType": "uint256",
          "name": "",
          "type": "uint256"
        }
      ],
      "stateMutability": "view",
      "type": "function"
    },
    {
      "inputs": [
        {
          "internalType": "string",
          "name": "_name",
          "type": "string"
        }
      ],
      "name": "createRandomLip",
      "outputs": [],
      "stateMutability": "payable",
      "type": "function"
    },
    {
      "inputs": [
        {
          "internalType": "uint256",
          "name": "tokenId",
          "type": "uint256"
        }
      ],
      "name": "getApproved",
      "outputs": [
        {
          "internalType": "address",
          "name": "",
          "type": "address"
        }
      ],
      "stateMutability": "view",
      "type": "function"
    },
    {
      "inputs": [
        {
          "internalType": "address",
          "name": "owner",
          "type": "address"
        },
        {
          "internalType": "address",
          "name": "operator",
          "type": "address"
        }
      ],
      "name": "isApprovedForAll",
      "outputs": [
        {
          "internalType": "bool",
          "name": "",
          "type": "bool"
        }
      ],
      "stateMutability": "view",
      "type": "function"
    },
    {
      "inputs": [
        {
          "internalType": "uint256",
          "name": "",
          "type": "uint256"
        }
      ],
      "name": "lips",
      "outputs": [
        {
          "internalType": "uint256",
          "name": "id",
          "type": "uint256"
        },
        {
          "internalType": "string",
          "name": "name",
          "type": "string"
        },
        {
          "internalType": "uint256",
          "name": "dna",
          "type": "uint256"
        },
        {
          "internalType": "uint8",
          "name": "level",
          "type": "uint8"
        },
        {
          "internalType": "uint8",
          "name": "rarity",
          "type": "uint8"
        },
        {
          "internalType": "uint32",
          "name": "readyTime",
          "type": "uint32"
        },
        {
          "internalType": "uint16",
          "name": "winCount",
          "type": "uint16"
        },
        {
          "internalType": "uint16",
          "name": "lossCount",
          "type": "uint16"
        }
      ],
      "stateMutability": "view",
      "type": "function"
    },
    {
      "inputs": [],
      "name": "name",
      "outputs": [
        {
          "internalType": "string",
          "name": "",
          "type": "string"
        }
      ],
      "stateMutability": "view",
      "type": "function"
    },
    {
      "inputs": [],
      "name": "owner",
      "outputs": [
        {
          "internalType": "address",
          "name": "",
          "type": "address"
        }
      ],
      "stateMutability": "view",
      "type": "function"
    },
    {
      "inputs": [
        {
          "internalType": "uint256",
          "name": "tokenId",
          "type": "uint256"
        }
      ],
      "name": "ownerOf",
      "outputs": [
        {
          "internalType": "address",
          "name": "",
          "type": "address"
        }
      ],
      "stateMutability": "view",
      "type": "function"
    },
    {
      "inputs": [],
      "name": "renounceOwnership",
      "outputs": [],
      "stateMutability": "nonpayable",
      "type": "function"
    },
    {
      "inputs": [
        {
          "internalType": "address",
          "name": "from",
          "type": "address"
        },
        {
          "internalType": "address",
          "name": "to",
          "type": "address"
        },
        {
          "internalType": "uint256",
          "name": "tokenId",
          "type": "uint256"
        }
      ],
      "name": "safeTransferFrom",
      "outputs": [],
      "stateMutability": "nonpayable",
      "type": "function"
    },
    {
      "inputs": [
        {
          "internalType": "address",
          "name": "from",
          "type": "address"
        },
        {
          "internalType": "address",
          "name": "to",
          "type": "address"
        },
        {
          "internalType": "uint256",
          "name": "tokenId",
          "type": "uint256"
        },
        {
          "internalType": "bytes",
          "name": "_data",
          "type": "bytes"
        }
      ],
      "name": "safeTransferFrom",
      "outputs": [],
      "stateMutability": "nonpayable",
      "type": "function"
    },
    {
      "inputs": [
        {
          "internalType": "address",
          "name": "operator",
          "type": "address"
        },
        {
          "internalType": "bool",
          "name": "approved",
          "type": "bool"
        }
      ],
      "name": "setApprovalForAll",
      "outputs": [],
      "stateMutability": "nonpayable",
      "type": "function"
    },
    {
      "inputs": [
        {
          "internalType": "bytes4",
          "name": "interfaceId",
          "type": "bytes4"
        }
      ],
      "name": "supportsInterface",
      "outputs": [
        {
          "internalType": "bool",
          "name": "",
          "type": "bool"
        }
      ],
      "stateMutability": "view",
      "type": "function"
    },
    {
      "inputs": [],
      "name": "symbol",
      "outputs": [
        {
          "internalType": "string",
          "name": "",
          "type": "string"
        }
      ],
      "stateMutability": "view",
      "type": "function"
    },
    {
      "inputs": [
        {
          "internalType": "uint256",
          "name": "tokenId",
          "type": "uint256"
        }
      ],
      "name": "tokenURI",
      "outputs": [
        {
          "internalType": "string",
          "name": "",
          "type": "string"
        }
      ],
      "stateMutability": "view",
      "type": "function"
    },
    {
      "inputs": [
        {
          "internalType": "address",
          "name": "from",
          "type": "address"
        },
        {
          "internalType": "address",
          "name": "to",
          "type": "address"
        },
        {
          "internalType": "uint256",
          "name": "tokenId",
          "type": "uint256"
        }
      ],
      "name": "transferFrom",
      "outputs": [],
      "stateMutability": "nonpayable",
      "type": "function"
    },
    {
      "inputs": [
        {
          "internalType": "address",
          "name": "newOwner",
          "type": "address"
        }
      ],
      "name": "transferOwnership",
      "outputs": [],
      "stateMutability": "nonpayable",
      "type": "function"
    },
    {
      "inputs": [],
      "name": "withDraw",
      "outputs": [],
      "stateMutability": "payable",
      "type": "function"
    },
    {
      "inputs": [
        {
          "internalType": "uint256",
          "name": "_fee",
          "type": "uint256"
        }
      ],
      "name": "setLevelUpFee",
      "outputs": [],
      "stateMutability": "nonpayable",
      "type": "function"
    },
    {
      "inputs": [
        {
          "internalType": "uint256",
          "name": "_lipId",
          "type": "uint256"
        }
      ],
      "name": "levelUp",
      "outputs": [],
      "stateMutability": "payable",
      "type": "function"
    },
    {
      "inputs": [
        {
          "internalType": "uint256",
          "name": "_lipId",
          "type": "uint256"
        },
        {
          "internalType": "string",
          "name": "_newName",
          "type": "string"
        }
      ],
      "name": "changeName",
      "outputs": [],
      "stateMutability": "nonpayable",
      "type": "function"
    },
    {
      "inputs": [],
      "name": "getAllLips",
      "outputs": [
        {
          "components": [
            {
              "internalType": "uint256",
              "name": "id",
              "type": "uint256"
            },
            {
              "internalType": "string",
              "name": "name",
              "type": "string"
            },
            {
              "internalType": "uint256",
              "name": "dna",
              "type": "uint256"
            },
            {
              "internalType": "uint8",
              "name": "level",
              "type": "uint8"
            },
            {
              "internalType": "uint8",
              "name": "rarity",
              "type": "uint8"
            },
            {
              "internalType": "uint32",
              "name": "readyTime",
              "type": "uint32"
            },
            {
              "internalType": "uint16",
              "name": "winCount",
              "type": "uint16"
            },
            {
              "internalType": "uint16",
              "name": "lossCount",
              "type": "uint16"
            }
          ],
          "internalType": "struct LipFactory.Lip[]",
          "name": "",
          "type": "tuple[]"
        }
      ],
      "stateMutability": "view",
      "type": "function"
    },
    {
      "inputs": [
        {
          "internalType": "address",
          "name": "_owner",
          "type": "address"
        }
      ],
      "name": "getEnemy",
      "outputs": [
        {
          "components": [
            {
              "internalType": "uint256",
              "name": "id",
              "type": "uint256"
            },
            {
              "internalType": "string",
              "name": "name",
              "type": "string"
            },
            {
              "internalType": "uint256",
              "name": "dna",
              "type": "uint256"
            },
            {
              "internalType": "uint8",
              "name": "level",
              "type": "uint8"
            },
            {
              "internalType": "uint8",
              "name": "rarity",
              "type": "uint8"
            },
            {
              "internalType": "uint32",
              "name": "readyTime",
              "type": "uint32"
            },
            {
              "internalType": "uint16",
              "name": "winCount",
              "type": "uint16"
            },
            {
              "internalType": "uint16",
              "name": "lossCount",
              "type": "uint16"
            }
          ],
          "internalType": "struct LipFactory.Lip[]",
          "name": "",
          "type": "tuple[]"
        }
      ],
      "stateMutability": "view",
      "type": "function"
    },
    {
      "inputs": [
        {
          "internalType": "address",
          "name": "_owner",
          "type": "address"
        }
      ],
      "name": "getOwnerLips",
      "outputs": [
        {
          "components": [
            {
              "internalType": "uint256",
              "name": "id",
              "type": "uint256"
            },
            {
              "internalType": "string",
              "name": "name",
              "type": "string"
            },
            {
              "internalType": "uint256",
              "name": "dna",
              "type": "uint256"
            },
            {
              "internalType": "uint8",
              "name": "level",
              "type": "uint8"
            },
            {
              "internalType": "uint8",
              "name": "rarity",
              "type": "uint8"
            },
            {
              "internalType": "uint32",
              "name": "readyTime",
              "type": "uint32"
            },
            {
              "internalType": "uint16",
              "name": "winCount",
              "type": "uint16"
            },
            {
              "internalType": "uint16",
              "name": "lossCount",
              "type": "uint16"
            }
          ],
          "internalType": "struct LipFactory.Lip[]",
          "name": "",
          "type": "tuple[]"
        }
      ],
      "stateMutability": "view",
      "type": "function"
    }
  ],
  "bytecode": "0x6080604052662386f26fc10000600855620151806009556010600a55600a54600a6200002c919062000435565b600b556064600c60006101000a81548160ff021916908360ff160217905550662386f26fc10000600f553480156200006357600080fd5b506040518060400160405280600981526020017f4c697020546f6b656e00000000000000000000000000000000000000000000008152506040518060400160405280600381526020017f4c505400000000000000000000000000000000000000000000000000000000008152508160009080519060200190620000e8929190620001f8565b50806001908051906020019062000101929190620001f8565b50505062000124620001186200012a60201b60201c565b6200013260201b60201c565b620004eb565b600033905090565b6000600660009054906101000a900473ffffffffffffffffffffffffffffffffffffffff16905081600660006101000a81548173ffffffffffffffffffffffffffffffffffffffff021916908373ffffffffffffffffffffffffffffffffffffffff1602179055508173ffffffffffffffffffffffffffffffffffffffff168173ffffffffffffffffffffffffffffffffffffffff167f8be0079c531659141344cd1fd0a4f28419497f9722a3daafe3b4186f6b6457e060405160405180910390a35050565b8280546200020690620004b5565b90600052602060002090601f0160209004810192826200022a576000855562000276565b82601f106200024557805160ff191683800117855562000276565b8280016001018555821562000276579182015b828111156200027557825182559160200191906001019062000258565b5b50905062000285919062000289565b5090565b5b80821115620002a45760008160009055506001016200028a565b5090565b7f4e487b7100000000000000000000000000000000000000000000000000000000600052601160045260246000fd5b60008160011c9050919050565b6000808291508390505b600185111562000336578086048111156200030e576200030d620002a8565b5b60018516156200031e5780820291505b80810290506200032e85620002d7565b9450620002ee565b94509492505050565b60008262000351576001905062000424565b8162000361576000905062000424565b81600181146200037a57600281146200038557620003bb565b600191505062000424565b60ff8411156200039a5762000399620002a8565b5b8360020a915084821115620003b457620003b3620002a8565b5b5062000424565b5060208310610133831016604e8410600b8410161715620003f55782820a905083811115620003ef57620003ee620002a8565b5b62000424565b620004048484846001620002e4565b925090508184048111156200041e576200041d620002a8565b5b81810290505b9392505050565b6000819050919050565b600062000442826200042b565b91506200044f836200042b565b92506200047e7fffffffffffffffffffffffffffffffffffffffffffffffffffffffffffffffff84846200033f565b905092915050565b7f4e487b7100000000000000000000000000000000000000000000000000000000600052602260045260246000fd5b60006002820490506001821680620004ce57607f821691505b60208210811415620004e557620004e462000486565b5b50919050565b6141b780620004fb6000396000f3fe6080604052600436106101665760003560e01c806370a08231116100d1578063a22cb4651161008a578063c87b56dd11610064578063c87b56dd14610518578063ccf670f814610555578063e985e9c51461057e578063f2fde38b146105bb57610166565b8063a22cb4651461049d578063b88d4fde146104c6578063c39cbef1146104ef57610166565b806370a0823114610379578063715018a6146103b657806376c2edc9146103cd5780638c0b9c541461040a5780638da5cb5b1461044757806395d89b411461047257610166565b806323b872dd1161012357806323b872dd1461025f5780632c44cfc31461028857806342842e0e146102b35780635ec163db146102dc5780636352211e14610320578063698d640c1461035d57610166565b806301ffc9a71461016b57806306fdde03146101a8578063081812fc146101d3578063095ea7b3146102105780630ce90ec2146102395780630fdb1c1014610255575b600080fd5b34801561017757600080fd5b50610192600480360381019061018d9190612b17565b6105e4565b60405161019f9190612b5f565b60405180910390f35b3480156101b457600080fd5b506101bd6106c6565b6040516101ca9190612c13565b60405180910390f35b3480156101df57600080fd5b506101fa60048036038101906101f59190612c6b565b610758565b6040516102079190612cd9565b60405180910390f35b34801561021c57600080fd5b5061023760048036038101906102329190612d20565b6107dd565b005b610253600480360381019061024e9190612c6b565b6108f5565b005b61025d6109c5565b005b34801561026b57600080fd5b5061028660048036038101906102819190612d60565b610a97565b005b34801561029457600080fd5b5061029d610af7565b6040516102aa9190612fd6565b60405180910390f35b3480156102bf57600080fd5b506102da60048036038101906102d59190612d60565b610c9d565b005b3480156102e857600080fd5b5061030360048036038101906102fe9190612c6b565b610cbd565b604051610317989796959493929190613034565b60405180910390f35b34801561032c57600080fd5b5061034760048036038101906103429190612c6b565b610de3565b6040516103549190612cd9565b60405180910390f35b610377600480360381019061037291906131ee565b610e95565b005b34801561038557600080fd5b506103a0600480360381019061039b9190613237565b610eb0565b6040516103ad9190613264565b60405180910390f35b3480156103c257600080fd5b506103cb610f68565b005b3480156103d957600080fd5b506103f460048036038101906103ef9190613237565b610ff0565b6040516104019190612fd6565b60405180910390f35b34801561041657600080fd5b50610431600480360381019061042c9190613237565b61126e565b60405161043e9190612fd6565b60405180910390f35b34801561045357600080fd5b5061045c6114dd565b6040516104699190612cd9565b60405180910390f35b34801561047e57600080fd5b50610487611507565b6040516104949190612c13565b60405180910390f35b3480156104a957600080fd5b506104c460048036038101906104bf91906132ab565b611599565b005b3480156104d257600080fd5b506104ed60048036038101906104e8919061338c565b6115af565b005b3480156104fb57600080fd5b506105166004803603810190610511919061340f565b611611565b005b34801561052457600080fd5b5061053f600480360381019061053a9190612c6b565b6116de565b60405161054c9190612c13565b60405180910390f35b34801561056157600080fd5b5061057c60048036038101906105779190612c6b565b611785565b005b34801561058a57600080fd5b506105a560048036038101906105a0919061346b565b61180b565b6040516105b29190612b5f565b60405180910390f35b3480156105c757600080fd5b506105e260048036038101906105dd9190613237565b61189f565b005b60007f80ac58cd000000000000000000000000000000000000000000000000000000007bffffffffffffffffffffffffffffffffffffffffffffffffffffffff1916827bffffffffffffffffffffffffffffffffffffffffffffffffffffffff191614806106af57507f5b5e139f000000000000000000000000000000000000000000000000000000007bffffffffffffffffffffffffffffffffffffffffffffffffffffffff1916827bffffffffffffffffffffffffffffffffffffffffffffffffffffffff1916145b806106bf57506106be82611997565b5b9050919050565b6060600080546106d5906134da565b80601f0160208091040260200160405190810160405280929190818152602001828054610701906134da565b801561074e5780601f106107235761010080835404028352916020019161074e565b820191906000526020600020905b81548152906001019060200180831161073157829003601f168201915b5050505050905090565b600061076382611a01565b6107a2576040517f08c379a00000000000000000000000000000000000000000000000000000000081526004016107999061357e565b60405180910390fd5b6004600083815260200190815260200160002060009054906101000a900473ffffffffffffffffffffffffffffffffffffffff169050919050565b60006107e882610de3565b90508073ffffffffffffffffffffffffffffffffffffffff168373ffffffffffffffffffffffffffffffffffffffff161415610859576040517f08c379a000000000000000000000000000000000000000000000000000000000815260040161085090613610565b60405180910390fd5b8073ffffffffffffffffffffffffffffffffffffffff16610878611a6d565b73ffffffffffffffffffffffffffffffffffffffff1614806108a757506108a6816108a1611a6d565b61180b565b5b6108e6576040517f08c379a00000000000000000000000000000000000000000000000000000000081526004016108dd906136a2565b60405180910390fd5b6108f08383611a75565b505050565b806108ff81610de3565b73ffffffffffffffffffffffffffffffffffffffff163373ffffffffffffffffffffffffffffffffffffffff161461093657600080fd5b6000600d838154811061094c5761094b6136c2565b5b9060005260206000209060040201905061096581611b2e565b61096e57600080fd5b600f5434101561097d57600080fd5b80600301600081819054906101000a900460ff168092919061099e90613720565b91906101000a81548160ff021916908360ff160217905550506109c081611b55565b505050565b6109cd611a6d565b73ffffffffffffffffffffffffffffffffffffffff166109eb6114dd565b73ffffffffffffffffffffffffffffffffffffffff1614610a41576040517f08c379a0000000000000000000000000000000000000000000000000000000008152600401610a3890613796565b60405180910390fd5b6000610a4b6114dd565b90508073ffffffffffffffffffffffffffffffffffffffff166108fc479081150290604051600060405180830381858888f19350505050158015610a93573d6000803e3d6000fd5b5050565b610aa8610aa2611a6d565b82611b88565b610ae7576040517f08c379a0000000000000000000000000000000000000000000000000000000008152600401610ade90613828565b60405180910390fd5b610af2838383611c66565b505050565b6060600d805480602002602001604051908101604052809291908181526020016000905b82821015610c9457838290600052602060002090600402016040518061010001604052908160008201548152602001600182018054610b59906134da565b80601f0160208091040260200160405190810160405280929190818152602001828054610b85906134da565b8015610bd25780601f10610ba757610100808354040283529160200191610bd2565b820191906000526020600020905b815481529060010190602001808311610bb557829003601f168201915b50505050508152602001600282015481526020016003820160009054906101000a900460ff1660ff1660ff1681526020016003820160019054906101000a900460ff1660ff1660ff1681526020016003820160029054906101000a900463ffffffff1663ffffffff1663ffffffff1681526020016003820160069054906101000a900461ffff1661ffff1661ffff1681526020016003820160089054906101000a900461ffff1661ffff1661ffff168152505081526020019060010190610b1b565b50505050905090565b610cb8838383604051806020016040528060008152506115af565b505050565b600d8181548110610ccd57600080fd5b9060005260206000209060040201600091509050806000015490806001018054610cf6906134da565b80601f0160208091040260200160405190810160405280929190818152602001828054610d22906134da565b8015610d6f5780601f10610d4457610100808354040283529160200191610d6f565b820191906000526020600020905b815481529060010190602001808311610d5257829003601f168201915b5050505050908060020154908060030160009054906101000a900460ff16908060030160019054906101000a900460ff16908060030160029054906101000a900463ffffffff16908060030160069054906101000a900461ffff16908060030160089054906101000a900461ffff16905088565b6000806002600084815260200190815260200160002060009054906101000a900473ffffffffffffffffffffffffffffffffffffffff169050600073ffffffffffffffffffffffffffffffffffffffff168173ffffffffffffffffffffffffffffffffffffffff161415610e8c576040517f08c379a0000000000000000000000000000000000000000000000000000000008152600401610e83906138ba565b60405180910390fd5b80915050919050565b600854341015610ea457600080fd5b610ead81611ec2565b50565b60008073ffffffffffffffffffffffffffffffffffffffff168273ffffffffffffffffffffffffffffffffffffffff161415610f21576040517f08c379a0000000000000000000000000000000000000000000000000000000008152600401610f189061394c565b60405180910390fd5b600360008373ffffffffffffffffffffffffffffffffffffffff1673ffffffffffffffffffffffffffffffffffffffff168152602001908152602001600020549050919050565b610f70611a6d565b73ffffffffffffffffffffffffffffffffffffffff16610f8e6114dd565b73ffffffffffffffffffffffffffffffffffffffff1614610fe4576040517f08c379a0000000000000000000000000000000000000000000000000000000008152600401610fdb90613796565b60405180910390fd5b610fee6000612166565b565b60606000610ffd83610eb0565b600d8054905061100d919061396c565b67ffffffffffffffff811115611026576110256130c3565b5b60405190808252806020026020018201604052801561105f57816020015b61104c6129af565b8152602001906001900390816110445790505b5090506000805b600d80549050811015611263578473ffffffffffffffffffffffffffffffffffffffff1661109382610de3565b73ffffffffffffffffffffffffffffffffffffffff161461125057600d81815481106110c2576110c16136c2565b5b906000526020600020906004020160405180610100016040529081600082015481526020016001820180546110f6906134da565b80601f0160208091040260200160405190810160405280929190818152602001828054611122906134da565b801561116f5780601f106111445761010080835404028352916020019161116f565b820191906000526020600020905b81548152906001019060200180831161115257829003601f168201915b50505050508152602001600282015481526020016003820160009054906101000a900460ff1660ff1660ff1681526020016003820160019054906101000a900460ff1660ff1660ff1681526020016003820160029054906101000a900463ffffffff1663ffffffff1663ffffffff1681526020016003820160069054906101000a900461ffff1661ffff1661ffff1681526020016003820160089054906101000a900461ffff1661ffff1661ffff1681525050838381518110611235576112346136c2565b5b602002602001018190525060018261124d91906139a0565b91505b808061125b906139f6565b915050611066565b508192505050919050565b6060600061127b83610eb0565b67ffffffffffffffff811115611294576112936130c3565b5b6040519080825280602002602001820160405280156112cd57816020015b6112ba6129af565b8152602001906001900390816112b25790505b5090506000805b600d805490508110156114d2578473ffffffffffffffffffffffffffffffffffffffff1661130182610de3565b73ffffffffffffffffffffffffffffffffffffffff1614156114bf57600d8181548110611331576113306136c2565b5b90600052602060002090600402016040518061010001604052908160008201548152602001600182018054611365906134da565b80601f0160208091040260200160405190810160405280929190818152602001828054611391906134da565b80156113de5780601f106113b3576101008083540402835291602001916113de565b820191906000526020600020905b8154815290600101906020018083116113c157829003601f168201915b50505050508152602001600282015481526020016003820160009054906101000a900460ff1660ff1660ff1681526020016003820160019054906101000a900460ff1660ff1660ff1681526020016003820160029054906101000a900463ffffffff1663ffffffff1663ffffffff1681526020016003820160069054906101000a900461ffff1661ffff1661ffff1681526020016003820160089054906101000a900461ffff1661ffff1661ffff16815250508383815181106114a4576114a36136c2565b5b60200260200101819052506001826114bc91906139a0565b91505b80806114ca906139f6565b9150506112d4565b508192505050919050565b6000600660009054906101000a900473ffffffffffffffffffffffffffffffffffffffff16905090565b606060018054611516906134da565b80601f0160208091040260200160405190810160405280929190818152602001828054611542906134da565b801561158f5780601f106115645761010080835404028352916020019161158f565b820191906000526020600020905b81548152906001019060200180831161157257829003601f168201915b5050505050905090565b6115ab6115a4611a6d565b838361222c565b5050565b6115c06115ba611a6d565b83611b88565b6115ff576040517f08c379a00000000000000000000000000000000000000000000000000000000081526004016115f690613828565b60405180910390fd5b61160b84848484612399565b50505050565b60018281600d8281548110611629576116286136c2565b5b906000526020600020906004020160030160009054906101000a900460ff1660ff16101561165657600080fd5b8361166081610de3565b73ffffffffffffffffffffffffffffffffffffffff163373ffffffffffffffffffffffffffffffffffffffff161461169757600080fd5b6000600d86815481106116ad576116ac6136c2565b5b90600052602060002090600402019050848160010190805190602001906116d5929190612a08565b50505050505050565b60606116e982611a01565b611728576040517f08c379a000000000000000000000000000000000000000000000000000000000815260040161171f90613ab1565b60405180910390fd5b60006117326123f5565b90506000815111611752576040518060200160405280600081525061177d565b8061175c8461240c565b60405160200161176d929190613b0d565b6040516020818303038152906040525b915050919050565b61178d611a6d565b73ffffffffffffffffffffffffffffffffffffffff166117ab6114dd565b73ffffffffffffffffffffffffffffffffffffffff1614611801576040517f08c379a00000000000000000000000000000000000000000000000000000000081526004016117f890613796565b60405180910390fd5b80600f8190555050565b6000600560008473ffffffffffffffffffffffffffffffffffffffff1673ffffffffffffffffffffffffffffffffffffffff16815260200190815260200160002060008373ffffffffffffffffffffffffffffffffffffffff1673ffffffffffffffffffffffffffffffffffffffff16815260200190815260200160002060009054906101000a900460ff16905092915050565b6118a7611a6d565b73ffffffffffffffffffffffffffffffffffffffff166118c56114dd565b73ffffffffffffffffffffffffffffffffffffffff161461191b576040517f08c379a000000000000000000000000000000000000000000000000000000000815260040161191290613796565b60405180910390fd5b600073ffffffffffffffffffffffffffffffffffffffff168173ffffffffffffffffffffffffffffffffffffffff16141561198b576040517f08c379a000000000000000000000000000000000000000000000000000000000815260040161198290613ba3565b60405180910390fd5b61199481612166565b50565b60007f01ffc9a7000000000000000000000000000000000000000000000000000000007bffffffffffffffffffffffffffffffffffffffffffffffffffffffff1916827bffffffffffffffffffffffffffffffffffffffffffffffffffffffff1916149050919050565b60008073ffffffffffffffffffffffffffffffffffffffff166002600084815260200190815260200160002060009054906101000a900473ffffffffffffffffffffffffffffffffffffffff1673ffffffffffffffffffffffffffffffffffffffff1614159050919050565b600033905090565b816004600083815260200190815260200160002060006101000a81548173ffffffffffffffffffffffffffffffffffffffff021916908373ffffffffffffffffffffffffffffffffffffffff160217905550808273ffffffffffffffffffffffffffffffffffffffff16611ae883610de3565b73ffffffffffffffffffffffffffffffffffffffff167f8c5be1e5ebec7d5bd14f71427d1e84f3dd0314c0f7b2291e5b200ac8c7c3b92560405160405180910390a45050565b6000428260030160029054906101000a900463ffffffff1663ffffffff1611159050919050565b60095442611b6391906139a0565b8160030160026101000a81548163ffffffff021916908363ffffffff16021790555050565b6000611b9382611a01565b611bd2576040517f08c379a0000000000000000000000000000000000000000000000000000000008152600401611bc990613c35565b60405180910390fd5b6000611bdd83610de3565b90508073ffffffffffffffffffffffffffffffffffffffff168473ffffffffffffffffffffffffffffffffffffffff161480611c4c57508373ffffffffffffffffffffffffffffffffffffffff16611c3484610758565b73ffffffffffffffffffffffffffffffffffffffff16145b80611c5d5750611c5c818561180b565b5b91505092915050565b8273ffffffffffffffffffffffffffffffffffffffff16611c8682610de3565b73ffffffffffffffffffffffffffffffffffffffff1614611cdc576040517f08c379a0000000000000000000000000000000000000000000000000000000008152600401611cd390613cc7565b60405180910390fd5b600073ffffffffffffffffffffffffffffffffffffffff168273ffffffffffffffffffffffffffffffffffffffff161415611d4c576040517f08c379a0000000000000000000000000000000000000000000000000000000008152600401611d4390613d59565b60405180910390fd5b611d5783838361256d565b611d62600082611a75565b6001600360008573ffffffffffffffffffffffffffffffffffffffff1673ffffffffffffffffffffffffffffffffffffffff1681526020019081526020016000206000828254611db2919061396c565b925050819055506001600360008473ffffffffffffffffffffffffffffffffffffffff1673ffffffffffffffffffffffffffffffffffffffff1681526020019081526020016000206000828254611e0991906139a0565b92505081905550816002600083815260200190815260200160002060006101000a81548173ffffffffffffffffffffffffffffffffffffffff021916908373ffffffffffffffffffffffffffffffffffffffff160217905550808273ffffffffffffffffffffffffffffffffffffffff168473ffffffffffffffffffffffffffffffffffffffff167fddf252ad1be2c89b69c2b068fc378daa952ba7f163c4a11628f55a4df523b3ef60405160405180910390a4505050565b6000611ecf600b54612572565b90506000611eee600c60009054906101000a900460ff1660ff16612572565b9050600d6040518061010001604052806007548152602001858152602001848152602001600160ff1681526020018360ff168152602001600063ffffffff168152602001600061ffff168152602001600061ffff168152509080600181540180825580915050600190039060005260206000209060040201600090919091909150600082015181600001556020820151816001019080519060200190611f95929190612a08565b506040820151816002015560608201518160030160006101000a81548160ff021916908360ff16021790555060808201518160030160016101000a81548160ff021916908360ff16021790555060a08201518160030160026101000a81548163ffffffff021916908363ffffffff16021790555060c08201518160030160066101000a81548161ffff021916908361ffff16021790555060e08201518160030160086101000a81548161ffff021916908361ffff160217905550505061205d336007546125b7565b6120b06001600e60003373ffffffffffffffffffffffffffffffffffffffff1673ffffffffffffffffffffffffffffffffffffffff168152602001908152602001600020546125d590919063ffffffff16565b600e60003373ffffffffffffffffffffffffffffffffffffffff1673ffffffffffffffffffffffffffffffffffffffff168152602001908152602001600020819055503373ffffffffffffffffffffffffffffffffffffffff167f29c4292b8838988609f9bd8e9042f7e77158b1f5ebfcae6494b7b709c3d20ffc6007548460405161213d929190613d79565b60405180910390a261215b60016007546125d590919063ffffffff16565b600781905550505050565b6000600660009054906101000a900473ffffffffffffffffffffffffffffffffffffffff16905081600660006101000a81548173ffffffffffffffffffffffffffffffffffffffff021916908373ffffffffffffffffffffffffffffffffffffffff1602179055508173ffffffffffffffffffffffffffffffffffffffff168173ffffffffffffffffffffffffffffffffffffffff167f8be0079c531659141344cd1fd0a4f28419497f9722a3daafe3b4186f6b6457e060405160405180910390a35050565b8173ffffffffffffffffffffffffffffffffffffffff168373ffffffffffffffffffffffffffffffffffffffff16141561229b576040517f08c379a000000000000000000000000000000000000000000000000000000000815260040161229290613dee565b60405180910390fd5b80600560008573ffffffffffffffffffffffffffffffffffffffff1673ffffffffffffffffffffffffffffffffffffffff16815260200190815260200160002060008473ffffffffffffffffffffffffffffffffffffffff1673ffffffffffffffffffffffffffffffffffffffff16815260200190815260200160002060006101000a81548160ff0219169083151502179055508173ffffffffffffffffffffffffffffffffffffffff168373ffffffffffffffffffffffffffffffffffffffff167f17307eab39ab6107e8899845ad3d59bd9653f200f220920489ca2b5937696c318360405161238c9190612b5f565b60405180910390a3505050565b6123a4848484611c66565b6123b0848484846125eb565b6123ef576040517f08c379a00000000000000000000000000000000000000000000000000000000081526004016123e690613e80565b60405180910390fd5b50505050565b606060405180602001604052806000815250905090565b60606000821415612454576040518060400160405280600181526020017f30000000000000000000000000000000000000000000000000000000000000008152509050612568565b600082905060005b6000821461248657808061246f906139f6565b915050600a8261247f9190613ecf565b915061245c565b60008167ffffffffffffffff8111156124a2576124a16130c3565b5b6040519080825280601f01601f1916602001820160405280156124d45781602001600182028036833780820191505090505b5090505b60008514612561576001826124ed919061396c565b9150600a856124fc9190613f00565b603061250891906139a0565b60f81b81838151811061251e5761251d6136c2565b5b60200101907effffffffffffffffffffffffffffffffffffffffffffffffffffffffffffff1916908160001a905350600a8561255a9190613ecf565b94506124d8565b8093505050505b919050565b505050565b6000804233604051602001612588929190613f9a565b6040516020818303038152906040528051906020012060001c905082816125af9190613f00565b915050919050565b6125d1828260405180602001604052806000815250612773565b5050565b600081836125e391906139a0565b905092915050565b600061260c8473ffffffffffffffffffffffffffffffffffffffff166127ce565b15612766578373ffffffffffffffffffffffffffffffffffffffff1663150b7a02612635611a6d565b8786866040518563ffffffff1660e01b8152600401612657949392919061401b565b6020604051808303816000875af192505050801561269357506040513d601f19601f82011682018060405250810190612690919061407c565b60015b612716573d80600081146126c3576040519150601f19603f3d011682016040523d82523d6000602084013e6126c8565b606091505b5060008151141561270e576040517f08c379a000000000000000000000000000000000000000000000000000000000815260040161270590613e80565b60405180910390fd5b805181602001fd5b63150b7a0260e01b7bffffffffffffffffffffffffffffffffffffffffffffffffffffffff1916817bffffffffffffffffffffffffffffffffffffffffffffffffffffffff19161491505061276b565b600190505b949350505050565b61277d83836127e1565b61278a60008484846125eb565b6127c9576040517f08c379a00000000000000000000000000000000000000000000000000000000081526004016127c090613e80565b60405180910390fd5b505050565b600080823b905060008111915050919050565b600073ffffffffffffffffffffffffffffffffffffffff168273ffffffffffffffffffffffffffffffffffffffff161415612851576040517f08c379a0000000000000000000000000000000000000000000000000000000008152600401612848906140f5565b60405180910390fd5b61285a81611a01565b1561289a576040517f08c379a000000000000000000000000000000000000000000000000000000000815260040161289190614161565b60405180910390fd5b6128a66000838361256d565b6001600360008473ffffffffffffffffffffffffffffffffffffffff1673ffffffffffffffffffffffffffffffffffffffff16815260200190815260200160002060008282546128f691906139a0565b92505081905550816002600083815260200190815260200160002060006101000a81548173ffffffffffffffffffffffffffffffffffffffff021916908373ffffffffffffffffffffffffffffffffffffffff160217905550808273ffffffffffffffffffffffffffffffffffffffff16600073ffffffffffffffffffffffffffffffffffffffff167fddf252ad1be2c89b69c2b068fc378daa952ba7f163c4a11628f55a4df523b3ef60405160405180910390a45050565b604051806101000160405280600081526020016060815260200160008152602001600060ff168152602001600060ff168152602001600063ffffffff168152602001600061ffff168152602001600061ffff1681525090565b828054612a14906134da565b90600052602060002090601f016020900481019282612a365760008555612a7d565b82601f10612a4f57805160ff1916838001178555612a7d565b82800160010185558215612a7d579182015b82811115612a7c578251825591602001919060010190612a61565b5b509050612a8a9190612a8e565b5090565b5b80821115612aa7576000816000905550600101612a8f565b5090565b6000604051905090565b600080fd5b600080fd5b60007fffffffff0000000000000000000000000000000000000000000000000000000082169050919050565b612af481612abf565b8114612aff57600080fd5b50565b600081359050612b1181612aeb565b92915050565b600060208284031215612b2d57612b2c612ab5565b5b6000612b3b84828501612b02565b91505092915050565b60008115159050919050565b612b5981612b44565b82525050565b6000602082019050612b746000830184612b50565b92915050565b600081519050919050565b600082825260208201905092915050565b60005b83811015612bb4578082015181840152602081019050612b99565b83811115612bc3576000848401525b50505050565b6000601f19601f8301169050919050565b6000612be582612b7a565b612bef8185612b85565b9350612bff818560208601612b96565b612c0881612bc9565b840191505092915050565b60006020820190508181036000830152612c2d8184612bda565b905092915050565b6000819050919050565b612c4881612c35565b8114612c5357600080fd5b50565b600081359050612c6581612c3f565b92915050565b600060208284031215612c8157612c80612ab5565b5b6000612c8f84828501612c56565b91505092915050565b600073ffffffffffffffffffffffffffffffffffffffff82169050919050565b6000612cc382612c98565b9050919050565b612cd381612cb8565b82525050565b6000602082019050612cee6000830184612cca565b92915050565b612cfd81612cb8565b8114612d0857600080fd5b50565b600081359050612d1a81612cf4565b92915050565b60008060408385031215612d3757612d36612ab5565b5b6000612d4585828601612d0b565b9250506020612d5685828601612c56565b9150509250929050565b600080600060608486031215612d7957612d78612ab5565b5b6000612d8786828701612d0b565b9350506020612d9886828701612d0b565b9250506040612da986828701612c56565b9150509250925092565b600081519050919050565b600082825260208201905092915050565b6000819050602082019050919050565b612de881612c35565b82525050565b600082825260208201905092915050565b6000612e0a82612b7a565b612e148185612dee565b9350612e24818560208601612b96565b612e2d81612bc9565b840191505092915050565b600060ff82169050919050565b612e4e81612e38565b82525050565b600063ffffffff82169050919050565b612e6d81612e54565b82525050565b600061ffff82169050919050565b612e8a81612e73565b82525050565b600061010083016000830151612ea96000860182612ddf565b5060208301518482036020860152612ec18282612dff565b9150506040830151612ed66040860182612ddf565b506060830151612ee96060860182612e45565b506080830151612efc6080860182612e45565b5060a0830151612f0f60a0860182612e64565b5060c0830151612f2260c0860182612e81565b5060e0830151612f3560e0860182612e81565b508091505092915050565b6000612f4c8383612e90565b905092915050565b6000602082019050919050565b6000612f6c82612db3565b612f768185612dbe565b935083602082028501612f8885612dcf565b8060005b85811015612fc45784840389528151612fa58582612f40565b9450612fb083612f54565b925060208a01995050600181019050612f8c565b50829750879550505050505092915050565b60006020820190508181036000830152612ff08184612f61565b905092915050565b61300181612c35565b82525050565b61301081612e38565b82525050565b61301f81612e54565b82525050565b61302e81612e73565b82525050565b60006101008201905061304a600083018b612ff8565b818103602083015261305c818a612bda565b905061306b6040830189612ff8565b6130786060830188613007565b6130856080830187613007565b61309260a0830186613016565b61309f60c0830185613025565b6130ac60e0830184613025565b9998505050505050505050565b600080fd5b600080fd5b7f4e487b7100000000000000000000000000000000000000000000000000000000600052604160045260246000fd5b6130fb82612bc9565b810181811067ffffffffffffffff8211171561311a576131196130c3565b5b80604052505050565b600061312d612aab565b905061313982826130f2565b919050565b600067ffffffffffffffff821115613159576131586130c3565b5b61316282612bc9565b9050602081019050919050565b82818337600083830152505050565b600061319161318c8461313e565b613123565b9050828152602081018484840111156131ad576131ac6130be565b5b6131b884828561316f565b509392505050565b600082601f8301126131d5576131d46130b9565b5b81356131e584826020860161317e565b91505092915050565b60006020828403121561320457613203612ab5565b5b600082013567ffffffffffffffff81111561322257613221612aba565b5b61322e848285016131c0565b91505092915050565b60006020828403121561324d5761324c612ab5565b5b600061325b84828501612d0b565b91505092915050565b60006020820190506132796000830184612ff8565b92915050565b61328881612b44565b811461329357600080fd5b50565b6000813590506132a58161327f565b92915050565b600080604083850312156132c2576132c1612ab5565b5b60006132d085828601612d0b565b92505060206132e185828601613296565b9150509250929050565b600067ffffffffffffffff821115613306576133056130c3565b5b61330f82612bc9565b9050602081019050919050565b600061332f61332a846132eb565b613123565b90508281526020810184848401111561334b5761334a6130be565b5b61335684828561316f565b509392505050565b600082601f830112613373576133726130b9565b5b813561338384826020860161331c565b91505092915050565b600080600080608085870312156133a6576133a5612ab5565b5b60006133b487828801612d0b565b94505060206133c587828801612d0b565b93505060406133d687828801612c56565b925050606085013567ffffffffffffffff8111156133f7576133f6612aba565b5b6134038782880161335e565b91505092959194509250565b6000806040838503121561342657613425612ab5565b5b600061343485828601612c56565b925050602083013567ffffffffffffffff81111561345557613454612aba565b5b613461858286016131c0565b9150509250929050565b6000806040838503121561348257613481612ab5565b5b600061349085828601612d0b565b92505060206134a185828601612d0b565b9150509250929050565b7f4e487b7100000000000000000000000000000000000000000000000000000000600052602260045260246000fd5b600060028204905060018216806134f257607f821691505b60208210811415613506576135056134ab565b5b50919050565b7f4552433732313a20617070726f76656420717565727920666f72206e6f6e657860008201527f697374656e7420746f6b656e0000000000000000000000000000000000000000602082015250565b6000613568602c83612b85565b91506135738261350c565b604082019050919050565b600060208201905081810360008301526135978161355b565b9050919050565b7f4552433732313a20617070726f76616c20746f2063757272656e74206f776e6560008201527f7200000000000000000000000000000000000000000000000000000000000000602082015250565b60006135fa602183612b85565b91506136058261359e565b604082019050919050565b60006020820190508181036000830152613629816135ed565b9050919050565b7f4552433732313a20617070726f76652063616c6c6572206973206e6f74206f7760008201527f6e6572206e6f7220617070726f76656420666f7220616c6c0000000000000000602082015250565b600061368c603883612b85565b915061369782613630565b604082019050919050565b600060208201905081810360008301526136bb8161367f565b9050919050565b7f4e487b7100000000000000000000000000000000000000000000000000000000600052603260045260246000fd5b7f4e487b7100000000000000000000000000000000000000000000000000000000600052601160045260246000fd5b600061372b82612e38565b915060ff82141561373f5761373e6136f1565b5b600182019050919050565b7f4f776e61626c653a2063616c6c6572206973206e6f7420746865206f776e6572600082015250565b6000613780602083612b85565b915061378b8261374a565b602082019050919050565b600060208201905081810360008301526137af81613773565b9050919050565b7f4552433732313a207472616e736665722063616c6c6572206973206e6f74206f60008201527f776e6572206e6f7220617070726f766564000000000000000000000000000000602082015250565b6000613812603183612b85565b915061381d826137b6565b604082019050919050565b6000602082019050818103600083015261384181613805565b9050919050565b7f4552433732313a206f776e657220717565727920666f72206e6f6e657869737460008201527f656e7420746f6b656e0000000000000000000000000000000000000000000000602082015250565b60006138a4602983612b85565b91506138af82613848565b604082019050919050565b600060208201905081810360008301526138d381613897565b9050919050565b7f4552433732313a2062616c616e636520717565727920666f7220746865207a6560008201527f726f206164647265737300000000000000000000000000000000000000000000602082015250565b6000613936602a83612b85565b9150613941826138da565b604082019050919050565b6000602082019050818103600083015261396581613929565b9050919050565b600061397782612c35565b915061398283612c35565b925082821015613995576139946136f1565b5b828203905092915050565b60006139ab82612c35565b91506139b683612c35565b9250827fffffffffffffffffffffffffffffffffffffffffffffffffffffffffffffffff038211156139eb576139ea6136f1565b5b828201905092915050565b6000613a0182612c35565b91507fffffffffffffffffffffffffffffffffffffffffffffffffffffffffffffffff821415613a3457613a336136f1565b5b600182019050919050565b7f4552433732314d657461646174613a2055524920717565727920666f72206e6f60008201527f6e6578697374656e7420746f6b656e0000000000000000000000000000000000602082015250565b6000613a9b602f83612b85565b9150613aa682613a3f565b604082019050919050565b60006020820190508181036000830152613aca81613a8e565b9050919050565b600081905092915050565b6000613ae782612b7a565b613af18185613ad1565b9350613b01818560208601612b96565b80840191505092915050565b6000613b198285613adc565b9150613b258284613adc565b91508190509392505050565b7f4f776e61626c653a206e6577206f776e657220697320746865207a65726f206160008201527f6464726573730000000000000000000000000000000000000000000000000000602082015250565b6000613b8d602683612b85565b9150613b9882613b31565b604082019050919050565b60006020820190508181036000830152613bbc81613b80565b9050919050565b7f4552433732313a206f70657261746f7220717565727920666f72206e6f6e657860008201527f697374656e7420746f6b656e0000000000000000000000000000000000000000602082015250565b6000613c1f602c83612b85565b9150613c2a82613bc3565b604082019050919050565b60006020820190508181036000830152613c4e81613c12565b9050919050565b7f4552433732313a207472616e73666572206f6620746f6b656e2074686174206960008201527f73206e6f74206f776e0000000000000000000000000000000000000000000000602082015250565b6000613cb1602983612b85565b9150613cbc82613c55565b604082019050919050565b60006020820190508181036000830152613ce081613ca4565b9050919050565b7f4552433732313a207472616e7366657220746f20746865207a65726f2061646460008201527f7265737300000000000000000000000000000000000000000000000000000000602082015250565b6000613d43602483612b85565b9150613d4e82613ce7565b604082019050919050565b60006020820190508181036000830152613d7281613d36565b9050919050565b6000604082019050613d8e6000830185612ff8565b613d9b6020830184612ff8565b9392505050565b7f4552433732313a20617070726f766520746f2063616c6c657200000000000000600082015250565b6000613dd8601983612b85565b9150613de382613da2565b602082019050919050565b60006020820190508181036000830152613e0781613dcb565b9050919050565b7f4552433732313a207472616e7366657220746f206e6f6e20455243373231526560008201527f63656976657220696d706c656d656e7465720000000000000000000000000000602082015250565b6000613e6a603283612b85565b9150613e7582613e0e565b604082019050919050565b60006020820190508181036000830152613e9981613e5d565b9050919050565b7f4e487b7100000000000000000000000000000000000000000000000000000000600052601260045260246000fd5b6000613eda82612c35565b9150613ee583612c35565b925082613ef557613ef4613ea0565b5b828204905092915050565b6000613f0b82612c35565b9150613f1683612c35565b925082613f2657613f25613ea0565b5b828206905092915050565b6000819050919050565b613f4c613f4782612c35565b613f31565b82525050565b60008160601b9050919050565b6000613f6a82613f52565b9050919050565b6000613f7c82613f5f565b9050919050565b613f94613f8f82612cb8565b613f71565b82525050565b6000613fa68285613f3b565b602082019150613fb68284613f83565b6014820191508190509392505050565b600081519050919050565b600082825260208201905092915050565b6000613fed82613fc6565b613ff78185613fd1565b9350614007818560208601612b96565b61401081612bc9565b840191505092915050565b60006080820190506140306000830187612cca565b61403d6020830186612cca565b61404a6040830185612ff8565b818103606083015261405c8184613fe2565b905095945050505050565b60008151905061407681612aeb565b92915050565b60006020828403121561409257614091612ab5565b5b60006140a084828501614067565b91505092915050565b7f4552433732313a206d696e7420746f20746865207a65726f2061646472657373600082015250565b60006140df602083612b85565b91506140ea826140a9565b602082019050919050565b6000602082019050818103600083015261410e816140d2565b9050919050565b7f4552433732313a20746f6b656e20616c7265616479206d696e74656400000000600082015250565b600061414b601c83612b85565b915061415682614115565b602082019050919050565b6000602082019050818103600083015261417a8161413e565b905091905056fea26469706673582212202269541b415c95476a26a4e0e89432dc2d62b403620acaa20cad1ae19fcae48264736f6c634300080b0033",
  "immutableReferences": {},
  "source": "// SPDX-License-Identifier: MIT\r\n\r\npragma solidity >=0.4.22 <0.9.0;\r\nimport \"./lipfactory.sol\";\r\n\r\ncontract LipHelper is LipFactory {\r\n  uint256 levelUpFee = 0.01 ether;\r\n  \r\n  modifier aboveLevel(uint256 _level, uint256 _lipId) {\r\n    require(lips[_lipId].level >= _level);\r\n    _;\r\n  }\r\n\r\n  modifier onlyOwnerOf(uint256 _lipId) {\r\n    require(msg.sender == ownerOf(_lipId));\r\n    _;\r\n  }\r\n\r\n  function _triggerCooldown(Lip storage _lip) internal {\r\n    _lip.readyTime = uint32(block.timestamp + cooldownTime);\r\n  }\r\n\r\n  function _isReady(Lip storage _lip) internal view returns (bool) {\r\n    return (_lip.readyTime <= block.timestamp);\r\n  }\r\n\r\n  function withDraw() external payable onlyOwner {\r\n    address payable _owner = payable(owner());\r\n    _owner.transfer(address(this).balance);\r\n  }\r\n\r\n  function setLevelUpFee(uint256 _fee) external onlyOwner {\r\n    levelUpFee = _fee;\r\n  }\r\n\r\n  function levelUp(uint256 _lipId) public payable onlyOwnerOf(_lipId) {\r\n    Lip storage lip = lips[_lipId];\r\n    require(_isReady(lip));\r\n    require(msg.value >= levelUpFee);\r\n    lip.level++;\r\n    _triggerCooldown(lip);\r\n  }\r\n\r\n  function changeName(uint256 _lipId, string memory _newName)\r\n    public\r\n    aboveLevel(1, _lipId)\r\n    onlyOwnerOf(_lipId)\r\n  {\r\n    Lip storage lip = lips[_lipId];\r\n    lip.name = _newName;\r\n  }\r\n\r\n  function getAllLips() public view returns (Lip[] memory) {\r\n    return lips;\r\n  }\r\n\r\n  function getEnemy(address _owner) public view returns (Lip[] memory) {\r\n    Lip[] memory result = new Lip[](lips.length - balanceOf(_owner));\r\n    uint256 counter = 0;\r\n    for (uint256 i = 0; i < lips.length; i++) {\r\n      if (ownerOf(i) != _owner) {\r\n        result[counter] = lips[i];\r\n        counter = counter + 1;\r\n      }\r\n    }\r\n    return result;\r\n  }\r\n\r\n  function getOwnerLips(address _owner) public view returns (Lip[] memory) {\r\n    Lip[] memory result = new Lip[](balanceOf(_owner));\r\n    uint256 counter = 0;\r\n    for (uint256 i = 0; i < lips.length; i++) {\r\n      if (ownerOf(i) == _owner) {\r\n        result[counter] = lips[i];\r\n        counter = counter + 1;\r\n      }\r\n    }\r\n    return result;\r\n  }\r\n}",
  "sourcePath": "C:\\Github\\nft_game\\src\\contracts\\liphelper.sol",
  "compiler": {
    "name": "solc",
    "version": "0.8.11+commit.d7f03943.Emscripten.clang"
  },
  "schemaVersion": "3.4.4",
  "updatedAt": "2022-02-20T05:11:55.392Z",
  "devdoc": {
    "kind": "dev",
    "methods": {
      "approve(address,uint256)": {
        "details": "See {IERC721-approve}."
      },
      "balanceOf(address)": {
        "details": "See {IERC721-balanceOf}."
      },
      "getApproved(uint256)": {
        "details": "See {IERC721-getApproved}."
      },
      "isApprovedForAll(address,address)": {
        "details": "See {IERC721-isApprovedForAll}."
      },
      "name()": {
        "details": "See {IERC721Metadata-name}."
      },
      "owner()": {
        "details": "Returns the address of the current owner."
      },
      "ownerOf(uint256)": {
        "details": "See {IERC721-ownerOf}."
      },
      "renounceOwnership()": {
        "details": "Leaves the contract without owner. It will not be possible to call `onlyOwner` functions anymore. Can only be called by the current owner. NOTE: Renouncing ownership will leave the contract without an owner, thereby removing any functionality that is only available to the owner."
      },
      "safeTransferFrom(address,address,uint256)": {
        "details": "See {IERC721-safeTransferFrom}."
      },
      "safeTransferFrom(address,address,uint256,bytes)": {
        "details": "See {IERC721-safeTransferFrom}."
      },
      "setApprovalForAll(address,bool)": {
        "details": "See {IERC721-setApprovalForAll}."
      },
      "supportsInterface(bytes4)": {
        "details": "See {IERC165-supportsInterface}."
      },
      "symbol()": {
        "details": "See {IERC721Metadata-symbol}."
      },
      "tokenURI(uint256)": {
        "details": "See {IERC721Metadata-tokenURI}."
      },
      "transferFrom(address,address,uint256)": {
        "details": "See {IERC721-transferFrom}."
      },
      "transferOwnership(address)": {
        "details": "Transfers ownership of the contract to a new account (`newOwner`). Can only be called by the current owner."
      }
    },
    "version": 1
  },
  "userdoc": {
    "kind": "user",
    "methods": {},
    "version": 1
  }
}