{
  "contractName": "LipHelper",
  "abi": [
    {
      "anonymous": false,
      "inputs": [
        {
          "indexed": true,
          "internalType": "address",
          "name": "owner",
          "type": "address"
        },
        {
          "indexed": true,
          "internalType": "address",
          "name": "approved",
          "type": "address"
        },
        {
          "indexed": true,
          "internalType": "uint256",
          "name": "tokenId",
          "type": "uint256"
        }
      ],
      "name": "Approval",
      "type": "event"
    },
    {
      "anonymous": false,
      "inputs": [
        {
          "indexed": true,
          "internalType": "address",
          "name": "owner",
          "type": "address"
        },
        {
          "indexed": true,
          "internalType": "address",
          "name": "operator",
          "type": "address"
        },
        {
          "indexed": false,
          "internalType": "bool",
          "name": "approved",
          "type": "bool"
        }
      ],
      "name": "ApprovalForAll",
      "type": "event"
    },
    {
      "anonymous": false,
      "inputs": [
        {
          "indexed": true,
          "internalType": "address",
          "name": "owner",
          "type": "address"
        },
        {
          "indexed": false,
          "internalType": "uint256",
          "name": "id",
          "type": "uint256"
        },
        {
          "indexed": false,
          "internalType": "uint256",
          "name": "dna",
          "type": "uint256"
        }
      ],
      "name": "NewLipCreated",
      "type": "event"
    },
    {
      "anonymous": false,
      "inputs": [
        {
          "indexed": true,
          "internalType": "address",
          "name": "previousOwner",
          "type": "address"
        },
        {
          "indexed": true,
          "internalType": "address",
          "name": "newOwner",
          "type": "address"
        }
      ],
      "name": "OwnershipTransferred",
      "type": "event"
    },
    {
      "anonymous": false,
      "inputs": [
        {
          "indexed": true,
          "internalType": "address",
          "name": "from",
          "type": "address"
        },
        {
          "indexed": true,
          "internalType": "address",
          "name": "to",
          "type": "address"
        },
        {
          "indexed": true,
          "internalType": "uint256",
          "name": "tokenId",
          "type": "uint256"
        }
      ],
      "name": "Transfer",
      "type": "event"
    },
    {
      "inputs": [
        {
          "internalType": "address",
          "name": "to",
          "type": "address"
        },
        {
          "internalType": "uint256",
          "name": "tokenId",
          "type": "uint256"
        }
      ],
      "name": "approve",
      "outputs": [],
      "stateMutability": "nonpayable",
      "type": "function"
    },
    {
      "inputs": [
        {
          "internalType": "address",
          "name": "owner",
          "type": "address"
        }
      ],
      "name": "balanceOf",
      "outputs": [
        {
          "internalType": "uint256",
          "name": "",
          "type": "uint256"
        }
      ],
      "stateMutability": "view",
      "type": "function"
    },
    {
      "inputs": [
        {
          "internalType": "string",
          "name": "_name",
          "type": "string"
        }
      ],
      "name": "createRandomLip",
      "outputs": [],
      "stateMutability": "payable",
      "type": "function"
    },
    {
      "inputs": [
        {
          "internalType": "uint256",
          "name": "tokenId",
          "type": "uint256"
        }
      ],
      "name": "getApproved",
      "outputs": [
        {
          "internalType": "address",
          "name": "",
          "type": "address"
        }
      ],
      "stateMutability": "view",
      "type": "function"
    },
    {
      "inputs": [
        {
          "internalType": "address",
          "name": "owner",
          "type": "address"
        },
        {
          "internalType": "address",
          "name": "operator",
          "type": "address"
        }
      ],
      "name": "isApprovedForAll",
      "outputs": [
        {
          "internalType": "bool",
          "name": "",
          "type": "bool"
        }
      ],
      "stateMutability": "view",
      "type": "function"
    },
    {
      "inputs": [
        {
          "internalType": "uint256",
          "name": "",
          "type": "uint256"
        }
      ],
      "name": "lips",
      "outputs": [
        {
          "internalType": "uint256",
          "name": "id",
          "type": "uint256"
        },
        {
          "internalType": "string",
          "name": "name",
          "type": "string"
        },
        {
          "internalType": "uint256",
          "name": "dna",
          "type": "uint256"
        },
        {
          "internalType": "uint8",
          "name": "level",
          "type": "uint8"
        },
        {
          "internalType": "uint8",
          "name": "rarity",
          "type": "uint8"
        },
        {
          "internalType": "uint32",
          "name": "readyTime",
          "type": "uint32"
        },
        {
          "internalType": "uint16",
          "name": "winCount",
          "type": "uint16"
        },
        {
          "internalType": "uint16",
          "name": "lossCount",
          "type": "uint16"
        }
      ],
      "stateMutability": "view",
      "type": "function"
    },
    {
      "inputs": [],
      "name": "name",
      "outputs": [
        {
          "internalType": "string",
          "name": "",
          "type": "string"
        }
      ],
      "stateMutability": "view",
      "type": "function"
    },
    {
      "inputs": [],
      "name": "owner",
      "outputs": [
        {
          "internalType": "address",
          "name": "",
          "type": "address"
        }
      ],
      "stateMutability": "view",
      "type": "function"
    },
    {
      "inputs": [
        {
          "internalType": "uint256",
          "name": "tokenId",
          "type": "uint256"
        }
      ],
      "name": "ownerOf",
      "outputs": [
        {
          "internalType": "address",
          "name": "",
          "type": "address"
        }
      ],
      "stateMutability": "view",
      "type": "function"
    },
    {
      "inputs": [],
      "name": "renounceOwnership",
      "outputs": [],
      "stateMutability": "nonpayable",
      "type": "function"
    },
    {
      "inputs": [
        {
          "internalType": "address",
          "name": "from",
          "type": "address"
        },
        {
          "internalType": "address",
          "name": "to",
          "type": "address"
        },
        {
          "internalType": "uint256",
          "name": "tokenId",
          "type": "uint256"
        }
      ],
      "name": "safeTransferFrom",
      "outputs": [],
      "stateMutability": "nonpayable",
      "type": "function"
    },
    {
      "inputs": [
        {
          "internalType": "address",
          "name": "from",
          "type": "address"
        },
        {
          "internalType": "address",
          "name": "to",
          "type": "address"
        },
        {
          "internalType": "uint256",
          "name": "tokenId",
          "type": "uint256"
        },
        {
          "internalType": "bytes",
          "name": "_data",
          "type": "bytes"
        }
      ],
      "name": "safeTransferFrom",
      "outputs": [],
      "stateMutability": "nonpayable",
      "type": "function"
    },
    {
      "inputs": [
        {
          "internalType": "address",
          "name": "operator",
          "type": "address"
        },
        {
          "internalType": "bool",
          "name": "approved",
          "type": "bool"
        }
      ],
      "name": "setApprovalForAll",
      "outputs": [],
      "stateMutability": "nonpayable",
      "type": "function"
    },
    {
      "inputs": [
        {
          "internalType": "bytes4",
          "name": "interfaceId",
          "type": "bytes4"
        }
      ],
      "name": "supportsInterface",
      "outputs": [
        {
          "internalType": "bool",
          "name": "",
          "type": "bool"
        }
      ],
      "stateMutability": "view",
      "type": "function"
    },
    {
      "inputs": [],
      "name": "symbol",
      "outputs": [
        {
          "internalType": "string",
          "name": "",
          "type": "string"
        }
      ],
      "stateMutability": "view",
      "type": "function"
    },
    {
      "inputs": [
        {
          "internalType": "uint256",
          "name": "tokenId",
          "type": "uint256"
        }
      ],
      "name": "tokenURI",
      "outputs": [
        {
          "internalType": "string",
          "name": "",
          "type": "string"
        }
      ],
      "stateMutability": "view",
      "type": "function"
    },
    {
      "inputs": [
        {
          "internalType": "address",
          "name": "from",
          "type": "address"
        },
        {
          "internalType": "address",
          "name": "to",
          "type": "address"
        },
        {
          "internalType": "uint256",
          "name": "tokenId",
          "type": "uint256"
        }
      ],
      "name": "transferFrom",
      "outputs": [],
      "stateMutability": "nonpayable",
      "type": "function"
    },
    {
      "inputs": [
        {
          "internalType": "address",
          "name": "newOwner",
          "type": "address"
        }
      ],
      "name": "transferOwnership",
      "outputs": [],
      "stateMutability": "nonpayable",
      "type": "function"
    },
    {
      "inputs": [],
      "name": "withDraw",
      "outputs": [],
      "stateMutability": "payable",
      "type": "function"
    },
    {
      "inputs": [
        {
          "internalType": "uint256",
          "name": "_fee",
          "type": "uint256"
        }
      ],
      "name": "setLevelUpFee",
      "outputs": [],
      "stateMutability": "nonpayable",
      "type": "function"
    },
    {
      "inputs": [
        {
          "internalType": "uint256",
          "name": "_lipId",
          "type": "uint256"
        }
      ],
      "name": "levelUp",
      "outputs": [],
      "stateMutability": "payable",
      "type": "function"
    },
    {
      "inputs": [
        {
          "internalType": "uint256",
          "name": "_lipId",
          "type": "uint256"
        },
        {
          "internalType": "string",
          "name": "_newName",
          "type": "string"
        }
      ],
      "name": "changeName",
      "outputs": [],
      "stateMutability": "nonpayable",
      "type": "function"
    },
    {
      "inputs": [
        {
          "components": [
            {
              "internalType": "uint256",
              "name": "id",
              "type": "uint256"
            },
            {
              "internalType": "string",
              "name": "name",
              "type": "string"
            },
            {
              "internalType": "uint256",
              "name": "dna",
              "type": "uint256"
            },
            {
              "internalType": "uint8",
              "name": "level",
              "type": "uint8"
            },
            {
              "internalType": "uint8",
              "name": "rarity",
              "type": "uint8"
            },
            {
              "internalType": "uint32",
              "name": "readyTime",
              "type": "uint32"
            },
            {
              "internalType": "uint16",
              "name": "winCount",
              "type": "uint16"
            },
            {
              "internalType": "uint16",
              "name": "lossCount",
              "type": "uint16"
            }
          ],
          "internalType": "struct LipFactory.Lip[]",
          "name": "data",
          "type": "tuple[]"
        }
      ],
      "name": "sort",
      "outputs": [
        {
          "components": [
            {
              "internalType": "uint256",
              "name": "id",
              "type": "uint256"
            },
            {
              "internalType": "string",
              "name": "name",
              "type": "string"
            },
            {
              "internalType": "uint256",
              "name": "dna",
              "type": "uint256"
            },
            {
              "internalType": "uint8",
              "name": "level",
              "type": "uint8"
            },
            {
              "internalType": "uint8",
              "name": "rarity",
              "type": "uint8"
            },
            {
              "internalType": "uint32",
              "name": "readyTime",
              "type": "uint32"
            },
            {
              "internalType": "uint16",
              "name": "winCount",
              "type": "uint16"
            },
            {
              "internalType": "uint16",
              "name": "lossCount",
              "type": "uint16"
            }
          ],
          "internalType": "struct LipFactory.Lip[]",
          "name": "",
          "type": "tuple[]"
        }
      ],
      "stateMutability": "pure",
      "type": "function"
    },
    {
      "inputs": [],
      "name": "getAllLips",
      "outputs": [
        {
          "components": [
            {
              "internalType": "uint256",
              "name": "id",
              "type": "uint256"
            },
            {
              "internalType": "string",
              "name": "name",
              "type": "string"
            },
            {
              "internalType": "uint256",
              "name": "dna",
              "type": "uint256"
            },
            {
              "internalType": "uint8",
              "name": "level",
              "type": "uint8"
            },
            {
              "internalType": "uint8",
              "name": "rarity",
              "type": "uint8"
            },
            {
              "internalType": "uint32",
              "name": "readyTime",
              "type": "uint32"
            },
            {
              "internalType": "uint16",
              "name": "winCount",
              "type": "uint16"
            },
            {
              "internalType": "uint16",
              "name": "lossCount",
              "type": "uint16"
            }
          ],
          "internalType": "struct LipFactory.Lip[]",
          "name": "",
          "type": "tuple[]"
        }
      ],
      "stateMutability": "view",
      "type": "function"
    },
    {
      "inputs": [
        {
          "internalType": "address",
          "name": "_owner",
          "type": "address"
        }
      ],
      "name": "getEnemy",
      "outputs": [
        {
          "components": [
            {
              "internalType": "uint256",
              "name": "id",
              "type": "uint256"
            },
            {
              "internalType": "string",
              "name": "name",
              "type": "string"
            },
            {
              "internalType": "uint256",
              "name": "dna",
              "type": "uint256"
            },
            {
              "internalType": "uint8",
              "name": "level",
              "type": "uint8"
            },
            {
              "internalType": "uint8",
              "name": "rarity",
              "type": "uint8"
            },
            {
              "internalType": "uint32",
              "name": "readyTime",
              "type": "uint32"
            },
            {
              "internalType": "uint16",
              "name": "winCount",
              "type": "uint16"
            },
            {
              "internalType": "uint16",
              "name": "lossCount",
              "type": "uint16"
            }
          ],
          "internalType": "struct LipFactory.Lip[]",
          "name": "",
          "type": "tuple[]"
        }
      ],
      "stateMutability": "view",
      "type": "function"
    },
    {
      "inputs": [
        {
          "internalType": "address",
          "name": "_owner",
          "type": "address"
        }
      ],
      "name": "getOwnerLips",
      "outputs": [
        {
          "components": [
            {
              "internalType": "uint256",
              "name": "id",
              "type": "uint256"
            },
            {
              "internalType": "string",
              "name": "name",
              "type": "string"
            },
            {
              "internalType": "uint256",
              "name": "dna",
              "type": "uint256"
            },
            {
              "internalType": "uint8",
              "name": "level",
              "type": "uint8"
            },
            {
              "internalType": "uint8",
              "name": "rarity",
              "type": "uint8"
            },
            {
              "internalType": "uint32",
              "name": "readyTime",
              "type": "uint32"
            },
            {
              "internalType": "uint16",
              "name": "winCount",
              "type": "uint16"
            },
            {
              "internalType": "uint16",
              "name": "lossCount",
              "type": "uint16"
            }
          ],
          "internalType": "struct LipFactory.Lip[]",
          "name": "",
          "type": "tuple[]"
        }
      ],
      "stateMutability": "view",
      "type": "function"
    }
  ],
  "bytecode": "0x6080604052662386f26fc10000600855620151806009556010600a55600a54600a6200002c919062000435565b600b556064600c60006101000a81548160ff021916908360ff160217905550662386f26fc10000600f553480156200006357600080fd5b506040518060400160405280600981526020017f4c697020546f6b656e00000000000000000000000000000000000000000000008152506040518060400160405280600381526020017f4c505400000000000000000000000000000000000000000000000000000000008152508160009080519060200190620000e8929190620001f8565b50806001908051906020019062000101929190620001f8565b50505062000124620001186200012a60201b60201c565b6200013260201b60201c565b620004eb565b600033905090565b6000600660009054906101000a900473ffffffffffffffffffffffffffffffffffffffff16905081600660006101000a81548173ffffffffffffffffffffffffffffffffffffffff021916908373ffffffffffffffffffffffffffffffffffffffff1602179055508173ffffffffffffffffffffffffffffffffffffffff168173ffffffffffffffffffffffffffffffffffffffff167f8be0079c531659141344cd1fd0a4f28419497f9722a3daafe3b4186f6b6457e060405160405180910390a35050565b8280546200020690620004b5565b90600052602060002090601f0160209004810192826200022a576000855562000276565b82601f106200024557805160ff191683800117855562000276565b8280016001018555821562000276579182015b828111156200027557825182559160200191906001019062000258565b5b50905062000285919062000289565b5090565b5b80821115620002a45760008160009055506001016200028a565b5090565b7f4e487b7100000000000000000000000000000000000000000000000000000000600052601160045260246000fd5b60008160011c9050919050565b6000808291508390505b600185111562000336578086048111156200030e576200030d620002a8565b5b60018516156200031e5780820291505b80810290506200032e85620002d7565b9450620002ee565b94509492505050565b60008262000351576001905062000424565b8162000361576000905062000424565b81600181146200037a57600281146200038557620003bb565b600191505062000424565b60ff8411156200039a5762000399620002a8565b5b8360020a915084821115620003b457620003b3620002a8565b5b5062000424565b5060208310610133831016604e8410600b8410161715620003f55782820a905083811115620003ef57620003ee620002a8565b5b62000424565b620004048484846001620002e4565b925090508184048111156200041e576200041d620002a8565b5b81810290505b9392505050565b6000819050919050565b600062000442826200042b565b91506200044f836200042b565b92506200047e7fffffffffffffffffffffffffffffffffffffffffffffffffffffffffffffffff84846200033f565b905092915050565b7f4e487b7100000000000000000000000000000000000000000000000000000000600052602260045260246000fd5b60006002820490506001821680620004ce57607f821691505b60208210811415620004e557620004e462000486565b5b50919050565b6147b280620004fb6000396000f3fe6080604052600436106101815760003560e01c8063715018a6116100d1578063a22cb4651161008a578063c87b56dd11610064578063c87b56dd14610570578063ccf670f8146105ad578063e985e9c5146105d6578063f2fde38b1461061357610181565b8063a22cb465146104f5578063b88d4fde1461051e578063c39cbef11461054757610181565b8063715018a6146103d157806376c2edc9146103e85780638c0b9c54146104255780638da5cb5b14610462578063906435f11461048d57806395d89b41146104ca57610181565b806323b872dd1161013e5780635ec163db116101185780635ec163db146102f75780636352211e1461033b578063698d640c1461037857806370a082311461039457610181565b806323b872dd1461027a5780632c44cfc3146102a357806342842e0e146102ce57610181565b806301ffc9a71461018657806306fdde03146101c3578063081812fc146101ee578063095ea7b31461022b5780630ce90ec2146102545780630fdb1c1014610270575b600080fd5b34801561019257600080fd5b506101ad60048036038101906101a89190612de6565b61063c565b6040516101ba9190612e2e565b60405180910390f35b3480156101cf57600080fd5b506101d861071e565b6040516101e59190612ee2565b60405180910390f35b3480156101fa57600080fd5b5061021560048036038101906102109190612f3a565b6107b0565b6040516102229190612fa8565b60405180910390f35b34801561023757600080fd5b50610252600480360381019061024d9190612fef565b610835565b005b61026e60048036038101906102699190612f3a565b61094d565b005b610278610a1d565b005b34801561028657600080fd5b506102a1600480360381019061029c919061302f565b610aef565b005b3480156102af57600080fd5b506102b8610b4f565b6040516102c591906132a5565b60405180910390f35b3480156102da57600080fd5b506102f560048036038101906102f0919061302f565b610d06565b005b34801561030357600080fd5b5061031e60048036038101906103199190612f3a565b610d26565b604051610332989796959493929190613303565b60405180910390f35b34801561034757600080fd5b50610362600480360381019061035d9190612f3a565b610e4c565b60405161036f9190612fa8565b60405180910390f35b610392600480360381019061038d91906134bd565b610efe565b005b3480156103a057600080fd5b506103bb60048036038101906103b69190613506565b610f19565b6040516103c89190613533565b60405180910390f35b3480156103dd57600080fd5b506103e6610fd1565b005b3480156103f457600080fd5b5061040f600480360381019061040a9190613506565b611059565b60405161041c91906132a5565b60405180910390f35b34801561043157600080fd5b5061044c60048036038101906104479190613506565b6112e2565b60405161045991906132a5565b60405180910390f35b34801561046e57600080fd5b50610477611551565b6040516104849190612fa8565b60405180910390f35b34801561049957600080fd5b506104b460048036038101906104af91906137a8565b61157b565b6040516104c191906132a5565b60405180910390f35b3480156104d657600080fd5b506104df61159e565b6040516104ec9190612ee2565b60405180910390f35b34801561050157600080fd5b5061051c6004803603810190610517919061381d565b611630565b005b34801561052a57600080fd5b50610545600480360381019061054091906138fe565b611646565b005b34801561055357600080fd5b5061056e600480360381019061056991906139dc565b6116a8565b005b34801561057c57600080fd5b5061059760048036038101906105929190612f3a565b611771565b6040516105a49190612ee2565b60405180910390f35b3480156105b957600080fd5b506105d460048036038101906105cf9190612f3a565b611818565b005b3480156105e257600080fd5b506105fd60048036038101906105f89190613a3c565b61189e565b60405161060a9190612e2e565b60405180910390f35b34801561061f57600080fd5b5061063a60048036038101906106359190613506565b611932565b005b60007f80ac58cd000000000000000000000000000000000000000000000000000000007bffffffffffffffffffffffffffffffffffffffffffffffffffffffff1916827bffffffffffffffffffffffffffffffffffffffffffffffffffffffff1916148061070757507f5b5e139f000000000000000000000000000000000000000000000000000000007bffffffffffffffffffffffffffffffffffffffffffffffffffffffff1916827bffffffffffffffffffffffffffffffffffffffffffffffffffffffff1916145b80610717575061071682611a2a565b5b9050919050565b60606000805461072d90613aab565b80601f016020809104026020016040519081016040528092919081815260200182805461075990613aab565b80156107a65780601f1061077b576101008083540402835291602001916107a6565b820191906000526020600020905b81548152906001019060200180831161078957829003601f168201915b5050505050905090565b60006107bb82611a94565b6107fa576040517f08c379a00000000000000000000000000000000000000000000000000000000081526004016107f190613b4f565b60405180910390fd5b6004600083815260200190815260200160002060009054906101000a900473ffffffffffffffffffffffffffffffffffffffff169050919050565b600061084082610e4c565b90508073ffffffffffffffffffffffffffffffffffffffff168373ffffffffffffffffffffffffffffffffffffffff1614156108b1576040517f08c379a00000000000000000000000000000000000000000000000000000000081526004016108a890613be1565b60405180910390fd5b8073ffffffffffffffffffffffffffffffffffffffff166108d0611b00565b73ffffffffffffffffffffffffffffffffffffffff1614806108ff57506108fe816108f9611b00565b61189e565b5b61093e576040517f08c379a000000000000000000000000000000000000000000000000000000000815260040161093590613c73565b60405180910390fd5b6109488383611b08565b505050565b8061095781610e4c565b73ffffffffffffffffffffffffffffffffffffffff163373ffffffffffffffffffffffffffffffffffffffff161461098e57600080fd5b6000600d83815481106109a4576109a3613c93565b5b906000526020600020906004020190506109bd81611bc1565b6109c657600080fd5b600f543410156109d557600080fd5b80600301600081819054906101000a900460ff16809291906109f690613cf1565b91906101000a81548160ff021916908360ff16021790555050610a1881611be8565b505050565b610a25611b00565b73ffffffffffffffffffffffffffffffffffffffff16610a43611551565b73ffffffffffffffffffffffffffffffffffffffff1614610a99576040517f08c379a0000000000000000000000000000000000000000000000000000000008152600401610a9090613d67565b60405180910390fd5b6000610aa3611551565b90508073ffffffffffffffffffffffffffffffffffffffff166108fc479081150290604051600060405180830381858888f19350505050158015610aeb573d6000803e3d6000fd5b5050565b610b00610afa611b00565b82611c1b565b610b3f576040517f08c379a0000000000000000000000000000000000000000000000000000000008152600401610b3690613df9565b60405180910390fd5b610b4a838383611cf9565b505050565b60606000600d805480602002602001604051908101604052809291908181526020016000905b82821015610cee57838290600052602060002090600402016040518061010001604052908160008201548152602001600182018054610bb390613aab565b80601f0160208091040260200160405190810160405280929190818152602001828054610bdf90613aab565b8015610c2c5780601f10610c0157610100808354040283529160200191610c2c565b820191906000526020600020905b815481529060010190602001808311610c0f57829003601f168201915b50505050508152602001600282015481526020016003820160009054906101000a900460ff1660ff1660ff1681526020016003820160019054906101000a900460ff1660ff1660ff1681526020016003820160029054906101000a900463ffffffff1663ffffffff1663ffffffff1681526020016003820160069054906101000a900461ffff1661ffff1661ffff1681526020016003820160089054906101000a900461ffff1661ffff1661ffff168152505081526020019060010190610b75565b505050509050610cfd8161157b565b90508091505090565b610d2183838360405180602001604052806000815250611646565b505050565b600d8181548110610d3657600080fd5b9060005260206000209060040201600091509050806000015490806001018054610d5f90613aab565b80601f0160208091040260200160405190810160405280929190818152602001828054610d8b90613aab565b8015610dd85780601f10610dad57610100808354040283529160200191610dd8565b820191906000526020600020905b815481529060010190602001808311610dbb57829003601f168201915b5050505050908060020154908060030160009054906101000a900460ff16908060030160019054906101000a900460ff16908060030160029054906101000a900463ffffffff16908060030160069054906101000a900461ffff16908060030160089054906101000a900461ffff16905088565b6000806002600084815260200190815260200160002060009054906101000a900473ffffffffffffffffffffffffffffffffffffffff169050600073ffffffffffffffffffffffffffffffffffffffff168173ffffffffffffffffffffffffffffffffffffffff161415610ef5576040517f08c379a0000000000000000000000000000000000000000000000000000000008152600401610eec90613e8b565b60405180910390fd5b80915050919050565b600854341015610f0d57600080fd5b610f1681611f55565b50565b60008073ffffffffffffffffffffffffffffffffffffffff168273ffffffffffffffffffffffffffffffffffffffff161415610f8a576040517f08c379a0000000000000000000000000000000000000000000000000000000008152600401610f8190613f1d565b60405180910390fd5b600360008373ffffffffffffffffffffffffffffffffffffffff1673ffffffffffffffffffffffffffffffffffffffff168152602001908152602001600020549050919050565b610fd9611b00565b73ffffffffffffffffffffffffffffffffffffffff16610ff7611551565b73ffffffffffffffffffffffffffffffffffffffff161461104d576040517f08c379a000000000000000000000000000000000000000000000000000000000815260040161104490613d67565b60405180910390fd5b61105760006121f9565b565b6060600061106683610f19565b600d805490506110769190613f3d565b67ffffffffffffffff81111561108f5761108e613392565b5b6040519080825280602002602001820160405280156110c857816020015b6110b5612bf8565b8152602001906001900390816110ad5790505b5090506000805b600d805490508110156112cc578473ffffffffffffffffffffffffffffffffffffffff166110fc82610e4c565b73ffffffffffffffffffffffffffffffffffffffff16146112b957600d818154811061112b5761112a613c93565b5b9060005260206000209060040201604051806101000160405290816000820154815260200160018201805461115f90613aab565b80601f016020809104026020016040519081016040528092919081815260200182805461118b90613aab565b80156111d85780601f106111ad576101008083540402835291602001916111d8565b820191906000526020600020905b8154815290600101906020018083116111bb57829003601f168201915b50505050508152602001600282015481526020016003820160009054906101000a900460ff1660ff1660ff1681526020016003820160019054906101000a900460ff1660ff1660ff1681526020016003820160029054906101000a900463ffffffff1663ffffffff1663ffffffff1681526020016003820160069054906101000a900461ffff1661ffff1661ffff1681526020016003820160089054906101000a900461ffff1661ffff1661ffff168152505083838151811061129e5761129d613c93565b5b60200260200101819052506001826112b69190613f71565b91505b80806112c490613fc7565b9150506110cf565b506112d68261157b565b91508192505050919050565b606060006112ef83610f19565b67ffffffffffffffff81111561130857611307613392565b5b60405190808252806020026020018201604052801561134157816020015b61132e612bf8565b8152602001906001900390816113265790505b5090506000805b600d80549050811015611546578473ffffffffffffffffffffffffffffffffffffffff1661137582610e4c565b73ffffffffffffffffffffffffffffffffffffffff16141561153357600d81815481106113a5576113a4613c93565b5b906000526020600020906004020160405180610100016040529081600082015481526020016001820180546113d990613aab565b80601f016020809104026020016040519081016040528092919081815260200182805461140590613aab565b80156114525780601f1061142757610100808354040283529160200191611452565b820191906000526020600020905b81548152906001019060200180831161143557829003601f168201915b50505050508152602001600282015481526020016003820160009054906101000a900460ff1660ff1660ff1681526020016003820160019054906101000a900460ff1660ff1660ff1681526020016003820160029054906101000a900463ffffffff1663ffffffff1663ffffffff1681526020016003820160069054906101000a900461ffff1661ffff1661ffff1681526020016003820160089054906101000a900461ffff1661ffff1661ffff168152505083838151811061151857611517613c93565b5b60200260200101819052506001826115309190613f71565b91505b808061153e90613fc7565b915050611348565b508192505050919050565b6000600660009054906101000a900473ffffffffffffffffffffffffffffffffffffffff16905090565b6060611596826000600185516115919190613f3d565b6122bf565b819050919050565b6060600180546115ad90613aab565b80601f01602080910402602001604051908101604052809291908181526020018280546115d990613aab565b80156116265780601f106115fb57610100808354040283529160200191611626565b820191906000526020600020905b81548152906001019060200180831161160957829003601f168201915b5050505050905090565b61164261163b611b00565b8383612475565b5050565b611657611651611b00565b83611c1b565b611696576040517f08c379a000000000000000000000000000000000000000000000000000000000815260040161168d90613df9565b60405180910390fd5b6116a2848484846125e2565b50505050565b60028381600d82815481106116c0576116bf613c93565b5b906000526020600020906004020160030160009054906101000a900460ff1660ff1610156116ed57600080fd5b846116f781610e4c565b73ffffffffffffffffffffffffffffffffffffffff163373ffffffffffffffffffffffffffffffffffffffff161461172e57600080fd5b6000600d878154811061174457611743613c93565b5b906000526020600020906004020190508585826001019190611767929190612c51565b5050505050505050565b606061177c82611a94565b6117bb576040517f08c379a00000000000000000000000000000000000000000000000000000000081526004016117b290614082565b60405180910390fd5b60006117c561263e565b905060008151116117e55760405180602001604052806000815250611810565b806117ef84612655565b6040516020016118009291906140de565b6040516020818303038152906040525b915050919050565b611820611b00565b73ffffffffffffffffffffffffffffffffffffffff1661183e611551565b73ffffffffffffffffffffffffffffffffffffffff1614611894576040517f08c379a000000000000000000000000000000000000000000000000000000000815260040161188b90613d67565b60405180910390fd5b80600f8190555050565b6000600560008473ffffffffffffffffffffffffffffffffffffffff1673ffffffffffffffffffffffffffffffffffffffff16815260200190815260200160002060008373ffffffffffffffffffffffffffffffffffffffff1673ffffffffffffffffffffffffffffffffffffffff16815260200190815260200160002060009054906101000a900460ff16905092915050565b61193a611b00565b73ffffffffffffffffffffffffffffffffffffffff16611958611551565b73ffffffffffffffffffffffffffffffffffffffff16146119ae576040517f08c379a00000000000000000000000000000000000000000000000000000000081526004016119a590613d67565b60405180910390fd5b600073ffffffffffffffffffffffffffffffffffffffff168173ffffffffffffffffffffffffffffffffffffffff161415611a1e576040517f08c379a0000000000000000000000000000000000000000000000000000000008152600401611a1590614174565b60405180910390fd5b611a27816121f9565b50565b60007f01ffc9a7000000000000000000000000000000000000000000000000000000007bffffffffffffffffffffffffffffffffffffffffffffffffffffffff1916827bffffffffffffffffffffffffffffffffffffffffffffffffffffffff1916149050919050565b60008073ffffffffffffffffffffffffffffffffffffffff166002600084815260200190815260200160002060009054906101000a900473ffffffffffffffffffffffffffffffffffffffff1673ffffffffffffffffffffffffffffffffffffffff1614159050919050565b600033905090565b816004600083815260200190815260200160002060006101000a81548173ffffffffffffffffffffffffffffffffffffffff021916908373ffffffffffffffffffffffffffffffffffffffff160217905550808273ffffffffffffffffffffffffffffffffffffffff16611b7b83610e4c565b73ffffffffffffffffffffffffffffffffffffffff167f8c5be1e5ebec7d5bd14f71427d1e84f3dd0314c0f7b2291e5b200ac8c7c3b92560405160405180910390a45050565b6000428260030160029054906101000a900463ffffffff1663ffffffff1611159050919050565b60095442611bf69190613f71565b8160030160026101000a81548163ffffffff021916908363ffffffff16021790555050565b6000611c2682611a94565b611c65576040517f08c379a0000000000000000000000000000000000000000000000000000000008152600401611c5c90614206565b60405180910390fd5b6000611c7083610e4c565b90508073ffffffffffffffffffffffffffffffffffffffff168473ffffffffffffffffffffffffffffffffffffffff161480611cdf57508373ffffffffffffffffffffffffffffffffffffffff16611cc7846107b0565b73ffffffffffffffffffffffffffffffffffffffff16145b80611cf05750611cef818561189e565b5b91505092915050565b8273ffffffffffffffffffffffffffffffffffffffff16611d1982610e4c565b73ffffffffffffffffffffffffffffffffffffffff1614611d6f576040517f08c379a0000000000000000000000000000000000000000000000000000000008152600401611d6690614298565b60405180910390fd5b600073ffffffffffffffffffffffffffffffffffffffff168273ffffffffffffffffffffffffffffffffffffffff161415611ddf576040517f08c379a0000000000000000000000000000000000000000000000000000000008152600401611dd69061432a565b60405180910390fd5b611dea8383836127b6565b611df5600082611b08565b6001600360008573ffffffffffffffffffffffffffffffffffffffff1673ffffffffffffffffffffffffffffffffffffffff1681526020019081526020016000206000828254611e459190613f3d565b925050819055506001600360008473ffffffffffffffffffffffffffffffffffffffff1673ffffffffffffffffffffffffffffffffffffffff1681526020019081526020016000206000828254611e9c9190613f71565b92505081905550816002600083815260200190815260200160002060006101000a81548173ffffffffffffffffffffffffffffffffffffffff021916908373ffffffffffffffffffffffffffffffffffffffff160217905550808273ffffffffffffffffffffffffffffffffffffffff168473ffffffffffffffffffffffffffffffffffffffff167fddf252ad1be2c89b69c2b068fc378daa952ba7f163c4a11628f55a4df523b3ef60405160405180910390a4505050565b6000611f62600b546127bb565b90506000611f81600c60009054906101000a900460ff1660ff166127bb565b9050600d6040518061010001604052806007548152602001858152602001848152602001600160ff1681526020018360ff168152602001600063ffffffff168152602001600061ffff168152602001600061ffff168152509080600181540180825580915050600190039060005260206000209060040201600090919091909150600082015181600001556020820151816001019080519060200190612028929190612cd7565b506040820151816002015560608201518160030160006101000a81548160ff021916908360ff16021790555060808201518160030160016101000a81548160ff021916908360ff16021790555060a08201518160030160026101000a81548163ffffffff021916908363ffffffff16021790555060c08201518160030160066101000a81548161ffff021916908361ffff16021790555060e08201518160030160086101000a81548161ffff021916908361ffff16021790555050506120f033600754612800565b6121436001600e60003373ffffffffffffffffffffffffffffffffffffffff1673ffffffffffffffffffffffffffffffffffffffff1681526020019081526020016000205461281e90919063ffffffff16565b600e60003373ffffffffffffffffffffffffffffffffffffffff1673ffffffffffffffffffffffffffffffffffffffff168152602001908152602001600020819055503373ffffffffffffffffffffffffffffffffffffffff167f29c4292b8838988609f9bd8e9042f7e77158b1f5ebfcae6494b7b709c3d20ffc600754846040516121d092919061434a565b60405180910390a26121ee600160075461281e90919063ffffffff16565b600781905550505050565b6000600660009054906101000a900473ffffffffffffffffffffffffffffffffffffffff16905081600660006101000a81548173ffffffffffffffffffffffffffffffffffffffff021916908373ffffffffffffffffffffffffffffffffffffffff1602179055508173ffffffffffffffffffffffffffffffffffffffff168173ffffffffffffffffffffffffffffffffffffffff167f8be0079c531659141344cd1fd0a4f28419497f9722a3daafe3b4186f6b6457e060405160405180910390a35050565b60008290506000829050808214156122d8575050612470565b600085600286866122e99190613f3d565b6122f391906143a2565b866122fe9190613f71565b8151811061230f5761230e613c93565b5b602002602001015190505b818311612444575b806060015160ff1686848151811061233d5761233c613c93565b5b60200260200101516060015160ff16101561236557828061235d90613fc7565b935050612322565b5b85828151811061237957612378613c93565b5b60200260200101516060015160ff16816060015160ff1610156123a95781806123a1906143d3565b925050612366565b81831161243f578582815181106123c3576123c2613c93565b5b60200260200101518684815181106123de576123dd613c93565b5b60200260200101518785815181106123f9576123f8613c93565b5b6020026020010188858151811061241357612412613c93565b5b602002602001018290528290525050828061242d90613fc7565b935050818061243b906143d3565b9250505b61231a565b81851015612458576124578686846122bf565b5b8383101561246c5761246b8684866122bf565b5b5050505b505050565b8173ffffffffffffffffffffffffffffffffffffffff168373ffffffffffffffffffffffffffffffffffffffff1614156124e4576040517f08c379a00000000000000000000000000000000000000000000000000000000081526004016124db90614449565b60405180910390fd5b80600560008573ffffffffffffffffffffffffffffffffffffffff1673ffffffffffffffffffffffffffffffffffffffff16815260200190815260200160002060008473ffffffffffffffffffffffffffffffffffffffff1673ffffffffffffffffffffffffffffffffffffffff16815260200190815260200160002060006101000a81548160ff0219169083151502179055508173ffffffffffffffffffffffffffffffffffffffff168373ffffffffffffffffffffffffffffffffffffffff167f17307eab39ab6107e8899845ad3d59bd9653f200f220920489ca2b5937696c31836040516125d59190612e2e565b60405180910390a3505050565b6125ed848484611cf9565b6125f984848484612834565b612638576040517f08c379a000000000000000000000000000000000000000000000000000000000815260040161262f906144db565b60405180910390fd5b50505050565b606060405180602001604052806000815250905090565b6060600082141561269d576040518060400160405280600181526020017f300000000000000000000000000000000000000000000000000000000000000081525090506127b1565b600082905060005b600082146126cf5780806126b890613fc7565b915050600a826126c891906143a2565b91506126a5565b60008167ffffffffffffffff8111156126eb576126ea613392565b5b6040519080825280601f01601f19166020018201604052801561271d5781602001600182028036833780820191505090505b5090505b600085146127aa576001826127369190613f3d565b9150600a8561274591906144fb565b60306127519190613f71565b60f81b81838151811061276757612766613c93565b5b60200101907effffffffffffffffffffffffffffffffffffffffffffffffffffffffffffff1916908160001a905350600a856127a391906143a2565b9450612721565b8093505050505b919050565b505050565b60008042336040516020016127d1929190614595565b6040516020818303038152906040528051906020012060001c905082816127f891906144fb565b915050919050565b61281a8282604051806020016040528060008152506129bc565b5050565b6000818361282c9190613f71565b905092915050565b60006128558473ffffffffffffffffffffffffffffffffffffffff16612a17565b156129af578373ffffffffffffffffffffffffffffffffffffffff1663150b7a0261287e611b00565b8786866040518563ffffffff1660e01b81526004016128a09493929190614616565b6020604051808303816000875af19250505080156128dc57506040513d601f19601f820116820180604052508101906128d99190614677565b60015b61295f573d806000811461290c576040519150601f19603f3d011682016040523d82523d6000602084013e612911565b606091505b50600081511415612957576040517f08c379a000000000000000000000000000000000000000000000000000000000815260040161294e906144db565b60405180910390fd5b805181602001fd5b63150b7a0260e01b7bffffffffffffffffffffffffffffffffffffffffffffffffffffffff1916817bffffffffffffffffffffffffffffffffffffffffffffffffffffffff1916149150506129b4565b600190505b949350505050565b6129c68383612a2a565b6129d36000848484612834565b612a12576040517f08c379a0000000000000000000000000000000000000000000000000000000008152600401612a09906144db565b60405180910390fd5b505050565b600080823b905060008111915050919050565b600073ffffffffffffffffffffffffffffffffffffffff168273ffffffffffffffffffffffffffffffffffffffff161415612a9a576040517f08c379a0000000000000000000000000000000000000000000000000000000008152600401612a91906146f0565b60405180910390fd5b612aa381611a94565b15612ae3576040517f08c379a0000000000000000000000000000000000000000000000000000000008152600401612ada9061475c565b60405180910390fd5b612aef600083836127b6565b6001600360008473ffffffffffffffffffffffffffffffffffffffff1673ffffffffffffffffffffffffffffffffffffffff1681526020019081526020016000206000828254612b3f9190613f71565b92505081905550816002600083815260200190815260200160002060006101000a81548173ffffffffffffffffffffffffffffffffffffffff021916908373ffffffffffffffffffffffffffffffffffffffff160217905550808273ffffffffffffffffffffffffffffffffffffffff16600073ffffffffffffffffffffffffffffffffffffffff167fddf252ad1be2c89b69c2b068fc378daa952ba7f163c4a11628f55a4df523b3ef60405160405180910390a45050565b604051806101000160405280600081526020016060815260200160008152602001600060ff168152602001600060ff168152602001600063ffffffff168152602001600061ffff168152602001600061ffff1681525090565b828054612c5d90613aab565b90600052602060002090601f016020900481019282612c7f5760008555612cc6565b82601f10612c9857803560ff1916838001178555612cc6565b82800160010185558215612cc6579182015b82811115612cc5578235825591602001919060010190612caa565b5b509050612cd39190612d5d565b5090565b828054612ce390613aab565b90600052602060002090601f016020900481019282612d055760008555612d4c565b82601f10612d1e57805160ff1916838001178555612d4c565b82800160010185558215612d4c579182015b82811115612d4b578251825591602001919060010190612d30565b5b509050612d599190612d5d565b5090565b5b80821115612d76576000816000905550600101612d5e565b5090565b6000604051905090565b600080fd5b600080fd5b60007fffffffff0000000000000000000000000000000000000000000000000000000082169050919050565b612dc381612d8e565b8114612dce57600080fd5b50565b600081359050612de081612dba565b92915050565b600060208284031215612dfc57612dfb612d84565b5b6000612e0a84828501612dd1565b91505092915050565b60008115159050919050565b612e2881612e13565b82525050565b6000602082019050612e436000830184612e1f565b92915050565b600081519050919050565b600082825260208201905092915050565b60005b83811015612e83578082015181840152602081019050612e68565b83811115612e92576000848401525b50505050565b6000601f19601f8301169050919050565b6000612eb482612e49565b612ebe8185612e54565b9350612ece818560208601612e65565b612ed781612e98565b840191505092915050565b60006020820190508181036000830152612efc8184612ea9565b905092915050565b6000819050919050565b612f1781612f04565b8114612f2257600080fd5b50565b600081359050612f3481612f0e565b92915050565b600060208284031215612f5057612f4f612d84565b5b6000612f5e84828501612f25565b91505092915050565b600073ffffffffffffffffffffffffffffffffffffffff82169050919050565b6000612f9282612f67565b9050919050565b612fa281612f87565b82525050565b6000602082019050612fbd6000830184612f99565b92915050565b612fcc81612f87565b8114612fd757600080fd5b50565b600081359050612fe981612fc3565b92915050565b6000806040838503121561300657613005612d84565b5b600061301485828601612fda565b925050602061302585828601612f25565b9150509250929050565b60008060006060848603121561304857613047612d84565b5b600061305686828701612fda565b935050602061306786828701612fda565b925050604061307886828701612f25565b9150509250925092565b600081519050919050565b600082825260208201905092915050565b6000819050602082019050919050565b6130b781612f04565b82525050565b600082825260208201905092915050565b60006130d982612e49565b6130e381856130bd565b93506130f3818560208601612e65565b6130fc81612e98565b840191505092915050565b600060ff82169050919050565b61311d81613107565b82525050565b600063ffffffff82169050919050565b61313c81613123565b82525050565b600061ffff82169050919050565b61315981613142565b82525050565b60006101008301600083015161317860008601826130ae565b506020830151848203602086015261319082826130ce565b91505060408301516131a560408601826130ae565b5060608301516131b86060860182613114565b5060808301516131cb6080860182613114565b5060a08301516131de60a0860182613133565b5060c08301516131f160c0860182613150565b5060e083015161320460e0860182613150565b508091505092915050565b600061321b838361315f565b905092915050565b6000602082019050919050565b600061323b82613082565b613245818561308d565b9350836020820285016132578561309e565b8060005b858110156132935784840389528151613274858261320f565b945061327f83613223565b925060208a0199505060018101905061325b565b50829750879550505050505092915050565b600060208201905081810360008301526132bf8184613230565b905092915050565b6132d081612f04565b82525050565b6132df81613107565b82525050565b6132ee81613123565b82525050565b6132fd81613142565b82525050565b600061010082019050613319600083018b6132c7565b818103602083015261332b818a612ea9565b905061333a60408301896132c7565b61334760608301886132d6565b61335460808301876132d6565b61336160a08301866132e5565b61336e60c08301856132f4565b61337b60e08301846132f4565b9998505050505050505050565b600080fd5b600080fd5b7f4e487b7100000000000000000000000000000000000000000000000000000000600052604160045260246000fd5b6133ca82612e98565b810181811067ffffffffffffffff821117156133e9576133e8613392565b5b80604052505050565b60006133fc612d7a565b905061340882826133c1565b919050565b600067ffffffffffffffff82111561342857613427613392565b5b61343182612e98565b9050602081019050919050565b82818337600083830152505050565b600061346061345b8461340d565b6133f2565b90508281526020810184848401111561347c5761347b61338d565b5b61348784828561343e565b509392505050565b600082601f8301126134a4576134a3613388565b5b81356134b484826020860161344d565b91505092915050565b6000602082840312156134d3576134d2612d84565b5b600082013567ffffffffffffffff8111156134f1576134f0612d89565b5b6134fd8482850161348f565b91505092915050565b60006020828403121561351c5761351b612d84565b5b600061352a84828501612fda565b91505092915050565b600060208201905061354860008301846132c7565b92915050565b600067ffffffffffffffff82111561356957613568613392565b5b602082029050602081019050919050565b600080fd5b600080fd5b600080fd5b61359281613107565b811461359d57600080fd5b50565b6000813590506135af81613589565b92915050565b6135be81613123565b81146135c957600080fd5b50565b6000813590506135db816135b5565b92915050565b6135ea81613142565b81146135f557600080fd5b50565b600081359050613607816135e1565b92915050565b600061010082840312156136245761362361357f565b5b61362f6101006133f2565b9050600061363f84828501612f25565b600083015250602082013567ffffffffffffffff81111561366357613662613584565b5b61366f8482850161348f565b602083015250604061368384828501612f25565b6040830152506060613697848285016135a0565b60608301525060806136ab848285016135a0565b60808301525060a06136bf848285016135cc565b60a08301525060c06136d3848285016135f8565b60c08301525060e06136e7848285016135f8565b60e08301525092915050565b60006137066137018461354e565b6133f2565b905080838252602082019050602084028301858111156137295761372861357a565b5b835b8181101561377057803567ffffffffffffffff81111561374e5761374d613388565b5b80860161375b898261360d565b8552602085019450505060208101905061372b565b5050509392505050565b600082601f83011261378f5761378e613388565b5b813561379f8482602086016136f3565b91505092915050565b6000602082840312156137be576137bd612d84565b5b600082013567ffffffffffffffff8111156137dc576137db612d89565b5b6137e88482850161377a565b91505092915050565b6137fa81612e13565b811461380557600080fd5b50565b600081359050613817816137f1565b92915050565b6000806040838503121561383457613833612d84565b5b600061384285828601612fda565b925050602061385385828601613808565b9150509250929050565b600067ffffffffffffffff82111561387857613877613392565b5b61388182612e98565b9050602081019050919050565b60006138a161389c8461385d565b6133f2565b9050828152602081018484840111156138bd576138bc61338d565b5b6138c884828561343e565b509392505050565b600082601f8301126138e5576138e4613388565b5b81356138f584826020860161388e565b91505092915050565b6000806000806080858703121561391857613917612d84565b5b600061392687828801612fda565b945050602061393787828801612fda565b935050604061394887828801612f25565b925050606085013567ffffffffffffffff81111561396957613968612d89565b5b613975878288016138d0565b91505092959194509250565b600080fd5b60008083601f84011261399c5761399b613388565b5b8235905067ffffffffffffffff8111156139b9576139b8613981565b5b6020830191508360018202830111156139d5576139d461357a565b5b9250929050565b6000806000604084860312156139f5576139f4612d84565b5b6000613a0386828701612f25565b935050602084013567ffffffffffffffff811115613a2457613a23612d89565b5b613a3086828701613986565b92509250509250925092565b60008060408385031215613a5357613a52612d84565b5b6000613a6185828601612fda565b9250506020613a7285828601612fda565b9150509250929050565b7f4e487b7100000000000000000000000000000000000000000000000000000000600052602260045260246000fd5b60006002820490506001821680613ac357607f821691505b60208210811415613ad757613ad6613a7c565b5b50919050565b7f4552433732313a20617070726f76656420717565727920666f72206e6f6e657860008201527f697374656e7420746f6b656e0000000000000000000000000000000000000000602082015250565b6000613b39602c83612e54565b9150613b4482613add565b604082019050919050565b60006020820190508181036000830152613b6881613b2c565b9050919050565b7f4552433732313a20617070726f76616c20746f2063757272656e74206f776e6560008201527f7200000000000000000000000000000000000000000000000000000000000000602082015250565b6000613bcb602183612e54565b9150613bd682613b6f565b604082019050919050565b60006020820190508181036000830152613bfa81613bbe565b9050919050565b7f4552433732313a20617070726f76652063616c6c6572206973206e6f74206f7760008201527f6e6572206e6f7220617070726f76656420666f7220616c6c0000000000000000602082015250565b6000613c5d603883612e54565b9150613c6882613c01565b604082019050919050565b60006020820190508181036000830152613c8c81613c50565b9050919050565b7f4e487b7100000000000000000000000000000000000000000000000000000000600052603260045260246000fd5b7f4e487b7100000000000000000000000000000000000000000000000000000000600052601160045260246000fd5b6000613cfc82613107565b915060ff821415613d1057613d0f613cc2565b5b600182019050919050565b7f4f776e61626c653a2063616c6c6572206973206e6f7420746865206f776e6572600082015250565b6000613d51602083612e54565b9150613d5c82613d1b565b602082019050919050565b60006020820190508181036000830152613d8081613d44565b9050919050565b7f4552433732313a207472616e736665722063616c6c6572206973206e6f74206f60008201527f776e6572206e6f7220617070726f766564000000000000000000000000000000602082015250565b6000613de3603183612e54565b9150613dee82613d87565b604082019050919050565b60006020820190508181036000830152613e1281613dd6565b9050919050565b7f4552433732313a206f776e657220717565727920666f72206e6f6e657869737460008201527f656e7420746f6b656e0000000000000000000000000000000000000000000000602082015250565b6000613e75602983612e54565b9150613e8082613e19565b604082019050919050565b60006020820190508181036000830152613ea481613e68565b9050919050565b7f4552433732313a2062616c616e636520717565727920666f7220746865207a6560008201527f726f206164647265737300000000000000000000000000000000000000000000602082015250565b6000613f07602a83612e54565b9150613f1282613eab565b604082019050919050565b60006020820190508181036000830152613f3681613efa565b9050919050565b6000613f4882612f04565b9150613f5383612f04565b925082821015613f6657613f65613cc2565b5b828203905092915050565b6000613f7c82612f04565b9150613f8783612f04565b9250827fffffffffffffffffffffffffffffffffffffffffffffffffffffffffffffffff03821115613fbc57613fbb613cc2565b5b828201905092915050565b6000613fd282612f04565b91507fffffffffffffffffffffffffffffffffffffffffffffffffffffffffffffffff82141561400557614004613cc2565b5b600182019050919050565b7f4552433732314d657461646174613a2055524920717565727920666f72206e6f60008201527f6e6578697374656e7420746f6b656e0000000000000000000000000000000000602082015250565b600061406c602f83612e54565b915061407782614010565b604082019050919050565b6000602082019050818103600083015261409b8161405f565b9050919050565b600081905092915050565b60006140b882612e49565b6140c281856140a2565b93506140d2818560208601612e65565b80840191505092915050565b60006140ea82856140ad565b91506140f682846140ad565b91508190509392505050565b7f4f776e61626c653a206e6577206f776e657220697320746865207a65726f206160008201527f6464726573730000000000000000000000000000000000000000000000000000602082015250565b600061415e602683612e54565b915061416982614102565b604082019050919050565b6000602082019050818103600083015261418d81614151565b9050919050565b7f4552433732313a206f70657261746f7220717565727920666f72206e6f6e657860008201527f697374656e7420746f6b656e0000000000000000000000000000000000000000602082015250565b60006141f0602c83612e54565b91506141fb82614194565b604082019050919050565b6000602082019050818103600083015261421f816141e3565b9050919050565b7f4552433732313a207472616e73666572206f6620746f6b656e2074686174206960008201527f73206e6f74206f776e0000000000000000000000000000000000000000000000602082015250565b6000614282602983612e54565b915061428d82614226565b604082019050919050565b600060208201905081810360008301526142b181614275565b9050919050565b7f4552433732313a207472616e7366657220746f20746865207a65726f2061646460008201527f7265737300000000000000000000000000000000000000000000000000000000602082015250565b6000614314602483612e54565b915061431f826142b8565b604082019050919050565b6000602082019050818103600083015261434381614307565b9050919050565b600060408201905061435f60008301856132c7565b61436c60208301846132c7565b9392505050565b7f4e487b7100000000000000000000000000000000000000000000000000000000600052601260045260246000fd5b60006143ad82612f04565b91506143b883612f04565b9250826143c8576143c7614373565b5b828204905092915050565b60006143de82612f04565b915060008214156143f2576143f1613cc2565b5b600182039050919050565b7f4552433732313a20617070726f766520746f2063616c6c657200000000000000600082015250565b6000614433601983612e54565b915061443e826143fd565b602082019050919050565b6000602082019050818103600083015261446281614426565b9050919050565b7f4552433732313a207472616e7366657220746f206e6f6e20455243373231526560008201527f63656976657220696d706c656d656e7465720000000000000000000000000000602082015250565b60006144c5603283612e54565b91506144d082614469565b604082019050919050565b600060208201905081810360008301526144f4816144b8565b9050919050565b600061450682612f04565b915061451183612f04565b92508261452157614520614373565b5b828206905092915050565b6000819050919050565b61454761454282612f04565b61452c565b82525050565b60008160601b9050919050565b60006145658261454d565b9050919050565b60006145778261455a565b9050919050565b61458f61458a82612f87565b61456c565b82525050565b60006145a18285614536565b6020820191506145b1828461457e565b6014820191508190509392505050565b600081519050919050565b600082825260208201905092915050565b60006145e8826145c1565b6145f281856145cc565b9350614602818560208601612e65565b61460b81612e98565b840191505092915050565b600060808201905061462b6000830187612f99565b6146386020830186612f99565b61464560408301856132c7565b818103606083015261465781846145dd565b905095945050505050565b60008151905061467181612dba565b92915050565b60006020828403121561468d5761468c612d84565b5b600061469b84828501614662565b91505092915050565b7f4552433732313a206d696e7420746f20746865207a65726f2061646472657373600082015250565b60006146da602083612e54565b91506146e5826146a4565b602082019050919050565b60006020820190508181036000830152614709816146cd565b9050919050565b7f4552433732313a20746f6b656e20616c7265616479206d696e74656400000000600082015250565b6000614746601c83612e54565b915061475182614710565b602082019050919050565b6000602082019050818103600083015261477581614739565b905091905056fea264697066735822122040209dec44e1880d5be08a344b0502b785010e6df0c286e540db9f6b2cf834dd64736f6c634300080b0033",
  "immutableReferences": {},
  "source": "// SPDX-License-Identifier: MIT\r\n\r\npragma solidity >=0.4.22 <0.9.0;\r\nimport \"./lipfactory.sol\";\r\n\r\ncontract LipHelper is LipFactory {\r\n  uint256 levelUpFee = 0.01 ether;\r\n  \r\n  modifier aboveLevel(uint256 _level, uint256 _lipId) {\r\n    require(lips[_lipId].level >= _level);\r\n    _;\r\n  }\r\n\r\n  modifier onlyOwnerOf(uint256 _lipId) {\r\n    require(msg.sender == ownerOf(_lipId));\r\n    _;\r\n  }\r\n\r\n  function _triggerCooldown(Lip storage _lip) internal {\r\n    _lip.readyTime = uint32(block.timestamp + cooldownTime);\r\n  }\r\n\r\n  function _isReady(Lip storage _lip) internal view returns (bool) {\r\n    return (_lip.readyTime <= block.timestamp);\r\n  }\r\n\r\n  function withDraw() external payable onlyOwner {\r\n    address payable _owner = payable(owner());\r\n    _owner.transfer(address(this).balance);\r\n  }\r\n\r\n  function setLevelUpFee(uint256 _fee) external onlyOwner {\r\n    levelUpFee = _fee;\r\n  }\r\n\r\n  function levelUp(uint256 _lipId) public payable onlyOwnerOf(_lipId) {\r\n    Lip storage lip = lips[_lipId];\r\n    require(_isReady(lip));\r\n    require(msg.value >= levelUpFee);\r\n    lip.level++;\r\n    _triggerCooldown(lip);\r\n  }\r\n\r\n  function changeName(uint256 _lipId, string calldata _newName)\r\n    external\r\n    aboveLevel(2, _lipId)\r\n    onlyOwnerOf(_lipId)\r\n  {\r\n    Lip storage lip = lips[_lipId];\r\n    lip.name = _newName;\r\n  }\r\n\r\n    function quickSort(Lip[] memory arr, uint256 left, uint256 right) pure internal {\r\n    uint256 i = left;\r\n    uint256 j = right;\r\n    if (i == j) return;\r\n    Lip memory pivot = arr[left + (right - left) / uint256(2)];\r\n    while (i <= j) {\r\n      while (arr[i].level < pivot.level) i++;\r\n      while (pivot.level < arr[j].level) j--;\r\n      if (i <= j) {\r\n        (arr[i], arr[j]) = (arr[j], arr[i]);\r\n        i++;\r\n        j--;\r\n      }\r\n    }\r\n    if (left < j)\r\n      quickSort(arr, left, j);\r\n    if (i < right)\r\n      quickSort(arr, i, right);\r\n  } \r\n\r\n  function sort(Lip[] memory data) public pure returns (Lip[] memory) {\r\n    quickSort(data, uint256(0), uint256(data.length - 1));\r\n    return data;\r\n  }\r\n\r\n  function getAllLips() public view returns (Lip[] memory) {\r\n    Lip[] memory sortData = lips;\r\n    sortData = sort(sortData);\r\n    return sortData;\r\n  }\r\n\r\n  function getEnemy(address _owner) public view returns (Lip[] memory) {\r\n    Lip[] memory result = new Lip[](lips.length - balanceOf(_owner));\r\n    uint256 counter = 0;\r\n    for (uint256 i = 0; i < lips.length; i++) {\r\n      if (ownerOf(i) != _owner) {\r\n        result[counter] = lips[i];\r\n        counter = counter + 1;\r\n      }\r\n    }\r\n    result = sort(result);\r\n    return result;\r\n  }\r\n\r\n  function getOwnerLips(address _owner) public view returns (Lip[] memory) {\r\n    Lip[] memory result = new Lip[](balanceOf(_owner));\r\n    uint256 counter = 0;\r\n    for (uint256 i = 0; i < lips.length; i++) {\r\n      if (ownerOf(i) == _owner) {\r\n        result[counter] = lips[i];\r\n        counter = counter + 1;\r\n      }\r\n    }\r\n    return result;\r\n  }\r\n}",
  "sourcePath": "C:\\Github\\nft_game\\src\\contracts\\liphelper.sol",
  "compiler": {
    "name": "solc",
    "version": "0.8.11+commit.d7f03943.Emscripten.clang"
  },
  "schemaVersion": "3.4.4",
  "updatedAt": "2022-02-24T05:58:25.230Z",
  "devdoc": {
    "kind": "dev",
    "methods": {
      "approve(address,uint256)": {
        "details": "See {IERC721-approve}."
      },
      "balanceOf(address)": {
        "details": "See {IERC721-balanceOf}."
      },
      "getApproved(uint256)": {
        "details": "See {IERC721-getApproved}."
      },
      "isApprovedForAll(address,address)": {
        "details": "See {IERC721-isApprovedForAll}."
      },
      "name()": {
        "details": "See {IERC721Metadata-name}."
      },
      "owner()": {
        "details": "Returns the address of the current owner."
      },
      "ownerOf(uint256)": {
        "details": "See {IERC721-ownerOf}."
      },
      "renounceOwnership()": {
        "details": "Leaves the contract without owner. It will not be possible to call `onlyOwner` functions anymore. Can only be called by the current owner. NOTE: Renouncing ownership will leave the contract without an owner, thereby removing any functionality that is only available to the owner."
      },
      "safeTransferFrom(address,address,uint256)": {
        "details": "See {IERC721-safeTransferFrom}."
      },
      "safeTransferFrom(address,address,uint256,bytes)": {
        "details": "See {IERC721-safeTransferFrom}."
      },
      "setApprovalForAll(address,bool)": {
        "details": "See {IERC721-setApprovalForAll}."
      },
      "supportsInterface(bytes4)": {
        "details": "See {IERC165-supportsInterface}."
      },
      "symbol()": {
        "details": "See {IERC721Metadata-symbol}."
      },
      "tokenURI(uint256)": {
        "details": "See {IERC721Metadata-tokenURI}."
      },
      "transferFrom(address,address,uint256)": {
        "details": "See {IERC721-transferFrom}."
      },
      "transferOwnership(address)": {
        "details": "Transfers ownership of the contract to a new account (`newOwner`). Can only be called by the current owner."
      }
    },
    "version": 1
  },
  "userdoc": {
    "kind": "user",
    "methods": {},
    "version": 1
  }
}