{
  "contractName": "LipToken",
  "abi": [
    {
      "inputs": [],
      "stateMutability": "nonpayable",
      "type": "constructor"
    },
    {
      "anonymous": false,
      "inputs": [
        {
          "indexed": true,
          "internalType": "address",
          "name": "owner",
          "type": "address"
        },
        {
          "indexed": true,
          "internalType": "address",
          "name": "approved",
          "type": "address"
        },
        {
          "indexed": true,
          "internalType": "uint256",
          "name": "tokenId",
          "type": "uint256"
        }
      ],
      "name": "Approval",
      "type": "event"
    },
    {
      "anonymous": false,
      "inputs": [
        {
          "indexed": true,
          "internalType": "address",
          "name": "owner",
          "type": "address"
        },
        {
          "indexed": true,
          "internalType": "address",
          "name": "operator",
          "type": "address"
        },
        {
          "indexed": false,
          "internalType": "bool",
          "name": "approved",
          "type": "bool"
        }
      ],
      "name": "ApprovalForAll",
      "type": "event"
    },
    {
      "anonymous": false,
      "inputs": [
        {
          "indexed": true,
          "internalType": "address",
          "name": "owner",
          "type": "address"
        },
        {
          "indexed": false,
          "internalType": "uint256",
          "name": "id",
          "type": "uint256"
        },
        {
          "indexed": false,
          "internalType": "uint256",
          "name": "dna",
          "type": "uint256"
        }
      ],
      "name": "NewLipCreated",
      "type": "event"
    },
    {
      "anonymous": false,
      "inputs": [
        {
          "indexed": true,
          "internalType": "address",
          "name": "previousOwner",
          "type": "address"
        },
        {
          "indexed": true,
          "internalType": "address",
          "name": "newOwner",
          "type": "address"
        }
      ],
      "name": "OwnershipTransferred",
      "type": "event"
    },
    {
      "anonymous": false,
      "inputs": [
        {
          "indexed": true,
          "internalType": "address",
          "name": "from",
          "type": "address"
        },
        {
          "indexed": true,
          "internalType": "address",
          "name": "to",
          "type": "address"
        },
        {
          "indexed": true,
          "internalType": "uint256",
          "name": "tokenId",
          "type": "uint256"
        }
      ],
      "name": "Transfer",
      "type": "event"
    },
    {
      "inputs": [
        {
          "internalType": "address",
          "name": "to",
          "type": "address"
        },
        {
          "internalType": "uint256",
          "name": "tokenId",
          "type": "uint256"
        }
      ],
      "name": "approve",
      "outputs": [],
      "stateMutability": "nonpayable",
      "type": "function"
    },
    {
      "inputs": [
        {
          "internalType": "address",
          "name": "owner",
          "type": "address"
        }
      ],
      "name": "balanceOf",
      "outputs": [
        {
          "internalType": "uint256",
          "name": "",
          "type": "uint256"
        }
      ],
      "stateMutability": "view",
      "type": "function",
      "constant": true
    },
    {
      "inputs": [
        {
          "internalType": "uint256",
          "name": "tokenId",
          "type": "uint256"
        }
      ],
      "name": "getApproved",
      "outputs": [
        {
          "internalType": "address",
          "name": "",
          "type": "address"
        }
      ],
      "stateMutability": "view",
      "type": "function",
      "constant": true
    },
    {
      "inputs": [
        {
          "internalType": "address",
          "name": "owner",
          "type": "address"
        },
        {
          "internalType": "address",
          "name": "operator",
          "type": "address"
        }
      ],
      "name": "isApprovedForAll",
      "outputs": [
        {
          "internalType": "bool",
          "name": "",
          "type": "bool"
        }
      ],
      "stateMutability": "view",
      "type": "function",
      "constant": true
    },
    {
      "inputs": [
        {
          "internalType": "uint256",
          "name": "",
          "type": "uint256"
        }
      ],
      "name": "lips",
      "outputs": [
        {
          "internalType": "string",
          "name": "name",
          "type": "string"
        },
        {
          "internalType": "uint256",
          "name": "id",
          "type": "uint256"
        },
        {
          "internalType": "uint256",
          "name": "dna",
          "type": "uint256"
        },
        {
          "internalType": "uint8",
          "name": "level",
          "type": "uint8"
        },
        {
          "internalType": "uint8",
          "name": "rarity",
          "type": "uint8"
        }
      ],
      "stateMutability": "view",
      "type": "function",
      "constant": true
    },
    {
      "inputs": [],
      "name": "name",
      "outputs": [
        {
          "internalType": "string",
          "name": "",
          "type": "string"
        }
      ],
      "stateMutability": "view",
      "type": "function",
      "constant": true
    },
    {
      "inputs": [],
      "name": "owner",
      "outputs": [
        {
          "internalType": "address",
          "name": "",
          "type": "address"
        }
      ],
      "stateMutability": "view",
      "type": "function",
      "constant": true
    },
    {
      "inputs": [
        {
          "internalType": "uint256",
          "name": "tokenId",
          "type": "uint256"
        }
      ],
      "name": "ownerOf",
      "outputs": [
        {
          "internalType": "address",
          "name": "",
          "type": "address"
        }
      ],
      "stateMutability": "view",
      "type": "function",
      "constant": true
    },
    {
      "inputs": [],
      "name": "renounceOwnership",
      "outputs": [],
      "stateMutability": "nonpayable",
      "type": "function"
    },
    {
      "inputs": [
        {
          "internalType": "address",
          "name": "from",
          "type": "address"
        },
        {
          "internalType": "address",
          "name": "to",
          "type": "address"
        },
        {
          "internalType": "uint256",
          "name": "tokenId",
          "type": "uint256"
        }
      ],
      "name": "safeTransferFrom",
      "outputs": [],
      "stateMutability": "nonpayable",
      "type": "function"
    },
    {
      "inputs": [
        {
          "internalType": "address",
          "name": "from",
          "type": "address"
        },
        {
          "internalType": "address",
          "name": "to",
          "type": "address"
        },
        {
          "internalType": "uint256",
          "name": "tokenId",
          "type": "uint256"
        },
        {
          "internalType": "bytes",
          "name": "_data",
          "type": "bytes"
        }
      ],
      "name": "safeTransferFrom",
      "outputs": [],
      "stateMutability": "nonpayable",
      "type": "function"
    },
    {
      "inputs": [
        {
          "internalType": "address",
          "name": "operator",
          "type": "address"
        },
        {
          "internalType": "bool",
          "name": "approved",
          "type": "bool"
        }
      ],
      "name": "setApprovalForAll",
      "outputs": [],
      "stateMutability": "nonpayable",
      "type": "function"
    },
    {
      "inputs": [
        {
          "internalType": "bytes4",
          "name": "interfaceId",
          "type": "bytes4"
        }
      ],
      "name": "supportsInterface",
      "outputs": [
        {
          "internalType": "bool",
          "name": "",
          "type": "bool"
        }
      ],
      "stateMutability": "view",
      "type": "function",
      "constant": true
    },
    {
      "inputs": [],
      "name": "symbol",
      "outputs": [
        {
          "internalType": "string",
          "name": "",
          "type": "string"
        }
      ],
      "stateMutability": "view",
      "type": "function",
      "constant": true
    },
    {
      "inputs": [
        {
          "internalType": "uint256",
          "name": "tokenId",
          "type": "uint256"
        }
      ],
      "name": "tokenURI",
      "outputs": [
        {
          "internalType": "string",
          "name": "",
          "type": "string"
        }
      ],
      "stateMutability": "view",
      "type": "function",
      "constant": true
    },
    {
      "inputs": [
        {
          "internalType": "address",
          "name": "from",
          "type": "address"
        },
        {
          "internalType": "address",
          "name": "to",
          "type": "address"
        },
        {
          "internalType": "uint256",
          "name": "tokenId",
          "type": "uint256"
        }
      ],
      "name": "transferFrom",
      "outputs": [],
      "stateMutability": "nonpayable",
      "type": "function"
    },
    {
      "inputs": [
        {
          "internalType": "address",
          "name": "newOwner",
          "type": "address"
        }
      ],
      "name": "transferOwnership",
      "outputs": [],
      "stateMutability": "nonpayable",
      "type": "function"
    },
    {
      "inputs": [
        {
          "internalType": "uint256",
          "name": "_fee",
          "type": "uint256"
        }
      ],
      "name": "updateFee",
      "outputs": [],
      "stateMutability": "nonpayable",
      "type": "function"
    },
    {
      "inputs": [],
      "name": "withDraw",
      "outputs": [],
      "stateMutability": "payable",
      "type": "function",
      "payable": true
    },
    {
      "inputs": [
        {
          "internalType": "string",
          "name": "_name",
          "type": "string"
        }
      ],
      "name": "createRandomLip",
      "outputs": [],
      "stateMutability": "payable",
      "type": "function",
      "payable": true
    },
    {
      "inputs": [],
      "name": "getLips",
      "outputs": [
        {
          "components": [
            {
              "internalType": "string",
              "name": "name",
              "type": "string"
            },
            {
              "internalType": "uint256",
              "name": "id",
              "type": "uint256"
            },
            {
              "internalType": "uint256",
              "name": "dna",
              "type": "uint256"
            },
            {
              "internalType": "uint8",
              "name": "level",
              "type": "uint8"
            },
            {
              "internalType": "uint8",
              "name": "rarity",
              "type": "uint8"
            }
          ],
          "internalType": "struct LipToken.Lip[]",
          "name": "",
          "type": "tuple[]"
        }
      ],
      "stateMutability": "view",
      "type": "function",
      "constant": true
    },
    {
      "inputs": [
        {
          "internalType": "address",
          "name": "_owner",
          "type": "address"
        }
      ],
      "name": "getAddressLips",
      "outputs": [
        {
          "components": [
            {
              "internalType": "string",
              "name": "name",
              "type": "string"
            },
            {
              "internalType": "uint256",
              "name": "id",
              "type": "uint256"
            },
            {
              "internalType": "uint256",
              "name": "dna",
              "type": "uint256"
            },
            {
              "internalType": "uint8",
              "name": "level",
              "type": "uint8"
            },
            {
              "internalType": "uint8",
              "name": "rarity",
              "type": "uint8"
            }
          ],
          "internalType": "struct LipToken.Lip[]",
          "name": "",
          "type": "tuple[]"
        }
      ],
      "stateMutability": "view",
      "type": "function",
      "constant": true
    }
  ],
  "bytecode": "0x60806040526000600755662386f26fc100006008553480156200002157600080fd5b506040518060400160405280600981526020017f4c697020546f6b656e00000000000000000000000000000000000000000000008152506040518060400160405280600381526020017f4c505400000000000000000000000000000000000000000000000000000000008152508160009080519060200190620000a6929190620001b6565b508060019080519060200190620000bf929190620001b6565b505050620000e2620000d6620000e860201b60201c565b620000f060201b60201c565b620002cb565b600033905090565b6000600660009054906101000a900473ffffffffffffffffffffffffffffffffffffffff16905081600660006101000a81548173ffffffffffffffffffffffffffffffffffffffff021916908373ffffffffffffffffffffffffffffffffffffffff1602179055508173ffffffffffffffffffffffffffffffffffffffff168173ffffffffffffffffffffffffffffffffffffffff167f8be0079c531659141344cd1fd0a4f28419497f9722a3daafe3b4186f6b6457e060405160405180910390a35050565b828054620001c49062000295565b90600052602060002090601f016020900481019282620001e8576000855562000234565b82601f106200020357805160ff191683800117855562000234565b8280016001018555821562000234579182015b828111156200023357825182559160200191906001019062000216565b5b50905062000243919062000247565b5090565b5b808211156200026257600081600090555060010162000248565b5090565b7f4e487b7100000000000000000000000000000000000000000000000000000000600052602260045260246000fd5b60006002820490506001821680620002ae57607f821691505b60208210811415620002c557620002c462000266565b5b50919050565b6138ec80620002db6000396000f3fe6080604052600436106101355760003560e01c806370a08231116100ab57806395d89b411161006f57806395d89b411461040e578063a22cb46514610439578063b88d4fde14610462578063c87b56dd1461048b578063e985e9c5146104c8578063f2fde38b1461050557610135565b806370a082311461033b578063715018a61461037857806383b5daf71461038f5780638da5cb5b146103ba5780639012c4a8146103e557610135565b806323b872dd116100fd57806323b872dd1461021257806342842e0e1461023b5780635aa4ede0146102645780635ec163db146102a15780636352211e146102e2578063698d640c1461031f57610135565b806301ffc9a71461013a57806306fdde0314610177578063081812fc146101a2578063095ea7b3146101df5780630fdb1c1014610208575b600080fd5b34801561014657600080fd5b50610161600480360381019061015c9190612391565b61052e565b60405161016e91906123d9565b60405180910390f35b34801561018357600080fd5b5061018c610610565b604051610199919061248d565b60405180910390f35b3480156101ae57600080fd5b506101c960048036038101906101c491906124e5565b6106a2565b6040516101d69190612553565b60405180910390f35b3480156101eb57600080fd5b506102066004803603810190610201919061259a565b610727565b005b61021061083f565b005b34801561021e57600080fd5b50610239600480360381019061023491906125da565b610911565b005b34801561024757600080fd5b50610262600480360381019061025d91906125da565b610971565b005b34801561027057600080fd5b5061028b6004803603810190610286919061262d565b610991565b6040516102989190612807565b60405180910390f35b3480156102ad57600080fd5b506102c860048036038101906102c391906124e5565b610b0f565b6040516102d9959493929190612847565b60405180910390f35b3480156102ee57600080fd5b50610309600480360381019061030491906124e5565b610bf7565b6040516103169190612553565b60405180910390f35b610339600480360381019061033491906129d6565b610ca9565b005b34801561034757600080fd5b50610362600480360381019061035d919061262d565b610cc4565b60405161036f9190612a1f565b60405180910390f35b34801561038457600080fd5b5061038d610d7c565b005b34801561039b57600080fd5b506103a4610e04565b6040516103b19190612807565b60405180910390f35b3480156103c657600080fd5b506103cf610f43565b6040516103dc9190612553565b60405180910390f35b3480156103f157600080fd5b5061040c600480360381019061040791906124e5565b610f6d565b005b34801561041a57600080fd5b50610423610ff3565b604051610430919061248d565b60405180910390f35b34801561044557600080fd5b50610460600480360381019061045b9190612a66565b611085565b005b34801561046e57600080fd5b5061048960048036038101906104849190612b47565b61109b565b005b34801561049757600080fd5b506104b260048036038101906104ad91906124e5565b6110fd565b6040516104bf919061248d565b60405180910390f35b3480156104d457600080fd5b506104ef60048036038101906104ea9190612bca565b6111a4565b6040516104fc91906123d9565b60405180910390f35b34801561051157600080fd5b5061052c6004803603810190610527919061262d565b611238565b005b60007f80ac58cd000000000000000000000000000000000000000000000000000000007bffffffffffffffffffffffffffffffffffffffffffffffffffffffff1916827bffffffffffffffffffffffffffffffffffffffffffffffffffffffff191614806105f957507f5b5e139f000000000000000000000000000000000000000000000000000000007bffffffffffffffffffffffffffffffffffffffffffffffffffffffff1916827bffffffffffffffffffffffffffffffffffffffffffffffffffffffff1916145b80610609575061060882611330565b5b9050919050565b60606000805461061f90612c39565b80601f016020809104026020016040519081016040528092919081815260200182805461064b90612c39565b80156106985780601f1061066d57610100808354040283529160200191610698565b820191906000526020600020905b81548152906001019060200180831161067b57829003601f168201915b5050505050905090565b60006106ad8261139a565b6106ec576040517f08c379a00000000000000000000000000000000000000000000000000000000081526004016106e390612cdd565b60405180910390fd5b6004600083815260200190815260200160002060009054906101000a900473ffffffffffffffffffffffffffffffffffffffff169050919050565b600061073282610bf7565b90508073ffffffffffffffffffffffffffffffffffffffff168373ffffffffffffffffffffffffffffffffffffffff1614156107a3576040517f08c379a000000000000000000000000000000000000000000000000000000000815260040161079a90612d6f565b60405180910390fd5b8073ffffffffffffffffffffffffffffffffffffffff166107c2611406565b73ffffffffffffffffffffffffffffffffffffffff1614806107f157506107f0816107eb611406565b6111a4565b5b610830576040517f08c379a000000000000000000000000000000000000000000000000000000000815260040161082790612e01565b60405180910390fd5b61083a838361140e565b505050565b610847611406565b73ffffffffffffffffffffffffffffffffffffffff16610865610f43565b73ffffffffffffffffffffffffffffffffffffffff16146108bb576040517f08c379a00000000000000000000000000000000000000000000000000000000081526004016108b290612e6d565b60405180910390fd5b60006108c5610f43565b90508073ffffffffffffffffffffffffffffffffffffffff166108fc479081150290604051600060405180830381858888f1935050505015801561090d573d6000803e3d6000fd5b5050565b61092261091c611406565b826114c7565b610961576040517f08c379a000000000000000000000000000000000000000000000000000000000815260040161095890612eff565b60405180910390fd5b61096c8383836115a5565b505050565b61098c8383836040518060200160405280600081525061109b565b505050565b6060600a60008373ffffffffffffffffffffffffffffffffffffffff1673ffffffffffffffffffffffffffffffffffffffff168152602001908152602001600020805480602002602001604051908101604052809291908181526020016000905b82821015610b0457838290600052602060002090600402016040518060a0016040529081600082018054610a2590612c39565b80601f0160208091040260200160405190810160405280929190818152602001828054610a5190612c39565b8015610a9e5780601f10610a7357610100808354040283529160200191610a9e565b820191906000526020600020905b815481529060010190602001808311610a8157829003601f168201915b5050505050815260200160018201548152602001600282015481526020016003820160009054906101000a900460ff1660ff1660ff1681526020016003820160019054906101000a900460ff1660ff1660ff1681525050815260200190600101906109f2565b505050509050919050565b60098181548110610b1f57600080fd5b9060005260206000209060040201600091509050806000018054610b4290612c39565b80601f0160208091040260200160405190810160405280929190818152602001828054610b6e90612c39565b8015610bbb5780601f10610b9057610100808354040283529160200191610bbb565b820191906000526020600020905b815481529060010190602001808311610b9e57829003601f168201915b5050505050908060010154908060020154908060030160009054906101000a900460ff16908060030160019054906101000a900460ff16905085565b6000806002600084815260200190815260200160002060009054906101000a900473ffffffffffffffffffffffffffffffffffffffff169050600073ffffffffffffffffffffffffffffffffffffffff168173ffffffffffffffffffffffffffffffffffffffff161415610ca0576040517f08c379a0000000000000000000000000000000000000000000000000000000008152600401610c9790612f91565b60405180910390fd5b80915050919050565b600854341015610cb857600080fd5b610cc181611801565b50565b60008073ffffffffffffffffffffffffffffffffffffffff168273ffffffffffffffffffffffffffffffffffffffff161415610d35576040517f08c379a0000000000000000000000000000000000000000000000000000000008152600401610d2c90613023565b60405180910390fd5b600360008373ffffffffffffffffffffffffffffffffffffffff1673ffffffffffffffffffffffffffffffffffffffff168152602001908152602001600020549050919050565b610d84611406565b73ffffffffffffffffffffffffffffffffffffffff16610da2610f43565b73ffffffffffffffffffffffffffffffffffffffff1614610df8576040517f08c379a0000000000000000000000000000000000000000000000000000000008152600401610def90612e6d565b60405180910390fd5b610e026000611a4f565b565b60606009805480602002602001604051908101604052809291908181526020016000905b82821015610f3a57838290600052602060002090600402016040518060a0016040529081600082018054610e5b90612c39565b80601f0160208091040260200160405190810160405280929190818152602001828054610e8790612c39565b8015610ed45780601f10610ea957610100808354040283529160200191610ed4565b820191906000526020600020905b815481529060010190602001808311610eb757829003601f168201915b5050505050815260200160018201548152602001600282015481526020016003820160009054906101000a900460ff1660ff1660ff1681526020016003820160019054906101000a900460ff1660ff1660ff168152505081526020019060010190610e28565b50505050905090565b6000600660009054906101000a900473ffffffffffffffffffffffffffffffffffffffff16905090565b610f75611406565b73ffffffffffffffffffffffffffffffffffffffff16610f93610f43565b73ffffffffffffffffffffffffffffffffffffffff1614610fe9576040517f08c379a0000000000000000000000000000000000000000000000000000000008152600401610fe090612e6d565b60405180910390fd5b8060088190555050565b60606001805461100290612c39565b80601f016020809104026020016040519081016040528092919081815260200182805461102e90612c39565b801561107b5780601f106110505761010080835404028352916020019161107b565b820191906000526020600020905b81548152906001019060200180831161105e57829003601f168201915b5050505050905090565b611097611090611406565b8383611b15565b5050565b6110ac6110a6611406565b836114c7565b6110eb576040517f08c379a00000000000000000000000000000000000000000000000000000000081526004016110e290612eff565b60405180910390fd5b6110f784848484611c82565b50505050565b60606111088261139a565b611147576040517f08c379a000000000000000000000000000000000000000000000000000000000815260040161113e906130b5565b60405180910390fd5b6000611151611cde565b90506000815111611171576040518060200160405280600081525061119c565b8061117b84611cf5565b60405160200161118c929190613111565b6040516020818303038152906040525b915050919050565b6000600560008473ffffffffffffffffffffffffffffffffffffffff1673ffffffffffffffffffffffffffffffffffffffff16815260200190815260200160002060008373ffffffffffffffffffffffffffffffffffffffff1673ffffffffffffffffffffffffffffffffffffffff16815260200190815260200160002060009054906101000a900460ff16905092915050565b611240611406565b73ffffffffffffffffffffffffffffffffffffffff1661125e610f43565b73ffffffffffffffffffffffffffffffffffffffff16146112b4576040517f08c379a00000000000000000000000000000000000000000000000000000000081526004016112ab90612e6d565b60405180910390fd5b600073ffffffffffffffffffffffffffffffffffffffff168173ffffffffffffffffffffffffffffffffffffffff161415611324576040517f08c379a000000000000000000000000000000000000000000000000000000000815260040161131b906131a7565b60405180910390fd5b61132d81611a4f565b50565b60007f01ffc9a7000000000000000000000000000000000000000000000000000000007bffffffffffffffffffffffffffffffffffffffffffffffffffffffff1916827bffffffffffffffffffffffffffffffffffffffffffffffffffffffff1916149050919050565b60008073ffffffffffffffffffffffffffffffffffffffff166002600084815260200190815260200160002060009054906101000a900473ffffffffffffffffffffffffffffffffffffffff1673ffffffffffffffffffffffffffffffffffffffff1614159050919050565b600033905090565b816004600083815260200190815260200160002060006101000a81548173ffffffffffffffffffffffffffffffffffffffff021916908373ffffffffffffffffffffffffffffffffffffffff160217905550808273ffffffffffffffffffffffffffffffffffffffff1661148183610bf7565b73ffffffffffffffffffffffffffffffffffffffff167f8c5be1e5ebec7d5bd14f71427d1e84f3dd0314c0f7b2291e5b200ac8c7c3b92560405160405180910390a45050565b60006114d28261139a565b611511576040517f08c379a000000000000000000000000000000000000000000000000000000000815260040161150890613239565b60405180910390fd5b600061151c83610bf7565b90508073ffffffffffffffffffffffffffffffffffffffff168473ffffffffffffffffffffffffffffffffffffffff16148061158b57508373ffffffffffffffffffffffffffffffffffffffff16611573846106a2565b73ffffffffffffffffffffffffffffffffffffffff16145b8061159c575061159b81856111a4565b5b91505092915050565b8273ffffffffffffffffffffffffffffffffffffffff166115c582610bf7565b73ffffffffffffffffffffffffffffffffffffffff161461161b576040517f08c379a0000000000000000000000000000000000000000000000000000000008152600401611612906132cb565b60405180910390fd5b600073ffffffffffffffffffffffffffffffffffffffff168273ffffffffffffffffffffffffffffffffffffffff16141561168b576040517f08c379a00000000000000000000000000000000000000000000000000000000081526004016116829061335d565b60405180910390fd5b611696838383611e56565b6116a160008261140e565b6001600360008573ffffffffffffffffffffffffffffffffffffffff1673ffffffffffffffffffffffffffffffffffffffff16815260200190815260200160002060008282546116f191906133ac565b925050819055506001600360008473ffffffffffffffffffffffffffffffffffffffff1673ffffffffffffffffffffffffffffffffffffffff168152602001908152602001600020600082825461174891906133e0565b92505081905550816002600083815260200190815260200160002060006101000a81548173ffffffffffffffffffffffffffffffffffffffff021916908373ffffffffffffffffffffffffffffffffffffffff160217905550808273ffffffffffffffffffffffffffffffffffffffff168473ffffffffffffffffffffffffffffffffffffffff167fddf252ad1be2c89b69c2b068fc378daa952ba7f163c4a11628f55a4df523b3ef60405160405180910390a4505050565b600160075461181091906133e0565b6007819055506000611828662386f26fc10000611e5b565b905060006118366064611e5b565b905060006040518060a001604052808581526020016007548152602001848152602001600160ff1681526020018360ff168152509050600981908060018154018082558091505060019003906000526020600020906004020160009091909190915060008201518160000190805190602001906118b4929190612282565b50602082015181600101556040820151816002015560608201518160030160006101000a81548160ff021916908360ff16021790555060808201518160030160016101000a81548160ff021916908360ff1602179055505050600a60003373ffffffffffffffffffffffffffffffffffffffff1673ffffffffffffffffffffffffffffffffffffffff1681526020019081526020016000208190806001815401808255809150506001900390600052602060002090600402016000909190919091506000820151816000019080519060200190611992929190612282565b50602082015181600101556040820151816002015560608201518160030160006101000a81548160ff021916908360ff16021790555060808201518160030160016101000a81548160ff021916908360ff16021790555050506119f733600754611ea0565b3373ffffffffffffffffffffffffffffffffffffffff167f29c4292b8838988609f9bd8e9042f7e77158b1f5ebfcae6494b7b709c3d20ffc60075485604051611a41929190613436565b60405180910390a250505050565b6000600660009054906101000a900473ffffffffffffffffffffffffffffffffffffffff16905081600660006101000a81548173ffffffffffffffffffffffffffffffffffffffff021916908373ffffffffffffffffffffffffffffffffffffffff1602179055508173ffffffffffffffffffffffffffffffffffffffff168173ffffffffffffffffffffffffffffffffffffffff167f8be0079c531659141344cd1fd0a4f28419497f9722a3daafe3b4186f6b6457e060405160405180910390a35050565b8173ffffffffffffffffffffffffffffffffffffffff168373ffffffffffffffffffffffffffffffffffffffff161415611b84576040517f08c379a0000000000000000000000000000000000000000000000000000000008152600401611b7b906134ab565b60405180910390fd5b80600560008573ffffffffffffffffffffffffffffffffffffffff1673ffffffffffffffffffffffffffffffffffffffff16815260200190815260200160002060008473ffffffffffffffffffffffffffffffffffffffff1673ffffffffffffffffffffffffffffffffffffffff16815260200190815260200160002060006101000a81548160ff0219169083151502179055508173ffffffffffffffffffffffffffffffffffffffff168373ffffffffffffffffffffffffffffffffffffffff167f17307eab39ab6107e8899845ad3d59bd9653f200f220920489ca2b5937696c3183604051611c7591906123d9565b60405180910390a3505050565b611c8d8484846115a5565b611c9984848484611ebe565b611cd8576040517f08c379a0000000000000000000000000000000000000000000000000000000008152600401611ccf9061353d565b60405180910390fd5b50505050565b606060405180602001604052806000815250905090565b60606000821415611d3d576040518060400160405280600181526020017f30000000000000000000000000000000000000000000000000000000000000008152509050611e51565b600082905060005b60008214611d6f578080611d589061355d565b915050600a82611d6891906135d5565b9150611d45565b60008167ffffffffffffffff811115611d8b57611d8a6128ab565b5b6040519080825280601f01601f191660200182016040528015611dbd5781602001600182028036833780820191505090505b5090505b60008514611e4a57600182611dd691906133ac565b9150600a85611de59190613606565b6030611df191906133e0565b60f81b818381518110611e0757611e06613637565b5b60200101907effffffffffffffffffffffffffffffffffffffffffffffffffffffffffffff1916908160001a905350600a85611e4391906135d5565b9450611dc1565b8093505050505b919050565b505050565b6000804233604051602001611e719291906136cf565b6040516020818303038152906040528051906020012060001c90508281611e989190613606565b915050919050565b611eba828260405180602001604052806000815250612046565b5050565b6000611edf8473ffffffffffffffffffffffffffffffffffffffff166120a1565b15612039578373ffffffffffffffffffffffffffffffffffffffff1663150b7a02611f08611406565b8786866040518563ffffffff1660e01b8152600401611f2a9493929190613750565b6020604051808303816000875af1925050508015611f6657506040513d601f19601f82011682018060405250810190611f6391906137b1565b60015b611fe9573d8060008114611f96576040519150601f19603f3d011682016040523d82523d6000602084013e611f9b565b606091505b50600081511415611fe1576040517f08c379a0000000000000000000000000000000000000000000000000000000008152600401611fd89061353d565b60405180910390fd5b805181602001fd5b63150b7a0260e01b7bffffffffffffffffffffffffffffffffffffffffffffffffffffffff1916817bffffffffffffffffffffffffffffffffffffffffffffffffffffffff19161491505061203e565b600190505b949350505050565b61205083836120b4565b61205d6000848484611ebe565b61209c576040517f08c379a00000000000000000000000000000000000000000000000000000000081526004016120939061353d565b60405180910390fd5b505050565b600080823b905060008111915050919050565b600073ffffffffffffffffffffffffffffffffffffffff168273ffffffffffffffffffffffffffffffffffffffff161415612124576040517f08c379a000000000000000000000000000000000000000000000000000000000815260040161211b9061382a565b60405180910390fd5b61212d8161139a565b1561216d576040517f08c379a000000000000000000000000000000000000000000000000000000000815260040161216490613896565b60405180910390fd5b61217960008383611e56565b6001600360008473ffffffffffffffffffffffffffffffffffffffff1673ffffffffffffffffffffffffffffffffffffffff16815260200190815260200160002060008282546121c991906133e0565b92505081905550816002600083815260200190815260200160002060006101000a81548173ffffffffffffffffffffffffffffffffffffffff021916908373ffffffffffffffffffffffffffffffffffffffff160217905550808273ffffffffffffffffffffffffffffffffffffffff16600073ffffffffffffffffffffffffffffffffffffffff167fddf252ad1be2c89b69c2b068fc378daa952ba7f163c4a11628f55a4df523b3ef60405160405180910390a45050565b82805461228e90612c39565b90600052602060002090601f0160209004810192826122b057600085556122f7565b82601f106122c957805160ff19168380011785556122f7565b828001600101855582156122f7579182015b828111156122f65782518255916020019190600101906122db565b5b5090506123049190612308565b5090565b5b80821115612321576000816000905550600101612309565b5090565b6000604051905090565b600080fd5b600080fd5b60007fffffffff0000000000000000000000000000000000000000000000000000000082169050919050565b61236e81612339565b811461237957600080fd5b50565b60008135905061238b81612365565b92915050565b6000602082840312156123a7576123a661232f565b5b60006123b58482850161237c565b91505092915050565b60008115159050919050565b6123d3816123be565b82525050565b60006020820190506123ee60008301846123ca565b92915050565b600081519050919050565b600082825260208201905092915050565b60005b8381101561242e578082015181840152602081019050612413565b8381111561243d576000848401525b50505050565b6000601f19601f8301169050919050565b600061245f826123f4565b61246981856123ff565b9350612479818560208601612410565b61248281612443565b840191505092915050565b600060208201905081810360008301526124a78184612454565b905092915050565b6000819050919050565b6124c2816124af565b81146124cd57600080fd5b50565b6000813590506124df816124b9565b92915050565b6000602082840312156124fb576124fa61232f565b5b6000612509848285016124d0565b91505092915050565b600073ffffffffffffffffffffffffffffffffffffffff82169050919050565b600061253d82612512565b9050919050565b61254d81612532565b82525050565b60006020820190506125686000830184612544565b92915050565b61257781612532565b811461258257600080fd5b50565b6000813590506125948161256e565b92915050565b600080604083850312156125b1576125b061232f565b5b60006125bf85828601612585565b92505060206125d0858286016124d0565b9150509250929050565b6000806000606084860312156125f3576125f261232f565b5b600061260186828701612585565b935050602061261286828701612585565b9250506040612623868287016124d0565b9150509250925092565b6000602082840312156126435761264261232f565b5b600061265184828501612585565b91505092915050565b600081519050919050565b600082825260208201905092915050565b6000819050602082019050919050565b600082825260208201905092915050565b60006126a2826123f4565b6126ac8185612686565b93506126bc818560208601612410565b6126c581612443565b840191505092915050565b6126d9816124af565b82525050565b600060ff82169050919050565b6126f5816126df565b82525050565b600060a08301600083015184820360008601526127188282612697565b915050602083015161272d60208601826126d0565b50604083015161274060408601826126d0565b50606083015161275360608601826126ec565b50608083015161276660808601826126ec565b508091505092915050565b600061277d83836126fb565b905092915050565b6000602082019050919050565b600061279d8261265a565b6127a78185612665565b9350836020820285016127b985612676565b8060005b858110156127f557848403895281516127d68582612771565b94506127e183612785565b925060208a019950506001810190506127bd565b50829750879550505050505092915050565b600060208201905081810360008301526128218184612792565b905092915050565b612832816124af565b82525050565b612841816126df565b82525050565b600060a08201905081810360008301526128618188612454565b90506128706020830187612829565b61287d6040830186612829565b61288a6060830185612838565b6128976080830184612838565b9695505050505050565b600080fd5b600080fd5b7f4e487b7100000000000000000000000000000000000000000000000000000000600052604160045260246000fd5b6128e382612443565b810181811067ffffffffffffffff82111715612902576129016128ab565b5b80604052505050565b6000612915612325565b905061292182826128da565b919050565b600067ffffffffffffffff821115612941576129406128ab565b5b61294a82612443565b9050602081019050919050565b82818337600083830152505050565b600061297961297484612926565b61290b565b905082815260208101848484011115612995576129946128a6565b5b6129a0848285612957565b509392505050565b600082601f8301126129bd576129bc6128a1565b5b81356129cd848260208601612966565b91505092915050565b6000602082840312156129ec576129eb61232f565b5b600082013567ffffffffffffffff811115612a0a57612a09612334565b5b612a16848285016129a8565b91505092915050565b6000602082019050612a346000830184612829565b92915050565b612a43816123be565b8114612a4e57600080fd5b50565b600081359050612a6081612a3a565b92915050565b60008060408385031215612a7d57612a7c61232f565b5b6000612a8b85828601612585565b9250506020612a9c85828601612a51565b9150509250929050565b600067ffffffffffffffff821115612ac157612ac06128ab565b5b612aca82612443565b9050602081019050919050565b6000612aea612ae584612aa6565b61290b565b905082815260208101848484011115612b0657612b056128a6565b5b612b11848285612957565b509392505050565b600082601f830112612b2e57612b2d6128a1565b5b8135612b3e848260208601612ad7565b91505092915050565b60008060008060808587031215612b6157612b6061232f565b5b6000612b6f87828801612585565b9450506020612b8087828801612585565b9350506040612b91878288016124d0565b925050606085013567ffffffffffffffff811115612bb257612bb1612334565b5b612bbe87828801612b19565b91505092959194509250565b60008060408385031215612be157612be061232f565b5b6000612bef85828601612585565b9250506020612c0085828601612585565b9150509250929050565b7f4e487b7100000000000000000000000000000000000000000000000000000000600052602260045260246000fd5b60006002820490506001821680612c5157607f821691505b60208210811415612c6557612c64612c0a565b5b50919050565b7f4552433732313a20617070726f76656420717565727920666f72206e6f6e657860008201527f697374656e7420746f6b656e0000000000000000000000000000000000000000602082015250565b6000612cc7602c836123ff565b9150612cd282612c6b565b604082019050919050565b60006020820190508181036000830152612cf681612cba565b9050919050565b7f4552433732313a20617070726f76616c20746f2063757272656e74206f776e6560008201527f7200000000000000000000000000000000000000000000000000000000000000602082015250565b6000612d596021836123ff565b9150612d6482612cfd565b604082019050919050565b60006020820190508181036000830152612d8881612d4c565b9050919050565b7f4552433732313a20617070726f76652063616c6c6572206973206e6f74206f7760008201527f6e6572206e6f7220617070726f76656420666f7220616c6c0000000000000000602082015250565b6000612deb6038836123ff565b9150612df682612d8f565b604082019050919050565b60006020820190508181036000830152612e1a81612dde565b9050919050565b7f4f776e61626c653a2063616c6c6572206973206e6f7420746865206f776e6572600082015250565b6000612e576020836123ff565b9150612e6282612e21565b602082019050919050565b60006020820190508181036000830152612e8681612e4a565b9050919050565b7f4552433732313a207472616e736665722063616c6c6572206973206e6f74206f60008201527f776e6572206e6f7220617070726f766564000000000000000000000000000000602082015250565b6000612ee96031836123ff565b9150612ef482612e8d565b604082019050919050565b60006020820190508181036000830152612f1881612edc565b9050919050565b7f4552433732313a206f776e657220717565727920666f72206e6f6e657869737460008201527f656e7420746f6b656e0000000000000000000000000000000000000000000000602082015250565b6000612f7b6029836123ff565b9150612f8682612f1f565b604082019050919050565b60006020820190508181036000830152612faa81612f6e565b9050919050565b7f4552433732313a2062616c616e636520717565727920666f7220746865207a6560008201527f726f206164647265737300000000000000000000000000000000000000000000602082015250565b600061300d602a836123ff565b915061301882612fb1565b604082019050919050565b6000602082019050818103600083015261303c81613000565b9050919050565b7f4552433732314d657461646174613a2055524920717565727920666f72206e6f60008201527f6e6578697374656e7420746f6b656e0000000000000000000000000000000000602082015250565b600061309f602f836123ff565b91506130aa82613043565b604082019050919050565b600060208201905081810360008301526130ce81613092565b9050919050565b600081905092915050565b60006130eb826123f4565b6130f581856130d5565b9350613105818560208601612410565b80840191505092915050565b600061311d82856130e0565b915061312982846130e0565b91508190509392505050565b7f4f776e61626c653a206e6577206f776e657220697320746865207a65726f206160008201527f6464726573730000000000000000000000000000000000000000000000000000602082015250565b60006131916026836123ff565b915061319c82613135565b604082019050919050565b600060208201905081810360008301526131c081613184565b9050919050565b7f4552433732313a206f70657261746f7220717565727920666f72206e6f6e657860008201527f697374656e7420746f6b656e0000000000000000000000000000000000000000602082015250565b6000613223602c836123ff565b915061322e826131c7565b604082019050919050565b6000602082019050818103600083015261325281613216565b9050919050565b7f4552433732313a207472616e73666572206f6620746f6b656e2074686174206960008201527f73206e6f74206f776e0000000000000000000000000000000000000000000000602082015250565b60006132b56029836123ff565b91506132c082613259565b604082019050919050565b600060208201905081810360008301526132e4816132a8565b9050919050565b7f4552433732313a207472616e7366657220746f20746865207a65726f2061646460008201527f7265737300000000000000000000000000000000000000000000000000000000602082015250565b60006133476024836123ff565b9150613352826132eb565b604082019050919050565b600060208201905081810360008301526133768161333a565b9050919050565b7f4e487b7100000000000000000000000000000000000000000000000000000000600052601160045260246000fd5b60006133b7826124af565b91506133c2836124af565b9250828210156133d5576133d461337d565b5b828203905092915050565b60006133eb826124af565b91506133f6836124af565b9250827fffffffffffffffffffffffffffffffffffffffffffffffffffffffffffffffff0382111561342b5761342a61337d565b5b828201905092915050565b600060408201905061344b6000830185612829565b6134586020830184612829565b9392505050565b7f4552433732313a20617070726f766520746f2063616c6c657200000000000000600082015250565b60006134956019836123ff565b91506134a08261345f565b602082019050919050565b600060208201905081810360008301526134c481613488565b9050919050565b7f4552433732313a207472616e7366657220746f206e6f6e20455243373231526560008201527f63656976657220696d706c656d656e7465720000000000000000000000000000602082015250565b60006135276032836123ff565b9150613532826134cb565b604082019050919050565b600060208201905081810360008301526135568161351a565b9050919050565b6000613568826124af565b91507fffffffffffffffffffffffffffffffffffffffffffffffffffffffffffffffff82141561359b5761359a61337d565b5b600182019050919050565b7f4e487b7100000000000000000000000000000000000000000000000000000000600052601260045260246000fd5b60006135e0826124af565b91506135eb836124af565b9250826135fb576135fa6135a6565b5b828204905092915050565b6000613611826124af565b915061361c836124af565b92508261362c5761362b6135a6565b5b828206905092915050565b7f4e487b7100000000000000000000000000000000000000000000000000000000600052603260045260246000fd5b6000819050919050565b61368161367c826124af565b613666565b82525050565b60008160601b9050919050565b600061369f82613687565b9050919050565b60006136b182613694565b9050919050565b6136c96136c482612532565b6136a6565b82525050565b60006136db8285613670565b6020820191506136eb82846136b8565b6014820191508190509392505050565b600081519050919050565b600082825260208201905092915050565b6000613722826136fb565b61372c8185613706565b935061373c818560208601612410565b61374581612443565b840191505092915050565b60006080820190506137656000830187612544565b6137726020830186612544565b61377f6040830185612829565b81810360608301526137918184613717565b905095945050505050565b6000815190506137ab81612365565b92915050565b6000602082840312156137c7576137c661232f565b5b60006137d58482850161379c565b91505092915050565b7f4552433732313a206d696e7420746f20746865207a65726f2061646472657373600082015250565b60006138146020836123ff565b915061381f826137de565b602082019050919050565b6000602082019050818103600083015261384381613807565b9050919050565b7f4552433732313a20746f6b656e20616c7265616479206d696e74656400000000600082015250565b6000613880601c836123ff565b915061388b8261384a565b602082019050919050565b600060208201905081810360008301526138af81613873565b905091905056fea264697066735822122023a9b81ca798f07ecd47807b38606feae7ac622af171c22ab11ada261f6f174664736f6c634300080b0033",
  "immutableReferences": {},
  "source": "// SPDX-License-Identifier: MIT\n\npragma solidity >=0.4.22 <0.9.0;\n\nimport \"@openzeppelin/contracts/token/ERC721/ERC721.sol\";\nimport \"@openzeppelin/contracts/access/Ownable.sol\";\n\ncontract LipToken is ERC721, Ownable {\n    constructor() ERC721(\"Lip Token\", \"LPT\") {}\n\n    uint256 COUNTER = 0;\n    uint256 fee = 0.01 ether;\n\n    struct Lip {\n        string name;\n        uint256 id;\n        uint256 dna;\n        uint8 level;\n        uint8 rarity;\n    }\n\n    Lip[] public lips;\n    mapping(address => Lip[]) ownerLips;\n\n    event NewLipCreated(address indexed owner, uint256 id, uint256 dna);\n\n    // helper\n    function _generateRandomNum(uint256 _mod) internal view returns (uint256) {\n        uint256 randomNumber = uint256(\n            keccak256(abi.encodePacked(block.timestamp, msg.sender))\n        );\n        return randomNumber % _mod;\n    }\n\n    function updateFee(uint256 _fee) external onlyOwner {\n        fee = _fee;\n    }\n\n    function withDraw() external payable onlyOwner {\n        address payable _owner = payable(owner());\n        _owner.transfer(address(this).balance);\n    }\n\n    function _createLip(string memory _name) internal {\n        COUNTER = COUNTER + 1;\n        uint256 randomDna = _generateRandomNum(10**16);\n        uint8 randomRarity = uint8(_generateRandomNum(100));\n        Lip memory newLip = Lip(_name, COUNTER, randomDna, 1, randomRarity);\n        lips.push(newLip);\n        ownerLips[msg.sender].push(newLip);\n        _safeMint(msg.sender, COUNTER);\n        emit NewLipCreated(msg.sender, COUNTER, randomDna);\n    }\n\n    function createRandomLip(string memory _name) public payable {\n        require(msg.value >= fee);\n        _createLip(_name);\n    }\n\n    function getLips() public view returns (Lip[] memory) {\n        return lips;\n    }\n\n    // other way to get owner lips\n    // function getOwnerLips(address _owner) public view returns (Lip[] memory) {\n    //     Lip[] memory result = new Lip[](balanceOf(_owner));\n    //     uint256 counter = 0;\n    //     for (uint256 i = 0; i < lips.length; i++) {\n    //         if (ownerOf(i) == _owner) {\n    //             result[counter] = lips[i];\n    //             counter++;\n    //         }\n    //     }\n    //     return result;\n    // }\n\n    function getAddressLips(address _owner) public view returns (Lip[] memory) {\n        return ownerLips[_owner];\n    }\n}\n",
  "sourcePath": "C:\\Github\\nft_game\\src\\contracts\\LipToken.sol",
  "compiler": {
    "name": "solc",
    "version": "0.8.11+commit.d7f03943.Emscripten.clang"
  },
  "schemaVersion": "3.4.4",
  "updatedAt": "2022-02-01T06:31:45.522Z",
  "networkType": "ethereum",
  "devdoc": {
    "kind": "dev",
    "methods": {
      "approve(address,uint256)": {
        "details": "See {IERC721-approve}."
      },
      "balanceOf(address)": {
        "details": "See {IERC721-balanceOf}."
      },
      "getApproved(uint256)": {
        "details": "See {IERC721-getApproved}."
      },
      "isApprovedForAll(address,address)": {
        "details": "See {IERC721-isApprovedForAll}."
      },
      "name()": {
        "details": "See {IERC721Metadata-name}."
      },
      "owner()": {
        "details": "Returns the address of the current owner."
      },
      "ownerOf(uint256)": {
        "details": "See {IERC721-ownerOf}."
      },
      "renounceOwnership()": {
        "details": "Leaves the contract without owner. It will not be possible to call `onlyOwner` functions anymore. Can only be called by the current owner. NOTE: Renouncing ownership will leave the contract without an owner, thereby removing any functionality that is only available to the owner."
      },
      "safeTransferFrom(address,address,uint256)": {
        "details": "See {IERC721-safeTransferFrom}."
      },
      "safeTransferFrom(address,address,uint256,bytes)": {
        "details": "See {IERC721-safeTransferFrom}."
      },
      "setApprovalForAll(address,bool)": {
        "details": "See {IERC721-setApprovalForAll}."
      },
      "supportsInterface(bytes4)": {
        "details": "See {IERC165-supportsInterface}."
      },
      "symbol()": {
        "details": "See {IERC721Metadata-symbol}."
      },
      "tokenURI(uint256)": {
        "details": "See {IERC721Metadata-tokenURI}."
      },
      "transferFrom(address,address,uint256)": {
        "details": "See {IERC721-transferFrom}."
      },
      "transferOwnership(address)": {
        "details": "Transfers ownership of the contract to a new account (`newOwner`). Can only be called by the current owner."
      }
    },
    "version": 1
  },
  "userdoc": {
    "kind": "user",
    "methods": {},
    "version": 1
  }
}