{
  "contractName": "LipToken",
  "abi": [
    {
      "inputs": [],
      "stateMutability": "nonpayable",
      "type": "constructor"
    },
    {
      "anonymous": false,
      "inputs": [
        {
          "indexed": true,
          "internalType": "address",
          "name": "owner",
          "type": "address"
        },
        {
          "indexed": true,
          "internalType": "address",
          "name": "approved",
          "type": "address"
        },
        {
          "indexed": true,
          "internalType": "uint256",
          "name": "tokenId",
          "type": "uint256"
        }
      ],
      "name": "Approval",
      "type": "event"
    },
    {
      "anonymous": false,
      "inputs": [
        {
          "indexed": true,
          "internalType": "address",
          "name": "owner",
          "type": "address"
        },
        {
          "indexed": true,
          "internalType": "address",
          "name": "operator",
          "type": "address"
        },
        {
          "indexed": false,
          "internalType": "bool",
          "name": "approved",
          "type": "bool"
        }
      ],
      "name": "ApprovalForAll",
      "type": "event"
    },
    {
      "anonymous": false,
      "inputs": [
        {
          "indexed": true,
          "internalType": "address",
          "name": "owner",
          "type": "address"
        },
        {
          "indexed": false,
          "internalType": "uint256",
          "name": "id",
          "type": "uint256"
        },
        {
          "indexed": false,
          "internalType": "uint256",
          "name": "dna",
          "type": "uint256"
        }
      ],
      "name": "NewLipCreated",
      "type": "event"
    },
    {
      "anonymous": false,
      "inputs": [
        {
          "indexed": true,
          "internalType": "address",
          "name": "previousOwner",
          "type": "address"
        },
        {
          "indexed": true,
          "internalType": "address",
          "name": "newOwner",
          "type": "address"
        }
      ],
      "name": "OwnershipTransferred",
      "type": "event"
    },
    {
      "anonymous": false,
      "inputs": [
        {
          "indexed": true,
          "internalType": "address",
          "name": "from",
          "type": "address"
        },
        {
          "indexed": true,
          "internalType": "address",
          "name": "to",
          "type": "address"
        },
        {
          "indexed": true,
          "internalType": "uint256",
          "name": "tokenId",
          "type": "uint256"
        }
      ],
      "name": "Transfer",
      "type": "event"
    },
    {
      "inputs": [
        {
          "internalType": "address",
          "name": "to",
          "type": "address"
        },
        {
          "internalType": "uint256",
          "name": "tokenId",
          "type": "uint256"
        }
      ],
      "name": "approve",
      "outputs": [],
      "stateMutability": "nonpayable",
      "type": "function"
    },
    {
      "inputs": [
        {
          "internalType": "address",
          "name": "owner",
          "type": "address"
        }
      ],
      "name": "balanceOf",
      "outputs": [
        {
          "internalType": "uint256",
          "name": "",
          "type": "uint256"
        }
      ],
      "stateMutability": "view",
      "type": "function",
      "constant": true
    },
    {
      "inputs": [
        {
          "internalType": "uint256",
          "name": "tokenId",
          "type": "uint256"
        }
      ],
      "name": "getApproved",
      "outputs": [
        {
          "internalType": "address",
          "name": "",
          "type": "address"
        }
      ],
      "stateMutability": "view",
      "type": "function",
      "constant": true
    },
    {
      "inputs": [
        {
          "internalType": "address",
          "name": "owner",
          "type": "address"
        },
        {
          "internalType": "address",
          "name": "operator",
          "type": "address"
        }
      ],
      "name": "isApprovedForAll",
      "outputs": [
        {
          "internalType": "bool",
          "name": "",
          "type": "bool"
        }
      ],
      "stateMutability": "view",
      "type": "function",
      "constant": true
    },
    {
      "inputs": [
        {
          "internalType": "uint256",
          "name": "",
          "type": "uint256"
        }
      ],
      "name": "lips",
      "outputs": [
        {
          "internalType": "string",
          "name": "name",
          "type": "string"
        },
        {
          "internalType": "uint256",
          "name": "id",
          "type": "uint256"
        },
        {
          "internalType": "uint256",
          "name": "dna",
          "type": "uint256"
        },
        {
          "internalType": "uint8",
          "name": "level",
          "type": "uint8"
        },
        {
          "internalType": "uint8",
          "name": "rarity",
          "type": "uint8"
        }
      ],
      "stateMutability": "view",
      "type": "function",
      "constant": true
    },
    {
      "inputs": [],
      "name": "name",
      "outputs": [
        {
          "internalType": "string",
          "name": "",
          "type": "string"
        }
      ],
      "stateMutability": "view",
      "type": "function",
      "constant": true
    },
    {
      "inputs": [],
      "name": "owner",
      "outputs": [
        {
          "internalType": "address",
          "name": "",
          "type": "address"
        }
      ],
      "stateMutability": "view",
      "type": "function",
      "constant": true
    },
    {
      "inputs": [
        {
          "internalType": "uint256",
          "name": "tokenId",
          "type": "uint256"
        }
      ],
      "name": "ownerOf",
      "outputs": [
        {
          "internalType": "address",
          "name": "",
          "type": "address"
        }
      ],
      "stateMutability": "view",
      "type": "function",
      "constant": true
    },
    {
      "inputs": [],
      "name": "renounceOwnership",
      "outputs": [],
      "stateMutability": "nonpayable",
      "type": "function"
    },
    {
      "inputs": [
        {
          "internalType": "address",
          "name": "from",
          "type": "address"
        },
        {
          "internalType": "address",
          "name": "to",
          "type": "address"
        },
        {
          "internalType": "uint256",
          "name": "tokenId",
          "type": "uint256"
        }
      ],
      "name": "safeTransferFrom",
      "outputs": [],
      "stateMutability": "nonpayable",
      "type": "function"
    },
    {
      "inputs": [
        {
          "internalType": "address",
          "name": "from",
          "type": "address"
        },
        {
          "internalType": "address",
          "name": "to",
          "type": "address"
        },
        {
          "internalType": "uint256",
          "name": "tokenId",
          "type": "uint256"
        },
        {
          "internalType": "bytes",
          "name": "_data",
          "type": "bytes"
        }
      ],
      "name": "safeTransferFrom",
      "outputs": [],
      "stateMutability": "nonpayable",
      "type": "function"
    },
    {
      "inputs": [
        {
          "internalType": "address",
          "name": "operator",
          "type": "address"
        },
        {
          "internalType": "bool",
          "name": "approved",
          "type": "bool"
        }
      ],
      "name": "setApprovalForAll",
      "outputs": [],
      "stateMutability": "nonpayable",
      "type": "function"
    },
    {
      "inputs": [
        {
          "internalType": "bytes4",
          "name": "interfaceId",
          "type": "bytes4"
        }
      ],
      "name": "supportsInterface",
      "outputs": [
        {
          "internalType": "bool",
          "name": "",
          "type": "bool"
        }
      ],
      "stateMutability": "view",
      "type": "function",
      "constant": true
    },
    {
      "inputs": [],
      "name": "symbol",
      "outputs": [
        {
          "internalType": "string",
          "name": "",
          "type": "string"
        }
      ],
      "stateMutability": "view",
      "type": "function",
      "constant": true
    },
    {
      "inputs": [
        {
          "internalType": "uint256",
          "name": "tokenId",
          "type": "uint256"
        }
      ],
      "name": "tokenURI",
      "outputs": [
        {
          "internalType": "string",
          "name": "",
          "type": "string"
        }
      ],
      "stateMutability": "view",
      "type": "function",
      "constant": true
    },
    {
      "inputs": [
        {
          "internalType": "address",
          "name": "from",
          "type": "address"
        },
        {
          "internalType": "address",
          "name": "to",
          "type": "address"
        },
        {
          "internalType": "uint256",
          "name": "tokenId",
          "type": "uint256"
        }
      ],
      "name": "transferFrom",
      "outputs": [],
      "stateMutability": "nonpayable",
      "type": "function"
    },
    {
      "inputs": [
        {
          "internalType": "address",
          "name": "newOwner",
          "type": "address"
        }
      ],
      "name": "transferOwnership",
      "outputs": [],
      "stateMutability": "nonpayable",
      "type": "function"
    },
    {
      "inputs": [
        {
          "internalType": "uint256",
          "name": "_fee",
          "type": "uint256"
        }
      ],
      "name": "updateFee",
      "outputs": [],
      "stateMutability": "nonpayable",
      "type": "function"
    },
    {
      "inputs": [],
      "name": "withDraw",
      "outputs": [],
      "stateMutability": "payable",
      "type": "function",
      "payable": true
    },
    {
      "inputs": [
        {
          "internalType": "string",
          "name": "_name",
          "type": "string"
        }
      ],
      "name": "createRandomLip",
      "outputs": [],
      "stateMutability": "payable",
      "type": "function",
      "payable": true
    },
    {
      "inputs": [],
      "name": "getLips",
      "outputs": [
        {
          "components": [
            {
              "internalType": "string",
              "name": "name",
              "type": "string"
            },
            {
              "internalType": "uint256",
              "name": "id",
              "type": "uint256"
            },
            {
              "internalType": "uint256",
              "name": "dna",
              "type": "uint256"
            },
            {
              "internalType": "uint8",
              "name": "level",
              "type": "uint8"
            },
            {
              "internalType": "uint8",
              "name": "rarity",
              "type": "uint8"
            }
          ],
          "internalType": "struct LipToken.Lip[]",
          "name": "",
          "type": "tuple[]"
        }
      ],
      "stateMutability": "view",
      "type": "function",
      "constant": true
    },
    {
      "inputs": [
        {
          "internalType": "address",
          "name": "_owner",
          "type": "address"
        }
      ],
      "name": "getAddressLips",
      "outputs": [
        {
          "components": [
            {
              "internalType": "string",
              "name": "name",
              "type": "string"
            },
            {
              "internalType": "uint256",
              "name": "id",
              "type": "uint256"
            },
            {
              "internalType": "uint256",
              "name": "dna",
              "type": "uint256"
            },
            {
              "internalType": "uint8",
              "name": "level",
              "type": "uint8"
            },
            {
              "internalType": "uint8",
              "name": "rarity",
              "type": "uint8"
            }
          ],
          "internalType": "struct LipToken.Lip[]",
          "name": "",
          "type": "tuple[]"
        }
      ],
      "stateMutability": "view",
      "type": "function",
      "constant": true
    },
    {
      "inputs": [
        {
          "internalType": "uint256",
          "name": "_lipId",
          "type": "uint256"
        }
      ],
      "name": "levelUp",
      "outputs": [],
      "stateMutability": "nonpayable",
      "type": "function"
    }
  ],
  "bytecode": "0x6080604052662386f26fc100006008553480156200001c57600080fd5b506040518060400160405280600981526020017f4c697020546f6b656e00000000000000000000000000000000000000000000008152506040518060400160405280600381526020017f4c505400000000000000000000000000000000000000000000000000000000008152508160009080519060200190620000a1929190620001b1565b508060019080519060200190620000ba929190620001b1565b505050620000dd620000d1620000e360201b60201c565b620000eb60201b60201c565b620002c6565b600033905090565b6000600660009054906101000a900473ffffffffffffffffffffffffffffffffffffffff16905081600660006101000a81548173ffffffffffffffffffffffffffffffffffffffff021916908373ffffffffffffffffffffffffffffffffffffffff1602179055508173ffffffffffffffffffffffffffffffffffffffff168173ffffffffffffffffffffffffffffffffffffffff167f8be0079c531659141344cd1fd0a4f28419497f9722a3daafe3b4186f6b6457e060405160405180910390a35050565b828054620001bf9062000290565b90600052602060002090601f016020900481019282620001e357600085556200022f565b82601f10620001fe57805160ff19168380011785556200022f565b828001600101855582156200022f579182015b828111156200022e57825182559160200191906001019062000211565b5b5090506200023e919062000242565b5090565b5b808211156200025d57600081600090555060010162000243565b5090565b7f4e487b7100000000000000000000000000000000000000000000000000000000600052602260045260246000fd5b60006002820490506001821680620002a957607f821691505b60208210811415620002c057620002bf62000261565b5b50919050565b6139f180620002d66000396000f3fe6080604052600436106101405760003560e01c8063698d640c116100b657806395d89b411161006f57806395d89b4114610442578063a22cb4651461046d578063b88d4fde14610496578063c87b56dd146104bf578063e985e9c5146104fc578063f2fde38b1461053957610140565b8063698d640c1461035357806370a082311461036f578063715018a6146103ac57806383b5daf7146103c35780638da5cb5b146103ee5780639012c4a81461041957610140565b80630fdb1c10116101085780630fdb1c101461023c57806323b872dd1461024657806342842e0e1461026f5780635aa4ede0146102985780635ec163db146102d55780636352211e1461031657610140565b806301ffc9a71461014557806306fdde0314610182578063081812fc146101ad578063095ea7b3146101ea5780630ce90ec214610213575b600080fd5b34801561015157600080fd5b5061016c6004803603810190610167919061246c565b610562565b60405161017991906124b4565b60405180910390f35b34801561018e57600080fd5b50610197610644565b6040516101a49190612568565b60405180910390f35b3480156101b957600080fd5b506101d460048036038101906101cf91906125c0565b6106d6565b6040516101e1919061262e565b60405180910390f35b3480156101f657600080fd5b50610211600480360381019061020c9190612675565b61075b565b005b34801561021f57600080fd5b5061023a600480360381019061023591906125c0565b610873565b005b610244610917565b005b34801561025257600080fd5b5061026d600480360381019061026891906126b5565b6109e9565b005b34801561027b57600080fd5b50610296600480360381019061029191906126b5565b610a49565b005b3480156102a457600080fd5b506102bf60048036038101906102ba9190612708565b610a69565b6040516102cc91906128e2565b60405180910390f35b3480156102e157600080fd5b506102fc60048036038101906102f791906125c0565b610be7565b60405161030d959493929190612922565b60405180910390f35b34801561032257600080fd5b5061033d600480360381019061033891906125c0565b610ccf565b60405161034a919061262e565b60405180910390f35b61036d60048036038101906103689190612ab1565b610d81565b005b34801561037b57600080fd5b5061039660048036038101906103919190612708565b610d9c565b6040516103a39190612afa565b60405180910390f35b3480156103b857600080fd5b506103c1610e54565b005b3480156103cf57600080fd5b506103d8610edc565b6040516103e591906128e2565b60405180910390f35b3480156103fa57600080fd5b5061040361101b565b604051610410919061262e565b60405180910390f35b34801561042557600080fd5b50610440600480360381019061043b91906125c0565b611045565b005b34801561044e57600080fd5b506104576110cb565b6040516104649190612568565b60405180910390f35b34801561047957600080fd5b50610494600480360381019061048f9190612b41565b61115d565b005b3480156104a257600080fd5b506104bd60048036038101906104b89190612c22565b611173565b005b3480156104cb57600080fd5b506104e660048036038101906104e191906125c0565b6111d5565b6040516104f39190612568565b60405180910390f35b34801561050857600080fd5b50610523600480360381019061051e9190612ca5565b61127c565b60405161053091906124b4565b60405180910390f35b34801561054557600080fd5b50610560600480360381019061055b9190612708565b611310565b005b60007f80ac58cd000000000000000000000000000000000000000000000000000000007bffffffffffffffffffffffffffffffffffffffffffffffffffffffff1916827bffffffffffffffffffffffffffffffffffffffffffffffffffffffff1916148061062d57507f5b5e139f000000000000000000000000000000000000000000000000000000007bffffffffffffffffffffffffffffffffffffffffffffffffffffffff1916827bffffffffffffffffffffffffffffffffffffffffffffffffffffffff1916145b8061063d575061063c82611408565b5b9050919050565b60606000805461065390612d14565b80601f016020809104026020016040519081016040528092919081815260200182805461067f90612d14565b80156106cc5780601f106106a1576101008083540402835291602001916106cc565b820191906000526020600020905b8154815290600101906020018083116106af57829003601f168201915b5050505050905090565b60006106e182611472565b610720576040517f08c379a000000000000000000000000000000000000000000000000000000000815260040161071790612db8565b60405180910390fd5b6004600083815260200190815260200160002060009054906101000a900473ffffffffffffffffffffffffffffffffffffffff169050919050565b600061076682610ccf565b90508073ffffffffffffffffffffffffffffffffffffffff168373ffffffffffffffffffffffffffffffffffffffff1614156107d7576040517f08c379a00000000000000000000000000000000000000000000000000000000081526004016107ce90612e4a565b60405180910390fd5b8073ffffffffffffffffffffffffffffffffffffffff166107f66114de565b73ffffffffffffffffffffffffffffffffffffffff16148061082557506108248161081f6114de565b61127c565b5b610864576040517f08c379a000000000000000000000000000000000000000000000000000000000815260040161085b90612edc565b60405180910390fd5b61086e83836114e6565b505050565b3373ffffffffffffffffffffffffffffffffffffffff1661089382610ccf565b73ffffffffffffffffffffffffffffffffffffffff16146108b357600080fd5b6000600982815481106108c9576108c8612efc565b5b9060005260206000209060040201905080600301600081819054906101000a900460ff16809291906108fa90612f5a565b91906101000a81548160ff021916908360ff160217905550505050565b61091f6114de565b73ffffffffffffffffffffffffffffffffffffffff1661093d61101b565b73ffffffffffffffffffffffffffffffffffffffff1614610993576040517f08c379a000000000000000000000000000000000000000000000000000000000815260040161098a90612fd0565b60405180910390fd5b600061099d61101b565b90508073ffffffffffffffffffffffffffffffffffffffff166108fc479081150290604051600060405180830381858888f193505050501580156109e5573d6000803e3d6000fd5b5050565b6109fa6109f46114de565b8261159f565b610a39576040517f08c379a0000000000000000000000000000000000000000000000000000000008152600401610a3090613062565b60405180910390fd5b610a4483838361167d565b505050565b610a6483838360405180602001604052806000815250611173565b505050565b6060600a60008373ffffffffffffffffffffffffffffffffffffffff1673ffffffffffffffffffffffffffffffffffffffff168152602001908152602001600020805480602002602001604051908101604052809291908181526020016000905b82821015610bdc57838290600052602060002090600402016040518060a0016040529081600082018054610afd90612d14565b80601f0160208091040260200160405190810160405280929190818152602001828054610b2990612d14565b8015610b765780601f10610b4b57610100808354040283529160200191610b76565b820191906000526020600020905b815481529060010190602001808311610b5957829003601f168201915b5050505050815260200160018201548152602001600282015481526020016003820160009054906101000a900460ff1660ff1660ff1681526020016003820160019054906101000a900460ff1660ff1660ff168152505081526020019060010190610aca565b505050509050919050565b60098181548110610bf757600080fd5b9060005260206000209060040201600091509050806000018054610c1a90612d14565b80601f0160208091040260200160405190810160405280929190818152602001828054610c4690612d14565b8015610c935780601f10610c6857610100808354040283529160200191610c93565b820191906000526020600020905b815481529060010190602001808311610c7657829003601f168201915b5050505050908060010154908060020154908060030160009054906101000a900460ff16908060030160019054906101000a900460ff16905085565b6000806002600084815260200190815260200160002060009054906101000a900473ffffffffffffffffffffffffffffffffffffffff169050600073ffffffffffffffffffffffffffffffffffffffff168173ffffffffffffffffffffffffffffffffffffffff161415610d78576040517f08c379a0000000000000000000000000000000000000000000000000000000008152600401610d6f906130f4565b60405180910390fd5b80915050919050565b600854341015610d9057600080fd5b610d99816118d9565b50565b60008073ffffffffffffffffffffffffffffffffffffffff168273ffffffffffffffffffffffffffffffffffffffff161415610e0d576040517f08c379a0000000000000000000000000000000000000000000000000000000008152600401610e0490613186565b60405180910390fd5b600360008373ffffffffffffffffffffffffffffffffffffffff1673ffffffffffffffffffffffffffffffffffffffff168152602001908152602001600020549050919050565b610e5c6114de565b73ffffffffffffffffffffffffffffffffffffffff16610e7a61101b565b73ffffffffffffffffffffffffffffffffffffffff1614610ed0576040517f08c379a0000000000000000000000000000000000000000000000000000000008152600401610ec790612fd0565b60405180910390fd5b610eda6000611b2a565b565b60606009805480602002602001604051908101604052809291908181526020016000905b8282101561101257838290600052602060002090600402016040518060a0016040529081600082018054610f3390612d14565b80601f0160208091040260200160405190810160405280929190818152602001828054610f5f90612d14565b8015610fac5780601f10610f8157610100808354040283529160200191610fac565b820191906000526020600020905b815481529060010190602001808311610f8f57829003601f168201915b5050505050815260200160018201548152602001600282015481526020016003820160009054906101000a900460ff1660ff1660ff1681526020016003820160019054906101000a900460ff1660ff1660ff168152505081526020019060010190610f00565b50505050905090565b6000600660009054906101000a900473ffffffffffffffffffffffffffffffffffffffff16905090565b61104d6114de565b73ffffffffffffffffffffffffffffffffffffffff1661106b61101b565b73ffffffffffffffffffffffffffffffffffffffff16146110c1576040517f08c379a00000000000000000000000000000000000000000000000000000000081526004016110b890612fd0565b60405180910390fd5b8060088190555050565b6060600180546110da90612d14565b80601f016020809104026020016040519081016040528092919081815260200182805461110690612d14565b80156111535780601f1061112857610100808354040283529160200191611153565b820191906000526020600020905b81548152906001019060200180831161113657829003601f168201915b5050505050905090565b61116f6111686114de565b8383611bf0565b5050565b61118461117e6114de565b8361159f565b6111c3576040517f08c379a00000000000000000000000000000000000000000000000000000000081526004016111ba90613062565b60405180910390fd5b6111cf84848484611d5d565b50505050565b60606111e082611472565b61121f576040517f08c379a000000000000000000000000000000000000000000000000000000000815260040161121690613218565b60405180910390fd5b6000611229611db9565b905060008151116112495760405180602001604052806000815250611274565b8061125384611dd0565b604051602001611264929190613274565b6040516020818303038152906040525b915050919050565b6000600560008473ffffffffffffffffffffffffffffffffffffffff1673ffffffffffffffffffffffffffffffffffffffff16815260200190815260200160002060008373ffffffffffffffffffffffffffffffffffffffff1673ffffffffffffffffffffffffffffffffffffffff16815260200190815260200160002060009054906101000a900460ff16905092915050565b6113186114de565b73ffffffffffffffffffffffffffffffffffffffff1661133661101b565b73ffffffffffffffffffffffffffffffffffffffff161461138c576040517f08c379a000000000000000000000000000000000000000000000000000000000815260040161138390612fd0565b60405180910390fd5b600073ffffffffffffffffffffffffffffffffffffffff168173ffffffffffffffffffffffffffffffffffffffff1614156113fc576040517f08c379a00000000000000000000000000000000000000000000000000000000081526004016113f39061330a565b60405180910390fd5b61140581611b2a565b50565b60007f01ffc9a7000000000000000000000000000000000000000000000000000000007bffffffffffffffffffffffffffffffffffffffffffffffffffffffff1916827bffffffffffffffffffffffffffffffffffffffffffffffffffffffff1916149050919050565b60008073ffffffffffffffffffffffffffffffffffffffff166002600084815260200190815260200160002060009054906101000a900473ffffffffffffffffffffffffffffffffffffffff1673ffffffffffffffffffffffffffffffffffffffff1614159050919050565b600033905090565b816004600083815260200190815260200160002060006101000a81548173ffffffffffffffffffffffffffffffffffffffff021916908373ffffffffffffffffffffffffffffffffffffffff160217905550808273ffffffffffffffffffffffffffffffffffffffff1661155983610ccf565b73ffffffffffffffffffffffffffffffffffffffff167f8c5be1e5ebec7d5bd14f71427d1e84f3dd0314c0f7b2291e5b200ac8c7c3b92560405160405180910390a45050565b60006115aa82611472565b6115e9576040517f08c379a00000000000000000000000000000000000000000000000000000000081526004016115e09061339c565b60405180910390fd5b60006115f483610ccf565b90508073ffffffffffffffffffffffffffffffffffffffff168473ffffffffffffffffffffffffffffffffffffffff16148061166357508373ffffffffffffffffffffffffffffffffffffffff1661164b846106d6565b73ffffffffffffffffffffffffffffffffffffffff16145b806116745750611673818561127c565b5b91505092915050565b8273ffffffffffffffffffffffffffffffffffffffff1661169d82610ccf565b73ffffffffffffffffffffffffffffffffffffffff16146116f3576040517f08c379a00000000000000000000000000000000000000000000000000000000081526004016116ea9061342e565b60405180910390fd5b600073ffffffffffffffffffffffffffffffffffffffff168273ffffffffffffffffffffffffffffffffffffffff161415611763576040517f08c379a000000000000000000000000000000000000000000000000000000000815260040161175a906134c0565b60405180910390fd5b61176e838383611f31565b6117796000826114e6565b6001600360008573ffffffffffffffffffffffffffffffffffffffff1673ffffffffffffffffffffffffffffffffffffffff16815260200190815260200160002060008282546117c991906134e0565b925050819055506001600360008473ffffffffffffffffffffffffffffffffffffffff1673ffffffffffffffffffffffffffffffffffffffff16815260200190815260200160002060008282546118209190613514565b92505081905550816002600083815260200190815260200160002060006101000a81548173ffffffffffffffffffffffffffffffffffffffff021916908373ffffffffffffffffffffffffffffffffffffffff160217905550808273ffffffffffffffffffffffffffffffffffffffff168473ffffffffffffffffffffffffffffffffffffffff167fddf252ad1be2c89b69c2b068fc378daa952ba7f163c4a11628f55a4df523b3ef60405160405180910390a4505050565b60006118eb662386f26fc10000611f36565b905060006118f96064611f36565b905060006040518060a001604052808581526020016007548152602001848152602001600160ff1681526020018360ff1681525090506009819080600181540180825580915050600190039060005260206000209060040201600090919091909150600082015181600001908051906020019061197792919061235d565b50602082015181600101556040820151816002015560608201518160030160006101000a81548160ff021916908360ff16021790555060808201518160030160016101000a81548160ff021916908360ff1602179055505050600a60003373ffffffffffffffffffffffffffffffffffffffff1673ffffffffffffffffffffffffffffffffffffffff1681526020019081526020016000208190806001815401808255809150506001900390600052602060002090600402016000909190919091506000820151816000019080519060200190611a5592919061235d565b50602082015181600101556040820151816002015560608201518160030160006101000a81548160ff021916908360ff16021790555060808201518160030160016101000a81548160ff021916908360ff1602179055505050611aba33600754611f7b565b3373ffffffffffffffffffffffffffffffffffffffff167f29c4292b8838988609f9bd8e9042f7e77158b1f5ebfcae6494b7b709c3d20ffc60075485604051611b0492919061356a565b60405180910390a260076000815480929190611b1f90613593565b919050555050505050565b6000600660009054906101000a900473ffffffffffffffffffffffffffffffffffffffff16905081600660006101000a81548173ffffffffffffffffffffffffffffffffffffffff021916908373ffffffffffffffffffffffffffffffffffffffff1602179055508173ffffffffffffffffffffffffffffffffffffffff168173ffffffffffffffffffffffffffffffffffffffff167f8be0079c531659141344cd1fd0a4f28419497f9722a3daafe3b4186f6b6457e060405160405180910390a35050565b8173ffffffffffffffffffffffffffffffffffffffff168373ffffffffffffffffffffffffffffffffffffffff161415611c5f576040517f08c379a0000000000000000000000000000000000000000000000000000000008152600401611c5690613628565b60405180910390fd5b80600560008573ffffffffffffffffffffffffffffffffffffffff1673ffffffffffffffffffffffffffffffffffffffff16815260200190815260200160002060008473ffffffffffffffffffffffffffffffffffffffff1673ffffffffffffffffffffffffffffffffffffffff16815260200190815260200160002060006101000a81548160ff0219169083151502179055508173ffffffffffffffffffffffffffffffffffffffff168373ffffffffffffffffffffffffffffffffffffffff167f17307eab39ab6107e8899845ad3d59bd9653f200f220920489ca2b5937696c3183604051611d5091906124b4565b60405180910390a3505050565b611d6884848461167d565b611d7484848484611f99565b611db3576040517f08c379a0000000000000000000000000000000000000000000000000000000008152600401611daa906136ba565b60405180910390fd5b50505050565b606060405180602001604052806000815250905090565b60606000821415611e18576040518060400160405280600181526020017f30000000000000000000000000000000000000000000000000000000000000008152509050611f2c565b600082905060005b60008214611e4a578080611e3390613593565b915050600a82611e439190613709565b9150611e20565b60008167ffffffffffffffff811115611e6657611e65612986565b5b6040519080825280601f01601f191660200182016040528015611e985781602001600182028036833780820191505090505b5090505b60008514611f2557600182611eb191906134e0565b9150600a85611ec0919061373a565b6030611ecc9190613514565b60f81b818381518110611ee257611ee1612efc565b5b60200101907effffffffffffffffffffffffffffffffffffffffffffffffffffffffffffff1916908160001a905350600a85611f1e9190613709565b9450611e9c565b8093505050505b919050565b505050565b6000804233604051602001611f4c9291906137d4565b6040516020818303038152906040528051906020012060001c90508281611f73919061373a565b915050919050565b611f95828260405180602001604052806000815250612121565b5050565b6000611fba8473ffffffffffffffffffffffffffffffffffffffff1661217c565b15612114578373ffffffffffffffffffffffffffffffffffffffff1663150b7a02611fe36114de565b8786866040518563ffffffff1660e01b81526004016120059493929190613855565b6020604051808303816000875af192505050801561204157506040513d601f19601f8201168201806040525081019061203e91906138b6565b60015b6120c4573d8060008114612071576040519150601f19603f3d011682016040523d82523d6000602084013e612076565b606091505b506000815114156120bc576040517f08c379a00000000000000000000000000000000000000000000000000000000081526004016120b3906136ba565b60405180910390fd5b805181602001fd5b63150b7a0260e01b7bffffffffffffffffffffffffffffffffffffffffffffffffffffffff1916817bffffffffffffffffffffffffffffffffffffffffffffffffffffffff191614915050612119565b600190505b949350505050565b61212b838361218f565b6121386000848484611f99565b612177576040517f08c379a000000000000000000000000000000000000000000000000000000000815260040161216e906136ba565b60405180910390fd5b505050565b600080823b905060008111915050919050565b600073ffffffffffffffffffffffffffffffffffffffff168273ffffffffffffffffffffffffffffffffffffffff1614156121ff576040517f08c379a00000000000000000000000000000000000000000000000000000000081526004016121f69061392f565b60405180910390fd5b61220881611472565b15612248576040517f08c379a000000000000000000000000000000000000000000000000000000000815260040161223f9061399b565b60405180910390fd5b61225460008383611f31565b6001600360008473ffffffffffffffffffffffffffffffffffffffff1673ffffffffffffffffffffffffffffffffffffffff16815260200190815260200160002060008282546122a49190613514565b92505081905550816002600083815260200190815260200160002060006101000a81548173ffffffffffffffffffffffffffffffffffffffff021916908373ffffffffffffffffffffffffffffffffffffffff160217905550808273ffffffffffffffffffffffffffffffffffffffff16600073ffffffffffffffffffffffffffffffffffffffff167fddf252ad1be2c89b69c2b068fc378daa952ba7f163c4a11628f55a4df523b3ef60405160405180910390a45050565b82805461236990612d14565b90600052602060002090601f01602090048101928261238b57600085556123d2565b82601f106123a457805160ff19168380011785556123d2565b828001600101855582156123d2579182015b828111156123d15782518255916020019190600101906123b6565b5b5090506123df91906123e3565b5090565b5b808211156123fc5760008160009055506001016123e4565b5090565b6000604051905090565b600080fd5b600080fd5b60007fffffffff0000000000000000000000000000000000000000000000000000000082169050919050565b61244981612414565b811461245457600080fd5b50565b60008135905061246681612440565b92915050565b6000602082840312156124825761248161240a565b5b600061249084828501612457565b91505092915050565b60008115159050919050565b6124ae81612499565b82525050565b60006020820190506124c960008301846124a5565b92915050565b600081519050919050565b600082825260208201905092915050565b60005b838110156125095780820151818401526020810190506124ee565b83811115612518576000848401525b50505050565b6000601f19601f8301169050919050565b600061253a826124cf565b61254481856124da565b93506125548185602086016124eb565b61255d8161251e565b840191505092915050565b60006020820190508181036000830152612582818461252f565b905092915050565b6000819050919050565b61259d8161258a565b81146125a857600080fd5b50565b6000813590506125ba81612594565b92915050565b6000602082840312156125d6576125d561240a565b5b60006125e4848285016125ab565b91505092915050565b600073ffffffffffffffffffffffffffffffffffffffff82169050919050565b6000612618826125ed565b9050919050565b6126288161260d565b82525050565b6000602082019050612643600083018461261f565b92915050565b6126528161260d565b811461265d57600080fd5b50565b60008135905061266f81612649565b92915050565b6000806040838503121561268c5761268b61240a565b5b600061269a85828601612660565b92505060206126ab858286016125ab565b9150509250929050565b6000806000606084860312156126ce576126cd61240a565b5b60006126dc86828701612660565b93505060206126ed86828701612660565b92505060406126fe868287016125ab565b9150509250925092565b60006020828403121561271e5761271d61240a565b5b600061272c84828501612660565b91505092915050565b600081519050919050565b600082825260208201905092915050565b6000819050602082019050919050565b600082825260208201905092915050565b600061277d826124cf565b6127878185612761565b93506127978185602086016124eb565b6127a08161251e565b840191505092915050565b6127b48161258a565b82525050565b600060ff82169050919050565b6127d0816127ba565b82525050565b600060a08301600083015184820360008601526127f38282612772565b915050602083015161280860208601826127ab565b50604083015161281b60408601826127ab565b50606083015161282e60608601826127c7565b50608083015161284160808601826127c7565b508091505092915050565b600061285883836127d6565b905092915050565b6000602082019050919050565b600061287882612735565b6128828185612740565b93508360208202850161289485612751565b8060005b858110156128d057848403895281516128b1858261284c565b94506128bc83612860565b925060208a01995050600181019050612898565b50829750879550505050505092915050565b600060208201905081810360008301526128fc818461286d565b905092915050565b61290d8161258a565b82525050565b61291c816127ba565b82525050565b600060a082019050818103600083015261293c818861252f565b905061294b6020830187612904565b6129586040830186612904565b6129656060830185612913565b6129726080830184612913565b9695505050505050565b600080fd5b600080fd5b7f4e487b7100000000000000000000000000000000000000000000000000000000600052604160045260246000fd5b6129be8261251e565b810181811067ffffffffffffffff821117156129dd576129dc612986565b5b80604052505050565b60006129f0612400565b90506129fc82826129b5565b919050565b600067ffffffffffffffff821115612a1c57612a1b612986565b5b612a258261251e565b9050602081019050919050565b82818337600083830152505050565b6000612a54612a4f84612a01565b6129e6565b905082815260208101848484011115612a7057612a6f612981565b5b612a7b848285612a32565b509392505050565b600082601f830112612a9857612a9761297c565b5b8135612aa8848260208601612a41565b91505092915050565b600060208284031215612ac757612ac661240a565b5b600082013567ffffffffffffffff811115612ae557612ae461240f565b5b612af184828501612a83565b91505092915050565b6000602082019050612b0f6000830184612904565b92915050565b612b1e81612499565b8114612b2957600080fd5b50565b600081359050612b3b81612b15565b92915050565b60008060408385031215612b5857612b5761240a565b5b6000612b6685828601612660565b9250506020612b7785828601612b2c565b9150509250929050565b600067ffffffffffffffff821115612b9c57612b9b612986565b5b612ba58261251e565b9050602081019050919050565b6000612bc5612bc084612b81565b6129e6565b905082815260208101848484011115612be157612be0612981565b5b612bec848285612a32565b509392505050565b600082601f830112612c0957612c0861297c565b5b8135612c19848260208601612bb2565b91505092915050565b60008060008060808587031215612c3c57612c3b61240a565b5b6000612c4a87828801612660565b9450506020612c5b87828801612660565b9350506040612c6c878288016125ab565b925050606085013567ffffffffffffffff811115612c8d57612c8c61240f565b5b612c9987828801612bf4565b91505092959194509250565b60008060408385031215612cbc57612cbb61240a565b5b6000612cca85828601612660565b9250506020612cdb85828601612660565b9150509250929050565b7f4e487b7100000000000000000000000000000000000000000000000000000000600052602260045260246000fd5b60006002820490506001821680612d2c57607f821691505b60208210811415612d4057612d3f612ce5565b5b50919050565b7f4552433732313a20617070726f76656420717565727920666f72206e6f6e657860008201527f697374656e7420746f6b656e0000000000000000000000000000000000000000602082015250565b6000612da2602c836124da565b9150612dad82612d46565b604082019050919050565b60006020820190508181036000830152612dd181612d95565b9050919050565b7f4552433732313a20617070726f76616c20746f2063757272656e74206f776e6560008201527f7200000000000000000000000000000000000000000000000000000000000000602082015250565b6000612e346021836124da565b9150612e3f82612dd8565b604082019050919050565b60006020820190508181036000830152612e6381612e27565b9050919050565b7f4552433732313a20617070726f76652063616c6c6572206973206e6f74206f7760008201527f6e6572206e6f7220617070726f76656420666f7220616c6c0000000000000000602082015250565b6000612ec66038836124da565b9150612ed182612e6a565b604082019050919050565b60006020820190508181036000830152612ef581612eb9565b9050919050565b7f4e487b7100000000000000000000000000000000000000000000000000000000600052603260045260246000fd5b7f4e487b7100000000000000000000000000000000000000000000000000000000600052601160045260246000fd5b6000612f65826127ba565b915060ff821415612f7957612f78612f2b565b5b600182019050919050565b7f4f776e61626c653a2063616c6c6572206973206e6f7420746865206f776e6572600082015250565b6000612fba6020836124da565b9150612fc582612f84565b602082019050919050565b60006020820190508181036000830152612fe981612fad565b9050919050565b7f4552433732313a207472616e736665722063616c6c6572206973206e6f74206f60008201527f776e6572206e6f7220617070726f766564000000000000000000000000000000602082015250565b600061304c6031836124da565b915061305782612ff0565b604082019050919050565b6000602082019050818103600083015261307b8161303f565b9050919050565b7f4552433732313a206f776e657220717565727920666f72206e6f6e657869737460008201527f656e7420746f6b656e0000000000000000000000000000000000000000000000602082015250565b60006130de6029836124da565b91506130e982613082565b604082019050919050565b6000602082019050818103600083015261310d816130d1565b9050919050565b7f4552433732313a2062616c616e636520717565727920666f7220746865207a6560008201527f726f206164647265737300000000000000000000000000000000000000000000602082015250565b6000613170602a836124da565b915061317b82613114565b604082019050919050565b6000602082019050818103600083015261319f81613163565b9050919050565b7f4552433732314d657461646174613a2055524920717565727920666f72206e6f60008201527f6e6578697374656e7420746f6b656e0000000000000000000000000000000000602082015250565b6000613202602f836124da565b915061320d826131a6565b604082019050919050565b60006020820190508181036000830152613231816131f5565b9050919050565b600081905092915050565b600061324e826124cf565b6132588185613238565b93506132688185602086016124eb565b80840191505092915050565b60006132808285613243565b915061328c8284613243565b91508190509392505050565b7f4f776e61626c653a206e6577206f776e657220697320746865207a65726f206160008201527f6464726573730000000000000000000000000000000000000000000000000000602082015250565b60006132f46026836124da565b91506132ff82613298565b604082019050919050565b60006020820190508181036000830152613323816132e7565b9050919050565b7f4552433732313a206f70657261746f7220717565727920666f72206e6f6e657860008201527f697374656e7420746f6b656e0000000000000000000000000000000000000000602082015250565b6000613386602c836124da565b91506133918261332a565b604082019050919050565b600060208201905081810360008301526133b581613379565b9050919050565b7f4552433732313a207472616e73666572206f6620746f6b656e2074686174206960008201527f73206e6f74206f776e0000000000000000000000000000000000000000000000602082015250565b60006134186029836124da565b9150613423826133bc565b604082019050919050565b600060208201905081810360008301526134478161340b565b9050919050565b7f4552433732313a207472616e7366657220746f20746865207a65726f2061646460008201527f7265737300000000000000000000000000000000000000000000000000000000602082015250565b60006134aa6024836124da565b91506134b58261344e565b604082019050919050565b600060208201905081810360008301526134d98161349d565b9050919050565b60006134eb8261258a565b91506134f68361258a565b92508282101561350957613508612f2b565b5b828203905092915050565b600061351f8261258a565b915061352a8361258a565b9250827fffffffffffffffffffffffffffffffffffffffffffffffffffffffffffffffff0382111561355f5761355e612f2b565b5b828201905092915050565b600060408201905061357f6000830185612904565b61358c6020830184612904565b9392505050565b600061359e8261258a565b91507fffffffffffffffffffffffffffffffffffffffffffffffffffffffffffffffff8214156135d1576135d0612f2b565b5b600182019050919050565b7f4552433732313a20617070726f766520746f2063616c6c657200000000000000600082015250565b60006136126019836124da565b915061361d826135dc565b602082019050919050565b6000602082019050818103600083015261364181613605565b9050919050565b7f4552433732313a207472616e7366657220746f206e6f6e20455243373231526560008201527f63656976657220696d706c656d656e7465720000000000000000000000000000602082015250565b60006136a46032836124da565b91506136af82613648565b604082019050919050565b600060208201905081810360008301526136d381613697565b9050919050565b7f4e487b7100000000000000000000000000000000000000000000000000000000600052601260045260246000fd5b60006137148261258a565b915061371f8361258a565b92508261372f5761372e6136da565b5b828204905092915050565b60006137458261258a565b91506137508361258a565b9250826137605761375f6136da565b5b828206905092915050565b6000819050919050565b6137866137818261258a565b61376b565b82525050565b60008160601b9050919050565b60006137a48261378c565b9050919050565b60006137b682613799565b9050919050565b6137ce6137c98261260d565b6137ab565b82525050565b60006137e08285613775565b6020820191506137f082846137bd565b6014820191508190509392505050565b600081519050919050565b600082825260208201905092915050565b600061382782613800565b613831818561380b565b93506138418185602086016124eb565b61384a8161251e565b840191505092915050565b600060808201905061386a600083018761261f565b613877602083018661261f565b6138846040830185612904565b8181036060830152613896818461381c565b905095945050505050565b6000815190506138b081612440565b92915050565b6000602082840312156138cc576138cb61240a565b5b60006138da848285016138a1565b91505092915050565b7f4552433732313a206d696e7420746f20746865207a65726f2061646472657373600082015250565b60006139196020836124da565b9150613924826138e3565b602082019050919050565b600060208201905081810360008301526139488161390c565b9050919050565b7f4552433732313a20746f6b656e20616c7265616479206d696e74656400000000600082015250565b6000613985601c836124da565b91506139908261394f565b602082019050919050565b600060208201905081810360008301526139b481613978565b905091905056fea2646970667358221220c9601f81fcba18c895536b30609b84a7f1054706bc456734029ba628adfd3b3e64736f6c634300080b0033",
  "immutableReferences": {},
  "source": "// SPDX-License-Identifier: MIT\n\npragma solidity >=0.4.22 <0.9.0;\n\nimport \"@openzeppelin/contracts/token/ERC721/ERC721.sol\";\nimport \"@openzeppelin/contracts/access/Ownable.sol\";\n\ncontract LipToken is ERC721, Ownable {\n    constructor() ERC721(\"Lip Token\", \"LPT\") {}\n\n    uint256 COUNTER;\n    uint256 fee = 0.01 ether;\n\n    struct Lip {\n        string name;\n        uint256 id;\n        uint256 dna;\n        uint8 level;\n        uint8 rarity;\n    }\n\n    Lip[] public lips;\n    mapping(address => Lip[]) ownerLips;\n\n    event NewLipCreated(address indexed owner, uint256 id, uint256 dna);\n\n    // helper\n    function _generateRandomNum(uint256 _mod) internal view returns (uint256) {\n        uint256 randomNumber = uint256(\n            keccak256(abi.encodePacked(block.timestamp, msg.sender))\n        );\n        return randomNumber % _mod;\n    }\n\n    function updateFee(uint256 _fee) external onlyOwner {\n        fee = _fee;\n    }\n\n    function withDraw() external payable onlyOwner {\n        address payable _owner = payable(owner());\n        _owner.transfer(address(this).balance);\n    }\n\n    function _createLip(string memory _name) internal {\n        uint256 randomDna = _generateRandomNum(10**16);\n        uint8 randomRarity = uint8(_generateRandomNum(100));\n        Lip memory newLip = Lip(_name, COUNTER, randomDna, 1, randomRarity);\n        lips.push(newLip);\n        ownerLips[msg.sender].push(newLip);\n        _safeMint(msg.sender, COUNTER);\n        emit NewLipCreated(msg.sender, COUNTER, randomDna);\n        COUNTER++;\n    }\n\n    function createRandomLip(string memory _name) public payable {\n        require(msg.value >= fee);\n        _createLip(_name);\n    }\n\n    function getLips() public view returns (Lip[] memory) {\n        return lips;\n    }\n\n    // other way to get owner lips\n    // function getOwnerLips(address _owner) public view returns (Lip[] memory) {\n    //     Lip[] memory result = new Lip[](balanceOf(_owner));\n    //     uint256 counter = 0;\n    //     for (uint256 i = 0; i < lips.length; i++) {\n    //         if (ownerOf(i) == _owner) {\n    //             result[counter] = lips[i];\n    //             counter++;\n    //         }\n    //     }\n    //     return result;\n    // }\n\n    function getAddressLips(address _owner) public view returns (Lip[] memory) {\n        return ownerLips[_owner];\n    }\n\n    function levelUp(uint256 _lipId) public {\n        require(ownerOf(_lipId) == msg.sender);\n        Lip storage lip = lips[_lipId];\n        lip.level++;\n    }\n}\n",
  "sourcePath": "C:\\Github\\nft_game\\src\\contracts\\LipToken.sol",
  "compiler": {
    "name": "solc",
    "version": "0.8.11+commit.d7f03943.Emscripten.clang"
  },
  "schemaVersion": "3.4.4",
  "updatedAt": "2022-02-01T12:38:59.424Z",
  "networkType": "ethereum",
  "devdoc": {
    "kind": "dev",
    "methods": {
      "approve(address,uint256)": {
        "details": "See {IERC721-approve}."
      },
      "balanceOf(address)": {
        "details": "See {IERC721-balanceOf}."
      },
      "getApproved(uint256)": {
        "details": "See {IERC721-getApproved}."
      },
      "isApprovedForAll(address,address)": {
        "details": "See {IERC721-isApprovedForAll}."
      },
      "name()": {
        "details": "See {IERC721Metadata-name}."
      },
      "owner()": {
        "details": "Returns the address of the current owner."
      },
      "ownerOf(uint256)": {
        "details": "See {IERC721-ownerOf}."
      },
      "renounceOwnership()": {
        "details": "Leaves the contract without owner. It will not be possible to call `onlyOwner` functions anymore. Can only be called by the current owner. NOTE: Renouncing ownership will leave the contract without an owner, thereby removing any functionality that is only available to the owner."
      },
      "safeTransferFrom(address,address,uint256)": {
        "details": "See {IERC721-safeTransferFrom}."
      },
      "safeTransferFrom(address,address,uint256,bytes)": {
        "details": "See {IERC721-safeTransferFrom}."
      },
      "setApprovalForAll(address,bool)": {
        "details": "See {IERC721-setApprovalForAll}."
      },
      "supportsInterface(bytes4)": {
        "details": "See {IERC165-supportsInterface}."
      },
      "symbol()": {
        "details": "See {IERC721Metadata-symbol}."
      },
      "tokenURI(uint256)": {
        "details": "See {IERC721Metadata-tokenURI}."
      },
      "transferFrom(address,address,uint256)": {
        "details": "See {IERC721-transferFrom}."
      },
      "transferOwnership(address)": {
        "details": "Transfers ownership of the contract to a new account (`newOwner`). Can only be called by the current owner."
      }
    },
    "version": 1
  },
  "userdoc": {
    "kind": "user",
    "methods": {},
    "version": 1
  }
}