{
  "contractName": "LipToken",
  "abi": [
    {
      "inputs": [],
      "stateMutability": "nonpayable",
      "type": "constructor"
    },
    {
      "anonymous": false,
      "inputs": [
        {
          "indexed": true,
          "internalType": "address",
          "name": "owner",
          "type": "address"
        },
        {
          "indexed": true,
          "internalType": "address",
          "name": "approved",
          "type": "address"
        },
        {
          "indexed": true,
          "internalType": "uint256",
          "name": "tokenId",
          "type": "uint256"
        }
      ],
      "name": "Approval",
      "type": "event"
    },
    {
      "anonymous": false,
      "inputs": [
        {
          "indexed": true,
          "internalType": "address",
          "name": "owner",
          "type": "address"
        },
        {
          "indexed": true,
          "internalType": "address",
          "name": "operator",
          "type": "address"
        },
        {
          "indexed": false,
          "internalType": "bool",
          "name": "approved",
          "type": "bool"
        }
      ],
      "name": "ApprovalForAll",
      "type": "event"
    },
    {
      "anonymous": false,
      "inputs": [
        {
          "indexed": true,
          "internalType": "address",
          "name": "owner",
          "type": "address"
        },
        {
          "indexed": false,
          "internalType": "uint256",
          "name": "id",
          "type": "uint256"
        },
        {
          "indexed": false,
          "internalType": "uint256",
          "name": "dna",
          "type": "uint256"
        }
      ],
      "name": "NewLipCreated",
      "type": "event"
    },
    {
      "anonymous": false,
      "inputs": [
        {
          "indexed": true,
          "internalType": "address",
          "name": "previousOwner",
          "type": "address"
        },
        {
          "indexed": true,
          "internalType": "address",
          "name": "newOwner",
          "type": "address"
        }
      ],
      "name": "OwnershipTransferred",
      "type": "event"
    },
    {
      "anonymous": false,
      "inputs": [
        {
          "indexed": true,
          "internalType": "address",
          "name": "from",
          "type": "address"
        },
        {
          "indexed": true,
          "internalType": "address",
          "name": "to",
          "type": "address"
        },
        {
          "indexed": true,
          "internalType": "uint256",
          "name": "tokenId",
          "type": "uint256"
        }
      ],
      "name": "Transfer",
      "type": "event"
    },
    {
      "inputs": [
        {
          "internalType": "address",
          "name": "to",
          "type": "address"
        },
        {
          "internalType": "uint256",
          "name": "tokenId",
          "type": "uint256"
        }
      ],
      "name": "approve",
      "outputs": [],
      "stateMutability": "nonpayable",
      "type": "function"
    },
    {
      "inputs": [
        {
          "internalType": "address",
          "name": "owner",
          "type": "address"
        }
      ],
      "name": "balanceOf",
      "outputs": [
        {
          "internalType": "uint256",
          "name": "",
          "type": "uint256"
        }
      ],
      "stateMutability": "view",
      "type": "function",
      "constant": true
    },
    {
      "inputs": [
        {
          "internalType": "uint256",
          "name": "tokenId",
          "type": "uint256"
        }
      ],
      "name": "getApproved",
      "outputs": [
        {
          "internalType": "address",
          "name": "",
          "type": "address"
        }
      ],
      "stateMutability": "view",
      "type": "function",
      "constant": true
    },
    {
      "inputs": [
        {
          "internalType": "address",
          "name": "owner",
          "type": "address"
        },
        {
          "internalType": "address",
          "name": "operator",
          "type": "address"
        }
      ],
      "name": "isApprovedForAll",
      "outputs": [
        {
          "internalType": "bool",
          "name": "",
          "type": "bool"
        }
      ],
      "stateMutability": "view",
      "type": "function",
      "constant": true
    },
    {
      "inputs": [
        {
          "internalType": "uint256",
          "name": "",
          "type": "uint256"
        }
      ],
      "name": "lips",
      "outputs": [
        {
          "internalType": "string",
          "name": "name",
          "type": "string"
        },
        {
          "internalType": "uint256",
          "name": "id",
          "type": "uint256"
        },
        {
          "internalType": "uint256",
          "name": "dna",
          "type": "uint256"
        },
        {
          "internalType": "uint8",
          "name": "level",
          "type": "uint8"
        },
        {
          "internalType": "uint8",
          "name": "rarity",
          "type": "uint8"
        },
        {
          "internalType": "uint32",
          "name": "readyTime",
          "type": "uint32"
        }
      ],
      "stateMutability": "view",
      "type": "function",
      "constant": true
    },
    {
      "inputs": [],
      "name": "name",
      "outputs": [
        {
          "internalType": "string",
          "name": "",
          "type": "string"
        }
      ],
      "stateMutability": "view",
      "type": "function",
      "constant": true
    },
    {
      "inputs": [],
      "name": "owner",
      "outputs": [
        {
          "internalType": "address",
          "name": "",
          "type": "address"
        }
      ],
      "stateMutability": "view",
      "type": "function",
      "constant": true
    },
    {
      "inputs": [
        {
          "internalType": "uint256",
          "name": "tokenId",
          "type": "uint256"
        }
      ],
      "name": "ownerOf",
      "outputs": [
        {
          "internalType": "address",
          "name": "",
          "type": "address"
        }
      ],
      "stateMutability": "view",
      "type": "function",
      "constant": true
    },
    {
      "inputs": [],
      "name": "renounceOwnership",
      "outputs": [],
      "stateMutability": "nonpayable",
      "type": "function"
    },
    {
      "inputs": [
        {
          "internalType": "address",
          "name": "from",
          "type": "address"
        },
        {
          "internalType": "address",
          "name": "to",
          "type": "address"
        },
        {
          "internalType": "uint256",
          "name": "tokenId",
          "type": "uint256"
        }
      ],
      "name": "safeTransferFrom",
      "outputs": [],
      "stateMutability": "nonpayable",
      "type": "function"
    },
    {
      "inputs": [
        {
          "internalType": "address",
          "name": "from",
          "type": "address"
        },
        {
          "internalType": "address",
          "name": "to",
          "type": "address"
        },
        {
          "internalType": "uint256",
          "name": "tokenId",
          "type": "uint256"
        },
        {
          "internalType": "bytes",
          "name": "_data",
          "type": "bytes"
        }
      ],
      "name": "safeTransferFrom",
      "outputs": [],
      "stateMutability": "nonpayable",
      "type": "function"
    },
    {
      "inputs": [
        {
          "internalType": "address",
          "name": "operator",
          "type": "address"
        },
        {
          "internalType": "bool",
          "name": "approved",
          "type": "bool"
        }
      ],
      "name": "setApprovalForAll",
      "outputs": [],
      "stateMutability": "nonpayable",
      "type": "function"
    },
    {
      "inputs": [
        {
          "internalType": "bytes4",
          "name": "interfaceId",
          "type": "bytes4"
        }
      ],
      "name": "supportsInterface",
      "outputs": [
        {
          "internalType": "bool",
          "name": "",
          "type": "bool"
        }
      ],
      "stateMutability": "view",
      "type": "function",
      "constant": true
    },
    {
      "inputs": [],
      "name": "symbol",
      "outputs": [
        {
          "internalType": "string",
          "name": "",
          "type": "string"
        }
      ],
      "stateMutability": "view",
      "type": "function",
      "constant": true
    },
    {
      "inputs": [
        {
          "internalType": "uint256",
          "name": "tokenId",
          "type": "uint256"
        }
      ],
      "name": "tokenURI",
      "outputs": [
        {
          "internalType": "string",
          "name": "",
          "type": "string"
        }
      ],
      "stateMutability": "view",
      "type": "function",
      "constant": true
    },
    {
      "inputs": [
        {
          "internalType": "address",
          "name": "from",
          "type": "address"
        },
        {
          "internalType": "address",
          "name": "to",
          "type": "address"
        },
        {
          "internalType": "uint256",
          "name": "tokenId",
          "type": "uint256"
        }
      ],
      "name": "transferFrom",
      "outputs": [],
      "stateMutability": "nonpayable",
      "type": "function"
    },
    {
      "inputs": [
        {
          "internalType": "address",
          "name": "newOwner",
          "type": "address"
        }
      ],
      "name": "transferOwnership",
      "outputs": [],
      "stateMutability": "nonpayable",
      "type": "function"
    },
    {
      "inputs": [
        {
          "internalType": "uint256",
          "name": "_fee",
          "type": "uint256"
        }
      ],
      "name": "updateFee",
      "outputs": [],
      "stateMutability": "nonpayable",
      "type": "function"
    },
    {
      "inputs": [
        {
          "internalType": "uint256",
          "name": "_fee",
          "type": "uint256"
        }
      ],
      "name": "setLevelUpFee",
      "outputs": [],
      "stateMutability": "nonpayable",
      "type": "function"
    },
    {
      "inputs": [],
      "name": "withDraw",
      "outputs": [],
      "stateMutability": "payable",
      "type": "function",
      "payable": true
    },
    {
      "inputs": [
        {
          "internalType": "string",
          "name": "_name",
          "type": "string"
        }
      ],
      "name": "createRandomLip",
      "outputs": [],
      "stateMutability": "payable",
      "type": "function",
      "payable": true
    },
    {
      "inputs": [],
      "name": "getLips",
      "outputs": [
        {
          "components": [
            {
              "internalType": "string",
              "name": "name",
              "type": "string"
            },
            {
              "internalType": "uint256",
              "name": "id",
              "type": "uint256"
            },
            {
              "internalType": "uint256",
              "name": "dna",
              "type": "uint256"
            },
            {
              "internalType": "uint8",
              "name": "level",
              "type": "uint8"
            },
            {
              "internalType": "uint8",
              "name": "rarity",
              "type": "uint8"
            },
            {
              "internalType": "uint32",
              "name": "readyTime",
              "type": "uint32"
            }
          ],
          "internalType": "struct LipToken.Lip[]",
          "name": "",
          "type": "tuple[]"
        }
      ],
      "stateMutability": "view",
      "type": "function",
      "constant": true
    },
    {
      "inputs": [
        {
          "internalType": "address",
          "name": "_owner",
          "type": "address"
        }
      ],
      "name": "getAddressLips",
      "outputs": [
        {
          "components": [
            {
              "internalType": "string",
              "name": "name",
              "type": "string"
            },
            {
              "internalType": "uint256",
              "name": "id",
              "type": "uint256"
            },
            {
              "internalType": "uint256",
              "name": "dna",
              "type": "uint256"
            },
            {
              "internalType": "uint8",
              "name": "level",
              "type": "uint8"
            },
            {
              "internalType": "uint8",
              "name": "rarity",
              "type": "uint8"
            },
            {
              "internalType": "uint32",
              "name": "readyTime",
              "type": "uint32"
            }
          ],
          "internalType": "struct LipToken.Lip[]",
          "name": "",
          "type": "tuple[]"
        }
      ],
      "stateMutability": "view",
      "type": "function",
      "constant": true
    },
    {
      "inputs": [
        {
          "internalType": "uint256",
          "name": "_lipId",
          "type": "uint256"
        }
      ],
      "name": "levelUp",
      "outputs": [],
      "stateMutability": "nonpayable",
      "type": "function"
    },
    {
      "inputs": [
        {
          "internalType": "uint256",
          "name": "_lipId",
          "type": "uint256"
        },
        {
          "internalType": "string",
          "name": "_newName",
          "type": "string"
        }
      ],
      "name": "changeName",
      "outputs": [],
      "stateMutability": "nonpayable",
      "type": "function"
    }
  ],
  "bytecode": "0x6080604052662386f26fc10000600855662386f26fc1000060095562015180600a553480156200002e57600080fd5b506040518060400160405280600981526020017f4c697020546f6b656e00000000000000000000000000000000000000000000008152506040518060400160405280600381526020017f4c505400000000000000000000000000000000000000000000000000000000008152508160009080519060200190620000b3929190620001c3565b508060019080519060200190620000cc929190620001c3565b505050620000ef620000e3620000f560201b60201c565b620000fd60201b60201c565b620002d8565b600033905090565b6000600660009054906101000a900473ffffffffffffffffffffffffffffffffffffffff16905081600660006101000a81548173ffffffffffffffffffffffffffffffffffffffff021916908373ffffffffffffffffffffffffffffffffffffffff1602179055508173ffffffffffffffffffffffffffffffffffffffff168173ffffffffffffffffffffffffffffffffffffffff167f8be0079c531659141344cd1fd0a4f28419497f9722a3daafe3b4186f6b6457e060405160405180910390a35050565b828054620001d190620002a2565b90600052602060002090601f016020900481019282620001f5576000855562000241565b82601f106200021057805160ff191683800117855562000241565b8280016001018555821562000241579182015b828111156200024057825182559160200191906001019062000223565b5b50905062000250919062000254565b5090565b5b808211156200026f57600081600090555060010162000255565b5090565b7f4e487b7100000000000000000000000000000000000000000000000000000000600052602260045260246000fd5b60006002820490506001821680620002bb57607f821691505b60208210811415620002d257620002d162000273565b5b50919050565b613e8880620002e86000396000f3fe6080604052600436106101665760003560e01c806370a08231116100d1578063a22cb4651161008a578063c87b56dd11610064578063c87b56dd1461050f578063ccf670f81461054c578063e985e9c514610575578063f2fde38b146105b257610166565b8063a22cb46514610494578063b88d4fde146104bd578063c39cbef1146104e657610166565b806370a0823114610396578063715018a6146103d357806383b5daf7146103ea5780638da5cb5b146104155780639012c4a81461044057806395d89b411461046957610166565b806323b872dd1161012357806323b872dd1461026c57806342842e0e146102955780635aa4ede0146102be5780635ec163db146102fb5780636352211e1461033d578063698d640c1461037a57610166565b806301ffc9a71461016b57806306fdde03146101a8578063081812fc146101d3578063095ea7b3146102105780630ce90ec2146102395780630fdb1c1014610262575b600080fd5b34801561017757600080fd5b50610192600480360381019061018d91906127f4565b6105db565b60405161019f919061283c565b60405180910390f35b3480156101b457600080fd5b506101bd6106bd565b6040516101ca91906128f0565b60405180910390f35b3480156101df57600080fd5b506101fa60048036038101906101f59190612948565b61074f565b60405161020791906129b6565b60405180910390f35b34801561021c57600080fd5b50610237600480360381019061023291906129fd565b6107d4565b005b34801561024557600080fd5b50610260600480360381019061025b9190612948565b6108ec565b005b61026a6109ad565b005b34801561027857600080fd5b50610293600480360381019061028e9190612a3d565b610a7f565b005b3480156102a157600080fd5b506102bc60048036038101906102b79190612a3d565b610adf565b005b3480156102ca57600080fd5b506102e560048036038101906102e09190612a90565b610aff565b6040516102f29190612c9c565b60405180910390f35b34801561030757600080fd5b50610322600480360381019061031d9190612948565b610ca3565b60405161033496959493929190612ceb565b60405180910390f35b34801561034957600080fd5b50610364600480360381019061035f9190612948565b610da1565b60405161037191906129b6565b60405180910390f35b610394600480360381019061038f9190612e88565b610e53565b005b3480156103a257600080fd5b506103bd60048036038101906103b89190612a90565b610e6e565b6040516103ca9190612ed1565b60405180910390f35b3480156103df57600080fd5b506103e8610f26565b005b3480156103f657600080fd5b506103ff610fae565b60405161040c9190612c9c565b60405180910390f35b34801561042157600080fd5b5061042a611113565b60405161043791906129b6565b60405180910390f35b34801561044c57600080fd5b5061046760048036038101906104629190612948565b61113d565b005b34801561047557600080fd5b5061047e6111c3565b60405161048b91906128f0565b60405180910390f35b3480156104a057600080fd5b506104bb60048036038101906104b69190612f18565b611255565b005b3480156104c957600080fd5b506104e460048036038101906104df9190612ff9565b61126b565b005b3480156104f257600080fd5b5061050d600480360381019061050891906130dc565b6112cd565b005b34801561051b57600080fd5b5061053660048036038101906105319190612948565b611390565b60405161054391906128f0565b60405180910390f35b34801561055857600080fd5b50610573600480360381019061056e9190612948565b611437565b005b34801561058157600080fd5b5061059c6004803603810190610597919061313c565b6114bd565b6040516105a9919061283c565b60405180910390f35b3480156105be57600080fd5b506105d960048036038101906105d49190612a90565b611551565b005b60007f80ac58cd000000000000000000000000000000000000000000000000000000007bffffffffffffffffffffffffffffffffffffffffffffffffffffffff1916827bffffffffffffffffffffffffffffffffffffffffffffffffffffffff191614806106a657507f5b5e139f000000000000000000000000000000000000000000000000000000007bffffffffffffffffffffffffffffffffffffffffffffffffffffffff1916827bffffffffffffffffffffffffffffffffffffffffffffffffffffffff1916145b806106b657506106b582611649565b5b9050919050565b6060600080546106cc906131ab565b80601f01602080910402602001604051908101604052809291908181526020018280546106f8906131ab565b80156107455780601f1061071a57610100808354040283529160200191610745565b820191906000526020600020905b81548152906001019060200180831161072857829003601f168201915b5050505050905090565b600061075a826116b3565b610799576040517f08c379a00000000000000000000000000000000000000000000000000000000081526004016107909061324f565b60405180910390fd5b6004600083815260200190815260200160002060009054906101000a900473ffffffffffffffffffffffffffffffffffffffff169050919050565b60006107df82610da1565b90508073ffffffffffffffffffffffffffffffffffffffff168373ffffffffffffffffffffffffffffffffffffffff161415610850576040517f08c379a0000000000000000000000000000000000000000000000000000000008152600401610847906132e1565b60405180910390fd5b8073ffffffffffffffffffffffffffffffffffffffff1661086f61171f565b73ffffffffffffffffffffffffffffffffffffffff16148061089e575061089d8161089861171f565b6114bd565b5b6108dd576040517f08c379a00000000000000000000000000000000000000000000000000000000081526004016108d490613373565b60405180910390fd5b6108e78383611727565b505050565b803373ffffffffffffffffffffffffffffffffffffffff1661090d82610da1565b73ffffffffffffffffffffffffffffffffffffffff161461092d57600080fd5b6000600b838154811061094357610942613393565b5b9060005260206000209060040201905061095c816117e0565b61096557600080fd5b80600301600081819054906101000a900460ff1680929190610986906133f1565b91906101000a81548160ff021916908360ff160217905550506109a881611807565b505050565b6109b561171f565b73ffffffffffffffffffffffffffffffffffffffff166109d3611113565b73ffffffffffffffffffffffffffffffffffffffff1614610a29576040517f08c379a0000000000000000000000000000000000000000000000000000000008152600401610a2090613467565b60405180910390fd5b6000610a33611113565b90508073ffffffffffffffffffffffffffffffffffffffff166108fc479081150290604051600060405180830381858888f19350505050158015610a7b573d6000803e3d6000fd5b5050565b610a90610a8a61171f565b8261183a565b610acf576040517f08c379a0000000000000000000000000000000000000000000000000000000008152600401610ac6906134f9565b60405180910390fd5b610ada838383611918565b505050565b610afa8383836040518060200160405280600081525061126b565b505050565b6060600c60008373ffffffffffffffffffffffffffffffffffffffff1673ffffffffffffffffffffffffffffffffffffffff168152602001908152602001600020805480602002602001604051908101604052809291908181526020016000905b82821015610c9857838290600052602060002090600402016040518060c0016040529081600082018054610b93906131ab565b80601f0160208091040260200160405190810160405280929190818152602001828054610bbf906131ab565b8015610c0c5780601f10610be157610100808354040283529160200191610c0c565b820191906000526020600020905b815481529060010190602001808311610bef57829003601f168201915b5050505050815260200160018201548152602001600282015481526020016003820160009054906101000a900460ff1660ff1660ff1681526020016003820160019054906101000a900460ff1660ff1660ff1681526020016003820160029054906101000a900463ffffffff1663ffffffff1663ffffffff168152505081526020019060010190610b60565b505050509050919050565b600b8181548110610cb357600080fd5b9060005260206000209060040201600091509050806000018054610cd6906131ab565b80601f0160208091040260200160405190810160405280929190818152602001828054610d02906131ab565b8015610d4f5780601f10610d2457610100808354040283529160200191610d4f565b820191906000526020600020905b815481529060010190602001808311610d3257829003601f168201915b5050505050908060010154908060020154908060030160009054906101000a900460ff16908060030160019054906101000a900460ff16908060030160029054906101000a900463ffffffff16905086565b6000806002600084815260200190815260200160002060009054906101000a900473ffffffffffffffffffffffffffffffffffffffff169050600073ffffffffffffffffffffffffffffffffffffffff168173ffffffffffffffffffffffffffffffffffffffff161415610e4a576040517f08c379a0000000000000000000000000000000000000000000000000000000008152600401610e419061358b565b60405180910390fd5b80915050919050565b600854341015610e6257600080fd5b610e6b81611b74565b50565b60008073ffffffffffffffffffffffffffffffffffffffff168273ffffffffffffffffffffffffffffffffffffffff161415610edf576040517f08c379a0000000000000000000000000000000000000000000000000000000008152600401610ed69061361d565b60405180910390fd5b600360008373ffffffffffffffffffffffffffffffffffffffff1673ffffffffffffffffffffffffffffffffffffffff168152602001908152602001600020549050919050565b610f2e61171f565b73ffffffffffffffffffffffffffffffffffffffff16610f4c611113565b73ffffffffffffffffffffffffffffffffffffffff1614610fa2576040517f08c379a0000000000000000000000000000000000000000000000000000000008152600401610f9990613467565b60405180910390fd5b610fac6000611e2c565b565b6060600b805480602002602001604051908101604052809291908181526020016000905b8282101561110a57838290600052602060002090600402016040518060c0016040529081600082018054611005906131ab565b80601f0160208091040260200160405190810160405280929190818152602001828054611031906131ab565b801561107e5780601f106110535761010080835404028352916020019161107e565b820191906000526020600020905b81548152906001019060200180831161106157829003601f168201915b5050505050815260200160018201548152602001600282015481526020016003820160009054906101000a900460ff1660ff1660ff1681526020016003820160019054906101000a900460ff1660ff1660ff1681526020016003820160029054906101000a900463ffffffff1663ffffffff1663ffffffff168152505081526020019060010190610fd2565b50505050905090565b6000600660009054906101000a900473ffffffffffffffffffffffffffffffffffffffff16905090565b61114561171f565b73ffffffffffffffffffffffffffffffffffffffff16611163611113565b73ffffffffffffffffffffffffffffffffffffffff16146111b9576040517f08c379a00000000000000000000000000000000000000000000000000000000081526004016111b090613467565b60405180910390fd5b8060088190555050565b6060600180546111d2906131ab565b80601f01602080910402602001604051908101604052809291908181526020018280546111fe906131ab565b801561124b5780601f106112205761010080835404028352916020019161124b565b820191906000526020600020905b81548152906001019060200180831161122e57829003601f168201915b5050505050905090565b61126761126061171f565b8383611ef2565b5050565b61127c61127661171f565b8361183a565b6112bb576040517f08c379a00000000000000000000000000000000000000000000000000000000081526004016112b2906134f9565b60405180910390fd5b6112c78484848461205f565b50505050565b60028381600b82815481106112e5576112e4613393565b5b906000526020600020906004020160030160009054906101000a900460ff1660ff16101561131257600080fd5b843373ffffffffffffffffffffffffffffffffffffffff1661133382610da1565b73ffffffffffffffffffffffffffffffffffffffff161461135357600080fd5b8484600b888154811061136957611368613393565b5b9060005260206000209060040201600001919061138792919061265f565b50505050505050565b606061139b826116b3565b6113da576040517f08c379a00000000000000000000000000000000000000000000000000000000081526004016113d1906136af565b60405180910390fd5b60006113e46120bb565b90506000815111611404576040518060200160405280600081525061142f565b8061140e846120d2565b60405160200161141f92919061370b565b6040516020818303038152906040525b915050919050565b61143f61171f565b73ffffffffffffffffffffffffffffffffffffffff1661145d611113565b73ffffffffffffffffffffffffffffffffffffffff16146114b3576040517f08c379a00000000000000000000000000000000000000000000000000000000081526004016114aa90613467565b60405180910390fd5b8060098190555050565b6000600560008473ffffffffffffffffffffffffffffffffffffffff1673ffffffffffffffffffffffffffffffffffffffff16815260200190815260200160002060008373ffffffffffffffffffffffffffffffffffffffff1673ffffffffffffffffffffffffffffffffffffffff16815260200190815260200160002060009054906101000a900460ff16905092915050565b61155961171f565b73ffffffffffffffffffffffffffffffffffffffff16611577611113565b73ffffffffffffffffffffffffffffffffffffffff16146115cd576040517f08c379a00000000000000000000000000000000000000000000000000000000081526004016115c490613467565b60405180910390fd5b600073ffffffffffffffffffffffffffffffffffffffff168173ffffffffffffffffffffffffffffffffffffffff16141561163d576040517f08c379a0000000000000000000000000000000000000000000000000000000008152600401611634906137a1565b60405180910390fd5b61164681611e2c565b50565b60007f01ffc9a7000000000000000000000000000000000000000000000000000000007bffffffffffffffffffffffffffffffffffffffffffffffffffffffff1916827bffffffffffffffffffffffffffffffffffffffffffffffffffffffff1916149050919050565b60008073ffffffffffffffffffffffffffffffffffffffff166002600084815260200190815260200160002060009054906101000a900473ffffffffffffffffffffffffffffffffffffffff1673ffffffffffffffffffffffffffffffffffffffff1614159050919050565b600033905090565b816004600083815260200190815260200160002060006101000a81548173ffffffffffffffffffffffffffffffffffffffff021916908373ffffffffffffffffffffffffffffffffffffffff160217905550808273ffffffffffffffffffffffffffffffffffffffff1661179a83610da1565b73ffffffffffffffffffffffffffffffffffffffff167f8c5be1e5ebec7d5bd14f71427d1e84f3dd0314c0f7b2291e5b200ac8c7c3b92560405160405180910390a45050565b6000428260030160029054906101000a900463ffffffff1663ffffffff1611159050919050565b600a544261181591906137c1565b8160030160026101000a81548163ffffffff021916908363ffffffff16021790555050565b6000611845826116b3565b611884576040517f08c379a000000000000000000000000000000000000000000000000000000000815260040161187b90613889565b60405180910390fd5b600061188f83610da1565b90508073ffffffffffffffffffffffffffffffffffffffff168473ffffffffffffffffffffffffffffffffffffffff1614806118fe57508373ffffffffffffffffffffffffffffffffffffffff166118e68461074f565b73ffffffffffffffffffffffffffffffffffffffff16145b8061190f575061190e81856114bd565b5b91505092915050565b8273ffffffffffffffffffffffffffffffffffffffff1661193882610da1565b73ffffffffffffffffffffffffffffffffffffffff161461198e576040517f08c379a00000000000000000000000000000000000000000000000000000000081526004016119859061391b565b60405180910390fd5b600073ffffffffffffffffffffffffffffffffffffffff168273ffffffffffffffffffffffffffffffffffffffff1614156119fe576040517f08c379a00000000000000000000000000000000000000000000000000000000081526004016119f5906139ad565b60405180910390fd5b611a09838383612233565b611a14600082611727565b6001600360008573ffffffffffffffffffffffffffffffffffffffff1673ffffffffffffffffffffffffffffffffffffffff1681526020019081526020016000206000828254611a6491906139cd565b925050819055506001600360008473ffffffffffffffffffffffffffffffffffffffff1673ffffffffffffffffffffffffffffffffffffffff1681526020019081526020016000206000828254611abb91906137c1565b92505081905550816002600083815260200190815260200160002060006101000a81548173ffffffffffffffffffffffffffffffffffffffff021916908373ffffffffffffffffffffffffffffffffffffffff160217905550808273ffffffffffffffffffffffffffffffffffffffff168473ffffffffffffffffffffffffffffffffffffffff167fddf252ad1be2c89b69c2b068fc378daa952ba7f163c4a11628f55a4df523b3ef60405160405180910390a4505050565b6000611b86662386f26fc10000612238565b90506000611b946064612238565b905060006040518060c001604052808581526020016007548152602001848152602001600160ff1681526020018360ff168152602001600a5442611bd891906137c1565b63ffffffff168152509050600b8190806001815401808255809150506001900390600052602060002090600402016000909190919091506000820151816000019080519060200190611c2b9291906126e5565b50602082015181600101556040820151816002015560608201518160030160006101000a81548160ff021916908360ff16021790555060808201518160030160016101000a81548160ff021916908360ff16021790555060a08201518160030160026101000a81548163ffffffff021916908363ffffffff1602179055505050600c60003373ffffffffffffffffffffffffffffffffffffffff1673ffffffffffffffffffffffffffffffffffffffff1681526020019081526020016000208190806001815401808255809150506001900390600052602060002090600402016000909190919091506000820151816000019080519060200190611d309291906126e5565b50602082015181600101556040820151816002015560608201518160030160006101000a81548160ff021916908360ff16021790555060808201518160030160016101000a81548160ff021916908360ff16021790555060a08201518160030160026101000a81548163ffffffff021916908363ffffffff1602179055505050611dbc3360075461227d565b3373ffffffffffffffffffffffffffffffffffffffff167f29c4292b8838988609f9bd8e9042f7e77158b1f5ebfcae6494b7b709c3d20ffc60075485604051611e06929190613a01565b60405180910390a260076000815480929190611e2190613a2a565b919050555050505050565b6000600660009054906101000a900473ffffffffffffffffffffffffffffffffffffffff16905081600660006101000a81548173ffffffffffffffffffffffffffffffffffffffff021916908373ffffffffffffffffffffffffffffffffffffffff1602179055508173ffffffffffffffffffffffffffffffffffffffff168173ffffffffffffffffffffffffffffffffffffffff167f8be0079c531659141344cd1fd0a4f28419497f9722a3daafe3b4186f6b6457e060405160405180910390a35050565b8173ffffffffffffffffffffffffffffffffffffffff168373ffffffffffffffffffffffffffffffffffffffff161415611f61576040517f08c379a0000000000000000000000000000000000000000000000000000000008152600401611f5890613abf565b60405180910390fd5b80600560008573ffffffffffffffffffffffffffffffffffffffff1673ffffffffffffffffffffffffffffffffffffffff16815260200190815260200160002060008473ffffffffffffffffffffffffffffffffffffffff1673ffffffffffffffffffffffffffffffffffffffff16815260200190815260200160002060006101000a81548160ff0219169083151502179055508173ffffffffffffffffffffffffffffffffffffffff168373ffffffffffffffffffffffffffffffffffffffff167f17307eab39ab6107e8899845ad3d59bd9653f200f220920489ca2b5937696c3183604051612052919061283c565b60405180910390a3505050565b61206a848484611918565b6120768484848461229b565b6120b5576040517f08c379a00000000000000000000000000000000000000000000000000000000081526004016120ac90613b51565b60405180910390fd5b50505050565b606060405180602001604052806000815250905090565b6060600082141561211a576040518060400160405280600181526020017f3000000000000000000000000000000000000000000000000000000000000000815250905061222e565b600082905060005b6000821461214c57808061213590613a2a565b915050600a826121459190613ba0565b9150612122565b60008167ffffffffffffffff81111561216857612167612d5d565b5b6040519080825280601f01601f19166020018201604052801561219a5781602001600182028036833780820191505090505b5090505b60008514612227576001826121b391906139cd565b9150600a856121c29190613bd1565b60306121ce91906137c1565b60f81b8183815181106121e4576121e3613393565b5b60200101907effffffffffffffffffffffffffffffffffffffffffffffffffffffffffffff1916908160001a905350600a856122209190613ba0565b945061219e565b8093505050505b919050565b505050565b600080423360405160200161224e929190613c6b565b6040516020818303038152906040528051906020012060001c905082816122759190613bd1565b915050919050565b612297828260405180602001604052806000815250612423565b5050565b60006122bc8473ffffffffffffffffffffffffffffffffffffffff1661247e565b15612416578373ffffffffffffffffffffffffffffffffffffffff1663150b7a026122e561171f565b8786866040518563ffffffff1660e01b81526004016123079493929190613cec565b6020604051808303816000875af192505050801561234357506040513d601f19601f820116820180604052508101906123409190613d4d565b60015b6123c6573d8060008114612373576040519150601f19603f3d011682016040523d82523d6000602084013e612378565b606091505b506000815114156123be576040517f08c379a00000000000000000000000000000000000000000000000000000000081526004016123b590613b51565b60405180910390fd5b805181602001fd5b63150b7a0260e01b7bffffffffffffffffffffffffffffffffffffffffffffffffffffffff1916817bffffffffffffffffffffffffffffffffffffffffffffffffffffffff19161491505061241b565b600190505b949350505050565b61242d8383612491565b61243a600084848461229b565b612479576040517f08c379a000000000000000000000000000000000000000000000000000000000815260040161247090613b51565b60405180910390fd5b505050565b600080823b905060008111915050919050565b600073ffffffffffffffffffffffffffffffffffffffff168273ffffffffffffffffffffffffffffffffffffffff161415612501576040517f08c379a00000000000000000000000000000000000000000000000000000000081526004016124f890613dc6565b60405180910390fd5b61250a816116b3565b1561254a576040517f08c379a000000000000000000000000000000000000000000000000000000000815260040161254190613e32565b60405180910390fd5b61255660008383612233565b6001600360008473ffffffffffffffffffffffffffffffffffffffff1673ffffffffffffffffffffffffffffffffffffffff16815260200190815260200160002060008282546125a691906137c1565b92505081905550816002600083815260200190815260200160002060006101000a81548173ffffffffffffffffffffffffffffffffffffffff021916908373ffffffffffffffffffffffffffffffffffffffff160217905550808273ffffffffffffffffffffffffffffffffffffffff16600073ffffffffffffffffffffffffffffffffffffffff167fddf252ad1be2c89b69c2b068fc378daa952ba7f163c4a11628f55a4df523b3ef60405160405180910390a45050565b82805461266b906131ab565b90600052602060002090601f01602090048101928261268d57600085556126d4565b82601f106126a657803560ff19168380011785556126d4565b828001600101855582156126d4579182015b828111156126d35782358255916020019190600101906126b8565b5b5090506126e1919061276b565b5090565b8280546126f1906131ab565b90600052602060002090601f016020900481019282612713576000855561275a565b82601f1061272c57805160ff191683800117855561275a565b8280016001018555821561275a579182015b8281111561275957825182559160200191906001019061273e565b5b509050612767919061276b565b5090565b5b8082111561278457600081600090555060010161276c565b5090565b6000604051905090565b600080fd5b600080fd5b60007fffffffff0000000000000000000000000000000000000000000000000000000082169050919050565b6127d18161279c565b81146127dc57600080fd5b50565b6000813590506127ee816127c8565b92915050565b60006020828403121561280a57612809612792565b5b6000612818848285016127df565b91505092915050565b60008115159050919050565b61283681612821565b82525050565b6000602082019050612851600083018461282d565b92915050565b600081519050919050565b600082825260208201905092915050565b60005b83811015612891578082015181840152602081019050612876565b838111156128a0576000848401525b50505050565b6000601f19601f8301169050919050565b60006128c282612857565b6128cc8185612862565b93506128dc818560208601612873565b6128e5816128a6565b840191505092915050565b6000602082019050818103600083015261290a81846128b7565b905092915050565b6000819050919050565b61292581612912565b811461293057600080fd5b50565b6000813590506129428161291c565b92915050565b60006020828403121561295e5761295d612792565b5b600061296c84828501612933565b91505092915050565b600073ffffffffffffffffffffffffffffffffffffffff82169050919050565b60006129a082612975565b9050919050565b6129b081612995565b82525050565b60006020820190506129cb60008301846129a7565b92915050565b6129da81612995565b81146129e557600080fd5b50565b6000813590506129f7816129d1565b92915050565b60008060408385031215612a1457612a13612792565b5b6000612a22858286016129e8565b9250506020612a3385828601612933565b9150509250929050565b600080600060608486031215612a5657612a55612792565b5b6000612a64868287016129e8565b9350506020612a75868287016129e8565b9250506040612a8686828701612933565b9150509250925092565b600060208284031215612aa657612aa5612792565b5b6000612ab4848285016129e8565b91505092915050565b600081519050919050565b600082825260208201905092915050565b6000819050602082019050919050565b600082825260208201905092915050565b6000612b0582612857565b612b0f8185612ae9565b9350612b1f818560208601612873565b612b28816128a6565b840191505092915050565b612b3c81612912565b82525050565b600060ff82169050919050565b612b5881612b42565b82525050565b600063ffffffff82169050919050565b612b7781612b5e565b82525050565b600060c0830160008301518482036000860152612b9a8282612afa565b9150506020830151612baf6020860182612b33565b506040830151612bc26040860182612b33565b506060830151612bd56060860182612b4f565b506080830151612be86080860182612b4f565b5060a0830151612bfb60a0860182612b6e565b508091505092915050565b6000612c128383612b7d565b905092915050565b6000602082019050919050565b6000612c3282612abd565b612c3c8185612ac8565b935083602082028501612c4e85612ad9565b8060005b85811015612c8a5784840389528151612c6b8582612c06565b9450612c7683612c1a565b925060208a01995050600181019050612c52565b50829750879550505050505092915050565b60006020820190508181036000830152612cb68184612c27565b905092915050565b612cc781612912565b82525050565b612cd681612b42565b82525050565b612ce581612b5e565b82525050565b600060c0820190508181036000830152612d0581896128b7565b9050612d146020830188612cbe565b612d216040830187612cbe565b612d2e6060830186612ccd565b612d3b6080830185612ccd565b612d4860a0830184612cdc565b979650505050505050565b600080fd5b600080fd5b7f4e487b7100000000000000000000000000000000000000000000000000000000600052604160045260246000fd5b612d95826128a6565b810181811067ffffffffffffffff82111715612db457612db3612d5d565b5b80604052505050565b6000612dc7612788565b9050612dd38282612d8c565b919050565b600067ffffffffffffffff821115612df357612df2612d5d565b5b612dfc826128a6565b9050602081019050919050565b82818337600083830152505050565b6000612e2b612e2684612dd8565b612dbd565b905082815260208101848484011115612e4757612e46612d58565b5b612e52848285612e09565b509392505050565b600082601f830112612e6f57612e6e612d53565b5b8135612e7f848260208601612e18565b91505092915050565b600060208284031215612e9e57612e9d612792565b5b600082013567ffffffffffffffff811115612ebc57612ebb612797565b5b612ec884828501612e5a565b91505092915050565b6000602082019050612ee66000830184612cbe565b92915050565b612ef581612821565b8114612f0057600080fd5b50565b600081359050612f1281612eec565b92915050565b60008060408385031215612f2f57612f2e612792565b5b6000612f3d858286016129e8565b9250506020612f4e85828601612f03565b9150509250929050565b600067ffffffffffffffff821115612f7357612f72612d5d565b5b612f7c826128a6565b9050602081019050919050565b6000612f9c612f9784612f58565b612dbd565b905082815260208101848484011115612fb857612fb7612d58565b5b612fc3848285612e09565b509392505050565b600082601f830112612fe057612fdf612d53565b5b8135612ff0848260208601612f89565b91505092915050565b6000806000806080858703121561301357613012612792565b5b6000613021878288016129e8565b9450506020613032878288016129e8565b935050604061304387828801612933565b925050606085013567ffffffffffffffff81111561306457613063612797565b5b61307087828801612fcb565b91505092959194509250565b600080fd5b600080fd5b60008083601f84011261309c5761309b612d53565b5b8235905067ffffffffffffffff8111156130b9576130b861307c565b5b6020830191508360018202830111156130d5576130d4613081565b5b9250929050565b6000806000604084860312156130f5576130f4612792565b5b600061310386828701612933565b935050602084013567ffffffffffffffff81111561312457613123612797565b5b61313086828701613086565b92509250509250925092565b6000806040838503121561315357613152612792565b5b6000613161858286016129e8565b9250506020613172858286016129e8565b9150509250929050565b7f4e487b7100000000000000000000000000000000000000000000000000000000600052602260045260246000fd5b600060028204905060018216806131c357607f821691505b602082108114156131d7576131d661317c565b5b50919050565b7f4552433732313a20617070726f76656420717565727920666f72206e6f6e657860008201527f697374656e7420746f6b656e0000000000000000000000000000000000000000602082015250565b6000613239602c83612862565b9150613244826131dd565b604082019050919050565b600060208201905081810360008301526132688161322c565b9050919050565b7f4552433732313a20617070726f76616c20746f2063757272656e74206f776e6560008201527f7200000000000000000000000000000000000000000000000000000000000000602082015250565b60006132cb602183612862565b91506132d68261326f565b604082019050919050565b600060208201905081810360008301526132fa816132be565b9050919050565b7f4552433732313a20617070726f76652063616c6c6572206973206e6f74206f7760008201527f6e6572206e6f7220617070726f76656420666f7220616c6c0000000000000000602082015250565b600061335d603883612862565b915061336882613301565b604082019050919050565b6000602082019050818103600083015261338c81613350565b9050919050565b7f4e487b7100000000000000000000000000000000000000000000000000000000600052603260045260246000fd5b7f4e487b7100000000000000000000000000000000000000000000000000000000600052601160045260246000fd5b60006133fc82612b42565b915060ff8214156134105761340f6133c2565b5b600182019050919050565b7f4f776e61626c653a2063616c6c6572206973206e6f7420746865206f776e6572600082015250565b6000613451602083612862565b915061345c8261341b565b602082019050919050565b6000602082019050818103600083015261348081613444565b9050919050565b7f4552433732313a207472616e736665722063616c6c6572206973206e6f74206f60008201527f776e6572206e6f7220617070726f766564000000000000000000000000000000602082015250565b60006134e3603183612862565b91506134ee82613487565b604082019050919050565b60006020820190508181036000830152613512816134d6565b9050919050565b7f4552433732313a206f776e657220717565727920666f72206e6f6e657869737460008201527f656e7420746f6b656e0000000000000000000000000000000000000000000000602082015250565b6000613575602983612862565b915061358082613519565b604082019050919050565b600060208201905081810360008301526135a481613568565b9050919050565b7f4552433732313a2062616c616e636520717565727920666f7220746865207a6560008201527f726f206164647265737300000000000000000000000000000000000000000000602082015250565b6000613607602a83612862565b9150613612826135ab565b604082019050919050565b60006020820190508181036000830152613636816135fa565b9050919050565b7f4552433732314d657461646174613a2055524920717565727920666f72206e6f60008201527f6e6578697374656e7420746f6b656e0000000000000000000000000000000000602082015250565b6000613699602f83612862565b91506136a48261363d565b604082019050919050565b600060208201905081810360008301526136c88161368c565b9050919050565b600081905092915050565b60006136e582612857565b6136ef81856136cf565b93506136ff818560208601612873565b80840191505092915050565b600061371782856136da565b915061372382846136da565b91508190509392505050565b7f4f776e61626c653a206e6577206f776e657220697320746865207a65726f206160008201527f6464726573730000000000000000000000000000000000000000000000000000602082015250565b600061378b602683612862565b91506137968261372f565b604082019050919050565b600060208201905081810360008301526137ba8161377e565b9050919050565b60006137cc82612912565b91506137d783612912565b9250827fffffffffffffffffffffffffffffffffffffffffffffffffffffffffffffffff0382111561380c5761380b6133c2565b5b828201905092915050565b7f4552433732313a206f70657261746f7220717565727920666f72206e6f6e657860008201527f697374656e7420746f6b656e0000000000000000000000000000000000000000602082015250565b6000613873602c83612862565b915061387e82613817565b604082019050919050565b600060208201905081810360008301526138a281613866565b9050919050565b7f4552433732313a207472616e73666572206f6620746f6b656e2074686174206960008201527f73206e6f74206f776e0000000000000000000000000000000000000000000000602082015250565b6000613905602983612862565b9150613910826138a9565b604082019050919050565b60006020820190508181036000830152613934816138f8565b9050919050565b7f4552433732313a207472616e7366657220746f20746865207a65726f2061646460008201527f7265737300000000000000000000000000000000000000000000000000000000602082015250565b6000613997602483612862565b91506139a28261393b565b604082019050919050565b600060208201905081810360008301526139c68161398a565b9050919050565b60006139d882612912565b91506139e383612912565b9250828210156139f6576139f56133c2565b5b828203905092915050565b6000604082019050613a166000830185612cbe565b613a236020830184612cbe565b9392505050565b6000613a3582612912565b91507fffffffffffffffffffffffffffffffffffffffffffffffffffffffffffffffff821415613a6857613a676133c2565b5b600182019050919050565b7f4552433732313a20617070726f766520746f2063616c6c657200000000000000600082015250565b6000613aa9601983612862565b9150613ab482613a73565b602082019050919050565b60006020820190508181036000830152613ad881613a9c565b9050919050565b7f4552433732313a207472616e7366657220746f206e6f6e20455243373231526560008201527f63656976657220696d706c656d656e7465720000000000000000000000000000602082015250565b6000613b3b603283612862565b9150613b4682613adf565b604082019050919050565b60006020820190508181036000830152613b6a81613b2e565b9050919050565b7f4e487b7100000000000000000000000000000000000000000000000000000000600052601260045260246000fd5b6000613bab82612912565b9150613bb683612912565b925082613bc657613bc5613b71565b5b828204905092915050565b6000613bdc82612912565b9150613be783612912565b925082613bf757613bf6613b71565b5b828206905092915050565b6000819050919050565b613c1d613c1882612912565b613c02565b82525050565b60008160601b9050919050565b6000613c3b82613c23565b9050919050565b6000613c4d82613c30565b9050919050565b613c65613c6082612995565b613c42565b82525050565b6000613c778285613c0c565b602082019150613c878284613c54565b6014820191508190509392505050565b600081519050919050565b600082825260208201905092915050565b6000613cbe82613c97565b613cc88185613ca2565b9350613cd8818560208601612873565b613ce1816128a6565b840191505092915050565b6000608082019050613d0160008301876129a7565b613d0e60208301866129a7565b613d1b6040830185612cbe565b8181036060830152613d2d8184613cb3565b905095945050505050565b600081519050613d47816127c8565b92915050565b600060208284031215613d6357613d62612792565b5b6000613d7184828501613d38565b91505092915050565b7f4552433732313a206d696e7420746f20746865207a65726f2061646472657373600082015250565b6000613db0602083612862565b9150613dbb82613d7a565b602082019050919050565b60006020820190508181036000830152613ddf81613da3565b9050919050565b7f4552433732313a20746f6b656e20616c7265616479206d696e74656400000000600082015250565b6000613e1c601c83612862565b9150613e2782613de6565b602082019050919050565b60006020820190508181036000830152613e4b81613e0f565b905091905056fea2646970667358221220f63079fb08d5fce261c417cab14990ba83c461d212a622698bcacd701a23911864736f6c634300080b0033",
  "immutableReferences": {},
  "source": "// SPDX-License-Identifier: MIT\n\npragma solidity >=0.4.22 <0.9.0;\n\nimport \"@openzeppelin/contracts/token/ERC721/ERC721.sol\";\nimport \"@openzeppelin/contracts/access/Ownable.sol\";\n\ncontract LipToken is ERC721, Ownable {\n    constructor() ERC721(\"Lip Token\", \"LPT\") {}\n\n    uint256 COUNTER;\n    uint256 fee = 0.01 ether;\n    uint256 levelUpFee = 0.01 ether;\n    uint256 cooldownTime = 1 days;\n\n    struct Lip {\n        string name;\n        uint256 id;\n        uint256 dna;\n        uint8 level;\n        uint8 rarity;\n        uint32 readyTime;\n    }\n\n    Lip[] public lips;\n    mapping(address => Lip[]) ownerLips;\n\n    event NewLipCreated(address indexed owner, uint256 id, uint256 dna);\n\n    // helper\n    function _generateRandomNum(uint256 _mod) internal view returns (uint256) {\n        uint256 randomNumber = uint256(\n            keccak256(abi.encodePacked(block.timestamp, msg.sender))\n        );\n        return randomNumber % _mod;\n    }\n\n    function updateFee(uint256 _fee) external onlyOwner {\n        fee = _fee;\n    }\n\n    function setLevelUpFee(uint256 _fee) external onlyOwner {\n        levelUpFee = _fee;\n    }\n\n    function withDraw() external payable onlyOwner {\n        address payable _owner = payable(owner());\n        _owner.transfer(address(this).balance);\n    }\n\n    modifier aboveLevel(uint256 _level, uint256 _lipId) {\n        require(lips[_lipId].level >= _level);\n        _;\n    }\n\n    modifier onlyOwnerOf(uint256 _lipId) {\n        require(ownerOf(_lipId) == msg.sender);\n        _;\n    }\n\n    function _triggerCooldown(Lip storage _lip) internal {\n        _lip.readyTime = uint32(block.timestamp + cooldownTime);\n    }\n\n    function _isReady(Lip storage _lip) internal view returns (bool) {\n        return (_lip.readyTime <= block.timestamp);\n    }\n\n    function _createLip(string memory _name) internal {\n        uint256 randomDna = _generateRandomNum(10**16);\n        uint8 randomRarity = uint8(_generateRandomNum(100));\n        Lip memory newLip = Lip(\n            _name,\n            COUNTER,\n            randomDna,\n            1,\n            randomRarity,\n            uint32(block.timestamp + cooldownTime)\n        );\n        lips.push(newLip);\n        ownerLips[msg.sender].push(newLip);\n        _safeMint(msg.sender, COUNTER);\n        emit NewLipCreated(msg.sender, COUNTER, randomDna);\n        COUNTER++;\n    }\n\n    function createRandomLip(string memory _name) public payable {\n        require(msg.value >= fee);\n        _createLip(_name);\n    }\n\n    function getLips() public view returns (Lip[] memory) {\n        return lips;\n    }\n\n    // other way to get owner lips\n    // function getOwnerLips(address _owner) public view returns (Lip[] memory) {\n    //     Lip[] memory result = new Lip[](balanceOf(_owner));\n    //     uint256 counter = 0;\n    //     for (uint256 i = 0; i < lips.length; i++) {\n    //         if (ownerOf(i) == _owner) {\n    //             result[counter] = lips[i];\n    //             counter++;\n    //         }\n    //     }\n    //     return result;\n    // }\n\n    function getAddressLips(address _owner) public view returns (Lip[] memory) {\n        return ownerLips[_owner];\n    }\n\n    function levelUp(uint256 _lipId) public onlyOwnerOf(_lipId) {\n        Lip storage lip = lips[_lipId];\n        require(_isReady(lip));\n        lip.level++;\n        _triggerCooldown(lip);\n    }\n\n    function changeName(uint256 _lipId, string calldata _newName)\n        external\n        aboveLevel(2, _lipId)\n        onlyOwnerOf(_lipId)\n    {\n        lips[_lipId].name = _newName;\n    }\n}\n",
  "sourcePath": "C:\\Github\\nft_game\\src\\contracts\\LipToken.sol",
  "compiler": {
    "name": "solc",
    "version": "0.8.11+commit.d7f03943.Emscripten.clang"
  },
  "schemaVersion": "3.4.4",
  "updatedAt": "2022-02-02T02:10:36.282Z",
  "networkType": "ethereum",
  "devdoc": {
    "kind": "dev",
    "methods": {
      "approve(address,uint256)": {
        "details": "See {IERC721-approve}."
      },
      "balanceOf(address)": {
        "details": "See {IERC721-balanceOf}."
      },
      "getApproved(uint256)": {
        "details": "See {IERC721-getApproved}."
      },
      "isApprovedForAll(address,address)": {
        "details": "See {IERC721-isApprovedForAll}."
      },
      "name()": {
        "details": "See {IERC721Metadata-name}."
      },
      "owner()": {
        "details": "Returns the address of the current owner."
      },
      "ownerOf(uint256)": {
        "details": "See {IERC721-ownerOf}."
      },
      "renounceOwnership()": {
        "details": "Leaves the contract without owner. It will not be possible to call `onlyOwner` functions anymore. Can only be called by the current owner. NOTE: Renouncing ownership will leave the contract without an owner, thereby removing any functionality that is only available to the owner."
      },
      "safeTransferFrom(address,address,uint256)": {
        "details": "See {IERC721-safeTransferFrom}."
      },
      "safeTransferFrom(address,address,uint256,bytes)": {
        "details": "See {IERC721-safeTransferFrom}."
      },
      "setApprovalForAll(address,bool)": {
        "details": "See {IERC721-setApprovalForAll}."
      },
      "supportsInterface(bytes4)": {
        "details": "See {IERC165-supportsInterface}."
      },
      "symbol()": {
        "details": "See {IERC721Metadata-symbol}."
      },
      "tokenURI(uint256)": {
        "details": "See {IERC721Metadata-tokenURI}."
      },
      "transferFrom(address,address,uint256)": {
        "details": "See {IERC721-transferFrom}."
      },
      "transferOwnership(address)": {
        "details": "Transfers ownership of the contract to a new account (`newOwner`). Can only be called by the current owner."
      }
    },
    "version": 1
  },
  "userdoc": {
    "kind": "user",
    "methods": {},
    "version": 1
  }
}