{
  "contractName": "LipToken",
  "abi": [
    {
      "inputs": [],
      "stateMutability": "nonpayable",
      "type": "constructor"
    },
    {
      "anonymous": false,
      "inputs": [
        {
          "indexed": true,
          "internalType": "address",
          "name": "owner",
          "type": "address"
        },
        {
          "indexed": true,
          "internalType": "address",
          "name": "approved",
          "type": "address"
        },
        {
          "indexed": true,
          "internalType": "uint256",
          "name": "tokenId",
          "type": "uint256"
        }
      ],
      "name": "Approval",
      "type": "event"
    },
    {
      "anonymous": false,
      "inputs": [
        {
          "indexed": true,
          "internalType": "address",
          "name": "owner",
          "type": "address"
        },
        {
          "indexed": true,
          "internalType": "address",
          "name": "operator",
          "type": "address"
        },
        {
          "indexed": false,
          "internalType": "bool",
          "name": "approved",
          "type": "bool"
        }
      ],
      "name": "ApprovalForAll",
      "type": "event"
    },
    {
      "anonymous": false,
      "inputs": [
        {
          "indexed": true,
          "internalType": "address",
          "name": "owner",
          "type": "address"
        },
        {
          "indexed": false,
          "internalType": "uint256",
          "name": "id",
          "type": "uint256"
        },
        {
          "indexed": false,
          "internalType": "uint256",
          "name": "dna",
          "type": "uint256"
        }
      ],
      "name": "NewLipCreated",
      "type": "event"
    },
    {
      "anonymous": false,
      "inputs": [
        {
          "indexed": true,
          "internalType": "address",
          "name": "previousOwner",
          "type": "address"
        },
        {
          "indexed": true,
          "internalType": "address",
          "name": "newOwner",
          "type": "address"
        }
      ],
      "name": "OwnershipTransferred",
      "type": "event"
    },
    {
      "anonymous": false,
      "inputs": [
        {
          "indexed": true,
          "internalType": "address",
          "name": "from",
          "type": "address"
        },
        {
          "indexed": true,
          "internalType": "address",
          "name": "to",
          "type": "address"
        },
        {
          "indexed": true,
          "internalType": "uint256",
          "name": "tokenId",
          "type": "uint256"
        }
      ],
      "name": "Transfer",
      "type": "event"
    },
    {
      "inputs": [
        {
          "internalType": "address",
          "name": "to",
          "type": "address"
        },
        {
          "internalType": "uint256",
          "name": "tokenId",
          "type": "uint256"
        }
      ],
      "name": "approve",
      "outputs": [],
      "stateMutability": "nonpayable",
      "type": "function"
    },
    {
      "inputs": [
        {
          "internalType": "address",
          "name": "owner",
          "type": "address"
        }
      ],
      "name": "balanceOf",
      "outputs": [
        {
          "internalType": "uint256",
          "name": "",
          "type": "uint256"
        }
      ],
      "stateMutability": "view",
      "type": "function",
      "constant": true
    },
    {
      "inputs": [
        {
          "internalType": "uint256",
          "name": "tokenId",
          "type": "uint256"
        }
      ],
      "name": "getApproved",
      "outputs": [
        {
          "internalType": "address",
          "name": "",
          "type": "address"
        }
      ],
      "stateMutability": "view",
      "type": "function",
      "constant": true
    },
    {
      "inputs": [
        {
          "internalType": "address",
          "name": "owner",
          "type": "address"
        },
        {
          "internalType": "address",
          "name": "operator",
          "type": "address"
        }
      ],
      "name": "isApprovedForAll",
      "outputs": [
        {
          "internalType": "bool",
          "name": "",
          "type": "bool"
        }
      ],
      "stateMutability": "view",
      "type": "function",
      "constant": true
    },
    {
      "inputs": [
        {
          "internalType": "uint256",
          "name": "",
          "type": "uint256"
        }
      ],
      "name": "lips",
      "outputs": [
        {
          "internalType": "string",
          "name": "name",
          "type": "string"
        },
        {
          "internalType": "uint256",
          "name": "id",
          "type": "uint256"
        },
        {
          "internalType": "uint256",
          "name": "dna",
          "type": "uint256"
        },
        {
          "internalType": "uint8",
          "name": "level",
          "type": "uint8"
        },
        {
          "internalType": "uint8",
          "name": "rarity",
          "type": "uint8"
        }
      ],
      "stateMutability": "view",
      "type": "function",
      "constant": true
    },
    {
      "inputs": [],
      "name": "name",
      "outputs": [
        {
          "internalType": "string",
          "name": "",
          "type": "string"
        }
      ],
      "stateMutability": "view",
      "type": "function",
      "constant": true
    },
    {
      "inputs": [],
      "name": "owner",
      "outputs": [
        {
          "internalType": "address",
          "name": "",
          "type": "address"
        }
      ],
      "stateMutability": "view",
      "type": "function",
      "constant": true
    },
    {
      "inputs": [
        {
          "internalType": "uint256",
          "name": "tokenId",
          "type": "uint256"
        }
      ],
      "name": "ownerOf",
      "outputs": [
        {
          "internalType": "address",
          "name": "",
          "type": "address"
        }
      ],
      "stateMutability": "view",
      "type": "function",
      "constant": true
    },
    {
      "inputs": [],
      "name": "renounceOwnership",
      "outputs": [],
      "stateMutability": "nonpayable",
      "type": "function"
    },
    {
      "inputs": [
        {
          "internalType": "address",
          "name": "from",
          "type": "address"
        },
        {
          "internalType": "address",
          "name": "to",
          "type": "address"
        },
        {
          "internalType": "uint256",
          "name": "tokenId",
          "type": "uint256"
        }
      ],
      "name": "safeTransferFrom",
      "outputs": [],
      "stateMutability": "nonpayable",
      "type": "function"
    },
    {
      "inputs": [
        {
          "internalType": "address",
          "name": "from",
          "type": "address"
        },
        {
          "internalType": "address",
          "name": "to",
          "type": "address"
        },
        {
          "internalType": "uint256",
          "name": "tokenId",
          "type": "uint256"
        },
        {
          "internalType": "bytes",
          "name": "_data",
          "type": "bytes"
        }
      ],
      "name": "safeTransferFrom",
      "outputs": [],
      "stateMutability": "nonpayable",
      "type": "function"
    },
    {
      "inputs": [
        {
          "internalType": "address",
          "name": "operator",
          "type": "address"
        },
        {
          "internalType": "bool",
          "name": "approved",
          "type": "bool"
        }
      ],
      "name": "setApprovalForAll",
      "outputs": [],
      "stateMutability": "nonpayable",
      "type": "function"
    },
    {
      "inputs": [
        {
          "internalType": "bytes4",
          "name": "interfaceId",
          "type": "bytes4"
        }
      ],
      "name": "supportsInterface",
      "outputs": [
        {
          "internalType": "bool",
          "name": "",
          "type": "bool"
        }
      ],
      "stateMutability": "view",
      "type": "function",
      "constant": true
    },
    {
      "inputs": [],
      "name": "symbol",
      "outputs": [
        {
          "internalType": "string",
          "name": "",
          "type": "string"
        }
      ],
      "stateMutability": "view",
      "type": "function",
      "constant": true
    },
    {
      "inputs": [
        {
          "internalType": "uint256",
          "name": "tokenId",
          "type": "uint256"
        }
      ],
      "name": "tokenURI",
      "outputs": [
        {
          "internalType": "string",
          "name": "",
          "type": "string"
        }
      ],
      "stateMutability": "view",
      "type": "function",
      "constant": true
    },
    {
      "inputs": [
        {
          "internalType": "address",
          "name": "from",
          "type": "address"
        },
        {
          "internalType": "address",
          "name": "to",
          "type": "address"
        },
        {
          "internalType": "uint256",
          "name": "tokenId",
          "type": "uint256"
        }
      ],
      "name": "transferFrom",
      "outputs": [],
      "stateMutability": "nonpayable",
      "type": "function"
    },
    {
      "inputs": [
        {
          "internalType": "address",
          "name": "newOwner",
          "type": "address"
        }
      ],
      "name": "transferOwnership",
      "outputs": [],
      "stateMutability": "nonpayable",
      "type": "function"
    },
    {
      "inputs": [
        {
          "internalType": "uint256",
          "name": "_fee",
          "type": "uint256"
        }
      ],
      "name": "updateFee",
      "outputs": [],
      "stateMutability": "nonpayable",
      "type": "function"
    },
    {
      "inputs": [],
      "name": "withDraw",
      "outputs": [],
      "stateMutability": "payable",
      "type": "function",
      "payable": true
    },
    {
      "inputs": [
        {
          "internalType": "string",
          "name": "_name",
          "type": "string"
        }
      ],
      "name": "createRandomLip",
      "outputs": [],
      "stateMutability": "payable",
      "type": "function",
      "payable": true
    },
    {
      "inputs": [],
      "name": "getLips",
      "outputs": [
        {
          "components": [
            {
              "internalType": "string",
              "name": "name",
              "type": "string"
            },
            {
              "internalType": "uint256",
              "name": "id",
              "type": "uint256"
            },
            {
              "internalType": "uint256",
              "name": "dna",
              "type": "uint256"
            },
            {
              "internalType": "uint8",
              "name": "level",
              "type": "uint8"
            },
            {
              "internalType": "uint8",
              "name": "rarity",
              "type": "uint8"
            }
          ],
          "internalType": "struct LipToken.Lip[]",
          "name": "",
          "type": "tuple[]"
        }
      ],
      "stateMutability": "view",
      "type": "function",
      "constant": true
    }
  ],
  "bytecode": "0x60806040526000600755670de0b6b3a76400006008553480156200002257600080fd5b506040518060400160405280600981526020017f4c697020546f6b656e00000000000000000000000000000000000000000000008152506040518060400160405280600381526020017f4c505400000000000000000000000000000000000000000000000000000000008152508160009080519060200190620000a7929190620001b7565b508060019080519060200190620000c0929190620001b7565b505050620000e3620000d7620000e960201b60201c565b620000f160201b60201c565b620002cc565b600033905090565b6000600660009054906101000a900473ffffffffffffffffffffffffffffffffffffffff16905081600660006101000a81548173ffffffffffffffffffffffffffffffffffffffff021916908373ffffffffffffffffffffffffffffffffffffffff1602179055508173ffffffffffffffffffffffffffffffffffffffff168173ffffffffffffffffffffffffffffffffffffffff167f8be0079c531659141344cd1fd0a4f28419497f9722a3daafe3b4186f6b6457e060405160405180910390a35050565b828054620001c59062000296565b90600052602060002090601f016020900481019282620001e9576000855562000235565b82601f106200020457805160ff191683800117855562000235565b8280016001018555821562000235579182015b828111156200023457825182559160200191906001019062000217565b5b50905062000244919062000248565b5090565b5b808211156200026357600081600090555060010162000249565b5090565b7f4e487b7100000000000000000000000000000000000000000000000000000000600052602260045260246000fd5b60006002820490506001821680620002af57607f821691505b60208210811415620002c657620002c562000267565b5b50919050565b61364880620002dc6000396000f3fe60806040526004361061012a5760003560e01c806370a08231116100ab57806395d89b411161006f57806395d89b41146103c6578063a22cb465146103f1578063b88d4fde1461041a578063c87b56dd14610443578063e985e9c514610480578063f2fde38b146104bd5761012a565b806370a08231146102f3578063715018a61461033057806383b5daf7146103475780638da5cb5b146103725780639012c4a81461039d5761012a565b806323b872dd116100f257806323b872dd1461020757806342842e0e146102305780635ec163db146102595780636352211e1461029a578063698d640c146102d75761012a565b806301ffc9a71461012f57806306fdde031461016c578063081812fc14610197578063095ea7b3146101d45780630fdb1c10146101fd575b600080fd5b34801561013b57600080fd5b50610156600480360381019061015191906120ed565b6104e6565b6040516101639190612135565b60405180910390f35b34801561017857600080fd5b506101816105c8565b60405161018e91906121e9565b60405180910390f35b3480156101a357600080fd5b506101be60048036038101906101b99190612241565b61065a565b6040516101cb91906122af565b60405180910390f35b3480156101e057600080fd5b506101fb60048036038101906101f691906122f6565b6106df565b005b6102056107f7565b005b34801561021357600080fd5b5061022e60048036038101906102299190612336565b6108c9565b005b34801561023c57600080fd5b5061025760048036038101906102529190612336565b610929565b005b34801561026557600080fd5b50610280600480360381019061027b9190612241565b610949565b6040516102919594939291906123b4565b60405180910390f35b3480156102a657600080fd5b506102c160048036038101906102bc9190612241565b610a31565b6040516102ce91906122af565b60405180910390f35b6102f160048036038101906102ec9190612543565b610ae3565b005b3480156102ff57600080fd5b5061031a6004803603810190610315919061258c565b610afe565b60405161032791906125b9565b60405180910390f35b34801561033c57600080fd5b50610345610bb6565b005b34801561035357600080fd5b5061035c610c3e565b6040516103699190612774565b60405180910390f35b34801561037e57600080fd5b50610387610d7d565b60405161039491906122af565b60405180910390f35b3480156103a957600080fd5b506103c460048036038101906103bf9190612241565b610da7565b005b3480156103d257600080fd5b506103db610e2d565b6040516103e891906121e9565b60405180910390f35b3480156103fd57600080fd5b50610418600480360381019061041391906127c2565b610ebf565b005b34801561042657600080fd5b50610441600480360381019061043c91906128a3565b610ed5565b005b34801561044f57600080fd5b5061046a60048036038101906104659190612241565b610f37565b60405161047791906121e9565b60405180910390f35b34801561048c57600080fd5b506104a760048036038101906104a29190612926565b610fde565b6040516104b49190612135565b60405180910390f35b3480156104c957600080fd5b506104e460048036038101906104df919061258c565b611072565b005b60007f80ac58cd000000000000000000000000000000000000000000000000000000007bffffffffffffffffffffffffffffffffffffffffffffffffffffffff1916827bffffffffffffffffffffffffffffffffffffffffffffffffffffffff191614806105b157507f5b5e139f000000000000000000000000000000000000000000000000000000007bffffffffffffffffffffffffffffffffffffffffffffffffffffffff1916827bffffffffffffffffffffffffffffffffffffffffffffffffffffffff1916145b806105c157506105c08261116a565b5b9050919050565b6060600080546105d790612995565b80601f016020809104026020016040519081016040528092919081815260200182805461060390612995565b80156106505780601f1061062557610100808354040283529160200191610650565b820191906000526020600020905b81548152906001019060200180831161063357829003601f168201915b5050505050905090565b6000610665826111d4565b6106a4576040517f08c379a000000000000000000000000000000000000000000000000000000000815260040161069b90612a39565b60405180910390fd5b6004600083815260200190815260200160002060009054906101000a900473ffffffffffffffffffffffffffffffffffffffff169050919050565b60006106ea82610a31565b90508073ffffffffffffffffffffffffffffffffffffffff168373ffffffffffffffffffffffffffffffffffffffff16141561075b576040517f08c379a000000000000000000000000000000000000000000000000000000000815260040161075290612acb565b60405180910390fd5b8073ffffffffffffffffffffffffffffffffffffffff1661077a611240565b73ffffffffffffffffffffffffffffffffffffffff1614806107a957506107a8816107a3611240565b610fde565b5b6107e8576040517f08c379a00000000000000000000000000000000000000000000000000000000081526004016107df90612b5d565b60405180910390fd5b6107f28383611248565b505050565b6107ff611240565b73ffffffffffffffffffffffffffffffffffffffff1661081d610d7d565b73ffffffffffffffffffffffffffffffffffffffff1614610873576040517f08c379a000000000000000000000000000000000000000000000000000000000815260040161086a90612bc9565b60405180910390fd5b600061087d610d7d565b90508073ffffffffffffffffffffffffffffffffffffffff166108fc479081150290604051600060405180830381858888f193505050501580156108c5573d6000803e3d6000fd5b5050565b6108da6108d4611240565b82611301565b610919576040517f08c379a000000000000000000000000000000000000000000000000000000000815260040161091090612c5b565b60405180910390fd5b6109248383836113df565b505050565b61094483838360405180602001604052806000815250610ed5565b505050565b6009818154811061095957600080fd5b906000526020600020906004020160009150905080600001805461097c90612995565b80601f01602080910402602001604051908101604052809291908181526020018280546109a890612995565b80156109f55780601f106109ca576101008083540402835291602001916109f5565b820191906000526020600020905b8154815290600101906020018083116109d857829003601f168201915b5050505050908060010154908060020154908060030160009054906101000a900460ff16908060030160019054906101000a900460ff16905085565b6000806002600084815260200190815260200160002060009054906101000a900473ffffffffffffffffffffffffffffffffffffffff169050600073ffffffffffffffffffffffffffffffffffffffff168173ffffffffffffffffffffffffffffffffffffffff161415610ada576040517f08c379a0000000000000000000000000000000000000000000000000000000008152600401610ad190612ced565b60405180910390fd5b80915050919050565b600854341015610af257600080fd5b610afb8161163b565b50565b60008073ffffffffffffffffffffffffffffffffffffffff168273ffffffffffffffffffffffffffffffffffffffff161415610b6f576040517f08c379a0000000000000000000000000000000000000000000000000000000008152600401610b6690612d7f565b60405180910390fd5b600360008373ffffffffffffffffffffffffffffffffffffffff1673ffffffffffffffffffffffffffffffffffffffff168152602001908152602001600020549050919050565b610bbe611240565b73ffffffffffffffffffffffffffffffffffffffff16610bdc610d7d565b73ffffffffffffffffffffffffffffffffffffffff1614610c32576040517f08c379a0000000000000000000000000000000000000000000000000000000008152600401610c2990612bc9565b60405180910390fd5b610c3c60006117ab565b565b60606009805480602002602001604051908101604052809291908181526020016000905b82821015610d7457838290600052602060002090600402016040518060a0016040529081600082018054610c9590612995565b80601f0160208091040260200160405190810160405280929190818152602001828054610cc190612995565b8015610d0e5780601f10610ce357610100808354040283529160200191610d0e565b820191906000526020600020905b815481529060010190602001808311610cf157829003601f168201915b5050505050815260200160018201548152602001600282015481526020016003820160009054906101000a900460ff1660ff1660ff1681526020016003820160019054906101000a900460ff1660ff1660ff168152505081526020019060010190610c62565b50505050905090565b6000600660009054906101000a900473ffffffffffffffffffffffffffffffffffffffff16905090565b610daf611240565b73ffffffffffffffffffffffffffffffffffffffff16610dcd610d7d565b73ffffffffffffffffffffffffffffffffffffffff1614610e23576040517f08c379a0000000000000000000000000000000000000000000000000000000008152600401610e1a90612bc9565b60405180910390fd5b8060088190555050565b606060018054610e3c90612995565b80601f0160208091040260200160405190810160405280929190818152602001828054610e6890612995565b8015610eb55780601f10610e8a57610100808354040283529160200191610eb5565b820191906000526020600020905b815481529060010190602001808311610e9857829003601f168201915b5050505050905090565b610ed1610eca611240565b8383611871565b5050565b610ee6610ee0611240565b83611301565b610f25576040517f08c379a0000000000000000000000000000000000000000000000000000000008152600401610f1c90612c5b565b60405180910390fd5b610f31848484846119de565b50505050565b6060610f42826111d4565b610f81576040517f08c379a0000000000000000000000000000000000000000000000000000000008152600401610f7890612e11565b60405180910390fd5b6000610f8b611a3a565b90506000815111610fab5760405180602001604052806000815250610fd6565b80610fb584611a51565b604051602001610fc6929190612e6d565b6040516020818303038152906040525b915050919050565b6000600560008473ffffffffffffffffffffffffffffffffffffffff1673ffffffffffffffffffffffffffffffffffffffff16815260200190815260200160002060008373ffffffffffffffffffffffffffffffffffffffff1673ffffffffffffffffffffffffffffffffffffffff16815260200190815260200160002060009054906101000a900460ff16905092915050565b61107a611240565b73ffffffffffffffffffffffffffffffffffffffff16611098610d7d565b73ffffffffffffffffffffffffffffffffffffffff16146110ee576040517f08c379a00000000000000000000000000000000000000000000000000000000081526004016110e590612bc9565b60405180910390fd5b600073ffffffffffffffffffffffffffffffffffffffff168173ffffffffffffffffffffffffffffffffffffffff16141561115e576040517f08c379a000000000000000000000000000000000000000000000000000000000815260040161115590612f03565b60405180910390fd5b611167816117ab565b50565b60007f01ffc9a7000000000000000000000000000000000000000000000000000000007bffffffffffffffffffffffffffffffffffffffffffffffffffffffff1916827bffffffffffffffffffffffffffffffffffffffffffffffffffffffff1916149050919050565b60008073ffffffffffffffffffffffffffffffffffffffff166002600084815260200190815260200160002060009054906101000a900473ffffffffffffffffffffffffffffffffffffffff1673ffffffffffffffffffffffffffffffffffffffff1614159050919050565b600033905090565b816004600083815260200190815260200160002060006101000a81548173ffffffffffffffffffffffffffffffffffffffff021916908373ffffffffffffffffffffffffffffffffffffffff160217905550808273ffffffffffffffffffffffffffffffffffffffff166112bb83610a31565b73ffffffffffffffffffffffffffffffffffffffff167f8c5be1e5ebec7d5bd14f71427d1e84f3dd0314c0f7b2291e5b200ac8c7c3b92560405160405180910390a45050565b600061130c826111d4565b61134b576040517f08c379a000000000000000000000000000000000000000000000000000000000815260040161134290612f95565b60405180910390fd5b600061135683610a31565b90508073ffffffffffffffffffffffffffffffffffffffff168473ffffffffffffffffffffffffffffffffffffffff1614806113c557508373ffffffffffffffffffffffffffffffffffffffff166113ad8461065a565b73ffffffffffffffffffffffffffffffffffffffff16145b806113d657506113d58185610fde565b5b91505092915050565b8273ffffffffffffffffffffffffffffffffffffffff166113ff82610a31565b73ffffffffffffffffffffffffffffffffffffffff1614611455576040517f08c379a000000000000000000000000000000000000000000000000000000000815260040161144c90613027565b60405180910390fd5b600073ffffffffffffffffffffffffffffffffffffffff168273ffffffffffffffffffffffffffffffffffffffff1614156114c5576040517f08c379a00000000000000000000000000000000000000000000000000000000081526004016114bc906130b9565b60405180910390fd5b6114d0838383611bb2565b6114db600082611248565b6001600360008573ffffffffffffffffffffffffffffffffffffffff1673ffffffffffffffffffffffffffffffffffffffff168152602001908152602001600020600082825461152b9190613108565b925050819055506001600360008473ffffffffffffffffffffffffffffffffffffffff1673ffffffffffffffffffffffffffffffffffffffff1681526020019081526020016000206000828254611582919061313c565b92505081905550816002600083815260200190815260200160002060006101000a81548173ffffffffffffffffffffffffffffffffffffffff021916908373ffffffffffffffffffffffffffffffffffffffff160217905550808273ffffffffffffffffffffffffffffffffffffffff168473ffffffffffffffffffffffffffffffffffffffff167fddf252ad1be2c89b69c2b068fc378daa952ba7f163c4a11628f55a4df523b3ef60405160405180910390a4505050565b600160075461164a919061313c565b6007819055506000611662662386f26fc10000611bb7565b905060006116706064611bb7565b905060006040518060a001604052808581526020016007548152602001848152602001600160ff1681526020018360ff168152509050600981908060018154018082558091505060019003906000526020600020906004020160009091909190915060008201518160000190805190602001906116ee929190611fde565b50602082015181600101556040820151816002015560608201518160030160006101000a81548160ff021916908360ff16021790555060808201518160030160016101000a81548160ff021916908360ff160217905550505061175333600754611bfc565b3373ffffffffffffffffffffffffffffffffffffffff167f29c4292b8838988609f9bd8e9042f7e77158b1f5ebfcae6494b7b709c3d20ffc6007548560405161179d929190613192565b60405180910390a250505050565b6000600660009054906101000a900473ffffffffffffffffffffffffffffffffffffffff16905081600660006101000a81548173ffffffffffffffffffffffffffffffffffffffff021916908373ffffffffffffffffffffffffffffffffffffffff1602179055508173ffffffffffffffffffffffffffffffffffffffff168173ffffffffffffffffffffffffffffffffffffffff167f8be0079c531659141344cd1fd0a4f28419497f9722a3daafe3b4186f6b6457e060405160405180910390a35050565b8173ffffffffffffffffffffffffffffffffffffffff168373ffffffffffffffffffffffffffffffffffffffff1614156118e0576040517f08c379a00000000000000000000000000000000000000000000000000000000081526004016118d790613207565b60405180910390fd5b80600560008573ffffffffffffffffffffffffffffffffffffffff1673ffffffffffffffffffffffffffffffffffffffff16815260200190815260200160002060008473ffffffffffffffffffffffffffffffffffffffff1673ffffffffffffffffffffffffffffffffffffffff16815260200190815260200160002060006101000a81548160ff0219169083151502179055508173ffffffffffffffffffffffffffffffffffffffff168373ffffffffffffffffffffffffffffffffffffffff167f17307eab39ab6107e8899845ad3d59bd9653f200f220920489ca2b5937696c31836040516119d19190612135565b60405180910390a3505050565b6119e98484846113df565b6119f584848484611c1a565b611a34576040517f08c379a0000000000000000000000000000000000000000000000000000000008152600401611a2b90613299565b60405180910390fd5b50505050565b606060405180602001604052806000815250905090565b60606000821415611a99576040518060400160405280600181526020017f30000000000000000000000000000000000000000000000000000000000000008152509050611bad565b600082905060005b60008214611acb578080611ab4906132b9565b915050600a82611ac49190613331565b9150611aa1565b60008167ffffffffffffffff811115611ae757611ae6612418565b5b6040519080825280601f01601f191660200182016040528015611b195781602001600182028036833780820191505090505b5090505b60008514611ba657600182611b329190613108565b9150600a85611b419190613362565b6030611b4d919061313c565b60f81b818381518110611b6357611b62613393565b5b60200101907effffffffffffffffffffffffffffffffffffffffffffffffffffffffffffff1916908160001a905350600a85611b9f9190613331565b9450611b1d565b8093505050505b919050565b505050565b6000804233604051602001611bcd92919061342b565b6040516020818303038152906040528051906020012060001c90508281611bf49190613362565b915050919050565b611c16828260405180602001604052806000815250611da2565b5050565b6000611c3b8473ffffffffffffffffffffffffffffffffffffffff16611dfd565b15611d95578373ffffffffffffffffffffffffffffffffffffffff1663150b7a02611c64611240565b8786866040518563ffffffff1660e01b8152600401611c8694939291906134ac565b6020604051808303816000875af1925050508015611cc257506040513d601f19601f82011682018060405250810190611cbf919061350d565b60015b611d45573d8060008114611cf2576040519150601f19603f3d011682016040523d82523d6000602084013e611cf7565b606091505b50600081511415611d3d576040517f08c379a0000000000000000000000000000000000000000000000000000000008152600401611d3490613299565b60405180910390fd5b805181602001fd5b63150b7a0260e01b7bffffffffffffffffffffffffffffffffffffffffffffffffffffffff1916817bffffffffffffffffffffffffffffffffffffffffffffffffffffffff191614915050611d9a565b600190505b949350505050565b611dac8383611e10565b611db96000848484611c1a565b611df8576040517f08c379a0000000000000000000000000000000000000000000000000000000008152600401611def90613299565b60405180910390fd5b505050565b600080823b905060008111915050919050565b600073ffffffffffffffffffffffffffffffffffffffff168273ffffffffffffffffffffffffffffffffffffffff161415611e80576040517f08c379a0000000000000000000000000000000000000000000000000000000008152600401611e7790613586565b60405180910390fd5b611e89816111d4565b15611ec9576040517f08c379a0000000000000000000000000000000000000000000000000000000008152600401611ec0906135f2565b60405180910390fd5b611ed560008383611bb2565b6001600360008473ffffffffffffffffffffffffffffffffffffffff1673ffffffffffffffffffffffffffffffffffffffff1681526020019081526020016000206000828254611f25919061313c565b92505081905550816002600083815260200190815260200160002060006101000a81548173ffffffffffffffffffffffffffffffffffffffff021916908373ffffffffffffffffffffffffffffffffffffffff160217905550808273ffffffffffffffffffffffffffffffffffffffff16600073ffffffffffffffffffffffffffffffffffffffff167fddf252ad1be2c89b69c2b068fc378daa952ba7f163c4a11628f55a4df523b3ef60405160405180910390a45050565b828054611fea90612995565b90600052602060002090601f01602090048101928261200c5760008555612053565b82601f1061202557805160ff1916838001178555612053565b82800160010185558215612053579182015b82811115612052578251825591602001919060010190612037565b5b5090506120609190612064565b5090565b5b8082111561207d576000816000905550600101612065565b5090565b6000604051905090565b600080fd5b600080fd5b60007fffffffff0000000000000000000000000000000000000000000000000000000082169050919050565b6120ca81612095565b81146120d557600080fd5b50565b6000813590506120e7816120c1565b92915050565b6000602082840312156121035761210261208b565b5b6000612111848285016120d8565b91505092915050565b60008115159050919050565b61212f8161211a565b82525050565b600060208201905061214a6000830184612126565b92915050565b600081519050919050565b600082825260208201905092915050565b60005b8381101561218a57808201518184015260208101905061216f565b83811115612199576000848401525b50505050565b6000601f19601f8301169050919050565b60006121bb82612150565b6121c5818561215b565b93506121d581856020860161216c565b6121de8161219f565b840191505092915050565b6000602082019050818103600083015261220381846121b0565b905092915050565b6000819050919050565b61221e8161220b565b811461222957600080fd5b50565b60008135905061223b81612215565b92915050565b6000602082840312156122575761225661208b565b5b60006122658482850161222c565b91505092915050565b600073ffffffffffffffffffffffffffffffffffffffff82169050919050565b60006122998261226e565b9050919050565b6122a98161228e565b82525050565b60006020820190506122c460008301846122a0565b92915050565b6122d38161228e565b81146122de57600080fd5b50565b6000813590506122f0816122ca565b92915050565b6000806040838503121561230d5761230c61208b565b5b600061231b858286016122e1565b925050602061232c8582860161222c565b9150509250929050565b60008060006060848603121561234f5761234e61208b565b5b600061235d868287016122e1565b935050602061236e868287016122e1565b925050604061237f8682870161222c565b9150509250925092565b6123928161220b565b82525050565b600060ff82169050919050565b6123ae81612398565b82525050565b600060a08201905081810360008301526123ce81886121b0565b90506123dd6020830187612389565b6123ea6040830186612389565b6123f760608301856123a5565b61240460808301846123a5565b9695505050505050565b600080fd5b600080fd5b7f4e487b7100000000000000000000000000000000000000000000000000000000600052604160045260246000fd5b6124508261219f565b810181811067ffffffffffffffff8211171561246f5761246e612418565b5b80604052505050565b6000612482612081565b905061248e8282612447565b919050565b600067ffffffffffffffff8211156124ae576124ad612418565b5b6124b78261219f565b9050602081019050919050565b82818337600083830152505050565b60006124e66124e184612493565b612478565b90508281526020810184848401111561250257612501612413565b5b61250d8482856124c4565b509392505050565b600082601f83011261252a5761252961240e565b5b813561253a8482602086016124d3565b91505092915050565b6000602082840312156125595761255861208b565b5b600082013567ffffffffffffffff81111561257757612576612090565b5b61258384828501612515565b91505092915050565b6000602082840312156125a2576125a161208b565b5b60006125b0848285016122e1565b91505092915050565b60006020820190506125ce6000830184612389565b92915050565b600081519050919050565b600082825260208201905092915050565b6000819050602082019050919050565b600082825260208201905092915050565b600061261c82612150565b6126268185612600565b935061263681856020860161216c565b61263f8161219f565b840191505092915050565b6126538161220b565b82525050565b61266281612398565b82525050565b600060a08301600083015184820360008601526126858282612611565b915050602083015161269a602086018261264a565b5060408301516126ad604086018261264a565b5060608301516126c06060860182612659565b5060808301516126d36080860182612659565b508091505092915050565b60006126ea8383612668565b905092915050565b6000602082019050919050565b600061270a826125d4565b61271481856125df565b935083602082028501612726856125f0565b8060005b85811015612762578484038952815161274385826126de565b945061274e836126f2565b925060208a0199505060018101905061272a565b50829750879550505050505092915050565b6000602082019050818103600083015261278e81846126ff565b905092915050565b61279f8161211a565b81146127aa57600080fd5b50565b6000813590506127bc81612796565b92915050565b600080604083850312156127d9576127d861208b565b5b60006127e7858286016122e1565b92505060206127f8858286016127ad565b9150509250929050565b600067ffffffffffffffff82111561281d5761281c612418565b5b6128268261219f565b9050602081019050919050565b600061284661284184612802565b612478565b90508281526020810184848401111561286257612861612413565b5b61286d8482856124c4565b509392505050565b600082601f83011261288a5761288961240e565b5b813561289a848260208601612833565b91505092915050565b600080600080608085870312156128bd576128bc61208b565b5b60006128cb878288016122e1565b94505060206128dc878288016122e1565b93505060406128ed8782880161222c565b925050606085013567ffffffffffffffff81111561290e5761290d612090565b5b61291a87828801612875565b91505092959194509250565b6000806040838503121561293d5761293c61208b565b5b600061294b858286016122e1565b925050602061295c858286016122e1565b9150509250929050565b7f4e487b7100000000000000000000000000000000000000000000000000000000600052602260045260246000fd5b600060028204905060018216806129ad57607f821691505b602082108114156129c1576129c0612966565b5b50919050565b7f4552433732313a20617070726f76656420717565727920666f72206e6f6e657860008201527f697374656e7420746f6b656e0000000000000000000000000000000000000000602082015250565b6000612a23602c8361215b565b9150612a2e826129c7565b604082019050919050565b60006020820190508181036000830152612a5281612a16565b9050919050565b7f4552433732313a20617070726f76616c20746f2063757272656e74206f776e6560008201527f7200000000000000000000000000000000000000000000000000000000000000602082015250565b6000612ab560218361215b565b9150612ac082612a59565b604082019050919050565b60006020820190508181036000830152612ae481612aa8565b9050919050565b7f4552433732313a20617070726f76652063616c6c6572206973206e6f74206f7760008201527f6e6572206e6f7220617070726f76656420666f7220616c6c0000000000000000602082015250565b6000612b4760388361215b565b9150612b5282612aeb565b604082019050919050565b60006020820190508181036000830152612b7681612b3a565b9050919050565b7f4f776e61626c653a2063616c6c6572206973206e6f7420746865206f776e6572600082015250565b6000612bb360208361215b565b9150612bbe82612b7d565b602082019050919050565b60006020820190508181036000830152612be281612ba6565b9050919050565b7f4552433732313a207472616e736665722063616c6c6572206973206e6f74206f60008201527f776e6572206e6f7220617070726f766564000000000000000000000000000000602082015250565b6000612c4560318361215b565b9150612c5082612be9565b604082019050919050565b60006020820190508181036000830152612c7481612c38565b9050919050565b7f4552433732313a206f776e657220717565727920666f72206e6f6e657869737460008201527f656e7420746f6b656e0000000000000000000000000000000000000000000000602082015250565b6000612cd760298361215b565b9150612ce282612c7b565b604082019050919050565b60006020820190508181036000830152612d0681612cca565b9050919050565b7f4552433732313a2062616c616e636520717565727920666f7220746865207a6560008201527f726f206164647265737300000000000000000000000000000000000000000000602082015250565b6000612d69602a8361215b565b9150612d7482612d0d565b604082019050919050565b60006020820190508181036000830152612d9881612d5c565b9050919050565b7f4552433732314d657461646174613a2055524920717565727920666f72206e6f60008201527f6e6578697374656e7420746f6b656e0000000000000000000000000000000000602082015250565b6000612dfb602f8361215b565b9150612e0682612d9f565b604082019050919050565b60006020820190508181036000830152612e2a81612dee565b9050919050565b600081905092915050565b6000612e4782612150565b612e518185612e31565b9350612e6181856020860161216c565b80840191505092915050565b6000612e798285612e3c565b9150612e858284612e3c565b91508190509392505050565b7f4f776e61626c653a206e6577206f776e657220697320746865207a65726f206160008201527f6464726573730000000000000000000000000000000000000000000000000000602082015250565b6000612eed60268361215b565b9150612ef882612e91565b604082019050919050565b60006020820190508181036000830152612f1c81612ee0565b9050919050565b7f4552433732313a206f70657261746f7220717565727920666f72206e6f6e657860008201527f697374656e7420746f6b656e0000000000000000000000000000000000000000602082015250565b6000612f7f602c8361215b565b9150612f8a82612f23565b604082019050919050565b60006020820190508181036000830152612fae81612f72565b9050919050565b7f4552433732313a207472616e73666572206f6620746f6b656e2074686174206960008201527f73206e6f74206f776e0000000000000000000000000000000000000000000000602082015250565b600061301160298361215b565b915061301c82612fb5565b604082019050919050565b6000602082019050818103600083015261304081613004565b9050919050565b7f4552433732313a207472616e7366657220746f20746865207a65726f2061646460008201527f7265737300000000000000000000000000000000000000000000000000000000602082015250565b60006130a360248361215b565b91506130ae82613047565b604082019050919050565b600060208201905081810360008301526130d281613096565b9050919050565b7f4e487b7100000000000000000000000000000000000000000000000000000000600052601160045260246000fd5b60006131138261220b565b915061311e8361220b565b925082821015613131576131306130d9565b5b828203905092915050565b60006131478261220b565b91506131528361220b565b9250827fffffffffffffffffffffffffffffffffffffffffffffffffffffffffffffffff03821115613187576131866130d9565b5b828201905092915050565b60006040820190506131a76000830185612389565b6131b46020830184612389565b9392505050565b7f4552433732313a20617070726f766520746f2063616c6c657200000000000000600082015250565b60006131f160198361215b565b91506131fc826131bb565b602082019050919050565b60006020820190508181036000830152613220816131e4565b9050919050565b7f4552433732313a207472616e7366657220746f206e6f6e20455243373231526560008201527f63656976657220696d706c656d656e7465720000000000000000000000000000602082015250565b600061328360328361215b565b915061328e82613227565b604082019050919050565b600060208201905081810360008301526132b281613276565b9050919050565b60006132c48261220b565b91507fffffffffffffffffffffffffffffffffffffffffffffffffffffffffffffffff8214156132f7576132f66130d9565b5b600182019050919050565b7f4e487b7100000000000000000000000000000000000000000000000000000000600052601260045260246000fd5b600061333c8261220b565b91506133478361220b565b92508261335757613356613302565b5b828204905092915050565b600061336d8261220b565b91506133788361220b565b92508261338857613387613302565b5b828206905092915050565b7f4e487b7100000000000000000000000000000000000000000000000000000000600052603260045260246000fd5b6000819050919050565b6133dd6133d88261220b565b6133c2565b82525050565b60008160601b9050919050565b60006133fb826133e3565b9050919050565b600061340d826133f0565b9050919050565b6134256134208261228e565b613402565b82525050565b600061343782856133cc565b6020820191506134478284613414565b6014820191508190509392505050565b600081519050919050565b600082825260208201905092915050565b600061347e82613457565b6134888185613462565b935061349881856020860161216c565b6134a18161219f565b840191505092915050565b60006080820190506134c160008301876122a0565b6134ce60208301866122a0565b6134db6040830185612389565b81810360608301526134ed8184613473565b905095945050505050565b600081519050613507816120c1565b92915050565b6000602082840312156135235761352261208b565b5b6000613531848285016134f8565b91505092915050565b7f4552433732313a206d696e7420746f20746865207a65726f2061646472657373600082015250565b600061357060208361215b565b915061357b8261353a565b602082019050919050565b6000602082019050818103600083015261359f81613563565b9050919050565b7f4552433732313a20746f6b656e20616c7265616479206d696e74656400000000600082015250565b60006135dc601c8361215b565b91506135e7826135a6565b602082019050919050565b6000602082019050818103600083015261360b816135cf565b905091905056fea2646970667358221220b54b75e2f629f2966565e162f00e738744ae31ed7ff8606022d7fb477c47654764736f6c634300080b0033",
  "immutableReferences": {},
  "source": "// SPDX-License-Identifier: MIT\n\npragma solidity >=0.4.22 <0.9.0;\n\nimport \"@openzeppelin/contracts/token/ERC721/ERC721.sol\";\nimport \"@openzeppelin/contracts/access/Ownable.sol\";\n\ncontract LipToken is ERC721, Ownable {\n    constructor() ERC721(\"Lip Token\", \"LPT\") {}\n\n    uint256 COUNTER = 0;\n    uint256 fee = 1 ether;\n\n    struct Lip {\n        string name;\n        uint256 id;\n        uint256 dna;\n        uint8 level;\n        uint8 rarity;\n    }\n\n    Lip[] public lips;\n\n    event NewLipCreated(address indexed owner, uint256 id, uint256 dna);\n\n    // helper\n    function _generateRandomNum(uint256 _mod) internal view returns (uint256) {\n        uint256 randomNumber = uint256(\n            keccak256(abi.encodePacked(block.timestamp, msg.sender))\n        );\n        return randomNumber % _mod;\n    }\n\n    function updateFee(uint256 _fee) external onlyOwner {\n        fee = _fee;\n    }\n\n    function withDraw() external payable onlyOwner {\n        address payable _owner = payable(owner());\n        _owner.transfer(address(this).balance);\n    }\n\n    function _createLip(string memory _name) internal {\n        COUNTER = COUNTER + 1;\n        uint256 randomDna = _generateRandomNum(10**16);\n        uint8 randomRarity = uint8(_generateRandomNum(100));\n        Lip memory newLip = Lip(_name, COUNTER, randomDna, 1, randomRarity);\n        lips.push(newLip);\n        _safeMint(msg.sender, COUNTER);\n        emit NewLipCreated(msg.sender, COUNTER, randomDna);\n    }\n\n    function createRandomLip(string memory _name) public payable {\n        require(msg.value >= fee);\n        _createLip(_name);\n    }\n\n    function getLips() public view returns (Lip[] memory) {\n        return lips;\n    }\n}\n",
  "sourcePath": "C:\\Github\\nft_game\\src\\contracts\\LipToken.sol",
  "compiler": {
    "name": "solc",
    "version": "0.8.11+commit.d7f03943.Emscripten.clang"
  },
  "schemaVersion": "3.4.4",
  "updatedAt": "2022-02-01T02:09:13.856Z",
  "networkType": "ethereum",
  "devdoc": {
    "kind": "dev",
    "methods": {
      "approve(address,uint256)": {
        "details": "See {IERC721-approve}."
      },
      "balanceOf(address)": {
        "details": "See {IERC721-balanceOf}."
      },
      "getApproved(uint256)": {
        "details": "See {IERC721-getApproved}."
      },
      "isApprovedForAll(address,address)": {
        "details": "See {IERC721-isApprovedForAll}."
      },
      "name()": {
        "details": "See {IERC721Metadata-name}."
      },
      "owner()": {
        "details": "Returns the address of the current owner."
      },
      "ownerOf(uint256)": {
        "details": "See {IERC721-ownerOf}."
      },
      "renounceOwnership()": {
        "details": "Leaves the contract without owner. It will not be possible to call `onlyOwner` functions anymore. Can only be called by the current owner. NOTE: Renouncing ownership will leave the contract without an owner, thereby removing any functionality that is only available to the owner."
      },
      "safeTransferFrom(address,address,uint256)": {
        "details": "See {IERC721-safeTransferFrom}."
      },
      "safeTransferFrom(address,address,uint256,bytes)": {
        "details": "See {IERC721-safeTransferFrom}."
      },
      "setApprovalForAll(address,bool)": {
        "details": "See {IERC721-setApprovalForAll}."
      },
      "supportsInterface(bytes4)": {
        "details": "See {IERC165-supportsInterface}."
      },
      "symbol()": {
        "details": "See {IERC721Metadata-symbol}."
      },
      "tokenURI(uint256)": {
        "details": "See {IERC721Metadata-tokenURI}."
      },
      "transferFrom(address,address,uint256)": {
        "details": "See {IERC721-transferFrom}."
      },
      "transferOwnership(address)": {
        "details": "Transfers ownership of the contract to a new account (`newOwner`). Can only be called by the current owner."
      }
    },
    "version": 1
  },
  "userdoc": {
    "kind": "user",
    "methods": {},
    "version": 1
  }
}