{
  "contractName": "LipToken",
  "abi": [
    {
      "inputs": [],
      "stateMutability": "nonpayable",
      "type": "constructor"
    },
    {
      "anonymous": false,
      "inputs": [
        {
          "indexed": true,
          "internalType": "address",
          "name": "owner",
          "type": "address"
        },
        {
          "indexed": true,
          "internalType": "address",
          "name": "approved",
          "type": "address"
        },
        {
          "indexed": true,
          "internalType": "uint256",
          "name": "tokenId",
          "type": "uint256"
        }
      ],
      "name": "Approval",
      "type": "event"
    },
    {
      "anonymous": false,
      "inputs": [
        {
          "indexed": true,
          "internalType": "address",
          "name": "owner",
          "type": "address"
        },
        {
          "indexed": true,
          "internalType": "address",
          "name": "operator",
          "type": "address"
        },
        {
          "indexed": false,
          "internalType": "bool",
          "name": "approved",
          "type": "bool"
        }
      ],
      "name": "ApprovalForAll",
      "type": "event"
    },
    {
      "anonymous": false,
      "inputs": [
        {
          "indexed": true,
          "internalType": "address",
          "name": "owner",
          "type": "address"
        },
        {
          "indexed": false,
          "internalType": "uint256",
          "name": "id",
          "type": "uint256"
        },
        {
          "indexed": false,
          "internalType": "uint256",
          "name": "dna",
          "type": "uint256"
        }
      ],
      "name": "NewLipCreated",
      "type": "event"
    },
    {
      "anonymous": false,
      "inputs": [
        {
          "indexed": true,
          "internalType": "address",
          "name": "previousOwner",
          "type": "address"
        },
        {
          "indexed": true,
          "internalType": "address",
          "name": "newOwner",
          "type": "address"
        }
      ],
      "name": "OwnershipTransferred",
      "type": "event"
    },
    {
      "anonymous": false,
      "inputs": [
        {
          "indexed": true,
          "internalType": "address",
          "name": "from",
          "type": "address"
        },
        {
          "indexed": true,
          "internalType": "address",
          "name": "to",
          "type": "address"
        },
        {
          "indexed": true,
          "internalType": "uint256",
          "name": "tokenId",
          "type": "uint256"
        }
      ],
      "name": "Transfer",
      "type": "event"
    },
    {
      "inputs": [
        {
          "internalType": "address",
          "name": "to",
          "type": "address"
        },
        {
          "internalType": "uint256",
          "name": "tokenId",
          "type": "uint256"
        }
      ],
      "name": "approve",
      "outputs": [],
      "stateMutability": "nonpayable",
      "type": "function"
    },
    {
      "inputs": [
        {
          "internalType": "address",
          "name": "owner",
          "type": "address"
        }
      ],
      "name": "balanceOf",
      "outputs": [
        {
          "internalType": "uint256",
          "name": "",
          "type": "uint256"
        }
      ],
      "stateMutability": "view",
      "type": "function",
      "constant": true
    },
    {
      "inputs": [
        {
          "internalType": "uint256",
          "name": "tokenId",
          "type": "uint256"
        }
      ],
      "name": "getApproved",
      "outputs": [
        {
          "internalType": "address",
          "name": "",
          "type": "address"
        }
      ],
      "stateMutability": "view",
      "type": "function",
      "constant": true
    },
    {
      "inputs": [
        {
          "internalType": "address",
          "name": "owner",
          "type": "address"
        },
        {
          "internalType": "address",
          "name": "operator",
          "type": "address"
        }
      ],
      "name": "isApprovedForAll",
      "outputs": [
        {
          "internalType": "bool",
          "name": "",
          "type": "bool"
        }
      ],
      "stateMutability": "view",
      "type": "function",
      "constant": true
    },
    {
      "inputs": [
        {
          "internalType": "uint256",
          "name": "",
          "type": "uint256"
        }
      ],
      "name": "lips",
      "outputs": [
        {
          "internalType": "uint256",
          "name": "id",
          "type": "uint256"
        },
        {
          "internalType": "string",
          "name": "name",
          "type": "string"
        },
        {
          "internalType": "uint256",
          "name": "dna",
          "type": "uint256"
        },
        {
          "internalType": "uint8",
          "name": "level",
          "type": "uint8"
        },
        {
          "internalType": "uint8",
          "name": "rarity",
          "type": "uint8"
        },
        {
          "internalType": "uint32",
          "name": "readyTime",
          "type": "uint32"
        }
      ],
      "stateMutability": "view",
      "type": "function",
      "constant": true
    },
    {
      "inputs": [],
      "name": "name",
      "outputs": [
        {
          "internalType": "string",
          "name": "",
          "type": "string"
        }
      ],
      "stateMutability": "view",
      "type": "function",
      "constant": true
    },
    {
      "inputs": [],
      "name": "owner",
      "outputs": [
        {
          "internalType": "address",
          "name": "",
          "type": "address"
        }
      ],
      "stateMutability": "view",
      "type": "function",
      "constant": true
    },
    {
      "inputs": [
        {
          "internalType": "uint256",
          "name": "tokenId",
          "type": "uint256"
        }
      ],
      "name": "ownerOf",
      "outputs": [
        {
          "internalType": "address",
          "name": "",
          "type": "address"
        }
      ],
      "stateMutability": "view",
      "type": "function",
      "constant": true
    },
    {
      "inputs": [],
      "name": "renounceOwnership",
      "outputs": [],
      "stateMutability": "nonpayable",
      "type": "function"
    },
    {
      "inputs": [
        {
          "internalType": "address",
          "name": "from",
          "type": "address"
        },
        {
          "internalType": "address",
          "name": "to",
          "type": "address"
        },
        {
          "internalType": "uint256",
          "name": "tokenId",
          "type": "uint256"
        }
      ],
      "name": "safeTransferFrom",
      "outputs": [],
      "stateMutability": "nonpayable",
      "type": "function"
    },
    {
      "inputs": [
        {
          "internalType": "address",
          "name": "from",
          "type": "address"
        },
        {
          "internalType": "address",
          "name": "to",
          "type": "address"
        },
        {
          "internalType": "uint256",
          "name": "tokenId",
          "type": "uint256"
        },
        {
          "internalType": "bytes",
          "name": "_data",
          "type": "bytes"
        }
      ],
      "name": "safeTransferFrom",
      "outputs": [],
      "stateMutability": "nonpayable",
      "type": "function"
    },
    {
      "inputs": [
        {
          "internalType": "address",
          "name": "operator",
          "type": "address"
        },
        {
          "internalType": "bool",
          "name": "approved",
          "type": "bool"
        }
      ],
      "name": "setApprovalForAll",
      "outputs": [],
      "stateMutability": "nonpayable",
      "type": "function"
    },
    {
      "inputs": [
        {
          "internalType": "bytes4",
          "name": "interfaceId",
          "type": "bytes4"
        }
      ],
      "name": "supportsInterface",
      "outputs": [
        {
          "internalType": "bool",
          "name": "",
          "type": "bool"
        }
      ],
      "stateMutability": "view",
      "type": "function",
      "constant": true
    },
    {
      "inputs": [],
      "name": "symbol",
      "outputs": [
        {
          "internalType": "string",
          "name": "",
          "type": "string"
        }
      ],
      "stateMutability": "view",
      "type": "function",
      "constant": true
    },
    {
      "inputs": [
        {
          "internalType": "uint256",
          "name": "tokenId",
          "type": "uint256"
        }
      ],
      "name": "tokenURI",
      "outputs": [
        {
          "internalType": "string",
          "name": "",
          "type": "string"
        }
      ],
      "stateMutability": "view",
      "type": "function",
      "constant": true
    },
    {
      "inputs": [
        {
          "internalType": "address",
          "name": "from",
          "type": "address"
        },
        {
          "internalType": "address",
          "name": "to",
          "type": "address"
        },
        {
          "internalType": "uint256",
          "name": "tokenId",
          "type": "uint256"
        }
      ],
      "name": "transferFrom",
      "outputs": [],
      "stateMutability": "nonpayable",
      "type": "function"
    },
    {
      "inputs": [
        {
          "internalType": "address",
          "name": "newOwner",
          "type": "address"
        }
      ],
      "name": "transferOwnership",
      "outputs": [],
      "stateMutability": "nonpayable",
      "type": "function"
    },
    {
      "inputs": [],
      "name": "withDraw",
      "outputs": [],
      "stateMutability": "payable",
      "type": "function",
      "payable": true
    },
    {
      "inputs": [
        {
          "internalType": "string",
          "name": "_name",
          "type": "string"
        }
      ],
      "name": "createRandomLip",
      "outputs": [],
      "stateMutability": "payable",
      "type": "function",
      "payable": true
    },
    {
      "inputs": [],
      "name": "getAllLips",
      "outputs": [
        {
          "components": [
            {
              "internalType": "uint256",
              "name": "id",
              "type": "uint256"
            },
            {
              "internalType": "string",
              "name": "name",
              "type": "string"
            },
            {
              "internalType": "uint256",
              "name": "dna",
              "type": "uint256"
            },
            {
              "internalType": "uint8",
              "name": "level",
              "type": "uint8"
            },
            {
              "internalType": "uint8",
              "name": "rarity",
              "type": "uint8"
            },
            {
              "internalType": "uint32",
              "name": "readyTime",
              "type": "uint32"
            }
          ],
          "internalType": "struct LipToken.Lip[]",
          "name": "",
          "type": "tuple[]"
        }
      ],
      "stateMutability": "view",
      "type": "function",
      "constant": true
    },
    {
      "inputs": [
        {
          "internalType": "address",
          "name": "_owner",
          "type": "address"
        }
      ],
      "name": "getOwnerLips",
      "outputs": [
        {
          "components": [
            {
              "internalType": "uint256",
              "name": "id",
              "type": "uint256"
            },
            {
              "internalType": "string",
              "name": "name",
              "type": "string"
            },
            {
              "internalType": "uint256",
              "name": "dna",
              "type": "uint256"
            },
            {
              "internalType": "uint8",
              "name": "level",
              "type": "uint8"
            },
            {
              "internalType": "uint8",
              "name": "rarity",
              "type": "uint8"
            },
            {
              "internalType": "uint32",
              "name": "readyTime",
              "type": "uint32"
            }
          ],
          "internalType": "struct LipToken.Lip[]",
          "name": "",
          "type": "tuple[]"
        }
      ],
      "stateMutability": "view",
      "type": "function",
      "constant": true
    },
    {
      "inputs": [
        {
          "internalType": "uint256",
          "name": "_lipId",
          "type": "uint256"
        }
      ],
      "name": "levelUp",
      "outputs": [],
      "stateMutability": "payable",
      "type": "function",
      "payable": true
    },
    {
      "inputs": [
        {
          "internalType": "uint256",
          "name": "_lipId",
          "type": "uint256"
        },
        {
          "internalType": "string",
          "name": "_newName",
          "type": "string"
        }
      ],
      "name": "changeName",
      "outputs": [],
      "stateMutability": "nonpayable",
      "type": "function"
    }
  ],
  "bytecode": "0x6080604052662386f26fc10000600855662386f26fc1000060095562015180600a5566354a6ba7a18000600b553480156200003957600080fd5b506040518060400160405280600981526020017f4c697020546f6b656e00000000000000000000000000000000000000000000008152506040518060400160405280600381526020017f4c505400000000000000000000000000000000000000000000000000000000008152508160009080519060200190620000be929190620001ce565b508060019080519060200190620000d7929190620001ce565b505050620000fa620000ee6200010060201b60201c565b6200010860201b60201c565b620002e3565b600033905090565b6000600660009054906101000a900473ffffffffffffffffffffffffffffffffffffffff16905081600660006101000a81548173ffffffffffffffffffffffffffffffffffffffff021916908373ffffffffffffffffffffffffffffffffffffffff1602179055508173ffffffffffffffffffffffffffffffffffffffff168173ffffffffffffffffffffffffffffffffffffffff167f8be0079c531659141344cd1fd0a4f28419497f9722a3daafe3b4186f6b6457e060405160405180910390a35050565b828054620001dc90620002ad565b90600052602060002090601f0160209004810192826200020057600085556200024c565b82601f106200021b57805160ff19168380011785556200024c565b828001600101855582156200024c579182015b828111156200024b5782518255916020019190600101906200022e565b5b5090506200025b91906200025f565b5090565b5b808211156200027a57600081600090555060010162000260565b5090565b7f4e487b7100000000000000000000000000000000000000000000000000000000600052602260045260246000fd5b60006002820490506001821680620002c657607f821691505b60208210811415620002dd57620002dc6200027e565b5b50919050565b613ce880620002f36000396000f3fe6080604052600436106101405760003560e01c8063698d640c116100b6578063a22cb4651161006f578063a22cb46514610438578063b88d4fde14610461578063c39cbef11461048a578063c87b56dd146104b3578063e985e9c5146104f0578063f2fde38b1461052d57610140565b8063698d640c1461033557806370a0823114610351578063715018a61461038e5780638c0b9c54146103a55780638da5cb5b146103e257806395d89b411461040d57610140565b80630fdb1c10116101085780630fdb1c101461022f57806323b872dd146102395780632c44cfc31461026257806342842e0e1461028d5780635ec163db146102b65780636352211e146102f857610140565b806301ffc9a71461014557806306fdde0314610182578063081812fc146101ad578063095ea7b3146101ea5780630ce90ec214610213575b600080fd5b34801561015157600080fd5b5061016c60048036038101906101679190612654565b610556565b604051610179919061269c565b60405180910390f35b34801561018e57600080fd5b50610197610638565b6040516101a49190612750565b60405180910390f35b3480156101b957600080fd5b506101d460048036038101906101cf91906127a8565b6106ca565b6040516101e19190612816565b60405180910390f35b3480156101f657600080fd5b50610211600480360381019061020c919061285d565b61074f565b005b61022d600480360381019061022891906127a8565b610867565b005b610237610937565b005b34801561024557600080fd5b50610260600480360381019061025b919061289d565b610a09565b005b34801561026e57600080fd5b50610277610a69565b6040516102849190612acf565b60405180910390f35b34801561029957600080fd5b506102b460048036038101906102af919061289d565b610bce565b005b3480156102c257600080fd5b506102dd60048036038101906102d891906127a8565b610bee565b6040516102ef96959493929190612b1e565b60405180910390f35b34801561030457600080fd5b5061031f600480360381019061031a91906127a8565b610cec565b60405161032c9190612816565b60405180910390f35b61034f600480360381019061034a9190612cbb565b610d9e565b005b34801561035d57600080fd5b5061037860048036038101906103739190612d04565b610db9565b6040516103859190612d31565b60405180910390f35b34801561039a57600080fd5b506103a3610e71565b005b3480156103b157600080fd5b506103cc60048036038101906103c79190612d04565b610ef9565b6040516103d99190612acf565b60405180910390f35b3480156103ee57600080fd5b506103f761112e565b6040516104049190612816565b60405180910390f35b34801561041957600080fd5b50610422611158565b60405161042f9190612750565b60405180910390f35b34801561044457600080fd5b5061045f600480360381019061045a9190612d78565b6111ea565b005b34801561046d57600080fd5b5061048860048036038101906104839190612e59565b611200565b005b34801561049657600080fd5b506104b160048036038101906104ac9190612f3c565b611262565b005b3480156104bf57600080fd5b506104da60048036038101906104d591906127a8565b611325565b6040516104e79190612750565b60405180910390f35b3480156104fc57600080fd5b5061051760048036038101906105129190612f9c565b6113cc565b604051610524919061269c565b60405180910390f35b34801561053957600080fd5b50610554600480360381019061054f9190612d04565b611460565b005b60007f80ac58cd000000000000000000000000000000000000000000000000000000007bffffffffffffffffffffffffffffffffffffffffffffffffffffffff1916827bffffffffffffffffffffffffffffffffffffffffffffffffffffffff1916148061062157507f5b5e139f000000000000000000000000000000000000000000000000000000007bffffffffffffffffffffffffffffffffffffffffffffffffffffffff1916827bffffffffffffffffffffffffffffffffffffffffffffffffffffffff1916145b80610631575061063082611558565b5b9050919050565b6060600080546106479061300b565b80601f01602080910402602001604051908101604052809291908181526020018280546106739061300b565b80156106c05780601f10610695576101008083540402835291602001916106c0565b820191906000526020600020905b8154815290600101906020018083116106a357829003601f168201915b5050505050905090565b60006106d5826115c2565b610714576040517f08c379a000000000000000000000000000000000000000000000000000000000815260040161070b906130af565b60405180910390fd5b6004600083815260200190815260200160002060009054906101000a900473ffffffffffffffffffffffffffffffffffffffff169050919050565b600061075a82610cec565b90508073ffffffffffffffffffffffffffffffffffffffff168373ffffffffffffffffffffffffffffffffffffffff1614156107cb576040517f08c379a00000000000000000000000000000000000000000000000000000000081526004016107c290613141565b60405180910390fd5b8073ffffffffffffffffffffffffffffffffffffffff166107ea61162e565b73ffffffffffffffffffffffffffffffffffffffff16148061081957506108188161081361162e565b6113cc565b5b610858576040517f08c379a000000000000000000000000000000000000000000000000000000000815260040161084f906131d3565b60405180910390fd5b6108628383611636565b505050565b8061087181610cec565b73ffffffffffffffffffffffffffffffffffffffff163373ffffffffffffffffffffffffffffffffffffffff16146108a857600080fd5b6000600c83815481106108be576108bd6131f3565b5b906000526020600020906004020190506108d7816116ef565b6108e057600080fd5b6009543410156108ef57600080fd5b80600301600081819054906101000a900460ff168092919061091090613251565b91906101000a81548160ff021916908360ff1602179055505061093281611716565b505050565b61093f61162e565b73ffffffffffffffffffffffffffffffffffffffff1661095d61112e565b73ffffffffffffffffffffffffffffffffffffffff16146109b3576040517f08c379a00000000000000000000000000000000000000000000000000000000081526004016109aa906132c7565b60405180910390fd5b60006109bd61112e565b90508073ffffffffffffffffffffffffffffffffffffffff166108fc479081150290604051600060405180830381858888f19350505050158015610a05573d6000803e3d6000fd5b5050565b610a1a610a1461162e565b82611749565b610a59576040517f08c379a0000000000000000000000000000000000000000000000000000000008152600401610a5090613359565b60405180910390fd5b610a64838383611827565b505050565b6060600c805480602002602001604051908101604052809291908181526020016000905b82821015610bc557838290600052602060002090600402016040518060c001604052908160008201548152602001600182018054610aca9061300b565b80601f0160208091040260200160405190810160405280929190818152602001828054610af69061300b565b8015610b435780601f10610b1857610100808354040283529160200191610b43565b820191906000526020600020905b815481529060010190602001808311610b2657829003601f168201915b50505050508152602001600282015481526020016003820160009054906101000a900460ff1660ff1660ff1681526020016003820160019054906101000a900460ff1660ff1660ff1681526020016003820160029054906101000a900463ffffffff1663ffffffff1663ffffffff168152505081526020019060010190610a8d565b50505050905090565b610be983838360405180602001604052806000815250611200565b505050565b600c8181548110610bfe57600080fd5b9060005260206000209060040201600091509050806000015490806001018054610c279061300b565b80601f0160208091040260200160405190810160405280929190818152602001828054610c539061300b565b8015610ca05780601f10610c7557610100808354040283529160200191610ca0565b820191906000526020600020905b815481529060010190602001808311610c8357829003601f168201915b5050505050908060020154908060030160009054906101000a900460ff16908060030160019054906101000a900460ff16908060030160029054906101000a900463ffffffff16905086565b6000806002600084815260200190815260200160002060009054906101000a900473ffffffffffffffffffffffffffffffffffffffff169050600073ffffffffffffffffffffffffffffffffffffffff168173ffffffffffffffffffffffffffffffffffffffff161415610d95576040517f08c379a0000000000000000000000000000000000000000000000000000000008152600401610d8c906133eb565b60405180910390fd5b80915050919050565b600854341015610dad57600080fd5b610db681611a83565b50565b60008073ffffffffffffffffffffffffffffffffffffffff168273ffffffffffffffffffffffffffffffffffffffff161415610e2a576040517f08c379a0000000000000000000000000000000000000000000000000000000008152600401610e219061347d565b60405180910390fd5b600360008373ffffffffffffffffffffffffffffffffffffffff1673ffffffffffffffffffffffffffffffffffffffff168152602001908152602001600020549050919050565b610e7961162e565b73ffffffffffffffffffffffffffffffffffffffff16610e9761112e565b73ffffffffffffffffffffffffffffffffffffffff1614610eed576040517f08c379a0000000000000000000000000000000000000000000000000000000008152600401610ee4906132c7565b60405180910390fd5b610ef76000611c34565b565b60606000610f0683610db9565b67ffffffffffffffff811115610f1f57610f1e612b90565b5b604051908082528060200260200182016040528015610f5857816020015b610f4561247d565b815260200190600190039081610f3d5790505b5090506000805b600c80549050811015611123578473ffffffffffffffffffffffffffffffffffffffff16610f8c82610cec565b73ffffffffffffffffffffffffffffffffffffffff16141561111057600c8181548110610fbc57610fbb6131f3565b5b90600052602060002090600402016040518060c001604052908160008201548152602001600182018054610fef9061300b565b80601f016020809104026020016040519081016040528092919081815260200182805461101b9061300b565b80156110685780601f1061103d57610100808354040283529160200191611068565b820191906000526020600020905b81548152906001019060200180831161104b57829003601f168201915b50505050508152602001600282015481526020016003820160009054906101000a900460ff1660ff1660ff1681526020016003820160019054906101000a900460ff1660ff1660ff1681526020016003820160029054906101000a900463ffffffff1663ffffffff1663ffffffff16815250508383815181106110ee576110ed6131f3565b5b602002602001018190525061110d600183611cfa90919063ffffffff16565b91505b808061111b9061349d565b915050610f5f565b508192505050919050565b6000600660009054906101000a900473ffffffffffffffffffffffffffffffffffffffff16905090565b6060600180546111679061300b565b80601f01602080910402602001604051908101604052809291908181526020018280546111939061300b565b80156111e05780601f106111b5576101008083540402835291602001916111e0565b820191906000526020600020905b8154815290600101906020018083116111c357829003601f168201915b5050505050905090565b6111fc6111f561162e565b8383611d10565b5050565b61121161120b61162e565b83611749565b611250576040517f08c379a000000000000000000000000000000000000000000000000000000000815260040161124790613359565b60405180910390fd5b61125c84848484611e7d565b50505050565b60028381600c828154811061127a576112796131f3565b5b906000526020600020906004020160030160009054906101000a900460ff1660ff1610156112a757600080fd5b846112b181610cec565b73ffffffffffffffffffffffffffffffffffffffff163373ffffffffffffffffffffffffffffffffffffffff16146112e857600080fd5b8484600c88815481106112fe576112fd6131f3565b5b9060005260206000209060040201600101919061131c9291906124bf565b50505050505050565b6060611330826115c2565b61136f576040517f08c379a000000000000000000000000000000000000000000000000000000000815260040161136690613558565b60405180910390fd5b6000611379611ed9565b9050600081511161139957604051806020016040528060008152506113c4565b806113a384611ef0565b6040516020016113b49291906135b4565b6040516020818303038152906040525b915050919050565b6000600560008473ffffffffffffffffffffffffffffffffffffffff1673ffffffffffffffffffffffffffffffffffffffff16815260200190815260200160002060008373ffffffffffffffffffffffffffffffffffffffff1673ffffffffffffffffffffffffffffffffffffffff16815260200190815260200160002060009054906101000a900460ff16905092915050565b61146861162e565b73ffffffffffffffffffffffffffffffffffffffff1661148661112e565b73ffffffffffffffffffffffffffffffffffffffff16146114dc576040517f08c379a00000000000000000000000000000000000000000000000000000000081526004016114d3906132c7565b60405180910390fd5b600073ffffffffffffffffffffffffffffffffffffffff168173ffffffffffffffffffffffffffffffffffffffff16141561154c576040517f08c379a00000000000000000000000000000000000000000000000000000000081526004016115439061364a565b60405180910390fd5b61155581611c34565b50565b60007f01ffc9a7000000000000000000000000000000000000000000000000000000007bffffffffffffffffffffffffffffffffffffffffffffffffffffffff1916827bffffffffffffffffffffffffffffffffffffffffffffffffffffffff1916149050919050565b60008073ffffffffffffffffffffffffffffffffffffffff166002600084815260200190815260200160002060009054906101000a900473ffffffffffffffffffffffffffffffffffffffff1673ffffffffffffffffffffffffffffffffffffffff1614159050919050565b600033905090565b816004600083815260200190815260200160002060006101000a81548173ffffffffffffffffffffffffffffffffffffffff021916908373ffffffffffffffffffffffffffffffffffffffff160217905550808273ffffffffffffffffffffffffffffffffffffffff166116a983610cec565b73ffffffffffffffffffffffffffffffffffffffff167f8c5be1e5ebec7d5bd14f71427d1e84f3dd0314c0f7b2291e5b200ac8c7c3b92560405160405180910390a45050565b6000428260030160029054906101000a900463ffffffff1663ffffffff1611159050919050565b600a5442611724919061366a565b8160030160026101000a81548163ffffffff021916908363ffffffff16021790555050565b6000611754826115c2565b611793576040517f08c379a000000000000000000000000000000000000000000000000000000000815260040161178a90613732565b60405180910390fd5b600061179e83610cec565b90508073ffffffffffffffffffffffffffffffffffffffff168473ffffffffffffffffffffffffffffffffffffffff16148061180d57508373ffffffffffffffffffffffffffffffffffffffff166117f5846106ca565b73ffffffffffffffffffffffffffffffffffffffff16145b8061181e575061181d81856113cc565b5b91505092915050565b8273ffffffffffffffffffffffffffffffffffffffff1661184782610cec565b73ffffffffffffffffffffffffffffffffffffffff161461189d576040517f08c379a0000000000000000000000000000000000000000000000000000000008152600401611894906137c4565b60405180910390fd5b600073ffffffffffffffffffffffffffffffffffffffff168273ffffffffffffffffffffffffffffffffffffffff16141561190d576040517f08c379a000000000000000000000000000000000000000000000000000000000815260040161190490613856565b60405180910390fd5b611918838383612051565b611923600082611636565b6001600360008573ffffffffffffffffffffffffffffffffffffffff1673ffffffffffffffffffffffffffffffffffffffff16815260200190815260200160002060008282546119739190613876565b925050819055506001600360008473ffffffffffffffffffffffffffffffffffffffff1673ffffffffffffffffffffffffffffffffffffffff16815260200190815260200160002060008282546119ca919061366a565b92505081905550816002600083815260200190815260200160002060006101000a81548173ffffffffffffffffffffffffffffffffffffffff021916908373ffffffffffffffffffffffffffffffffffffffff160217905550808273ffffffffffffffffffffffffffffffffffffffff168473ffffffffffffffffffffffffffffffffffffffff167fddf252ad1be2c89b69c2b068fc378daa952ba7f163c4a11628f55a4df523b3ef60405160405180910390a4505050565b6000611a95662386f26fc10000612056565b90506000611aa36064612056565b9050600c6040518060c001604052806007548152602001858152602001848152602001600160ff1681526020018360ff168152602001600a5442611ae7919061366a565b63ffffffff168152509080600181540180825580915050600190039060005260206000209060040201600090919091909150600082015181600001556020820151816001019080519060200190611b3f929190612545565b506040820151816002015560608201518160030160006101000a81548160ff021916908360ff16021790555060808201518160030160016101000a81548160ff021916908360ff16021790555060a08201518160030160026101000a81548163ffffffff021916908363ffffffff1602179055505050611bc13360075461209b565b3373ffffffffffffffffffffffffffffffffffffffff167f29c4292b8838988609f9bd8e9042f7e77158b1f5ebfcae6494b7b709c3d20ffc60075484604051611c0b9291906138aa565b60405180910390a2611c296001600754611cfa90919063ffffffff16565b600781905550505050565b6000600660009054906101000a900473ffffffffffffffffffffffffffffffffffffffff16905081600660006101000a81548173ffffffffffffffffffffffffffffffffffffffff021916908373ffffffffffffffffffffffffffffffffffffffff1602179055508173ffffffffffffffffffffffffffffffffffffffff168173ffffffffffffffffffffffffffffffffffffffff167f8be0079c531659141344cd1fd0a4f28419497f9722a3daafe3b4186f6b6457e060405160405180910390a35050565b60008183611d08919061366a565b905092915050565b8173ffffffffffffffffffffffffffffffffffffffff168373ffffffffffffffffffffffffffffffffffffffff161415611d7f576040517f08c379a0000000000000000000000000000000000000000000000000000000008152600401611d769061391f565b60405180910390fd5b80600560008573ffffffffffffffffffffffffffffffffffffffff1673ffffffffffffffffffffffffffffffffffffffff16815260200190815260200160002060008473ffffffffffffffffffffffffffffffffffffffff1673ffffffffffffffffffffffffffffffffffffffff16815260200190815260200160002060006101000a81548160ff0219169083151502179055508173ffffffffffffffffffffffffffffffffffffffff168373ffffffffffffffffffffffffffffffffffffffff167f17307eab39ab6107e8899845ad3d59bd9653f200f220920489ca2b5937696c3183604051611e70919061269c565b60405180910390a3505050565b611e88848484611827565b611e94848484846120b9565b611ed3576040517f08c379a0000000000000000000000000000000000000000000000000000000008152600401611eca906139b1565b60405180910390fd5b50505050565b606060405180602001604052806000815250905090565b60606000821415611f38576040518060400160405280600181526020017f3000000000000000000000000000000000000000000000000000000000000000815250905061204c565b600082905060005b60008214611f6a578080611f539061349d565b915050600a82611f639190613a00565b9150611f40565b60008167ffffffffffffffff811115611f8657611f85612b90565b5b6040519080825280601f01601f191660200182016040528015611fb85781602001600182028036833780820191505090505b5090505b6000851461204557600182611fd19190613876565b9150600a85611fe09190613a31565b6030611fec919061366a565b60f81b818381518110612002576120016131f3565b5b60200101907effffffffffffffffffffffffffffffffffffffffffffffffffffffffffffff1916908160001a905350600a8561203e9190613a00565b9450611fbc565b8093505050505b919050565b505050565b600080423360405160200161206c929190613acb565b6040516020818303038152906040528051906020012060001c905082816120939190613a31565b915050919050565b6120b5828260405180602001604052806000815250612241565b5050565b60006120da8473ffffffffffffffffffffffffffffffffffffffff1661229c565b15612234578373ffffffffffffffffffffffffffffffffffffffff1663150b7a0261210361162e565b8786866040518563ffffffff1660e01b81526004016121259493929190613b4c565b6020604051808303816000875af192505050801561216157506040513d601f19601f8201168201806040525081019061215e9190613bad565b60015b6121e4573d8060008114612191576040519150601f19603f3d011682016040523d82523d6000602084013e612196565b606091505b506000815114156121dc576040517f08c379a00000000000000000000000000000000000000000000000000000000081526004016121d3906139b1565b60405180910390fd5b805181602001fd5b63150b7a0260e01b7bffffffffffffffffffffffffffffffffffffffffffffffffffffffff1916817bffffffffffffffffffffffffffffffffffffffffffffffffffffffff191614915050612239565b600190505b949350505050565b61224b83836122af565b61225860008484846120b9565b612297576040517f08c379a000000000000000000000000000000000000000000000000000000000815260040161228e906139b1565b60405180910390fd5b505050565b600080823b905060008111915050919050565b600073ffffffffffffffffffffffffffffffffffffffff168273ffffffffffffffffffffffffffffffffffffffff16141561231f576040517f08c379a000000000000000000000000000000000000000000000000000000000815260040161231690613c26565b60405180910390fd5b612328816115c2565b15612368576040517f08c379a000000000000000000000000000000000000000000000000000000000815260040161235f90613c92565b60405180910390fd5b61237460008383612051565b6001600360008473ffffffffffffffffffffffffffffffffffffffff1673ffffffffffffffffffffffffffffffffffffffff16815260200190815260200160002060008282546123c4919061366a565b92505081905550816002600083815260200190815260200160002060006101000a81548173ffffffffffffffffffffffffffffffffffffffff021916908373ffffffffffffffffffffffffffffffffffffffff160217905550808273ffffffffffffffffffffffffffffffffffffffff16600073ffffffffffffffffffffffffffffffffffffffff167fddf252ad1be2c89b69c2b068fc378daa952ba7f163c4a11628f55a4df523b3ef60405160405180910390a45050565b6040518060c00160405280600081526020016060815260200160008152602001600060ff168152602001600060ff168152602001600063ffffffff1681525090565b8280546124cb9061300b565b90600052602060002090601f0160209004810192826124ed5760008555612534565b82601f1061250657803560ff1916838001178555612534565b82800160010185558215612534579182015b82811115612533578235825591602001919060010190612518565b5b50905061254191906125cb565b5090565b8280546125519061300b565b90600052602060002090601f01602090048101928261257357600085556125ba565b82601f1061258c57805160ff19168380011785556125ba565b828001600101855582156125ba579182015b828111156125b957825182559160200191906001019061259e565b5b5090506125c791906125cb565b5090565b5b808211156125e45760008160009055506001016125cc565b5090565b6000604051905090565b600080fd5b600080fd5b60007fffffffff0000000000000000000000000000000000000000000000000000000082169050919050565b612631816125fc565b811461263c57600080fd5b50565b60008135905061264e81612628565b92915050565b60006020828403121561266a576126696125f2565b5b60006126788482850161263f565b91505092915050565b60008115159050919050565b61269681612681565b82525050565b60006020820190506126b1600083018461268d565b92915050565b600081519050919050565b600082825260208201905092915050565b60005b838110156126f15780820151818401526020810190506126d6565b83811115612700576000848401525b50505050565b6000601f19601f8301169050919050565b6000612722826126b7565b61272c81856126c2565b935061273c8185602086016126d3565b61274581612706565b840191505092915050565b6000602082019050818103600083015261276a8184612717565b905092915050565b6000819050919050565b61278581612772565b811461279057600080fd5b50565b6000813590506127a28161277c565b92915050565b6000602082840312156127be576127bd6125f2565b5b60006127cc84828501612793565b91505092915050565b600073ffffffffffffffffffffffffffffffffffffffff82169050919050565b6000612800826127d5565b9050919050565b612810816127f5565b82525050565b600060208201905061282b6000830184612807565b92915050565b61283a816127f5565b811461284557600080fd5b50565b60008135905061285781612831565b92915050565b60008060408385031215612874576128736125f2565b5b600061288285828601612848565b925050602061289385828601612793565b9150509250929050565b6000806000606084860312156128b6576128b56125f2565b5b60006128c486828701612848565b93505060206128d586828701612848565b92505060406128e686828701612793565b9150509250925092565b600081519050919050565b600082825260208201905092915050565b6000819050602082019050919050565b61292581612772565b82525050565b600082825260208201905092915050565b6000612947826126b7565b612951818561292b565b93506129618185602086016126d3565b61296a81612706565b840191505092915050565b600060ff82169050919050565b61298b81612975565b82525050565b600063ffffffff82169050919050565b6129aa81612991565b82525050565b600060c0830160008301516129c8600086018261291c565b50602083015184820360208601526129e0828261293c565b91505060408301516129f5604086018261291c565b506060830151612a086060860182612982565b506080830151612a1b6080860182612982565b5060a0830151612a2e60a08601826129a1565b508091505092915050565b6000612a4583836129b0565b905092915050565b6000602082019050919050565b6000612a65826128f0565b612a6f81856128fb565b935083602082028501612a818561290c565b8060005b85811015612abd5784840389528151612a9e8582612a39565b9450612aa983612a4d565b925060208a01995050600181019050612a85565b50829750879550505050505092915050565b60006020820190508181036000830152612ae98184612a5a565b905092915050565b612afa81612772565b82525050565b612b0981612975565b82525050565b612b1881612991565b82525050565b600060c082019050612b336000830189612af1565b8181036020830152612b458188612717565b9050612b546040830187612af1565b612b616060830186612b00565b612b6e6080830185612b00565b612b7b60a0830184612b0f565b979650505050505050565b600080fd5b600080fd5b7f4e487b7100000000000000000000000000000000000000000000000000000000600052604160045260246000fd5b612bc882612706565b810181811067ffffffffffffffff82111715612be757612be6612b90565b5b80604052505050565b6000612bfa6125e8565b9050612c068282612bbf565b919050565b600067ffffffffffffffff821115612c2657612c25612b90565b5b612c2f82612706565b9050602081019050919050565b82818337600083830152505050565b6000612c5e612c5984612c0b565b612bf0565b905082815260208101848484011115612c7a57612c79612b8b565b5b612c85848285612c3c565b509392505050565b600082601f830112612ca257612ca1612b86565b5b8135612cb2848260208601612c4b565b91505092915050565b600060208284031215612cd157612cd06125f2565b5b600082013567ffffffffffffffff811115612cef57612cee6125f7565b5b612cfb84828501612c8d565b91505092915050565b600060208284031215612d1a57612d196125f2565b5b6000612d2884828501612848565b91505092915050565b6000602082019050612d466000830184612af1565b92915050565b612d5581612681565b8114612d6057600080fd5b50565b600081359050612d7281612d4c565b92915050565b60008060408385031215612d8f57612d8e6125f2565b5b6000612d9d85828601612848565b9250506020612dae85828601612d63565b9150509250929050565b600067ffffffffffffffff821115612dd357612dd2612b90565b5b612ddc82612706565b9050602081019050919050565b6000612dfc612df784612db8565b612bf0565b905082815260208101848484011115612e1857612e17612b8b565b5b612e23848285612c3c565b509392505050565b600082601f830112612e4057612e3f612b86565b5b8135612e50848260208601612de9565b91505092915050565b60008060008060808587031215612e7357612e726125f2565b5b6000612e8187828801612848565b9450506020612e9287828801612848565b9350506040612ea387828801612793565b925050606085013567ffffffffffffffff811115612ec457612ec36125f7565b5b612ed087828801612e2b565b91505092959194509250565b600080fd5b600080fd5b60008083601f840112612efc57612efb612b86565b5b8235905067ffffffffffffffff811115612f1957612f18612edc565b5b602083019150836001820283011115612f3557612f34612ee1565b5b9250929050565b600080600060408486031215612f5557612f546125f2565b5b6000612f6386828701612793565b935050602084013567ffffffffffffffff811115612f8457612f836125f7565b5b612f9086828701612ee6565b92509250509250925092565b60008060408385031215612fb357612fb26125f2565b5b6000612fc185828601612848565b9250506020612fd285828601612848565b9150509250929050565b7f4e487b7100000000000000000000000000000000000000000000000000000000600052602260045260246000fd5b6000600282049050600182168061302357607f821691505b6020821081141561303757613036612fdc565b5b50919050565b7f4552433732313a20617070726f76656420717565727920666f72206e6f6e657860008201527f697374656e7420746f6b656e0000000000000000000000000000000000000000602082015250565b6000613099602c836126c2565b91506130a48261303d565b604082019050919050565b600060208201905081810360008301526130c88161308c565b9050919050565b7f4552433732313a20617070726f76616c20746f2063757272656e74206f776e6560008201527f7200000000000000000000000000000000000000000000000000000000000000602082015250565b600061312b6021836126c2565b9150613136826130cf565b604082019050919050565b6000602082019050818103600083015261315a8161311e565b9050919050565b7f4552433732313a20617070726f76652063616c6c6572206973206e6f74206f7760008201527f6e6572206e6f7220617070726f76656420666f7220616c6c0000000000000000602082015250565b60006131bd6038836126c2565b91506131c882613161565b604082019050919050565b600060208201905081810360008301526131ec816131b0565b9050919050565b7f4e487b7100000000000000000000000000000000000000000000000000000000600052603260045260246000fd5b7f4e487b7100000000000000000000000000000000000000000000000000000000600052601160045260246000fd5b600061325c82612975565b915060ff8214156132705761326f613222565b5b600182019050919050565b7f4f776e61626c653a2063616c6c6572206973206e6f7420746865206f776e6572600082015250565b60006132b16020836126c2565b91506132bc8261327b565b602082019050919050565b600060208201905081810360008301526132e0816132a4565b9050919050565b7f4552433732313a207472616e736665722063616c6c6572206973206e6f74206f60008201527f776e6572206e6f7220617070726f766564000000000000000000000000000000602082015250565b60006133436031836126c2565b915061334e826132e7565b604082019050919050565b6000602082019050818103600083015261337281613336565b9050919050565b7f4552433732313a206f776e657220717565727920666f72206e6f6e657869737460008201527f656e7420746f6b656e0000000000000000000000000000000000000000000000602082015250565b60006133d56029836126c2565b91506133e082613379565b604082019050919050565b60006020820190508181036000830152613404816133c8565b9050919050565b7f4552433732313a2062616c616e636520717565727920666f7220746865207a6560008201527f726f206164647265737300000000000000000000000000000000000000000000602082015250565b6000613467602a836126c2565b91506134728261340b565b604082019050919050565b600060208201905081810360008301526134968161345a565b9050919050565b60006134a882612772565b91507fffffffffffffffffffffffffffffffffffffffffffffffffffffffffffffffff8214156134db576134da613222565b5b600182019050919050565b7f4552433732314d657461646174613a2055524920717565727920666f72206e6f60008201527f6e6578697374656e7420746f6b656e0000000000000000000000000000000000602082015250565b6000613542602f836126c2565b915061354d826134e6565b604082019050919050565b6000602082019050818103600083015261357181613535565b9050919050565b600081905092915050565b600061358e826126b7565b6135988185613578565b93506135a88185602086016126d3565b80840191505092915050565b60006135c08285613583565b91506135cc8284613583565b91508190509392505050565b7f4f776e61626c653a206e6577206f776e657220697320746865207a65726f206160008201527f6464726573730000000000000000000000000000000000000000000000000000602082015250565b60006136346026836126c2565b915061363f826135d8565b604082019050919050565b6000602082019050818103600083015261366381613627565b9050919050565b600061367582612772565b915061368083612772565b9250827fffffffffffffffffffffffffffffffffffffffffffffffffffffffffffffffff038211156136b5576136b4613222565b5b828201905092915050565b7f4552433732313a206f70657261746f7220717565727920666f72206e6f6e657860008201527f697374656e7420746f6b656e0000000000000000000000000000000000000000602082015250565b600061371c602c836126c2565b9150613727826136c0565b604082019050919050565b6000602082019050818103600083015261374b8161370f565b9050919050565b7f4552433732313a207472616e73666572206f6620746f6b656e2074686174206960008201527f73206e6f74206f776e0000000000000000000000000000000000000000000000602082015250565b60006137ae6029836126c2565b91506137b982613752565b604082019050919050565b600060208201905081810360008301526137dd816137a1565b9050919050565b7f4552433732313a207472616e7366657220746f20746865207a65726f2061646460008201527f7265737300000000000000000000000000000000000000000000000000000000602082015250565b60006138406024836126c2565b915061384b826137e4565b604082019050919050565b6000602082019050818103600083015261386f81613833565b9050919050565b600061388182612772565b915061388c83612772565b92508282101561389f5761389e613222565b5b828203905092915050565b60006040820190506138bf6000830185612af1565b6138cc6020830184612af1565b9392505050565b7f4552433732313a20617070726f766520746f2063616c6c657200000000000000600082015250565b60006139096019836126c2565b9150613914826138d3565b602082019050919050565b60006020820190508181036000830152613938816138fc565b9050919050565b7f4552433732313a207472616e7366657220746f206e6f6e20455243373231526560008201527f63656976657220696d706c656d656e7465720000000000000000000000000000602082015250565b600061399b6032836126c2565b91506139a68261393f565b604082019050919050565b600060208201905081810360008301526139ca8161398e565b9050919050565b7f4e487b7100000000000000000000000000000000000000000000000000000000600052601260045260246000fd5b6000613a0b82612772565b9150613a1683612772565b925082613a2657613a256139d1565b5b828204905092915050565b6000613a3c82612772565b9150613a4783612772565b925082613a5757613a566139d1565b5b828206905092915050565b6000819050919050565b613a7d613a7882612772565b613a62565b82525050565b60008160601b9050919050565b6000613a9b82613a83565b9050919050565b6000613aad82613a90565b9050919050565b613ac5613ac0826127f5565b613aa2565b82525050565b6000613ad78285613a6c565b602082019150613ae78284613ab4565b6014820191508190509392505050565b600081519050919050565b600082825260208201905092915050565b6000613b1e82613af7565b613b288185613b02565b9350613b388185602086016126d3565b613b4181612706565b840191505092915050565b6000608082019050613b616000830187612807565b613b6e6020830186612807565b613b7b6040830185612af1565b8181036060830152613b8d8184613b13565b905095945050505050565b600081519050613ba781612628565b92915050565b600060208284031215613bc357613bc26125f2565b5b6000613bd184828501613b98565b91505092915050565b7f4552433732313a206d696e7420746f20746865207a65726f2061646472657373600082015250565b6000613c106020836126c2565b9150613c1b82613bda565b602082019050919050565b60006020820190508181036000830152613c3f81613c03565b9050919050565b7f4552433732313a20746f6b656e20616c7265616479206d696e74656400000000600082015250565b6000613c7c601c836126c2565b9150613c8782613c46565b602082019050919050565b60006020820190508181036000830152613cab81613c6f565b905091905056fea26469706673582212208b043f1983213292d311c76655661cb45a666b086dc1c11378501b13a019704b64736f6c634300080b0033",
  "immutableReferences": {},
  "source": "// SPDX-License-Identifier: MIT\r\n\r\npragma solidity >=0.4.22 <0.9.0;\r\n\r\nimport \"@openzeppelin/contracts/token/ERC721/ERC721.sol\";\r\nimport \"@openzeppelin/contracts/access/Ownable.sol\";\r\nimport \"@openzeppelin/contracts/utils/math/SafeMath.sol\";\r\n\r\ncontract LipToken is ERC721, Ownable {\r\n    constructor() ERC721(\"Lip Token\", \"LPT\") {}\r\n\r\n    uint256 COUNTER;\r\n    uint256 fee = 0.01 ether;\r\n    uint256 levelUpFee = 0.01 ether;\r\n    uint256 cooldownTime = 1 days;\r\n    uint256 clearTimeFee = 0.015 ether;\r\n\r\n    using SafeMath for uint256;\r\n\r\n    struct Lip {\r\n        uint256 id;\r\n        string name;\r\n        uint256 dna;\r\n        uint8 level;\r\n        uint8 rarity;\r\n        uint32 readyTime;\r\n    }\r\n\r\n    Lip[] public lips;\r\n\r\n    event NewLipCreated(address indexed owner, uint256 id, uint256 dna);\r\n\r\n    // helper\r\n    function _generateRandomNum(uint256 _mod) internal view returns (uint256) {\r\n        uint256 randomNumber = uint256(\r\n            keccak256(abi.encodePacked(block.timestamp, msg.sender))\r\n        );\r\n        return randomNumber % _mod;\r\n    }\r\n\r\n    // function updateFee(uint256 _fee) external onlyOwner {\r\n    //     fee = _fee;\r\n    // }\r\n\r\n    // function setLevelUpFee(uint256 _fee) external onlyOwner {\r\n    //     levelUpFee = _fee;\r\n    // }\r\n\r\n    function withDraw() external payable onlyOwner {\r\n        address payable _owner = payable(owner());\r\n        _owner.transfer(address(this).balance);\r\n    }\r\n\r\n    modifier aboveLevel(uint256 _level, uint256 _lipId) {\r\n        require(lips[_lipId].level >= _level);\r\n        _;\r\n    }\r\n\r\n    modifier onlyOwnerOf(uint256 _lipId) {\r\n        require(msg.sender == ownerOf(_lipId));\r\n        _;\r\n    }\r\n\r\n    function _triggerCooldown(Lip storage _lip) internal {\r\n        _lip.readyTime = uint32(block.timestamp + cooldownTime);\r\n    }\r\n\r\n    function _isReady(Lip storage _lip) internal view returns (bool) {\r\n        return (_lip.readyTime <= block.timestamp);\r\n    }\r\n\r\n    // function quickSortLevel(\r\n    //     Lip[] memory arr,\r\n    //     int256 left,\r\n    //     int256 right\r\n    // ) public pure {\r\n    //     int256 i = left;\r\n    //     int256 j = right;\r\n    //     if (i == j) return;\r\n    //     Lip memory pivot = arr[uint256(left + (right - left) / 2)];\r\n    //     while (i <= j) {\r\n    //         while (arr[uint256(i)].level < pivot.level) i++;\r\n    //         while (pivot.level < arr[uint256(j)].level) j--;\r\n    //         if (i <= j) {\r\n    //             (arr[uint256(i)], arr[uint256(j)]) = (\r\n    //                 arr[uint256(j)],\r\n    //                 arr[uint256(i)]\r\n    //             );\r\n    //             i = i++;\r\n    //             j = j--;\r\n    //         }\r\n    //     }\r\n    //     if (left < j) quickSortLevel(arr, left, j);\r\n    //     if (i < right) quickSortLevel(arr, i, right);\r\n    // }\r\n\r\n    // ==================== //\r\n\r\n    function _createLip(string memory _name) internal {\r\n        uint256 randomDna = _generateRandomNum(10**16);\r\n        uint8 randomRarity = uint8(_generateRandomNum(100));\r\n        lips.push(\r\n            Lip(\r\n                COUNTER,\r\n                _name,\r\n                randomDna,\r\n                1,\r\n                randomRarity,\r\n                uint32(block.timestamp + cooldownTime)\r\n            )\r\n        );\r\n        _safeMint(msg.sender, COUNTER);\r\n        emit NewLipCreated(msg.sender, COUNTER, randomDna);\r\n        COUNTER = COUNTER.add(1);\r\n    }\r\n\r\n    function createRandomLip(string memory _name) public payable {\r\n        require(msg.value >= fee);\r\n        _createLip(_name);\r\n    }\r\n\r\n    function getAllLips() public view returns (Lip[] memory) {\r\n        return lips;\r\n    }\r\n\r\n    function getOwnerLips(address _owner) public view returns (Lip[] memory) {\r\n        Lip[] memory result = new Lip[](balanceOf(_owner));\r\n        uint256 counter = 0;\r\n        for (uint256 i = 0; i < lips.length; i++) {\r\n            if (ownerOf(i) == _owner) {\r\n                result[counter] = lips[i];\r\n                counter = counter.add(1);\r\n            }\r\n        }\r\n        return result;\r\n    }\r\n\r\n    function levelUp(uint256 _lipId) public payable onlyOwnerOf(_lipId) {\r\n        Lip storage lip = lips[_lipId];\r\n        require(_isReady(lip));\r\n        require(msg.value >= levelUpFee);\r\n        lip.level++;\r\n        _triggerCooldown(lip);\r\n    }\r\n\r\n    function changeName(uint256 _lipId, string calldata _newName)\r\n        external\r\n        aboveLevel(2, _lipId)\r\n        onlyOwnerOf(_lipId)\r\n    {\r\n        lips[_lipId].name = _newName;\r\n    }\r\n\r\n    // function clearWaitTime(uint256 _lipId) public payable onlyOwnerOf(_lipId) {\r\n    //     Lip storage lip = lips[_lipId];\r\n    //     require(msg.value >= clearTimeFee * lip.level);\r\n    //     lip.readyTime = uint32(0);\r\n    // }\r\n}\r\n",
  "sourcePath": "C:\\Github\\nft_game\\src\\contracts\\LipToken.sol",
  "compiler": {
    "name": "solc",
    "version": "0.8.11+commit.d7f03943.Emscripten.clang"
  },
  "schemaVersion": "3.4.4",
  "updatedAt": "2022-02-16T05:15:04.177Z",
  "networkType": "ethereum",
  "devdoc": {
    "kind": "dev",
    "methods": {
      "approve(address,uint256)": {
        "details": "See {IERC721-approve}."
      },
      "balanceOf(address)": {
        "details": "See {IERC721-balanceOf}."
      },
      "getApproved(uint256)": {
        "details": "See {IERC721-getApproved}."
      },
      "isApprovedForAll(address,address)": {
        "details": "See {IERC721-isApprovedForAll}."
      },
      "name()": {
        "details": "See {IERC721Metadata-name}."
      },
      "owner()": {
        "details": "Returns the address of the current owner."
      },
      "ownerOf(uint256)": {
        "details": "See {IERC721-ownerOf}."
      },
      "renounceOwnership()": {
        "details": "Leaves the contract without owner. It will not be possible to call `onlyOwner` functions anymore. Can only be called by the current owner. NOTE: Renouncing ownership will leave the contract without an owner, thereby removing any functionality that is only available to the owner."
      },
      "safeTransferFrom(address,address,uint256)": {
        "details": "See {IERC721-safeTransferFrom}."
      },
      "safeTransferFrom(address,address,uint256,bytes)": {
        "details": "See {IERC721-safeTransferFrom}."
      },
      "setApprovalForAll(address,bool)": {
        "details": "See {IERC721-setApprovalForAll}."
      },
      "supportsInterface(bytes4)": {
        "details": "See {IERC165-supportsInterface}."
      },
      "symbol()": {
        "details": "See {IERC721Metadata-symbol}."
      },
      "tokenURI(uint256)": {
        "details": "See {IERC721Metadata-tokenURI}."
      },
      "transferFrom(address,address,uint256)": {
        "details": "See {IERC721-transferFrom}."
      },
      "transferOwnership(address)": {
        "details": "Transfers ownership of the contract to a new account (`newOwner`). Can only be called by the current owner."
      }
    },
    "version": 1
  },
  "userdoc": {
    "kind": "user",
    "methods": {},
    "version": 1
  }
}