{
  "contractName": "LipToken",
  "abi": [
    {
      "inputs": [],
      "stateMutability": "nonpayable",
      "type": "constructor"
    },
    {
      "anonymous": false,
      "inputs": [
        {
          "indexed": true,
          "internalType": "address",
          "name": "owner",
          "type": "address"
        },
        {
          "indexed": true,
          "internalType": "address",
          "name": "approved",
          "type": "address"
        },
        {
          "indexed": true,
          "internalType": "uint256",
          "name": "tokenId",
          "type": "uint256"
        }
      ],
      "name": "Approval",
      "type": "event"
    },
    {
      "anonymous": false,
      "inputs": [
        {
          "indexed": true,
          "internalType": "address",
          "name": "owner",
          "type": "address"
        },
        {
          "indexed": true,
          "internalType": "address",
          "name": "operator",
          "type": "address"
        },
        {
          "indexed": false,
          "internalType": "bool",
          "name": "approved",
          "type": "bool"
        }
      ],
      "name": "ApprovalForAll",
      "type": "event"
    },
    {
      "anonymous": false,
      "inputs": [
        {
          "indexed": true,
          "internalType": "address",
          "name": "owner",
          "type": "address"
        },
        {
          "indexed": false,
          "internalType": "uint256",
          "name": "id",
          "type": "uint256"
        },
        {
          "indexed": false,
          "internalType": "uint256",
          "name": "dna",
          "type": "uint256"
        }
      ],
      "name": "NewLipCreated",
      "type": "event"
    },
    {
      "anonymous": false,
      "inputs": [
        {
          "indexed": true,
          "internalType": "address",
          "name": "previousOwner",
          "type": "address"
        },
        {
          "indexed": true,
          "internalType": "address",
          "name": "newOwner",
          "type": "address"
        }
      ],
      "name": "OwnershipTransferred",
      "type": "event"
    },
    {
      "anonymous": false,
      "inputs": [
        {
          "indexed": true,
          "internalType": "address",
          "name": "from",
          "type": "address"
        },
        {
          "indexed": true,
          "internalType": "address",
          "name": "to",
          "type": "address"
        },
        {
          "indexed": true,
          "internalType": "uint256",
          "name": "tokenId",
          "type": "uint256"
        }
      ],
      "name": "Transfer",
      "type": "event"
    },
    {
      "inputs": [
        {
          "internalType": "address",
          "name": "to",
          "type": "address"
        },
        {
          "internalType": "uint256",
          "name": "tokenId",
          "type": "uint256"
        }
      ],
      "name": "approve",
      "outputs": [],
      "stateMutability": "nonpayable",
      "type": "function"
    },
    {
      "inputs": [
        {
          "internalType": "address",
          "name": "owner",
          "type": "address"
        }
      ],
      "name": "balanceOf",
      "outputs": [
        {
          "internalType": "uint256",
          "name": "",
          "type": "uint256"
        }
      ],
      "stateMutability": "view",
      "type": "function",
      "constant": true
    },
    {
      "inputs": [
        {
          "internalType": "uint256",
          "name": "tokenId",
          "type": "uint256"
        }
      ],
      "name": "getApproved",
      "outputs": [
        {
          "internalType": "address",
          "name": "",
          "type": "address"
        }
      ],
      "stateMutability": "view",
      "type": "function",
      "constant": true
    },
    {
      "inputs": [
        {
          "internalType": "address",
          "name": "owner",
          "type": "address"
        },
        {
          "internalType": "address",
          "name": "operator",
          "type": "address"
        }
      ],
      "name": "isApprovedForAll",
      "outputs": [
        {
          "internalType": "bool",
          "name": "",
          "type": "bool"
        }
      ],
      "stateMutability": "view",
      "type": "function",
      "constant": true
    },
    {
      "inputs": [
        {
          "internalType": "uint256",
          "name": "",
          "type": "uint256"
        }
      ],
      "name": "lips",
      "outputs": [
        {
          "internalType": "uint256",
          "name": "id",
          "type": "uint256"
        },
        {
          "internalType": "string",
          "name": "name",
          "type": "string"
        },
        {
          "internalType": "uint256",
          "name": "dna",
          "type": "uint256"
        },
        {
          "internalType": "uint8",
          "name": "level",
          "type": "uint8"
        },
        {
          "internalType": "uint8",
          "name": "rarity",
          "type": "uint8"
        },
        {
          "internalType": "uint32",
          "name": "readyTime",
          "type": "uint32"
        }
      ],
      "stateMutability": "view",
      "type": "function",
      "constant": true
    },
    {
      "inputs": [],
      "name": "name",
      "outputs": [
        {
          "internalType": "string",
          "name": "",
          "type": "string"
        }
      ],
      "stateMutability": "view",
      "type": "function",
      "constant": true
    },
    {
      "inputs": [],
      "name": "owner",
      "outputs": [
        {
          "internalType": "address",
          "name": "",
          "type": "address"
        }
      ],
      "stateMutability": "view",
      "type": "function",
      "constant": true
    },
    {
      "inputs": [
        {
          "internalType": "uint256",
          "name": "tokenId",
          "type": "uint256"
        }
      ],
      "name": "ownerOf",
      "outputs": [
        {
          "internalType": "address",
          "name": "",
          "type": "address"
        }
      ],
      "stateMutability": "view",
      "type": "function",
      "constant": true
    },
    {
      "inputs": [],
      "name": "renounceOwnership",
      "outputs": [],
      "stateMutability": "nonpayable",
      "type": "function"
    },
    {
      "inputs": [
        {
          "internalType": "address",
          "name": "from",
          "type": "address"
        },
        {
          "internalType": "address",
          "name": "to",
          "type": "address"
        },
        {
          "internalType": "uint256",
          "name": "tokenId",
          "type": "uint256"
        }
      ],
      "name": "safeTransferFrom",
      "outputs": [],
      "stateMutability": "nonpayable",
      "type": "function"
    },
    {
      "inputs": [
        {
          "internalType": "address",
          "name": "from",
          "type": "address"
        },
        {
          "internalType": "address",
          "name": "to",
          "type": "address"
        },
        {
          "internalType": "uint256",
          "name": "tokenId",
          "type": "uint256"
        },
        {
          "internalType": "bytes",
          "name": "_data",
          "type": "bytes"
        }
      ],
      "name": "safeTransferFrom",
      "outputs": [],
      "stateMutability": "nonpayable",
      "type": "function"
    },
    {
      "inputs": [
        {
          "internalType": "address",
          "name": "operator",
          "type": "address"
        },
        {
          "internalType": "bool",
          "name": "approved",
          "type": "bool"
        }
      ],
      "name": "setApprovalForAll",
      "outputs": [],
      "stateMutability": "nonpayable",
      "type": "function"
    },
    {
      "inputs": [
        {
          "internalType": "bytes4",
          "name": "interfaceId",
          "type": "bytes4"
        }
      ],
      "name": "supportsInterface",
      "outputs": [
        {
          "internalType": "bool",
          "name": "",
          "type": "bool"
        }
      ],
      "stateMutability": "view",
      "type": "function",
      "constant": true
    },
    {
      "inputs": [],
      "name": "symbol",
      "outputs": [
        {
          "internalType": "string",
          "name": "",
          "type": "string"
        }
      ],
      "stateMutability": "view",
      "type": "function",
      "constant": true
    },
    {
      "inputs": [
        {
          "internalType": "uint256",
          "name": "tokenId",
          "type": "uint256"
        }
      ],
      "name": "tokenURI",
      "outputs": [
        {
          "internalType": "string",
          "name": "",
          "type": "string"
        }
      ],
      "stateMutability": "view",
      "type": "function",
      "constant": true
    },
    {
      "inputs": [
        {
          "internalType": "address",
          "name": "from",
          "type": "address"
        },
        {
          "internalType": "address",
          "name": "to",
          "type": "address"
        },
        {
          "internalType": "uint256",
          "name": "tokenId",
          "type": "uint256"
        }
      ],
      "name": "transferFrom",
      "outputs": [],
      "stateMutability": "nonpayable",
      "type": "function"
    },
    {
      "inputs": [
        {
          "internalType": "address",
          "name": "newOwner",
          "type": "address"
        }
      ],
      "name": "transferOwnership",
      "outputs": [],
      "stateMutability": "nonpayable",
      "type": "function"
    },
    {
      "inputs": [
        {
          "internalType": "uint256",
          "name": "_fee",
          "type": "uint256"
        }
      ],
      "name": "updateFee",
      "outputs": [],
      "stateMutability": "nonpayable",
      "type": "function"
    },
    {
      "inputs": [
        {
          "internalType": "uint256",
          "name": "_fee",
          "type": "uint256"
        }
      ],
      "name": "setLevelUpFee",
      "outputs": [],
      "stateMutability": "nonpayable",
      "type": "function"
    },
    {
      "inputs": [],
      "name": "withDraw",
      "outputs": [],
      "stateMutability": "payable",
      "type": "function",
      "payable": true
    },
    {
      "inputs": [
        {
          "components": [
            {
              "internalType": "uint256",
              "name": "id",
              "type": "uint256"
            },
            {
              "internalType": "string",
              "name": "name",
              "type": "string"
            },
            {
              "internalType": "uint256",
              "name": "dna",
              "type": "uint256"
            },
            {
              "internalType": "uint8",
              "name": "level",
              "type": "uint8"
            },
            {
              "internalType": "uint8",
              "name": "rarity",
              "type": "uint8"
            },
            {
              "internalType": "uint32",
              "name": "readyTime",
              "type": "uint32"
            }
          ],
          "internalType": "struct LipToken.Lip[]",
          "name": "arr",
          "type": "tuple[]"
        },
        {
          "internalType": "int256",
          "name": "left",
          "type": "int256"
        },
        {
          "internalType": "int256",
          "name": "right",
          "type": "int256"
        }
      ],
      "name": "quickSortLevel",
      "outputs": [],
      "stateMutability": "pure",
      "type": "function",
      "constant": true
    },
    {
      "inputs": [
        {
          "components": [
            {
              "internalType": "uint256",
              "name": "id",
              "type": "uint256"
            },
            {
              "internalType": "string",
              "name": "name",
              "type": "string"
            },
            {
              "internalType": "uint256",
              "name": "dna",
              "type": "uint256"
            },
            {
              "internalType": "uint8",
              "name": "level",
              "type": "uint8"
            },
            {
              "internalType": "uint8",
              "name": "rarity",
              "type": "uint8"
            },
            {
              "internalType": "uint32",
              "name": "readyTime",
              "type": "uint32"
            }
          ],
          "internalType": "struct LipToken.Lip[]",
          "name": "data",
          "type": "tuple[]"
        }
      ],
      "name": "sort",
      "outputs": [
        {
          "components": [
            {
              "internalType": "uint256",
              "name": "id",
              "type": "uint256"
            },
            {
              "internalType": "string",
              "name": "name",
              "type": "string"
            },
            {
              "internalType": "uint256",
              "name": "dna",
              "type": "uint256"
            },
            {
              "internalType": "uint8",
              "name": "level",
              "type": "uint8"
            },
            {
              "internalType": "uint8",
              "name": "rarity",
              "type": "uint8"
            },
            {
              "internalType": "uint32",
              "name": "readyTime",
              "type": "uint32"
            }
          ],
          "internalType": "struct LipToken.Lip[]",
          "name": "",
          "type": "tuple[]"
        }
      ],
      "stateMutability": "pure",
      "type": "function",
      "constant": true
    },
    {
      "inputs": [
        {
          "internalType": "string",
          "name": "_name",
          "type": "string"
        }
      ],
      "name": "createRandomLip",
      "outputs": [],
      "stateMutability": "payable",
      "type": "function",
      "payable": true
    },
    {
      "inputs": [],
      "name": "getAllLips",
      "outputs": [
        {
          "components": [
            {
              "internalType": "uint256",
              "name": "id",
              "type": "uint256"
            },
            {
              "internalType": "string",
              "name": "name",
              "type": "string"
            },
            {
              "internalType": "uint256",
              "name": "dna",
              "type": "uint256"
            },
            {
              "internalType": "uint8",
              "name": "level",
              "type": "uint8"
            },
            {
              "internalType": "uint8",
              "name": "rarity",
              "type": "uint8"
            },
            {
              "internalType": "uint32",
              "name": "readyTime",
              "type": "uint32"
            }
          ],
          "internalType": "struct LipToken.Lip[]",
          "name": "",
          "type": "tuple[]"
        }
      ],
      "stateMutability": "view",
      "type": "function",
      "constant": true
    },
    {
      "inputs": [
        {
          "internalType": "address",
          "name": "_owner",
          "type": "address"
        }
      ],
      "name": "getOwnerLips",
      "outputs": [
        {
          "components": [
            {
              "internalType": "uint256",
              "name": "id",
              "type": "uint256"
            },
            {
              "internalType": "string",
              "name": "name",
              "type": "string"
            },
            {
              "internalType": "uint256",
              "name": "dna",
              "type": "uint256"
            },
            {
              "internalType": "uint8",
              "name": "level",
              "type": "uint8"
            },
            {
              "internalType": "uint8",
              "name": "rarity",
              "type": "uint8"
            },
            {
              "internalType": "uint32",
              "name": "readyTime",
              "type": "uint32"
            }
          ],
          "internalType": "struct LipToken.Lip[]",
          "name": "",
          "type": "tuple[]"
        }
      ],
      "stateMutability": "view",
      "type": "function",
      "constant": true
    },
    {
      "inputs": [
        {
          "internalType": "uint256",
          "name": "_lipId",
          "type": "uint256"
        }
      ],
      "name": "levelUp",
      "outputs": [],
      "stateMutability": "payable",
      "type": "function",
      "payable": true
    },
    {
      "inputs": [
        {
          "internalType": "uint256",
          "name": "_lipId",
          "type": "uint256"
        },
        {
          "internalType": "string",
          "name": "_newName",
          "type": "string"
        }
      ],
      "name": "changeName",
      "outputs": [],
      "stateMutability": "nonpayable",
      "type": "function"
    },
    {
      "inputs": [
        {
          "internalType": "uint256",
          "name": "_lipId",
          "type": "uint256"
        }
      ],
      "name": "clearWaitTime",
      "outputs": [],
      "stateMutability": "payable",
      "type": "function",
      "payable": true
    }
  ],
  "bytecode": "0x6080604052662386f26fc10000600855662386f26fc1000060095562015180600a5566354a6ba7a18000600b553480156200003957600080fd5b506040518060400160405280600981526020017f4c697020546f6b656e00000000000000000000000000000000000000000000008152506040518060400160405280600381526020017f4c505400000000000000000000000000000000000000000000000000000000008152508160009080519060200190620000be929190620001ce565b508060019080519060200190620000d7929190620001ce565b505050620000fa620000ee6200010060201b60201c565b6200010860201b60201c565b620002e3565b600033905090565b6000600660009054906101000a900473ffffffffffffffffffffffffffffffffffffffff16905081600660006101000a81548173ffffffffffffffffffffffffffffffffffffffff021916908373ffffffffffffffffffffffffffffffffffffffff1602179055508173ffffffffffffffffffffffffffffffffffffffff168173ffffffffffffffffffffffffffffffffffffffff167f8be0079c531659141344cd1fd0a4f28419497f9722a3daafe3b4186f6b6457e060405160405180910390a35050565b828054620001dc90620002ad565b90600052602060002090601f0160209004810192826200020057600085556200024c565b82601f106200021b57805160ff19168380011785556200024c565b828001600101855582156200024c579182015b828111156200024b5782518255916020019190600101906200022e565b5b5090506200025b91906200025f565b5090565b5b808211156200027a57600081600090555060010162000260565b5090565b7f4e487b7100000000000000000000000000000000000000000000000000000000600052602260045260246000fd5b60006002820490506001821680620002c657607f821691505b60208210811415620002dd57620002dc6200027e565b5b50919050565b6146d880620002f36000396000f3fe6080604052600436106101b75760003560e01c8063715018a6116100ec578063b88d4fde1161008a578063cbf69b6f11610064578063cbf69b6f146105e9578063ccf670f814610612578063e985e9c51461063b578063f2fde38b14610678576101b7565b8063b88d4fde1461055a578063c39cbef114610583578063c87b56dd146105ac576101b7565b80639012c4a8116100c65780639012c4a8146104c157806395d89b41146104ea5780639ee3c66014610515578063a22cb46514610531576101b7565b8063715018a6146104425780638c0b9c54146104595780638da5cb5b14610496576101b7565b80632c44cfc3116101595780635ec163db116101335780635ec163db1461036a5780636352211e146103ac578063698d640c146103e957806370a0823114610405576101b7565b80632c44cfc3146102d9578063354499561461030457806342842e0e14610341576101b7565b8063095ea7b311610195578063095ea7b3146102615780630ce90ec21461028a5780630fdb1c10146102a657806323b872dd146102b0576101b7565b806301ffc9a7146101bc57806306fdde03146101f9578063081812fc14610224575b600080fd5b3480156101c857600080fd5b506101e360048036038101906101de9190612b33565b6106a1565b6040516101f09190612b7b565b60405180910390f35b34801561020557600080fd5b5061020e610783565b60405161021b9190612c2f565b60405180910390f35b34801561023057600080fd5b5061024b60048036038101906102469190612c87565b610815565b6040516102589190612cf5565b60405180910390f35b34801561026d57600080fd5b5061028860048036038101906102839190612d3c565b61089a565b005b6102a4600480360381019061029f9190612c87565b6109b2565b005b6102ae610a82565b005b3480156102bc57600080fd5b506102d760048036038101906102d29190612d7c565b610b54565b005b3480156102e557600080fd5b506102ee610bb4565b6040516102fb9190612fae565b60405180910390f35b34801561031057600080fd5b5061032b60048036038101906103269190613309565b610d27565b6040516103389190612fae565b60405180910390f35b34801561034d57600080fd5b5061036860048036038101906103639190612d7c565b610d4a565b005b34801561037657600080fd5b50610391600480360381019061038c9190612c87565b610d6a565b6040516103a39695949392919061337f565b60405180910390f35b3480156103b857600080fd5b506103d360048036038101906103ce9190612c87565b610e68565b6040516103e09190612cf5565b60405180910390f35b61040360048036038101906103fe91906133e7565b610f1a565b005b34801561041157600080fd5b5061042c60048036038101906104279190613430565b610f35565b604051610439919061345d565b60405180910390f35b34801561044e57600080fd5b50610457610fed565b005b34801561046557600080fd5b50610480600480360381019061047b9190613430565b611075565b60405161048d9190612fae565b60405180910390f35b3480156104a257600080fd5b506104ab6112aa565b6040516104b89190612cf5565b60405180910390f35b3480156104cd57600080fd5b506104e860048036038101906104e39190612c87565b6112d4565b005b3480156104f657600080fd5b506104ff61135a565b60405161050c9190612c2f565b60405180910390f35b61052f600480360381019061052a9190612c87565b6113ec565b005b34801561053d57600080fd5b50610558600480360381019061055391906134a4565b61148b565b005b34801561056657600080fd5b50610581600480360381019061057c9190613585565b6114a1565b005b34801561058f57600080fd5b506105aa60048036038101906105a59190613663565b611503565b005b3480156105b857600080fd5b506105d360048036038101906105ce9190612c87565b6115c6565b6040516105e09190612c2f565b60405180910390f35b3480156105f557600080fd5b50610610600480360381019061060b91906136f9565b61166d565b005b34801561061e57600080fd5b5061063960048036038101906106349190612c87565b611825565b005b34801561064757600080fd5b50610662600480360381019061065d9190613768565b6118ab565b60405161066f9190612b7b565b60405180910390f35b34801561068457600080fd5b5061069f600480360381019061069a9190613430565b61193f565b005b60007f80ac58cd000000000000000000000000000000000000000000000000000000007bffffffffffffffffffffffffffffffffffffffffffffffffffffffff1916827bffffffffffffffffffffffffffffffffffffffffffffffffffffffff1916148061076c57507f5b5e139f000000000000000000000000000000000000000000000000000000007bffffffffffffffffffffffffffffffffffffffffffffffffffffffff1916827bffffffffffffffffffffffffffffffffffffffffffffffffffffffff1916145b8061077c575061077b82611a37565b5b9050919050565b606060008054610792906137d7565b80601f01602080910402602001604051908101604052809291908181526020018280546107be906137d7565b801561080b5780601f106107e05761010080835404028352916020019161080b565b820191906000526020600020905b8154815290600101906020018083116107ee57829003601f168201915b5050505050905090565b600061082082611aa1565b61085f576040517f08c379a00000000000000000000000000000000000000000000000000000000081526004016108569061387b565b60405180910390fd5b6004600083815260200190815260200160002060009054906101000a900473ffffffffffffffffffffffffffffffffffffffff169050919050565b60006108a582610e68565b90508073ffffffffffffffffffffffffffffffffffffffff168373ffffffffffffffffffffffffffffffffffffffff161415610916576040517f08c379a000000000000000000000000000000000000000000000000000000000815260040161090d9061390d565b60405180910390fd5b8073ffffffffffffffffffffffffffffffffffffffff16610935611b0d565b73ffffffffffffffffffffffffffffffffffffffff16148061096457506109638161095e611b0d565b6118ab565b5b6109a3576040517f08c379a000000000000000000000000000000000000000000000000000000000815260040161099a9061399f565b60405180910390fd5b6109ad8383611b15565b505050565b806109bc81610e68565b73ffffffffffffffffffffffffffffffffffffffff163373ffffffffffffffffffffffffffffffffffffffff16146109f357600080fd5b6000600c8381548110610a0957610a086139bf565b5b90600052602060002090600402019050610a2281611bce565b610a2b57600080fd5b600954341015610a3a57600080fd5b80600301600081819054906101000a900460ff1680929190610a5b90613a1d565b91906101000a81548160ff021916908360ff16021790555050610a7d81611bf5565b505050565b610a8a611b0d565b73ffffffffffffffffffffffffffffffffffffffff16610aa86112aa565b73ffffffffffffffffffffffffffffffffffffffff1614610afe576040517f08c379a0000000000000000000000000000000000000000000000000000000008152600401610af590613a93565b60405180910390fd5b6000610b086112aa565b90508073ffffffffffffffffffffffffffffffffffffffff166108fc479081150290604051600060405180830381858888f19350505050158015610b50573d6000803e3d6000fd5b5050565b610b65610b5f611b0d565b82611c28565b610ba4576040517f08c379a0000000000000000000000000000000000000000000000000000000008152600401610b9b90613b25565b60405180910390fd5b610baf838383611d06565b505050565b60606000610d1e600c805480602002602001604051908101604052809291908181526020016000905b82821015610d1557838290600052602060002090600402016040518060c001604052908160008201548152602001600182018054610c1a906137d7565b80601f0160208091040260200160405190810160405280929190818152602001828054610c46906137d7565b8015610c935780601f10610c6857610100808354040283529160200191610c93565b820191906000526020600020905b815481529060010190602001808311610c7657829003601f168201915b50505050508152602001600282015481526020016003820160009054906101000a900460ff1660ff1660ff1681526020016003820160019054906101000a900460ff1660ff1660ff1681526020016003820160029054906101000a900463ffffffff1663ffffffff1663ffffffff168152505081526020019060010190610bdd565b50505050610d27565b90508091505090565b6060610d4282600060018551610d3d9190613b45565b61166d565b819050919050565b610d65838383604051806020016040528060008152506114a1565b505050565b600c8181548110610d7a57600080fd5b9060005260206000209060040201600091509050806000015490806001018054610da3906137d7565b80601f0160208091040260200160405190810160405280929190818152602001828054610dcf906137d7565b8015610e1c5780601f10610df157610100808354040283529160200191610e1c565b820191906000526020600020905b815481529060010190602001808311610dff57829003601f168201915b5050505050908060020154908060030160009054906101000a900460ff16908060030160019054906101000a900460ff16908060030160029054906101000a900463ffffffff16905086565b6000806002600084815260200190815260200160002060009054906101000a900473ffffffffffffffffffffffffffffffffffffffff169050600073ffffffffffffffffffffffffffffffffffffffff168173ffffffffffffffffffffffffffffffffffffffff161415610f11576040517f08c379a0000000000000000000000000000000000000000000000000000000008152600401610f0890613beb565b60405180910390fd5b80915050919050565b600854341015610f2957600080fd5b610f3281611f62565b50565b60008073ffffffffffffffffffffffffffffffffffffffff168273ffffffffffffffffffffffffffffffffffffffff161415610fa6576040517f08c379a0000000000000000000000000000000000000000000000000000000008152600401610f9d90613c7d565b60405180910390fd5b600360008373ffffffffffffffffffffffffffffffffffffffff1673ffffffffffffffffffffffffffffffffffffffff168152602001908152602001600020549050919050565b610ff5611b0d565b73ffffffffffffffffffffffffffffffffffffffff166110136112aa565b73ffffffffffffffffffffffffffffffffffffffff1614611069576040517f08c379a000000000000000000000000000000000000000000000000000000000815260040161106090613a93565b60405180910390fd5b6110736000612113565b565b6060600061108283610f35565b67ffffffffffffffff81111561109b5761109a612fd5565b5b6040519080825280602002602001820160405280156110d457816020015b6110c161295c565b8152602001906001900390816110b95790505b5090506000805b600c8054905081101561129f578473ffffffffffffffffffffffffffffffffffffffff1661110882610e68565b73ffffffffffffffffffffffffffffffffffffffff16141561128c57600c8181548110611138576111376139bf565b5b90600052602060002090600402016040518060c00160405290816000820154815260200160018201805461116b906137d7565b80601f0160208091040260200160405190810160405280929190818152602001828054611197906137d7565b80156111e45780601f106111b9576101008083540402835291602001916111e4565b820191906000526020600020905b8154815290600101906020018083116111c757829003601f168201915b50505050508152602001600282015481526020016003820160009054906101000a900460ff1660ff1660ff1681526020016003820160019054906101000a900460ff1660ff1660ff1681526020016003820160029054906101000a900463ffffffff1663ffffffff1663ffffffff168152505083838151811061126a576112696139bf565b5b60200260200101819052506112896001836121d990919063ffffffff16565b91505b808061129790613c9d565b9150506110db565b508192505050919050565b6000600660009054906101000a900473ffffffffffffffffffffffffffffffffffffffff16905090565b6112dc611b0d565b73ffffffffffffffffffffffffffffffffffffffff166112fa6112aa565b73ffffffffffffffffffffffffffffffffffffffff1614611350576040517f08c379a000000000000000000000000000000000000000000000000000000000815260040161134790613a93565b60405180910390fd5b8060088190555050565b606060018054611369906137d7565b80601f0160208091040260200160405190810160405280929190818152602001828054611395906137d7565b80156113e25780601f106113b7576101008083540402835291602001916113e2565b820191906000526020600020905b8154815290600101906020018083116113c557829003601f168201915b5050505050905090565b806113f681610e68565b73ffffffffffffffffffffffffffffffffffffffff163373ffffffffffffffffffffffffffffffffffffffff161461142d57600080fd5b600b5434101561143c57600080fd5b6000600c8381548110611452576114516139bf565b5b9060005260206000209060040201905060008160030160026101000a81548163ffffffff021916908363ffffffff160217905550505050565b61149d611496611b0d565b83836121ef565b5050565b6114b26114ac611b0d565b83611c28565b6114f1576040517f08c379a00000000000000000000000000000000000000000000000000000000081526004016114e890613b25565b60405180910390fd5b6114fd8484848461235c565b50505050565b60028381600c828154811061151b5761151a6139bf565b5b906000526020600020906004020160030160009054906101000a900460ff1660ff16101561154857600080fd5b8461155281610e68565b73ffffffffffffffffffffffffffffffffffffffff163373ffffffffffffffffffffffffffffffffffffffff161461158957600080fd5b8484600c888154811061159f5761159e6139bf565b5b906000526020600020906004020160010191906115bd92919061299e565b50505050505050565b60606115d182611aa1565b611610576040517f08c379a000000000000000000000000000000000000000000000000000000000815260040161160790613d58565b60405180910390fd5b600061161a6123b8565b9050600081511161163a5760405180602001604052806000815250611665565b80611644846123cf565b604051602001611655929190613db4565b6040516020818303038152906040525b915050919050565b6000829050600082905080821415611686575050611820565b600085600286866116979190613dd8565b6116a19190613e9b565b866116ac9190613f05565b815181106116bd576116bc6139bf565b5b602002602001015190505b8183136117f4575b806060015160ff168684815181106116eb576116ea6139bf565b5b60200260200101516060015160ff16101561171357828061170b90613f99565b9350506116d0565b5b858281518110611727576117266139bf565b5b60200260200101516060015160ff16816060015160ff16101561175757818061174f90613fe2565b925050611714565b8183136117ef57858281518110611771576117706139bf565b5b602002602001015186848151811061178c5761178b6139bf565b5b60200260200101518785815181106117a7576117a66139bf565b5b602002602001018885815181106117c1576117c06139bf565b5b60200260200101829052829052505082806117db90613f99565b9350925081806117ea90613fe2565b925091505b6116c8565b818512156118085761180786868461166d565b5b8383121561181c5761181b86848661166d565b5b5050505b505050565b61182d611b0d565b73ffffffffffffffffffffffffffffffffffffffff1661184b6112aa565b73ffffffffffffffffffffffffffffffffffffffff16146118a1576040517f08c379a000000000000000000000000000000000000000000000000000000000815260040161189890613a93565b60405180910390fd5b8060098190555050565b6000600560008473ffffffffffffffffffffffffffffffffffffffff1673ffffffffffffffffffffffffffffffffffffffff16815260200190815260200160002060008373ffffffffffffffffffffffffffffffffffffffff1673ffffffffffffffffffffffffffffffffffffffff16815260200190815260200160002060009054906101000a900460ff16905092915050565b611947611b0d565b73ffffffffffffffffffffffffffffffffffffffff166119656112aa565b73ffffffffffffffffffffffffffffffffffffffff16146119bb576040517f08c379a00000000000000000000000000000000000000000000000000000000081526004016119b290613a93565b60405180910390fd5b600073ffffffffffffffffffffffffffffffffffffffff168173ffffffffffffffffffffffffffffffffffffffff161415611a2b576040517f08c379a0000000000000000000000000000000000000000000000000000000008152600401611a229061409d565b60405180910390fd5b611a3481612113565b50565b60007f01ffc9a7000000000000000000000000000000000000000000000000000000007bffffffffffffffffffffffffffffffffffffffffffffffffffffffff1916827bffffffffffffffffffffffffffffffffffffffffffffffffffffffff1916149050919050565b60008073ffffffffffffffffffffffffffffffffffffffff166002600084815260200190815260200160002060009054906101000a900473ffffffffffffffffffffffffffffffffffffffff1673ffffffffffffffffffffffffffffffffffffffff1614159050919050565b600033905090565b816004600083815260200190815260200160002060006101000a81548173ffffffffffffffffffffffffffffffffffffffff021916908373ffffffffffffffffffffffffffffffffffffffff160217905550808273ffffffffffffffffffffffffffffffffffffffff16611b8883610e68565b73ffffffffffffffffffffffffffffffffffffffff167f8c5be1e5ebec7d5bd14f71427d1e84f3dd0314c0f7b2291e5b200ac8c7c3b92560405160405180910390a45050565b6000428260030160029054906101000a900463ffffffff1663ffffffff1611159050919050565b600a5442611c0391906140bd565b8160030160026101000a81548163ffffffff021916908363ffffffff16021790555050565b6000611c3382611aa1565b611c72576040517f08c379a0000000000000000000000000000000000000000000000000000000008152600401611c6990614185565b60405180910390fd5b6000611c7d83610e68565b90508073ffffffffffffffffffffffffffffffffffffffff168473ffffffffffffffffffffffffffffffffffffffff161480611cec57508373ffffffffffffffffffffffffffffffffffffffff16611cd484610815565b73ffffffffffffffffffffffffffffffffffffffff16145b80611cfd5750611cfc81856118ab565b5b91505092915050565b8273ffffffffffffffffffffffffffffffffffffffff16611d2682610e68565b73ffffffffffffffffffffffffffffffffffffffff1614611d7c576040517f08c379a0000000000000000000000000000000000000000000000000000000008152600401611d7390614217565b60405180910390fd5b600073ffffffffffffffffffffffffffffffffffffffff168273ffffffffffffffffffffffffffffffffffffffff161415611dec576040517f08c379a0000000000000000000000000000000000000000000000000000000008152600401611de3906142a9565b60405180910390fd5b611df7838383612530565b611e02600082611b15565b6001600360008573ffffffffffffffffffffffffffffffffffffffff1673ffffffffffffffffffffffffffffffffffffffff1681526020019081526020016000206000828254611e529190613b45565b925050819055506001600360008473ffffffffffffffffffffffffffffffffffffffff1673ffffffffffffffffffffffffffffffffffffffff1681526020019081526020016000206000828254611ea991906140bd565b92505081905550816002600083815260200190815260200160002060006101000a81548173ffffffffffffffffffffffffffffffffffffffff021916908373ffffffffffffffffffffffffffffffffffffffff160217905550808273ffffffffffffffffffffffffffffffffffffffff168473ffffffffffffffffffffffffffffffffffffffff167fddf252ad1be2c89b69c2b068fc378daa952ba7f163c4a11628f55a4df523b3ef60405160405180910390a4505050565b6000611f74662386f26fc10000612535565b90506000611f826064612535565b9050600c6040518060c001604052806007548152602001858152602001848152602001600160ff1681526020018360ff168152602001600a5442611fc691906140bd565b63ffffffff16815250908060018154018082558091505060019003906000526020600020906004020160009091909190915060008201518160000155602082015181600101908051906020019061201e929190612a24565b506040820151816002015560608201518160030160006101000a81548160ff021916908360ff16021790555060808201518160030160016101000a81548160ff021916908360ff16021790555060a08201518160030160026101000a81548163ffffffff021916908363ffffffff16021790555050506120a03360075461257a565b3373ffffffffffffffffffffffffffffffffffffffff167f29c4292b8838988609f9bd8e9042f7e77158b1f5ebfcae6494b7b709c3d20ffc600754846040516120ea9291906142c9565b60405180910390a261210860016007546121d990919063ffffffff16565b600781905550505050565b6000600660009054906101000a900473ffffffffffffffffffffffffffffffffffffffff16905081600660006101000a81548173ffffffffffffffffffffffffffffffffffffffff021916908373ffffffffffffffffffffffffffffffffffffffff1602179055508173ffffffffffffffffffffffffffffffffffffffff168173ffffffffffffffffffffffffffffffffffffffff167f8be0079c531659141344cd1fd0a4f28419497f9722a3daafe3b4186f6b6457e060405160405180910390a35050565b600081836121e791906140bd565b905092915050565b8173ffffffffffffffffffffffffffffffffffffffff168373ffffffffffffffffffffffffffffffffffffffff16141561225e576040517f08c379a00000000000000000000000000000000000000000000000000000000081526004016122559061433e565b60405180910390fd5b80600560008573ffffffffffffffffffffffffffffffffffffffff1673ffffffffffffffffffffffffffffffffffffffff16815260200190815260200160002060008473ffffffffffffffffffffffffffffffffffffffff1673ffffffffffffffffffffffffffffffffffffffff16815260200190815260200160002060006101000a81548160ff0219169083151502179055508173ffffffffffffffffffffffffffffffffffffffff168373ffffffffffffffffffffffffffffffffffffffff167f17307eab39ab6107e8899845ad3d59bd9653f200f220920489ca2b5937696c318360405161234f9190612b7b565b60405180910390a3505050565b612367848484611d06565b61237384848484612598565b6123b2576040517f08c379a00000000000000000000000000000000000000000000000000000000081526004016123a9906143d0565b60405180910390fd5b50505050565b606060405180602001604052806000815250905090565b60606000821415612417576040518060400160405280600181526020017f3000000000000000000000000000000000000000000000000000000000000000815250905061252b565b600082905060005b6000821461244957808061243290613c9d565b915050600a8261244291906143f0565b915061241f565b60008167ffffffffffffffff81111561246557612464612fd5565b5b6040519080825280601f01601f1916602001820160405280156124975781602001600182028036833780820191505090505b5090505b60008514612524576001826124b09190613b45565b9150600a856124bf9190614421565b60306124cb91906140bd565b60f81b8183815181106124e1576124e06139bf565b5b60200101907effffffffffffffffffffffffffffffffffffffffffffffffffffffffffffff1916908160001a905350600a8561251d91906143f0565b945061249b565b8093505050505b919050565b505050565b600080423360405160200161254b9291906144bb565b6040516020818303038152906040528051906020012060001c905082816125729190614421565b915050919050565b612594828260405180602001604052806000815250612720565b5050565b60006125b98473ffffffffffffffffffffffffffffffffffffffff1661277b565b15612713578373ffffffffffffffffffffffffffffffffffffffff1663150b7a026125e2611b0d565b8786866040518563ffffffff1660e01b8152600401612604949392919061453c565b6020604051808303816000875af192505050801561264057506040513d601f19601f8201168201806040525081019061263d919061459d565b60015b6126c3573d8060008114612670576040519150601f19603f3d011682016040523d82523d6000602084013e612675565b606091505b506000815114156126bb576040517f08c379a00000000000000000000000000000000000000000000000000000000081526004016126b2906143d0565b60405180910390fd5b805181602001fd5b63150b7a0260e01b7bffffffffffffffffffffffffffffffffffffffffffffffffffffffff1916817bffffffffffffffffffffffffffffffffffffffffffffffffffffffff191614915050612718565b600190505b949350505050565b61272a838361278e565b6127376000848484612598565b612776576040517f08c379a000000000000000000000000000000000000000000000000000000000815260040161276d906143d0565b60405180910390fd5b505050565b600080823b905060008111915050919050565b600073ffffffffffffffffffffffffffffffffffffffff168273ffffffffffffffffffffffffffffffffffffffff1614156127fe576040517f08c379a00000000000000000000000000000000000000000000000000000000081526004016127f590614616565b60405180910390fd5b61280781611aa1565b15612847576040517f08c379a000000000000000000000000000000000000000000000000000000000815260040161283e90614682565b60405180910390fd5b61285360008383612530565b6001600360008473ffffffffffffffffffffffffffffffffffffffff1673ffffffffffffffffffffffffffffffffffffffff16815260200190815260200160002060008282546128a391906140bd565b92505081905550816002600083815260200190815260200160002060006101000a81548173ffffffffffffffffffffffffffffffffffffffff021916908373ffffffffffffffffffffffffffffffffffffffff160217905550808273ffffffffffffffffffffffffffffffffffffffff16600073ffffffffffffffffffffffffffffffffffffffff167fddf252ad1be2c89b69c2b068fc378daa952ba7f163c4a11628f55a4df523b3ef60405160405180910390a45050565b6040518060c00160405280600081526020016060815260200160008152602001600060ff168152602001600060ff168152602001600063ffffffff1681525090565b8280546129aa906137d7565b90600052602060002090601f0160209004810192826129cc5760008555612a13565b82601f106129e557803560ff1916838001178555612a13565b82800160010185558215612a13579182015b82811115612a125782358255916020019190600101906129f7565b5b509050612a209190612aaa565b5090565b828054612a30906137d7565b90600052602060002090601f016020900481019282612a525760008555612a99565b82601f10612a6b57805160ff1916838001178555612a99565b82800160010185558215612a99579182015b82811115612a98578251825591602001919060010190612a7d565b5b509050612aa69190612aaa565b5090565b5b80821115612ac3576000816000905550600101612aab565b5090565b6000604051905090565b600080fd5b600080fd5b60007fffffffff0000000000000000000000000000000000000000000000000000000082169050919050565b612b1081612adb565b8114612b1b57600080fd5b50565b600081359050612b2d81612b07565b92915050565b600060208284031215612b4957612b48612ad1565b5b6000612b5784828501612b1e565b91505092915050565b60008115159050919050565b612b7581612b60565b82525050565b6000602082019050612b906000830184612b6c565b92915050565b600081519050919050565b600082825260208201905092915050565b60005b83811015612bd0578082015181840152602081019050612bb5565b83811115612bdf576000848401525b50505050565b6000601f19601f8301169050919050565b6000612c0182612b96565b612c0b8185612ba1565b9350612c1b818560208601612bb2565b612c2481612be5565b840191505092915050565b60006020820190508181036000830152612c498184612bf6565b905092915050565b6000819050919050565b612c6481612c51565b8114612c6f57600080fd5b50565b600081359050612c8181612c5b565b92915050565b600060208284031215612c9d57612c9c612ad1565b5b6000612cab84828501612c72565b91505092915050565b600073ffffffffffffffffffffffffffffffffffffffff82169050919050565b6000612cdf82612cb4565b9050919050565b612cef81612cd4565b82525050565b6000602082019050612d0a6000830184612ce6565b92915050565b612d1981612cd4565b8114612d2457600080fd5b50565b600081359050612d3681612d10565b92915050565b60008060408385031215612d5357612d52612ad1565b5b6000612d6185828601612d27565b9250506020612d7285828601612c72565b9150509250929050565b600080600060608486031215612d9557612d94612ad1565b5b6000612da386828701612d27565b9350506020612db486828701612d27565b9250506040612dc586828701612c72565b9150509250925092565b600081519050919050565b600082825260208201905092915050565b6000819050602082019050919050565b612e0481612c51565b82525050565b600082825260208201905092915050565b6000612e2682612b96565b612e308185612e0a565b9350612e40818560208601612bb2565b612e4981612be5565b840191505092915050565b600060ff82169050919050565b612e6a81612e54565b82525050565b600063ffffffff82169050919050565b612e8981612e70565b82525050565b600060c083016000830151612ea76000860182612dfb565b5060208301518482036020860152612ebf8282612e1b565b9150506040830151612ed46040860182612dfb565b506060830151612ee76060860182612e61565b506080830151612efa6080860182612e61565b5060a0830151612f0d60a0860182612e80565b508091505092915050565b6000612f248383612e8f565b905092915050565b6000602082019050919050565b6000612f4482612dcf565b612f4e8185612dda565b935083602082028501612f6085612deb565b8060005b85811015612f9c5784840389528151612f7d8582612f18565b9450612f8883612f2c565b925060208a01995050600181019050612f64565b50829750879550505050505092915050565b60006020820190508181036000830152612fc88184612f39565b905092915050565b600080fd5b7f4e487b7100000000000000000000000000000000000000000000000000000000600052604160045260246000fd5b61300d82612be5565b810181811067ffffffffffffffff8211171561302c5761302b612fd5565b5b80604052505050565b600061303f612ac7565b905061304b8282613004565b919050565b600067ffffffffffffffff82111561306b5761306a612fd5565b5b602082029050602081019050919050565b600080fd5b600080fd5b600080fd5b600080fd5b600067ffffffffffffffff8211156130ab576130aa612fd5565b5b6130b482612be5565b9050602081019050919050565b82818337600083830152505050565b60006130e36130de84613090565b613035565b9050828152602081018484840111156130ff576130fe61308b565b5b61310a8482856130c1565b509392505050565b600082601f83011261312757613126612fd0565b5b81356131378482602086016130d0565b91505092915050565b61314981612e54565b811461315457600080fd5b50565b60008135905061316681613140565b92915050565b61317581612e70565b811461318057600080fd5b50565b6000813590506131928161316c565b92915050565b600060c082840312156131ae576131ad613081565b5b6131b860c0613035565b905060006131c884828501612c72565b600083015250602082013567ffffffffffffffff8111156131ec576131eb613086565b5b6131f884828501613112565b602083015250604061320c84828501612c72565b604083015250606061322084828501613157565b606083015250608061323484828501613157565b60808301525060a061324884828501613183565b60a08301525092915050565b600061326761326284613050565b613035565b9050808382526020820190506020840283018581111561328a5761328961307c565b5b835b818110156132d157803567ffffffffffffffff8111156132af576132ae612fd0565b5b8086016132bc8982613198565b8552602085019450505060208101905061328c565b5050509392505050565b600082601f8301126132f0576132ef612fd0565b5b8135613300848260208601613254565b91505092915050565b60006020828403121561331f5761331e612ad1565b5b600082013567ffffffffffffffff81111561333d5761333c612ad6565b5b613349848285016132db565b91505092915050565b61335b81612c51565b82525050565b61336a81612e54565b82525050565b61337981612e70565b82525050565b600060c0820190506133946000830189613352565b81810360208301526133a68188612bf6565b90506133b56040830187613352565b6133c26060830186613361565b6133cf6080830185613361565b6133dc60a0830184613370565b979650505050505050565b6000602082840312156133fd576133fc612ad1565b5b600082013567ffffffffffffffff81111561341b5761341a612ad6565b5b61342784828501613112565b91505092915050565b60006020828403121561344657613445612ad1565b5b600061345484828501612d27565b91505092915050565b60006020820190506134726000830184613352565b92915050565b61348181612b60565b811461348c57600080fd5b50565b60008135905061349e81613478565b92915050565b600080604083850312156134bb576134ba612ad1565b5b60006134c985828601612d27565b92505060206134da8582860161348f565b9150509250929050565b600067ffffffffffffffff8211156134ff576134fe612fd5565b5b61350882612be5565b9050602081019050919050565b6000613528613523846134e4565b613035565b9050828152602081018484840111156135445761354361308b565b5b61354f8482856130c1565b509392505050565b600082601f83011261356c5761356b612fd0565b5b813561357c848260208601613515565b91505092915050565b6000806000806080858703121561359f5761359e612ad1565b5b60006135ad87828801612d27565b94505060206135be87828801612d27565b93505060406135cf87828801612c72565b925050606085013567ffffffffffffffff8111156135f0576135ef612ad6565b5b6135fc87828801613557565b91505092959194509250565b600080fd5b60008083601f84011261362357613622612fd0565b5b8235905067ffffffffffffffff8111156136405761363f613608565b5b60208301915083600182028301111561365c5761365b61307c565b5b9250929050565b60008060006040848603121561367c5761367b612ad1565b5b600061368a86828701612c72565b935050602084013567ffffffffffffffff8111156136ab576136aa612ad6565b5b6136b78682870161360d565b92509250509250925092565b6000819050919050565b6136d6816136c3565b81146136e157600080fd5b50565b6000813590506136f3816136cd565b92915050565b60008060006060848603121561371257613711612ad1565b5b600084013567ffffffffffffffff8111156137305761372f612ad6565b5b61373c868287016132db565b935050602061374d868287016136e4565b925050604061375e868287016136e4565b9150509250925092565b6000806040838503121561377f5761377e612ad1565b5b600061378d85828601612d27565b925050602061379e85828601612d27565b9150509250929050565b7f4e487b7100000000000000000000000000000000000000000000000000000000600052602260045260246000fd5b600060028204905060018216806137ef57607f821691505b60208210811415613803576138026137a8565b5b50919050565b7f4552433732313a20617070726f76656420717565727920666f72206e6f6e657860008201527f697374656e7420746f6b656e0000000000000000000000000000000000000000602082015250565b6000613865602c83612ba1565b915061387082613809565b604082019050919050565b6000602082019050818103600083015261389481613858565b9050919050565b7f4552433732313a20617070726f76616c20746f2063757272656e74206f776e6560008201527f7200000000000000000000000000000000000000000000000000000000000000602082015250565b60006138f7602183612ba1565b91506139028261389b565b604082019050919050565b60006020820190508181036000830152613926816138ea565b9050919050565b7f4552433732313a20617070726f76652063616c6c6572206973206e6f74206f7760008201527f6e6572206e6f7220617070726f76656420666f7220616c6c0000000000000000602082015250565b6000613989603883612ba1565b91506139948261392d565b604082019050919050565b600060208201905081810360008301526139b88161397c565b9050919050565b7f4e487b7100000000000000000000000000000000000000000000000000000000600052603260045260246000fd5b7f4e487b7100000000000000000000000000000000000000000000000000000000600052601160045260246000fd5b6000613a2882612e54565b915060ff821415613a3c57613a3b6139ee565b5b600182019050919050565b7f4f776e61626c653a2063616c6c6572206973206e6f7420746865206f776e6572600082015250565b6000613a7d602083612ba1565b9150613a8882613a47565b602082019050919050565b60006020820190508181036000830152613aac81613a70565b9050919050565b7f4552433732313a207472616e736665722063616c6c6572206973206e6f74206f60008201527f776e6572206e6f7220617070726f766564000000000000000000000000000000602082015250565b6000613b0f603183612ba1565b9150613b1a82613ab3565b604082019050919050565b60006020820190508181036000830152613b3e81613b02565b9050919050565b6000613b5082612c51565b9150613b5b83612c51565b925082821015613b6e57613b6d6139ee565b5b828203905092915050565b7f4552433732313a206f776e657220717565727920666f72206e6f6e657869737460008201527f656e7420746f6b656e0000000000000000000000000000000000000000000000602082015250565b6000613bd5602983612ba1565b9150613be082613b79565b604082019050919050565b60006020820190508181036000830152613c0481613bc8565b9050919050565b7f4552433732313a2062616c616e636520717565727920666f7220746865207a6560008201527f726f206164647265737300000000000000000000000000000000000000000000602082015250565b6000613c67602a83612ba1565b9150613c7282613c0b565b604082019050919050565b60006020820190508181036000830152613c9681613c5a565b9050919050565b6000613ca882612c51565b91507fffffffffffffffffffffffffffffffffffffffffffffffffffffffffffffffff821415613cdb57613cda6139ee565b5b600182019050919050565b7f4552433732314d657461646174613a2055524920717565727920666f72206e6f60008201527f6e6578697374656e7420746f6b656e0000000000000000000000000000000000602082015250565b6000613d42602f83612ba1565b9150613d4d82613ce6565b604082019050919050565b60006020820190508181036000830152613d7181613d35565b9050919050565b600081905092915050565b6000613d8e82612b96565b613d988185613d78565b9350613da8818560208601612bb2565b80840191505092915050565b6000613dc08285613d83565b9150613dcc8284613d83565b91508190509392505050565b6000613de3826136c3565b9150613dee836136c3565b9250827f800000000000000000000000000000000000000000000000000000000000000001821260008412151615613e2957613e286139ee565b5b827f7fffffffffffffffffffffffffffffffffffffffffffffffffffffffffffffff018213600084121615613e6157613e606139ee565b5b828203905092915050565b7f4e487b7100000000000000000000000000000000000000000000000000000000600052601260045260246000fd5b6000613ea6826136c3565b9150613eb1836136c3565b925082613ec157613ec0613e6c565b5b600160000383147f800000000000000000000000000000000000000000000000000000000000000083141615613efa57613ef96139ee565b5b828205905092915050565b6000613f10826136c3565b9150613f1b836136c3565b9250817f7fffffffffffffffffffffffffffffffffffffffffffffffffffffffffffffff03831360008312151615613f5657613f556139ee565b5b817f8000000000000000000000000000000000000000000000000000000000000000038312600083121615613f8e57613f8d6139ee565b5b828201905092915050565b6000613fa4826136c3565b91507f7fffffffffffffffffffffffffffffffffffffffffffffffffffffffffffffff821415613fd757613fd66139ee565b5b600182019050919050565b6000613fed826136c3565b91507f80000000000000000000000000000000000000000000000000000000000000008214156140205761401f6139ee565b5b600182039050919050565b7f4f776e61626c653a206e6577206f776e657220697320746865207a65726f206160008201527f6464726573730000000000000000000000000000000000000000000000000000602082015250565b6000614087602683612ba1565b91506140928261402b565b604082019050919050565b600060208201905081810360008301526140b68161407a565b9050919050565b60006140c882612c51565b91506140d383612c51565b9250827fffffffffffffffffffffffffffffffffffffffffffffffffffffffffffffffff03821115614108576141076139ee565b5b828201905092915050565b7f4552433732313a206f70657261746f7220717565727920666f72206e6f6e657860008201527f697374656e7420746f6b656e0000000000000000000000000000000000000000602082015250565b600061416f602c83612ba1565b915061417a82614113565b604082019050919050565b6000602082019050818103600083015261419e81614162565b9050919050565b7f4552433732313a207472616e73666572206f6620746f6b656e2074686174206960008201527f73206e6f74206f776e0000000000000000000000000000000000000000000000602082015250565b6000614201602983612ba1565b915061420c826141a5565b604082019050919050565b60006020820190508181036000830152614230816141f4565b9050919050565b7f4552433732313a207472616e7366657220746f20746865207a65726f2061646460008201527f7265737300000000000000000000000000000000000000000000000000000000602082015250565b6000614293602483612ba1565b915061429e82614237565b604082019050919050565b600060208201905081810360008301526142c281614286565b9050919050565b60006040820190506142de6000830185613352565b6142eb6020830184613352565b9392505050565b7f4552433732313a20617070726f766520746f2063616c6c657200000000000000600082015250565b6000614328601983612ba1565b9150614333826142f2565b602082019050919050565b600060208201905081810360008301526143578161431b565b9050919050565b7f4552433732313a207472616e7366657220746f206e6f6e20455243373231526560008201527f63656976657220696d706c656d656e7465720000000000000000000000000000602082015250565b60006143ba603283612ba1565b91506143c58261435e565b604082019050919050565b600060208201905081810360008301526143e9816143ad565b9050919050565b60006143fb82612c51565b915061440683612c51565b92508261441657614415613e6c565b5b828204905092915050565b600061442c82612c51565b915061443783612c51565b92508261444757614446613e6c565b5b828206905092915050565b6000819050919050565b61446d61446882612c51565b614452565b82525050565b60008160601b9050919050565b600061448b82614473565b9050919050565b600061449d82614480565b9050919050565b6144b56144b082612cd4565b614492565b82525050565b60006144c7828561445c565b6020820191506144d782846144a4565b6014820191508190509392505050565b600081519050919050565b600082825260208201905092915050565b600061450e826144e7565b61451881856144f2565b9350614528818560208601612bb2565b61453181612be5565b840191505092915050565b60006080820190506145516000830187612ce6565b61455e6020830186612ce6565b61456b6040830185613352565b818103606083015261457d8184614503565b905095945050505050565b60008151905061459781612b07565b92915050565b6000602082840312156145b3576145b2612ad1565b5b60006145c184828501614588565b91505092915050565b7f4552433732313a206d696e7420746f20746865207a65726f2061646472657373600082015250565b6000614600602083612ba1565b915061460b826145ca565b602082019050919050565b6000602082019050818103600083015261462f816145f3565b9050919050565b7f4552433732313a20746f6b656e20616c7265616479206d696e74656400000000600082015250565b600061466c601c83612ba1565b915061467782614636565b602082019050919050565b6000602082019050818103600083015261469b8161465f565b905091905056fea26469706673582212203f5aec11d9ace49dcaa89a3c5dc634aab4a4df82df728dec0330630ee15a4c7d64736f6c634300080b0033",
  "immutableReferences": {},
  "source": "// SPDX-License-Identifier: MIT\r\n\r\npragma solidity >=0.4.22 <0.9.0;\r\n\r\nimport \"@openzeppelin/contracts/token/ERC721/ERC721.sol\";\r\nimport \"@openzeppelin/contracts/access/Ownable.sol\";\r\nimport \"@openzeppelin/contracts/utils/math/SafeMath.sol\";\r\n\r\ncontract LipToken is ERC721, Ownable {\r\n    constructor() ERC721(\"Lip Token\", \"LPT\") {}\r\n\r\n    uint256 COUNTER;\r\n    uint256 fee = 0.01 ether;\r\n    uint256 levelUpFee = 0.01 ether;\r\n    uint256 cooldownTime = 1 days;\r\n    uint256 clearTimeFee = 0.015 ether;\r\n\r\n    using SafeMath for uint256;\r\n\r\n    struct Lip {\r\n        uint256 id;\r\n        string name;\r\n        uint256 dna;\r\n        uint8 level;\r\n        uint8 rarity;\r\n        uint32 readyTime;\r\n    }\r\n\r\n    Lip[] public lips;\r\n\r\n    event NewLipCreated(address indexed owner, uint256 id, uint256 dna);\r\n\r\n    // helper\r\n    function _generateRandomNum(uint256 _mod) internal view returns (uint256) {\r\n        uint256 randomNumber = uint256(\r\n            keccak256(abi.encodePacked(block.timestamp, msg.sender))\r\n        );\r\n        return randomNumber % _mod;\r\n    }\r\n\r\n    function updateFee(uint256 _fee) external onlyOwner {\r\n        fee = _fee;\r\n    }\r\n\r\n    function setLevelUpFee(uint256 _fee) external onlyOwner {\r\n        levelUpFee = _fee;\r\n    }\r\n\r\n    function withDraw() external payable onlyOwner {\r\n        address payable _owner = payable(owner());\r\n        _owner.transfer(address(this).balance);\r\n    }\r\n\r\n    modifier aboveLevel(uint256 _level, uint256 _lipId) {\r\n        require(lips[_lipId].level >= _level);\r\n        _;\r\n    }\r\n\r\n    modifier onlyOwnerOf(uint256 _lipId) {\r\n        require(msg.sender == ownerOf(_lipId));\r\n        _;\r\n    }\r\n\r\n    function _triggerCooldown(Lip storage _lip) internal {\r\n        _lip.readyTime = uint32(block.timestamp + cooldownTime);\r\n    }\r\n\r\n    function _isReady(Lip storage _lip) internal view returns (bool) {\r\n        return (_lip.readyTime <= block.timestamp);\r\n    }\r\n\r\n    function quickSortLevel(\r\n        Lip[] memory arr,\r\n        int256 left,\r\n        int256 right\r\n    ) public pure {\r\n        int256 i = left;\r\n        int256 j = right;\r\n        if (i == j) return;\r\n        Lip memory pivot = arr[uint256(left + (right - left) / 2)];\r\n        while (i <= j) {\r\n            while (arr[uint256(i)].level < pivot.level) i++;\r\n            while (pivot.level < arr[uint256(j)].level) j--;\r\n            if (i <= j) {\r\n                (arr[uint256(i)], arr[uint256(j)]) = (\r\n                    arr[uint256(j)],\r\n                    arr[uint256(i)]\r\n                );\r\n                i = i++;\r\n                j = j--;\r\n            }\r\n        }\r\n        if (left < j) quickSortLevel(arr, left, j);\r\n        if (i < right) quickSortLevel(arr, i, right);\r\n    }\r\n\r\n    function sort(Lip[] memory data) public pure returns (Lip[] memory) {\r\n        quickSortLevel(data, int256(0), int256(data.length - 1));\r\n        return data;\r\n    }\r\n\r\n    // ==================== //\r\n\r\n    function _createLip(string memory _name) internal {\r\n        uint256 randomDna = _generateRandomNum(10**16);\r\n        uint8 randomRarity = uint8(_generateRandomNum(100));\r\n        lips.push(\r\n            Lip(\r\n                COUNTER,\r\n                _name,\r\n                randomDna,\r\n                1,\r\n                randomRarity,\r\n                uint32(block.timestamp + cooldownTime)\r\n            )\r\n        );\r\n        _safeMint(msg.sender, COUNTER);\r\n        emit NewLipCreated(msg.sender, COUNTER, randomDna);\r\n        COUNTER = COUNTER.add(1);\r\n    }\r\n\r\n    function createRandomLip(string memory _name) public payable {\r\n        require(msg.value >= fee);\r\n        _createLip(_name);\r\n    }\r\n\r\n    function getAllLips() public view returns (Lip[] memory) {\r\n        Lip[] memory sortedLipLevel = sort(lips);\r\n        return sortedLipLevel;\r\n    }\r\n\r\n    function getOwnerLips(address _owner) public view returns (Lip[] memory) {\r\n        Lip[] memory result = new Lip[](balanceOf(_owner));\r\n        uint256 counter = 0;\r\n        for (uint256 i = 0; i < lips.length; i++) {\r\n            if (ownerOf(i) == _owner) {\r\n                result[counter] = lips[i];\r\n                counter = counter.add(1);\r\n            }\r\n        }\r\n        return result;\r\n    }\r\n\r\n    function levelUp(uint256 _lipId) public payable onlyOwnerOf(_lipId) {\r\n        Lip storage lip = lips[_lipId];\r\n        require(_isReady(lip));\r\n        require(msg.value >= levelUpFee);\r\n        lip.level++;\r\n        _triggerCooldown(lip);\r\n    }\r\n\r\n    function changeName(uint256 _lipId, string calldata _newName)\r\n        external\r\n        aboveLevel(2, _lipId)\r\n        onlyOwnerOf(_lipId)\r\n    {\r\n        lips[_lipId].name = _newName;\r\n    }\r\n\r\n    function clearWaitTime(uint256 _lipId) public payable onlyOwnerOf(_lipId) {\r\n        require(msg.value >= clearTimeFee);\r\n        Lip storage lip = lips[_lipId];\r\n        lip.readyTime = uint32(0);\r\n    }\r\n}\r\n",
  "sourcePath": "C:\\Github\\nft_game\\src\\contracts\\LipToken.sol",
  "compiler": {
    "name": "solc",
    "version": "0.8.11+commit.d7f03943.Emscripten.clang"
  },
  "schemaVersion": "3.4.4",
  "updatedAt": "2022-02-06T12:43:08.728Z",
  "networkType": "ethereum",
  "devdoc": {
    "kind": "dev",
    "methods": {
      "approve(address,uint256)": {
        "details": "See {IERC721-approve}."
      },
      "balanceOf(address)": {
        "details": "See {IERC721-balanceOf}."
      },
      "getApproved(uint256)": {
        "details": "See {IERC721-getApproved}."
      },
      "isApprovedForAll(address,address)": {
        "details": "See {IERC721-isApprovedForAll}."
      },
      "name()": {
        "details": "See {IERC721Metadata-name}."
      },
      "owner()": {
        "details": "Returns the address of the current owner."
      },
      "ownerOf(uint256)": {
        "details": "See {IERC721-ownerOf}."
      },
      "renounceOwnership()": {
        "details": "Leaves the contract without owner. It will not be possible to call `onlyOwner` functions anymore. Can only be called by the current owner. NOTE: Renouncing ownership will leave the contract without an owner, thereby removing any functionality that is only available to the owner."
      },
      "safeTransferFrom(address,address,uint256)": {
        "details": "See {IERC721-safeTransferFrom}."
      },
      "safeTransferFrom(address,address,uint256,bytes)": {
        "details": "See {IERC721-safeTransferFrom}."
      },
      "setApprovalForAll(address,bool)": {
        "details": "See {IERC721-setApprovalForAll}."
      },
      "supportsInterface(bytes4)": {
        "details": "See {IERC165-supportsInterface}."
      },
      "symbol()": {
        "details": "See {IERC721Metadata-symbol}."
      },
      "tokenURI(uint256)": {
        "details": "See {IERC721Metadata-tokenURI}."
      },
      "transferFrom(address,address,uint256)": {
        "details": "See {IERC721-transferFrom}."
      },
      "transferOwnership(address)": {
        "details": "Transfers ownership of the contract to a new account (`newOwner`). Can only be called by the current owner."
      }
    },
    "version": 1
  },
  "userdoc": {
    "kind": "user",
    "methods": {},
    "version": 1
  }
}