{
  "contractName": "LipToken",
  "abi": [
    {
      "inputs": [],
      "stateMutability": "nonpayable",
      "type": "constructor"
    },
    {
      "anonymous": false,
      "inputs": [
        {
          "indexed": true,
          "internalType": "address",
          "name": "owner",
          "type": "address"
        },
        {
          "indexed": true,
          "internalType": "address",
          "name": "approved",
          "type": "address"
        },
        {
          "indexed": true,
          "internalType": "uint256",
          "name": "tokenId",
          "type": "uint256"
        }
      ],
      "name": "Approval",
      "type": "event"
    },
    {
      "anonymous": false,
      "inputs": [
        {
          "indexed": true,
          "internalType": "address",
          "name": "owner",
          "type": "address"
        },
        {
          "indexed": true,
          "internalType": "address",
          "name": "operator",
          "type": "address"
        },
        {
          "indexed": false,
          "internalType": "bool",
          "name": "approved",
          "type": "bool"
        }
      ],
      "name": "ApprovalForAll",
      "type": "event"
    },
    {
      "anonymous": false,
      "inputs": [
        {
          "indexed": true,
          "internalType": "address",
          "name": "owner",
          "type": "address"
        },
        {
          "indexed": false,
          "internalType": "uint256",
          "name": "id",
          "type": "uint256"
        },
        {
          "indexed": false,
          "internalType": "uint256",
          "name": "dna",
          "type": "uint256"
        }
      ],
      "name": "NewLipCreated",
      "type": "event"
    },
    {
      "anonymous": false,
      "inputs": [
        {
          "indexed": true,
          "internalType": "address",
          "name": "previousOwner",
          "type": "address"
        },
        {
          "indexed": true,
          "internalType": "address",
          "name": "newOwner",
          "type": "address"
        }
      ],
      "name": "OwnershipTransferred",
      "type": "event"
    },
    {
      "anonymous": false,
      "inputs": [
        {
          "indexed": true,
          "internalType": "address",
          "name": "from",
          "type": "address"
        },
        {
          "indexed": true,
          "internalType": "address",
          "name": "to",
          "type": "address"
        },
        {
          "indexed": true,
          "internalType": "uint256",
          "name": "tokenId",
          "type": "uint256"
        }
      ],
      "name": "Transfer",
      "type": "event"
    },
    {
      "inputs": [
        {
          "internalType": "address",
          "name": "to",
          "type": "address"
        },
        {
          "internalType": "uint256",
          "name": "tokenId",
          "type": "uint256"
        }
      ],
      "name": "approve",
      "outputs": [],
      "stateMutability": "nonpayable",
      "type": "function"
    },
    {
      "inputs": [
        {
          "internalType": "address",
          "name": "owner",
          "type": "address"
        }
      ],
      "name": "balanceOf",
      "outputs": [
        {
          "internalType": "uint256",
          "name": "",
          "type": "uint256"
        }
      ],
      "stateMutability": "view",
      "type": "function",
      "constant": true
    },
    {
      "inputs": [
        {
          "internalType": "uint256",
          "name": "tokenId",
          "type": "uint256"
        }
      ],
      "name": "getApproved",
      "outputs": [
        {
          "internalType": "address",
          "name": "",
          "type": "address"
        }
      ],
      "stateMutability": "view",
      "type": "function",
      "constant": true
    },
    {
      "inputs": [
        {
          "internalType": "address",
          "name": "owner",
          "type": "address"
        },
        {
          "internalType": "address",
          "name": "operator",
          "type": "address"
        }
      ],
      "name": "isApprovedForAll",
      "outputs": [
        {
          "internalType": "bool",
          "name": "",
          "type": "bool"
        }
      ],
      "stateMutability": "view",
      "type": "function",
      "constant": true
    },
    {
      "inputs": [
        {
          "internalType": "uint256",
          "name": "",
          "type": "uint256"
        }
      ],
      "name": "lips",
      "outputs": [
        {
          "internalType": "string",
          "name": "name",
          "type": "string"
        },
        {
          "internalType": "uint256",
          "name": "id",
          "type": "uint256"
        },
        {
          "internalType": "uint256",
          "name": "dna",
          "type": "uint256"
        },
        {
          "internalType": "uint8",
          "name": "level",
          "type": "uint8"
        },
        {
          "internalType": "uint8",
          "name": "rarity",
          "type": "uint8"
        },
        {
          "internalType": "uint32",
          "name": "readyTime",
          "type": "uint32"
        }
      ],
      "stateMutability": "view",
      "type": "function",
      "constant": true
    },
    {
      "inputs": [],
      "name": "name",
      "outputs": [
        {
          "internalType": "string",
          "name": "",
          "type": "string"
        }
      ],
      "stateMutability": "view",
      "type": "function",
      "constant": true
    },
    {
      "inputs": [],
      "name": "owner",
      "outputs": [
        {
          "internalType": "address",
          "name": "",
          "type": "address"
        }
      ],
      "stateMutability": "view",
      "type": "function",
      "constant": true
    },
    {
      "inputs": [
        {
          "internalType": "uint256",
          "name": "tokenId",
          "type": "uint256"
        }
      ],
      "name": "ownerOf",
      "outputs": [
        {
          "internalType": "address",
          "name": "",
          "type": "address"
        }
      ],
      "stateMutability": "view",
      "type": "function",
      "constant": true
    },
    {
      "inputs": [],
      "name": "renounceOwnership",
      "outputs": [],
      "stateMutability": "nonpayable",
      "type": "function"
    },
    {
      "inputs": [
        {
          "internalType": "address",
          "name": "from",
          "type": "address"
        },
        {
          "internalType": "address",
          "name": "to",
          "type": "address"
        },
        {
          "internalType": "uint256",
          "name": "tokenId",
          "type": "uint256"
        }
      ],
      "name": "safeTransferFrom",
      "outputs": [],
      "stateMutability": "nonpayable",
      "type": "function"
    },
    {
      "inputs": [
        {
          "internalType": "address",
          "name": "from",
          "type": "address"
        },
        {
          "internalType": "address",
          "name": "to",
          "type": "address"
        },
        {
          "internalType": "uint256",
          "name": "tokenId",
          "type": "uint256"
        },
        {
          "internalType": "bytes",
          "name": "_data",
          "type": "bytes"
        }
      ],
      "name": "safeTransferFrom",
      "outputs": [],
      "stateMutability": "nonpayable",
      "type": "function"
    },
    {
      "inputs": [
        {
          "internalType": "address",
          "name": "operator",
          "type": "address"
        },
        {
          "internalType": "bool",
          "name": "approved",
          "type": "bool"
        }
      ],
      "name": "setApprovalForAll",
      "outputs": [],
      "stateMutability": "nonpayable",
      "type": "function"
    },
    {
      "inputs": [
        {
          "internalType": "bytes4",
          "name": "interfaceId",
          "type": "bytes4"
        }
      ],
      "name": "supportsInterface",
      "outputs": [
        {
          "internalType": "bool",
          "name": "",
          "type": "bool"
        }
      ],
      "stateMutability": "view",
      "type": "function",
      "constant": true
    },
    {
      "inputs": [],
      "name": "symbol",
      "outputs": [
        {
          "internalType": "string",
          "name": "",
          "type": "string"
        }
      ],
      "stateMutability": "view",
      "type": "function",
      "constant": true
    },
    {
      "inputs": [
        {
          "internalType": "uint256",
          "name": "tokenId",
          "type": "uint256"
        }
      ],
      "name": "tokenURI",
      "outputs": [
        {
          "internalType": "string",
          "name": "",
          "type": "string"
        }
      ],
      "stateMutability": "view",
      "type": "function",
      "constant": true
    },
    {
      "inputs": [
        {
          "internalType": "address",
          "name": "from",
          "type": "address"
        },
        {
          "internalType": "address",
          "name": "to",
          "type": "address"
        },
        {
          "internalType": "uint256",
          "name": "tokenId",
          "type": "uint256"
        }
      ],
      "name": "transferFrom",
      "outputs": [],
      "stateMutability": "nonpayable",
      "type": "function"
    },
    {
      "inputs": [
        {
          "internalType": "address",
          "name": "newOwner",
          "type": "address"
        }
      ],
      "name": "transferOwnership",
      "outputs": [],
      "stateMutability": "nonpayable",
      "type": "function"
    },
    {
      "inputs": [
        {
          "internalType": "uint256",
          "name": "_fee",
          "type": "uint256"
        }
      ],
      "name": "updateFee",
      "outputs": [],
      "stateMutability": "nonpayable",
      "type": "function"
    },
    {
      "inputs": [
        {
          "internalType": "uint256",
          "name": "_fee",
          "type": "uint256"
        }
      ],
      "name": "setLevelUpFee",
      "outputs": [],
      "stateMutability": "nonpayable",
      "type": "function"
    },
    {
      "inputs": [],
      "name": "withDraw",
      "outputs": [],
      "stateMutability": "payable",
      "type": "function",
      "payable": true
    },
    {
      "inputs": [
        {
          "components": [
            {
              "internalType": "string",
              "name": "name",
              "type": "string"
            },
            {
              "internalType": "uint256",
              "name": "id",
              "type": "uint256"
            },
            {
              "internalType": "uint256",
              "name": "dna",
              "type": "uint256"
            },
            {
              "internalType": "uint8",
              "name": "level",
              "type": "uint8"
            },
            {
              "internalType": "uint8",
              "name": "rarity",
              "type": "uint8"
            },
            {
              "internalType": "uint32",
              "name": "readyTime",
              "type": "uint32"
            }
          ],
          "internalType": "struct LipToken.Lip[]",
          "name": "arr",
          "type": "tuple[]"
        },
        {
          "internalType": "int256",
          "name": "left",
          "type": "int256"
        },
        {
          "internalType": "int256",
          "name": "right",
          "type": "int256"
        }
      ],
      "name": "quickSortLevel",
      "outputs": [],
      "stateMutability": "pure",
      "type": "function",
      "constant": true
    },
    {
      "inputs": [
        {
          "components": [
            {
              "internalType": "string",
              "name": "name",
              "type": "string"
            },
            {
              "internalType": "uint256",
              "name": "id",
              "type": "uint256"
            },
            {
              "internalType": "uint256",
              "name": "dna",
              "type": "uint256"
            },
            {
              "internalType": "uint8",
              "name": "level",
              "type": "uint8"
            },
            {
              "internalType": "uint8",
              "name": "rarity",
              "type": "uint8"
            },
            {
              "internalType": "uint32",
              "name": "readyTime",
              "type": "uint32"
            }
          ],
          "internalType": "struct LipToken.Lip[]",
          "name": "data",
          "type": "tuple[]"
        }
      ],
      "name": "sort",
      "outputs": [
        {
          "components": [
            {
              "internalType": "string",
              "name": "name",
              "type": "string"
            },
            {
              "internalType": "uint256",
              "name": "id",
              "type": "uint256"
            },
            {
              "internalType": "uint256",
              "name": "dna",
              "type": "uint256"
            },
            {
              "internalType": "uint8",
              "name": "level",
              "type": "uint8"
            },
            {
              "internalType": "uint8",
              "name": "rarity",
              "type": "uint8"
            },
            {
              "internalType": "uint32",
              "name": "readyTime",
              "type": "uint32"
            }
          ],
          "internalType": "struct LipToken.Lip[]",
          "name": "",
          "type": "tuple[]"
        }
      ],
      "stateMutability": "pure",
      "type": "function",
      "constant": true
    },
    {
      "inputs": [
        {
          "internalType": "string",
          "name": "_name",
          "type": "string"
        }
      ],
      "name": "createRandomLip",
      "outputs": [],
      "stateMutability": "payable",
      "type": "function",
      "payable": true
    },
    {
      "inputs": [],
      "name": "getLips",
      "outputs": [
        {
          "components": [
            {
              "internalType": "string",
              "name": "name",
              "type": "string"
            },
            {
              "internalType": "uint256",
              "name": "id",
              "type": "uint256"
            },
            {
              "internalType": "uint256",
              "name": "dna",
              "type": "uint256"
            },
            {
              "internalType": "uint8",
              "name": "level",
              "type": "uint8"
            },
            {
              "internalType": "uint8",
              "name": "rarity",
              "type": "uint8"
            },
            {
              "internalType": "uint32",
              "name": "readyTime",
              "type": "uint32"
            }
          ],
          "internalType": "struct LipToken.Lip[]",
          "name": "",
          "type": "tuple[]"
        }
      ],
      "stateMutability": "view",
      "type": "function",
      "constant": true
    },
    {
      "inputs": [
        {
          "internalType": "address",
          "name": "_owner",
          "type": "address"
        }
      ],
      "name": "getAddressLips",
      "outputs": [
        {
          "components": [
            {
              "internalType": "string",
              "name": "name",
              "type": "string"
            },
            {
              "internalType": "uint256",
              "name": "id",
              "type": "uint256"
            },
            {
              "internalType": "uint256",
              "name": "dna",
              "type": "uint256"
            },
            {
              "internalType": "uint8",
              "name": "level",
              "type": "uint8"
            },
            {
              "internalType": "uint8",
              "name": "rarity",
              "type": "uint8"
            },
            {
              "internalType": "uint32",
              "name": "readyTime",
              "type": "uint32"
            }
          ],
          "internalType": "struct LipToken.Lip[]",
          "name": "",
          "type": "tuple[]"
        }
      ],
      "stateMutability": "view",
      "type": "function",
      "constant": true
    },
    {
      "inputs": [
        {
          "internalType": "uint256",
          "name": "_lipId",
          "type": "uint256"
        }
      ],
      "name": "levelUp",
      "outputs": [],
      "stateMutability": "payable",
      "type": "function",
      "payable": true
    },
    {
      "inputs": [
        {
          "internalType": "uint256",
          "name": "_lipId",
          "type": "uint256"
        },
        {
          "internalType": "string",
          "name": "_newName",
          "type": "string"
        }
      ],
      "name": "changeName",
      "outputs": [],
      "stateMutability": "nonpayable",
      "type": "function"
    },
    {
      "inputs": [
        {
          "internalType": "uint256",
          "name": "_lipId",
          "type": "uint256"
        }
      ],
      "name": "clearWaitTime",
      "outputs": [],
      "stateMutability": "payable",
      "type": "function",
      "payable": true
    }
  ],
  "bytecode": "0x6080604052662386f26fc10000600855662386f26fc1000060095562015180600a5566354a6ba7a18000600b553480156200003957600080fd5b506040518060400160405280600981526020017f4c697020546f6b656e00000000000000000000000000000000000000000000008152506040518060400160405280600381526020017f4c505400000000000000000000000000000000000000000000000000000000008152508160009080519060200190620000be929190620001ce565b508060019080519060200190620000d7929190620001ce565b505050620000fa620000ee6200010060201b60201c565b6200010860201b60201c565b620002e3565b600033905090565b6000600660009054906101000a900473ffffffffffffffffffffffffffffffffffffffff16905081600660006101000a81548173ffffffffffffffffffffffffffffffffffffffff021916908373ffffffffffffffffffffffffffffffffffffffff1602179055508173ffffffffffffffffffffffffffffffffffffffff168173ffffffffffffffffffffffffffffffffffffffff167f8be0079c531659141344cd1fd0a4f28419497f9722a3daafe3b4186f6b6457e060405160405180910390a35050565b828054620001dc90620002ad565b90600052602060002090601f0160209004810192826200020057600085556200024c565b82601f106200021b57805160ff19168380011785556200024c565b828001600101855582156200024c579182015b828111156200024b5782518255916020019190600101906200022e565b5b5090506200025b91906200025f565b5090565b5b808211156200027a57600081600090555060010162000260565b5090565b7f4e487b7100000000000000000000000000000000000000000000000000000000600052602260045260246000fd5b60006002820490506001821680620002c657607f821691505b60208210811415620002dd57620002dc6200027e565b5b50919050565b6146e880620002f36000396000f3fe6080604052600436106101b75760003560e01c806370a08231116100ec578063a22cb4651161008a578063c87b56dd11610064578063c87b56dd146105d5578063ccf670f814610612578063e985e9c51461063b578063f2fde38b14610678576101b7565b8063a22cb4651461055a578063b88d4fde14610583578063c39cbef1146105ac576101b7565b80638da5cb5b116100c65780638da5cb5b146104bf5780639012c4a8146104ea57806395d89b41146105135780639ee3c6601461053e576101b7565b806370a0823114610440578063715018a61461047d57806383b5daf714610494576101b7565b80632fb96f7b116101595780635ec163db116101335780635ec163db1461037c57806361019a39146103be5780636352211e146103e7578063698d640c14610424576101b7565b80632fb96f7b146102d957806342842e0e146103165780635aa4ede01461033f576101b7565b8063095ea7b311610195578063095ea7b3146102615780630ce90ec21461028a5780630fdb1c10146102a657806323b872dd146102b0576101b7565b806301ffc9a7146101bc57806306fdde03146101f9578063081812fc14610224575b600080fd5b3480156101c857600080fd5b506101e360048036038101906101de9190612b43565b6106a1565b6040516101f09190612b8b565b60405180910390f35b34801561020557600080fd5b5061020e610783565b60405161021b9190612c3f565b60405180910390f35b34801561023057600080fd5b5061024b60048036038101906102469190612c97565b610815565b6040516102589190612d05565b60405180910390f35b34801561026d57600080fd5b5061028860048036038101906102839190612d4c565b61089a565b005b6102a4600480360381019061029f9190612c97565b6109b2565b005b6102ae610a82565b005b3480156102bc57600080fd5b506102d760048036038101906102d29190612d8c565b610b54565b005b3480156102e557600080fd5b5061030060048036038101906102fb9190613135565b610bb4565b60405161030d9190613340565b60405180910390f35b34801561032257600080fd5b5061033d60048036038101906103389190612d8c565b610bd7565b005b34801561034b57600080fd5b5061036660048036038101906103619190613362565b610bf7565b6040516103739190613340565b60405180910390f35b34801561038857600080fd5b506103a3600480360381019061039e9190612c97565b610d9b565b6040516103b5969594939291906133bc565b60405180910390f35b3480156103ca57600080fd5b506103e560048036038101906103e0919061345a565b610e99565b005b3480156103f357600080fd5b5061040e60048036038101906104099190612c97565b61104f565b60405161041b9190612d05565b60405180910390f35b61043e600480360381019061043991906134c9565b611101565b005b34801561044c57600080fd5b5061046760048036038101906104629190613362565b61111c565b6040516104749190613512565b60405180910390f35b34801561048957600080fd5b506104926111d4565b005b3480156104a057600080fd5b506104a961125c565b6040516104b69190613340565b60405180910390f35b3480156104cb57600080fd5b506104d46113cf565b6040516104e19190612d05565b60405180910390f35b3480156104f657600080fd5b50610511600480360381019061050c9190612c97565b6113f9565b005b34801561051f57600080fd5b5061052861147f565b6040516105359190612c3f565b60405180910390f35b61055860048036038101906105539190612c97565b611511565b005b34801561056657600080fd5b50610581600480360381019061057c9190613559565b6115b0565b005b34801561058f57600080fd5b506105aa60048036038101906105a5919061363a565b6115c6565b005b3480156105b857600080fd5b506105d360048036038101906105ce9190613718565b611628565b005b3480156105e157600080fd5b506105fc60048036038101906105f79190612c97565b6116eb565b6040516106099190612c3f565b60405180910390f35b34801561061e57600080fd5b5061063960048036038101906106349190612c97565b611792565b005b34801561064757600080fd5b50610662600480360381019061065d9190613778565b611818565b60405161066f9190612b8b565b60405180910390f35b34801561068457600080fd5b5061069f600480360381019061069a9190613362565b6118ac565b005b60007f80ac58cd000000000000000000000000000000000000000000000000000000007bffffffffffffffffffffffffffffffffffffffffffffffffffffffff1916827bffffffffffffffffffffffffffffffffffffffffffffffffffffffff1916148061076c57507f5b5e139f000000000000000000000000000000000000000000000000000000007bffffffffffffffffffffffffffffffffffffffffffffffffffffffff1916827bffffffffffffffffffffffffffffffffffffffffffffffffffffffff1916145b8061077c575061077b826119a4565b5b9050919050565b606060008054610792906137e7565b80601f01602080910402602001604051908101604052809291908181526020018280546107be906137e7565b801561080b5780601f106107e05761010080835404028352916020019161080b565b820191906000526020600020905b8154815290600101906020018083116107ee57829003601f168201915b5050505050905090565b600061082082611a0e565b61085f576040517f08c379a00000000000000000000000000000000000000000000000000000000081526004016108569061388b565b60405180910390fd5b6004600083815260200190815260200160002060009054906101000a900473ffffffffffffffffffffffffffffffffffffffff169050919050565b60006108a58261104f565b90508073ffffffffffffffffffffffffffffffffffffffff168373ffffffffffffffffffffffffffffffffffffffff161415610916576040517f08c379a000000000000000000000000000000000000000000000000000000000815260040161090d9061391d565b60405180910390fd5b8073ffffffffffffffffffffffffffffffffffffffff16610935611a7a565b73ffffffffffffffffffffffffffffffffffffffff16148061096457506109638161095e611a7a565b611818565b5b6109a3576040517f08c379a000000000000000000000000000000000000000000000000000000000815260040161099a906139af565b60405180910390fd5b6109ad8383611a82565b505050565b803373ffffffffffffffffffffffffffffffffffffffff166109d38261104f565b73ffffffffffffffffffffffffffffffffffffffff16146109f357600080fd5b6000600c8381548110610a0957610a086139cf565b5b90600052602060002090600402019050610a2281611b3b565b610a2b57600080fd5b600954341015610a3a57600080fd5b80600301600081819054906101000a900460ff1680929190610a5b90613a2d565b91906101000a81548160ff021916908360ff16021790555050610a7d81611b62565b505050565b610a8a611a7a565b73ffffffffffffffffffffffffffffffffffffffff16610aa86113cf565b73ffffffffffffffffffffffffffffffffffffffff1614610afe576040517f08c379a0000000000000000000000000000000000000000000000000000000008152600401610af590613aa3565b60405180910390fd5b6000610b086113cf565b90508073ffffffffffffffffffffffffffffffffffffffff166108fc479081150290604051600060405180830381858888f19350505050158015610b50573d6000803e3d6000fd5b5050565b610b65610b5f611a7a565b82611b95565b610ba4576040517f08c379a0000000000000000000000000000000000000000000000000000000008152600401610b9b90613b35565b60405180910390fd5b610baf838383611c73565b505050565b6060610bcf82600060018551610bca9190613b55565b610e99565b819050919050565b610bf2838383604051806020016040528060008152506115c6565b505050565b6060600d60008373ffffffffffffffffffffffffffffffffffffffff1673ffffffffffffffffffffffffffffffffffffffff168152602001908152602001600020805480602002602001604051908101604052809291908181526020016000905b82821015610d9057838290600052602060002090600402016040518060c0016040529081600082018054610c8b906137e7565b80601f0160208091040260200160405190810160405280929190818152602001828054610cb7906137e7565b8015610d045780601f10610cd957610100808354040283529160200191610d04565b820191906000526020600020905b815481529060010190602001808311610ce757829003601f168201915b5050505050815260200160018201548152602001600282015481526020016003820160009054906101000a900460ff1660ff1660ff1681526020016003820160019054906101000a900460ff1660ff1660ff1681526020016003820160029054906101000a900463ffffffff1663ffffffff1663ffffffff168152505081526020019060010190610c58565b505050509050919050565b600c8181548110610dab57600080fd5b9060005260206000209060040201600091509050806000018054610dce906137e7565b80601f0160208091040260200160405190810160405280929190818152602001828054610dfa906137e7565b8015610e475780601f10610e1c57610100808354040283529160200191610e47565b820191906000526020600020905b815481529060010190602001808311610e2a57829003601f168201915b5050505050908060010154908060020154908060030160009054906101000a900460ff16908060030160019054906101000a900460ff16908060030160029054906101000a900463ffffffff16905086565b6000829050600082905080821415610eb257505061104a565b60008560028686610ec39190613b89565b610ecd9190613c4c565b86610ed89190613cb6565b81518110610ee957610ee86139cf565b5b602002602001015190505b81831361101e575b806060015160ff16868481518110610f1757610f166139cf565b5b60200260200101516060015160ff161015610f3f578280610f3790613d4a565b935050610efc565b5b858281518110610f5357610f526139cf565b5b60200260200101516060015160ff16816060015160ff161015610f83578180610f7b90613d93565b925050610f40565b81831361101957858281518110610f9d57610f9c6139cf565b5b6020026020010151868481518110610fb857610fb76139cf565b5b6020026020010151878581518110610fd357610fd26139cf565b5b60200260200101888581518110610fed57610fec6139cf565b5b602002602001018290528290525050828061100790613d4a565b935050818061101590613d93565b9250505b610ef4565b8185121561103257611031868684610e99565b5b8383121561104657611045868486610e99565b5b5050505b505050565b6000806002600084815260200190815260200160002060009054906101000a900473ffffffffffffffffffffffffffffffffffffffff169050600073ffffffffffffffffffffffffffffffffffffffff168173ffffffffffffffffffffffffffffffffffffffff1614156110f8576040517f08c379a00000000000000000000000000000000000000000000000000000000081526004016110ef90613e4e565b60405180910390fd5b80915050919050565b60085434101561111057600080fd5b61111981611ecf565b50565b60008073ffffffffffffffffffffffffffffffffffffffff168273ffffffffffffffffffffffffffffffffffffffff16141561118d576040517f08c379a000000000000000000000000000000000000000000000000000000000815260040161118490613ee0565b60405180910390fd5b600360008373ffffffffffffffffffffffffffffffffffffffff1673ffffffffffffffffffffffffffffffffffffffff168152602001908152602001600020549050919050565b6111dc611a7a565b73ffffffffffffffffffffffffffffffffffffffff166111fa6113cf565b73ffffffffffffffffffffffffffffffffffffffff1614611250576040517f08c379a000000000000000000000000000000000000000000000000000000000815260040161124790613aa3565b60405180910390fd5b61125a600061217b565b565b606060006113c6600c805480602002602001604051908101604052809291908181526020016000905b828210156113bd57838290600052602060002090600402016040518060c00160405290816000820180546112b8906137e7565b80601f01602080910402602001604051908101604052809291908181526020018280546112e4906137e7565b80156113315780601f1061130657610100808354040283529160200191611331565b820191906000526020600020905b81548152906001019060200180831161131457829003601f168201915b5050505050815260200160018201548152602001600282015481526020016003820160009054906101000a900460ff1660ff1660ff1681526020016003820160019054906101000a900460ff1660ff1660ff1681526020016003820160029054906101000a900463ffffffff1663ffffffff1663ffffffff168152505081526020019060010190611285565b50505050610bb4565b90508091505090565b6000600660009054906101000a900473ffffffffffffffffffffffffffffffffffffffff16905090565b611401611a7a565b73ffffffffffffffffffffffffffffffffffffffff1661141f6113cf565b73ffffffffffffffffffffffffffffffffffffffff1614611475576040517f08c379a000000000000000000000000000000000000000000000000000000000815260040161146c90613aa3565b60405180910390fd5b8060088190555050565b60606001805461148e906137e7565b80601f01602080910402602001604051908101604052809291908181526020018280546114ba906137e7565b80156115075780601f106114dc57610100808354040283529160200191611507565b820191906000526020600020905b8154815290600101906020018083116114ea57829003601f168201915b5050505050905090565b803373ffffffffffffffffffffffffffffffffffffffff166115328261104f565b73ffffffffffffffffffffffffffffffffffffffff161461155257600080fd5b600b5434101561156157600080fd5b6000600c8381548110611577576115766139cf565b5b90600052602060002090600402019050600a8160030160026101000a81548163ffffffff021916908363ffffffff160217905550505050565b6115c26115bb611a7a565b8383612241565b5050565b6115d76115d1611a7a565b83611b95565b611616576040517f08c379a000000000000000000000000000000000000000000000000000000000815260040161160d90613b35565b60405180910390fd5b611622848484846123ae565b50505050565b60028381600c82815481106116405761163f6139cf565b5b906000526020600020906004020160030160009054906101000a900460ff1660ff16101561166d57600080fd5b843373ffffffffffffffffffffffffffffffffffffffff1661168e8261104f565b73ffffffffffffffffffffffffffffffffffffffff16146116ae57600080fd5b8484600c88815481106116c4576116c36139cf565b5b906000526020600020906004020160000191906116e29291906129ae565b50505050505050565b60606116f682611a0e565b611735576040517f08c379a000000000000000000000000000000000000000000000000000000000815260040161172c90613f72565b60405180910390fd5b600061173f61240a565b9050600081511161175f576040518060200160405280600081525061178a565b8061176984612421565b60405160200161177a929190613fce565b6040516020818303038152906040525b915050919050565b61179a611a7a565b73ffffffffffffffffffffffffffffffffffffffff166117b86113cf565b73ffffffffffffffffffffffffffffffffffffffff161461180e576040517f08c379a000000000000000000000000000000000000000000000000000000000815260040161180590613aa3565b60405180910390fd5b8060098190555050565b6000600560008473ffffffffffffffffffffffffffffffffffffffff1673ffffffffffffffffffffffffffffffffffffffff16815260200190815260200160002060008373ffffffffffffffffffffffffffffffffffffffff1673ffffffffffffffffffffffffffffffffffffffff16815260200190815260200160002060009054906101000a900460ff16905092915050565b6118b4611a7a565b73ffffffffffffffffffffffffffffffffffffffff166118d26113cf565b73ffffffffffffffffffffffffffffffffffffffff1614611928576040517f08c379a000000000000000000000000000000000000000000000000000000000815260040161191f90613aa3565b60405180910390fd5b600073ffffffffffffffffffffffffffffffffffffffff168173ffffffffffffffffffffffffffffffffffffffff161415611998576040517f08c379a000000000000000000000000000000000000000000000000000000000815260040161198f90614064565b60405180910390fd5b6119a18161217b565b50565b60007f01ffc9a7000000000000000000000000000000000000000000000000000000007bffffffffffffffffffffffffffffffffffffffffffffffffffffffff1916827bffffffffffffffffffffffffffffffffffffffffffffffffffffffff1916149050919050565b60008073ffffffffffffffffffffffffffffffffffffffff166002600084815260200190815260200160002060009054906101000a900473ffffffffffffffffffffffffffffffffffffffff1673ffffffffffffffffffffffffffffffffffffffff1614159050919050565b600033905090565b816004600083815260200190815260200160002060006101000a81548173ffffffffffffffffffffffffffffffffffffffff021916908373ffffffffffffffffffffffffffffffffffffffff160217905550808273ffffffffffffffffffffffffffffffffffffffff16611af58361104f565b73ffffffffffffffffffffffffffffffffffffffff167f8c5be1e5ebec7d5bd14f71427d1e84f3dd0314c0f7b2291e5b200ac8c7c3b92560405160405180910390a45050565b6000428260030160029054906101000a900463ffffffff1663ffffffff1611159050919050565b600a5442611b709190614084565b8160030160026101000a81548163ffffffff021916908363ffffffff16021790555050565b6000611ba082611a0e565b611bdf576040517f08c379a0000000000000000000000000000000000000000000000000000000008152600401611bd69061414c565b60405180910390fd5b6000611bea8361104f565b90508073ffffffffffffffffffffffffffffffffffffffff168473ffffffffffffffffffffffffffffffffffffffff161480611c5957508373ffffffffffffffffffffffffffffffffffffffff16611c4184610815565b73ffffffffffffffffffffffffffffffffffffffff16145b80611c6a5750611c698185611818565b5b91505092915050565b8273ffffffffffffffffffffffffffffffffffffffff16611c938261104f565b73ffffffffffffffffffffffffffffffffffffffff1614611ce9576040517f08c379a0000000000000000000000000000000000000000000000000000000008152600401611ce0906141de565b60405180910390fd5b600073ffffffffffffffffffffffffffffffffffffffff168273ffffffffffffffffffffffffffffffffffffffff161415611d59576040517f08c379a0000000000000000000000000000000000000000000000000000000008152600401611d5090614270565b60405180910390fd5b611d64838383612582565b611d6f600082611a82565b6001600360008573ffffffffffffffffffffffffffffffffffffffff1673ffffffffffffffffffffffffffffffffffffffff1681526020019081526020016000206000828254611dbf9190613b55565b925050819055506001600360008473ffffffffffffffffffffffffffffffffffffffff1673ffffffffffffffffffffffffffffffffffffffff1681526020019081526020016000206000828254611e169190614084565b92505081905550816002600083815260200190815260200160002060006101000a81548173ffffffffffffffffffffffffffffffffffffffff021916908373ffffffffffffffffffffffffffffffffffffffff160217905550808273ffffffffffffffffffffffffffffffffffffffff168473ffffffffffffffffffffffffffffffffffffffff167fddf252ad1be2c89b69c2b068fc378daa952ba7f163c4a11628f55a4df523b3ef60405160405180910390a4505050565b6000611ee1662386f26fc10000612587565b90506000611eef6064612587565b905060006040518060c001604052808581526020016007548152602001848152602001600160ff1681526020018360ff168152602001600063ffffffff168152509050600c8190806001815401808255809150506001900390600052602060002090600402016000909190919091506000820151816000019080519060200190611f7a929190612a34565b50602082015181600101556040820151816002015560608201518160030160006101000a81548160ff021916908360ff16021790555060808201518160030160016101000a81548160ff021916908360ff16021790555060a08201518160030160026101000a81548163ffffffff021916908363ffffffff1602179055505050600d60003373ffffffffffffffffffffffffffffffffffffffff1673ffffffffffffffffffffffffffffffffffffffff168152602001908152602001600020819080600181540180825580915050600190039060005260206000209060040201600090919091909150600082015181600001908051906020019061207f929190612a34565b50602082015181600101556040820151816002015560608201518160030160006101000a81548160ff021916908360ff16021790555060808201518160030160016101000a81548160ff021916908360ff16021790555060a08201518160030160026101000a81548163ffffffff021916908363ffffffff160217905550505061210b336007546125cc565b3373ffffffffffffffffffffffffffffffffffffffff167f29c4292b8838988609f9bd8e9042f7e77158b1f5ebfcae6494b7b709c3d20ffc60075485604051612155929190614290565b60405180910390a260076000815480929190612170906142b9565b919050555050505050565b6000600660009054906101000a900473ffffffffffffffffffffffffffffffffffffffff16905081600660006101000a81548173ffffffffffffffffffffffffffffffffffffffff021916908373ffffffffffffffffffffffffffffffffffffffff1602179055508173ffffffffffffffffffffffffffffffffffffffff168173ffffffffffffffffffffffffffffffffffffffff167f8be0079c531659141344cd1fd0a4f28419497f9722a3daafe3b4186f6b6457e060405160405180910390a35050565b8173ffffffffffffffffffffffffffffffffffffffff168373ffffffffffffffffffffffffffffffffffffffff1614156122b0576040517f08c379a00000000000000000000000000000000000000000000000000000000081526004016122a79061434e565b60405180910390fd5b80600560008573ffffffffffffffffffffffffffffffffffffffff1673ffffffffffffffffffffffffffffffffffffffff16815260200190815260200160002060008473ffffffffffffffffffffffffffffffffffffffff1673ffffffffffffffffffffffffffffffffffffffff16815260200190815260200160002060006101000a81548160ff0219169083151502179055508173ffffffffffffffffffffffffffffffffffffffff168373ffffffffffffffffffffffffffffffffffffffff167f17307eab39ab6107e8899845ad3d59bd9653f200f220920489ca2b5937696c31836040516123a19190612b8b565b60405180910390a3505050565b6123b9848484611c73565b6123c5848484846125ea565b612404576040517f08c379a00000000000000000000000000000000000000000000000000000000081526004016123fb906143e0565b60405180910390fd5b50505050565b606060405180602001604052806000815250905090565b60606000821415612469576040518060400160405280600181526020017f3000000000000000000000000000000000000000000000000000000000000000815250905061257d565b600082905060005b6000821461249b578080612484906142b9565b915050600a826124949190614400565b9150612471565b60008167ffffffffffffffff8111156124b7576124b6612de4565b5b6040519080825280601f01601f1916602001820160405280156124e95781602001600182028036833780820191505090505b5090505b60008514612576576001826125029190613b55565b9150600a856125119190614431565b603061251d9190614084565b60f81b818381518110612533576125326139cf565b5b60200101907effffffffffffffffffffffffffffffffffffffffffffffffffffffffffffff1916908160001a905350600a8561256f9190614400565b94506124ed565b8093505050505b919050565b505050565b600080423360405160200161259d9291906144cb565b6040516020818303038152906040528051906020012060001c905082816125c49190614431565b915050919050565b6125e6828260405180602001604052806000815250612772565b5050565b600061260b8473ffffffffffffffffffffffffffffffffffffffff166127cd565b15612765578373ffffffffffffffffffffffffffffffffffffffff1663150b7a02612634611a7a565b8786866040518563ffffffff1660e01b8152600401612656949392919061454c565b6020604051808303816000875af192505050801561269257506040513d601f19601f8201168201806040525081019061268f91906145ad565b60015b612715573d80600081146126c2576040519150601f19603f3d011682016040523d82523d6000602084013e6126c7565b606091505b5060008151141561270d576040517f08c379a0000000000000000000000000000000000000000000000000000000008152600401612704906143e0565b60405180910390fd5b805181602001fd5b63150b7a0260e01b7bffffffffffffffffffffffffffffffffffffffffffffffffffffffff1916817bffffffffffffffffffffffffffffffffffffffffffffffffffffffff19161491505061276a565b600190505b949350505050565b61277c83836127e0565b61278960008484846125ea565b6127c8576040517f08c379a00000000000000000000000000000000000000000000000000000000081526004016127bf906143e0565b60405180910390fd5b505050565b600080823b905060008111915050919050565b600073ffffffffffffffffffffffffffffffffffffffff168273ffffffffffffffffffffffffffffffffffffffff161415612850576040517f08c379a000000000000000000000000000000000000000000000000000000000815260040161284790614626565b60405180910390fd5b61285981611a0e565b15612899576040517f08c379a000000000000000000000000000000000000000000000000000000000815260040161289090614692565b60405180910390fd5b6128a560008383612582565b6001600360008473ffffffffffffffffffffffffffffffffffffffff1673ffffffffffffffffffffffffffffffffffffffff16815260200190815260200160002060008282546128f59190614084565b92505081905550816002600083815260200190815260200160002060006101000a81548173ffffffffffffffffffffffffffffffffffffffff021916908373ffffffffffffffffffffffffffffffffffffffff160217905550808273ffffffffffffffffffffffffffffffffffffffff16600073ffffffffffffffffffffffffffffffffffffffff167fddf252ad1be2c89b69c2b068fc378daa952ba7f163c4a11628f55a4df523b3ef60405160405180910390a45050565b8280546129ba906137e7565b90600052602060002090601f0160209004810192826129dc5760008555612a23565b82601f106129f557803560ff1916838001178555612a23565b82800160010185558215612a23579182015b82811115612a22578235825591602001919060010190612a07565b5b509050612a309190612aba565b5090565b828054612a40906137e7565b90600052602060002090601f016020900481019282612a625760008555612aa9565b82601f10612a7b57805160ff1916838001178555612aa9565b82800160010185558215612aa9579182015b82811115612aa8578251825591602001919060010190612a8d565b5b509050612ab69190612aba565b5090565b5b80821115612ad3576000816000905550600101612abb565b5090565b6000604051905090565b600080fd5b600080fd5b60007fffffffff0000000000000000000000000000000000000000000000000000000082169050919050565b612b2081612aeb565b8114612b2b57600080fd5b50565b600081359050612b3d81612b17565b92915050565b600060208284031215612b5957612b58612ae1565b5b6000612b6784828501612b2e565b91505092915050565b60008115159050919050565b612b8581612b70565b82525050565b6000602082019050612ba06000830184612b7c565b92915050565b600081519050919050565b600082825260208201905092915050565b60005b83811015612be0578082015181840152602081019050612bc5565b83811115612bef576000848401525b50505050565b6000601f19601f8301169050919050565b6000612c1182612ba6565b612c1b8185612bb1565b9350612c2b818560208601612bc2565b612c3481612bf5565b840191505092915050565b60006020820190508181036000830152612c598184612c06565b905092915050565b6000819050919050565b612c7481612c61565b8114612c7f57600080fd5b50565b600081359050612c9181612c6b565b92915050565b600060208284031215612cad57612cac612ae1565b5b6000612cbb84828501612c82565b91505092915050565b600073ffffffffffffffffffffffffffffffffffffffff82169050919050565b6000612cef82612cc4565b9050919050565b612cff81612ce4565b82525050565b6000602082019050612d1a6000830184612cf6565b92915050565b612d2981612ce4565b8114612d3457600080fd5b50565b600081359050612d4681612d20565b92915050565b60008060408385031215612d6357612d62612ae1565b5b6000612d7185828601612d37565b9250506020612d8285828601612c82565b9150509250929050565b600080600060608486031215612da557612da4612ae1565b5b6000612db386828701612d37565b9350506020612dc486828701612d37565b9250506040612dd586828701612c82565b9150509250925092565b600080fd5b7f4e487b7100000000000000000000000000000000000000000000000000000000600052604160045260246000fd5b612e1c82612bf5565b810181811067ffffffffffffffff82111715612e3b57612e3a612de4565b5b80604052505050565b6000612e4e612ad7565b9050612e5a8282612e13565b919050565b600067ffffffffffffffff821115612e7a57612e79612de4565b5b602082029050602081019050919050565b600080fd5b600080fd5b600080fd5b600080fd5b600067ffffffffffffffff821115612eba57612eb9612de4565b5b612ec382612bf5565b9050602081019050919050565b82818337600083830152505050565b6000612ef2612eed84612e9f565b612e44565b905082815260208101848484011115612f0e57612f0d612e9a565b5b612f19848285612ed0565b509392505050565b600082601f830112612f3657612f35612ddf565b5b8135612f46848260208601612edf565b91505092915050565b600060ff82169050919050565b612f6581612f4f565b8114612f7057600080fd5b50565b600081359050612f8281612f5c565b92915050565b600063ffffffff82169050919050565b612fa181612f88565b8114612fac57600080fd5b50565b600081359050612fbe81612f98565b92915050565b600060c08284031215612fda57612fd9612e90565b5b612fe460c0612e44565b9050600082013567ffffffffffffffff81111561300457613003612e95565b5b61301084828501612f21565b600083015250602061302484828501612c82565b602083015250604061303884828501612c82565b604083015250606061304c84828501612f73565b606083015250608061306084828501612f73565b60808301525060a061307484828501612faf565b60a08301525092915050565b600061309361308e84612e5f565b612e44565b905080838252602082019050602084028301858111156130b6576130b5612e8b565b5b835b818110156130fd57803567ffffffffffffffff8111156130db576130da612ddf565b5b8086016130e88982612fc4565b855260208501945050506020810190506130b8565b5050509392505050565b600082601f83011261311c5761311b612ddf565b5b813561312c848260208601613080565b91505092915050565b60006020828403121561314b5761314a612ae1565b5b600082013567ffffffffffffffff81111561316957613168612ae6565b5b61317584828501613107565b91505092915050565b600081519050919050565b600082825260208201905092915050565b6000819050602082019050919050565b600082825260208201905092915050565b60006131c682612ba6565b6131d081856131aa565b93506131e0818560208601612bc2565b6131e981612bf5565b840191505092915050565b6131fd81612c61565b82525050565b61320c81612f4f565b82525050565b61321b81612f88565b82525050565b600060c083016000830151848203600086015261323e82826131bb565b915050602083015161325360208601826131f4565b50604083015161326660408601826131f4565b5060608301516132796060860182613203565b50608083015161328c6080860182613203565b5060a083015161329f60a0860182613212565b508091505092915050565b60006132b68383613221565b905092915050565b6000602082019050919050565b60006132d68261317e565b6132e08185613189565b9350836020820285016132f28561319a565b8060005b8581101561332e578484038952815161330f85826132aa565b945061331a836132be565b925060208a019950506001810190506132f6565b50829750879550505050505092915050565b6000602082019050818103600083015261335a81846132cb565b905092915050565b60006020828403121561337857613377612ae1565b5b600061338684828501612d37565b91505092915050565b61339881612c61565b82525050565b6133a781612f4f565b82525050565b6133b681612f88565b82525050565b600060c08201905081810360008301526133d68189612c06565b90506133e5602083018861338f565b6133f2604083018761338f565b6133ff606083018661339e565b61340c608083018561339e565b61341960a08301846133ad565b979650505050505050565b6000819050919050565b61343781613424565b811461344257600080fd5b50565b6000813590506134548161342e565b92915050565b60008060006060848603121561347357613472612ae1565b5b600084013567ffffffffffffffff81111561349157613490612ae6565b5b61349d86828701613107565b93505060206134ae86828701613445565b92505060406134bf86828701613445565b9150509250925092565b6000602082840312156134df576134de612ae1565b5b600082013567ffffffffffffffff8111156134fd576134fc612ae6565b5b61350984828501612f21565b91505092915050565b6000602082019050613527600083018461338f565b92915050565b61353681612b70565b811461354157600080fd5b50565b6000813590506135538161352d565b92915050565b600080604083850312156135705761356f612ae1565b5b600061357e85828601612d37565b925050602061358f85828601613544565b9150509250929050565b600067ffffffffffffffff8211156135b4576135b3612de4565b5b6135bd82612bf5565b9050602081019050919050565b60006135dd6135d884613599565b612e44565b9050828152602081018484840111156135f9576135f8612e9a565b5b613604848285612ed0565b509392505050565b600082601f83011261362157613620612ddf565b5b81356136318482602086016135ca565b91505092915050565b6000806000806080858703121561365457613653612ae1565b5b600061366287828801612d37565b945050602061367387828801612d37565b935050604061368487828801612c82565b925050606085013567ffffffffffffffff8111156136a5576136a4612ae6565b5b6136b18782880161360c565b91505092959194509250565b600080fd5b60008083601f8401126136d8576136d7612ddf565b5b8235905067ffffffffffffffff8111156136f5576136f46136bd565b5b60208301915083600182028301111561371157613710612e8b565b5b9250929050565b60008060006040848603121561373157613730612ae1565b5b600061373f86828701612c82565b935050602084013567ffffffffffffffff8111156137605761375f612ae6565b5b61376c868287016136c2565b92509250509250925092565b6000806040838503121561378f5761378e612ae1565b5b600061379d85828601612d37565b92505060206137ae85828601612d37565b9150509250929050565b7f4e487b7100000000000000000000000000000000000000000000000000000000600052602260045260246000fd5b600060028204905060018216806137ff57607f821691505b60208210811415613813576138126137b8565b5b50919050565b7f4552433732313a20617070726f76656420717565727920666f72206e6f6e657860008201527f697374656e7420746f6b656e0000000000000000000000000000000000000000602082015250565b6000613875602c83612bb1565b915061388082613819565b604082019050919050565b600060208201905081810360008301526138a481613868565b9050919050565b7f4552433732313a20617070726f76616c20746f2063757272656e74206f776e6560008201527f7200000000000000000000000000000000000000000000000000000000000000602082015250565b6000613907602183612bb1565b9150613912826138ab565b604082019050919050565b60006020820190508181036000830152613936816138fa565b9050919050565b7f4552433732313a20617070726f76652063616c6c6572206973206e6f74206f7760008201527f6e6572206e6f7220617070726f76656420666f7220616c6c0000000000000000602082015250565b6000613999603883612bb1565b91506139a48261393d565b604082019050919050565b600060208201905081810360008301526139c88161398c565b9050919050565b7f4e487b7100000000000000000000000000000000000000000000000000000000600052603260045260246000fd5b7f4e487b7100000000000000000000000000000000000000000000000000000000600052601160045260246000fd5b6000613a3882612f4f565b915060ff821415613a4c57613a4b6139fe565b5b600182019050919050565b7f4f776e61626c653a2063616c6c6572206973206e6f7420746865206f776e6572600082015250565b6000613a8d602083612bb1565b9150613a9882613a57565b602082019050919050565b60006020820190508181036000830152613abc81613a80565b9050919050565b7f4552433732313a207472616e736665722063616c6c6572206973206e6f74206f60008201527f776e6572206e6f7220617070726f766564000000000000000000000000000000602082015250565b6000613b1f603183612bb1565b9150613b2a82613ac3565b604082019050919050565b60006020820190508181036000830152613b4e81613b12565b9050919050565b6000613b6082612c61565b9150613b6b83612c61565b925082821015613b7e57613b7d6139fe565b5b828203905092915050565b6000613b9482613424565b9150613b9f83613424565b9250827f800000000000000000000000000000000000000000000000000000000000000001821260008412151615613bda57613bd96139fe565b5b827f7fffffffffffffffffffffffffffffffffffffffffffffffffffffffffffffff018213600084121615613c1257613c116139fe565b5b828203905092915050565b7f4e487b7100000000000000000000000000000000000000000000000000000000600052601260045260246000fd5b6000613c5782613424565b9150613c6283613424565b925082613c7257613c71613c1d565b5b600160000383147f800000000000000000000000000000000000000000000000000000000000000083141615613cab57613caa6139fe565b5b828205905092915050565b6000613cc182613424565b9150613ccc83613424565b9250817f7fffffffffffffffffffffffffffffffffffffffffffffffffffffffffffffff03831360008312151615613d0757613d066139fe565b5b817f8000000000000000000000000000000000000000000000000000000000000000038312600083121615613d3f57613d3e6139fe565b5b828201905092915050565b6000613d5582613424565b91507f7fffffffffffffffffffffffffffffffffffffffffffffffffffffffffffffff821415613d8857613d876139fe565b5b600182019050919050565b6000613d9e82613424565b91507f8000000000000000000000000000000000000000000000000000000000000000821415613dd157613dd06139fe565b5b600182039050919050565b7f4552433732313a206f776e657220717565727920666f72206e6f6e657869737460008201527f656e7420746f6b656e0000000000000000000000000000000000000000000000602082015250565b6000613e38602983612bb1565b9150613e4382613ddc565b604082019050919050565b60006020820190508181036000830152613e6781613e2b565b9050919050565b7f4552433732313a2062616c616e636520717565727920666f7220746865207a6560008201527f726f206164647265737300000000000000000000000000000000000000000000602082015250565b6000613eca602a83612bb1565b9150613ed582613e6e565b604082019050919050565b60006020820190508181036000830152613ef981613ebd565b9050919050565b7f4552433732314d657461646174613a2055524920717565727920666f72206e6f60008201527f6e6578697374656e7420746f6b656e0000000000000000000000000000000000602082015250565b6000613f5c602f83612bb1565b9150613f6782613f00565b604082019050919050565b60006020820190508181036000830152613f8b81613f4f565b9050919050565b600081905092915050565b6000613fa882612ba6565b613fb28185613f92565b9350613fc2818560208601612bc2565b80840191505092915050565b6000613fda8285613f9d565b9150613fe68284613f9d565b91508190509392505050565b7f4f776e61626c653a206e6577206f776e657220697320746865207a65726f206160008201527f6464726573730000000000000000000000000000000000000000000000000000602082015250565b600061404e602683612bb1565b915061405982613ff2565b604082019050919050565b6000602082019050818103600083015261407d81614041565b9050919050565b600061408f82612c61565b915061409a83612c61565b9250827fffffffffffffffffffffffffffffffffffffffffffffffffffffffffffffffff038211156140cf576140ce6139fe565b5b828201905092915050565b7f4552433732313a206f70657261746f7220717565727920666f72206e6f6e657860008201527f697374656e7420746f6b656e0000000000000000000000000000000000000000602082015250565b6000614136602c83612bb1565b9150614141826140da565b604082019050919050565b6000602082019050818103600083015261416581614129565b9050919050565b7f4552433732313a207472616e73666572206f6620746f6b656e2074686174206960008201527f73206e6f74206f776e0000000000000000000000000000000000000000000000602082015250565b60006141c8602983612bb1565b91506141d38261416c565b604082019050919050565b600060208201905081810360008301526141f7816141bb565b9050919050565b7f4552433732313a207472616e7366657220746f20746865207a65726f2061646460008201527f7265737300000000000000000000000000000000000000000000000000000000602082015250565b600061425a602483612bb1565b9150614265826141fe565b604082019050919050565b600060208201905081810360008301526142898161424d565b9050919050565b60006040820190506142a5600083018561338f565b6142b2602083018461338f565b9392505050565b60006142c482612c61565b91507fffffffffffffffffffffffffffffffffffffffffffffffffffffffffffffffff8214156142f7576142f66139fe565b5b600182019050919050565b7f4552433732313a20617070726f766520746f2063616c6c657200000000000000600082015250565b6000614338601983612bb1565b915061434382614302565b602082019050919050565b600060208201905081810360008301526143678161432b565b9050919050565b7f4552433732313a207472616e7366657220746f206e6f6e20455243373231526560008201527f63656976657220696d706c656d656e7465720000000000000000000000000000602082015250565b60006143ca603283612bb1565b91506143d58261436e565b604082019050919050565b600060208201905081810360008301526143f9816143bd565b9050919050565b600061440b82612c61565b915061441683612c61565b92508261442657614425613c1d565b5b828204905092915050565b600061443c82612c61565b915061444783612c61565b92508261445757614456613c1d565b5b828206905092915050565b6000819050919050565b61447d61447882612c61565b614462565b82525050565b60008160601b9050919050565b600061449b82614483565b9050919050565b60006144ad82614490565b9050919050565b6144c56144c082612ce4565b6144a2565b82525050565b60006144d7828561446c565b6020820191506144e782846144b4565b6014820191508190509392505050565b600081519050919050565b600082825260208201905092915050565b600061451e826144f7565b6145288185614502565b9350614538818560208601612bc2565b61454181612bf5565b840191505092915050565b60006080820190506145616000830187612cf6565b61456e6020830186612cf6565b61457b604083018561338f565b818103606083015261458d8184614513565b905095945050505050565b6000815190506145a781612b17565b92915050565b6000602082840312156145c3576145c2612ae1565b5b60006145d184828501614598565b91505092915050565b7f4552433732313a206d696e7420746f20746865207a65726f2061646472657373600082015250565b6000614610602083612bb1565b915061461b826145da565b602082019050919050565b6000602082019050818103600083015261463f81614603565b9050919050565b7f4552433732313a20746f6b656e20616c7265616479206d696e74656400000000600082015250565b600061467c601c83612bb1565b915061468782614646565b602082019050919050565b600060208201905081810360008301526146ab8161466f565b905091905056fea2646970667358221220842d49fea4bec236a08fa3c75fe136f3a8f8eff1d7d31f98d6e6a23133fe0f1364736f6c634300080b0033",
  "immutableReferences": {},
  "source": "// SPDX-License-Identifier: MIT\n\npragma solidity >=0.4.22 <0.9.0;\n\nimport \"@openzeppelin/contracts/token/ERC721/ERC721.sol\";\nimport \"@openzeppelin/contracts/access/Ownable.sol\";\n\ncontract LipToken is ERC721, Ownable {\n    constructor() ERC721(\"Lip Token\", \"LPT\") {}\n\n    uint256 COUNTER;\n    uint256 fee = 0.01 ether;\n    uint256 levelUpFee = 0.01 ether;\n    uint256 cooldownTime = 1 days;\n    uint256 clearTimeFee = 0.015 ether;\n\n    struct Lip {\n        string name;\n        uint256 id;\n        uint256 dna;\n        uint8 level;\n        uint8 rarity;\n        uint32 readyTime;\n    }\n\n    Lip[] public lips;\n    mapping(address => Lip[]) ownerLips;\n\n    event NewLipCreated(address indexed owner, uint256 id, uint256 dna);\n\n    // helper\n    function _generateRandomNum(uint256 _mod) internal view returns (uint256) {\n        uint256 randomNumber = uint256(\n            keccak256(abi.encodePacked(block.timestamp, msg.sender))\n        );\n        return randomNumber % _mod;\n    }\n\n    function updateFee(uint256 _fee) external onlyOwner {\n        fee = _fee;\n    }\n\n    function setLevelUpFee(uint256 _fee) external onlyOwner {\n        levelUpFee = _fee;\n    }\n\n    function withDraw() external payable onlyOwner {\n        address payable _owner = payable(owner());\n        _owner.transfer(address(this).balance);\n    }\n\n    modifier aboveLevel(uint256 _level, uint256 _lipId) {\n        require(lips[_lipId].level >= _level);\n        _;\n    }\n\n    modifier onlyOwnerOf(uint256 _lipId) {\n        require(ownerOf(_lipId) == msg.sender);\n        _;\n    }\n\n    function _triggerCooldown(Lip storage _lip) internal {\n        _lip.readyTime = uint32(block.timestamp + cooldownTime);\n    }\n\n    function _isReady(Lip storage _lip) internal view returns (bool) {\n        return (_lip.readyTime <= block.timestamp);\n    }\n\n    function quickSortLevel(\n        Lip[] memory arr,\n        int256 left,\n        int256 right\n    ) public pure {\n        int256 i = left;\n        int256 j = right;\n        if (i == j) return;\n        Lip memory pivot = arr[uint256(left + (right - left) / 2)];\n        while (i <= j) {\n            while (arr[uint256(i)].level < pivot.level) i++;\n            while (pivot.level < arr[uint256(j)].level) j--;\n            if (i <= j) {\n                (arr[uint256(i)], arr[uint256(j)]) = (\n                    arr[uint256(j)],\n                    arr[uint256(i)]\n                );\n                i++;\n                j--;\n            }\n        }\n        if (left < j) quickSortLevel(arr, left, j);\n        if (i < right) quickSortLevel(arr, i, right);\n    }\n\n    function sort(Lip[] memory data) public pure returns (Lip[] memory) {\n        quickSortLevel(data, int256(0), int256(data.length - 1));\n        return data;\n    }\n\n    // ==================== //\n\n    function _createLip(string memory _name) internal {\n        uint256 randomDna = _generateRandomNum(10**16);\n        uint8 randomRarity = uint8(_generateRandomNum(100));\n        Lip memory newLip = Lip(_name, COUNTER, randomDna, 1, randomRarity, 0);\n        lips.push(newLip);\n        ownerLips[msg.sender].push(newLip);\n        _safeMint(msg.sender, COUNTER);\n        emit NewLipCreated(msg.sender, COUNTER, randomDna);\n        COUNTER++;\n    }\n\n    function createRandomLip(string memory _name) public payable {\n        require(msg.value >= fee);\n        _createLip(_name);\n    }\n\n    function getLips() public view returns (Lip[] memory) {\n        Lip[] memory sortedLipLevel = sort(lips);\n        return sortedLipLevel;\n    }\n\n    // other way to get owner lips\n    // function getOwnerLips(address _owner) public view returns (Lip[] memory) {\n    //     Lip[] memory result = new Lip[](balanceOf(_owner));\n    //     uint256 counter = 0;\n    //     for (uint256 i = 0; i < lips.length; i++) {\n    //         if (ownerOf(i) == _owner) {\n    //             result[counter] = lips[i];\n    //             counter++;\n    //         }\n    //     }\n    //     return result;\n    // }\n\n    function getAddressLips(address _owner) public view returns (Lip[] memory) {\n        return ownerLips[_owner];\n    }\n\n    function levelUp(uint256 _lipId) public payable onlyOwnerOf(_lipId) {\n        Lip storage lip = lips[_lipId];\n        require(_isReady(lip));\n        require(msg.value >= levelUpFee);\n        lip.level++;\n        _triggerCooldown(lip);\n    }\n\n    function changeName(uint256 _lipId, string calldata _newName)\n        external\n        aboveLevel(2, _lipId)\n        onlyOwnerOf(_lipId)\n    {\n        lips[_lipId].name = _newName;\n    }\n\n    function clearWaitTime(uint256 _lipId) public payable onlyOwnerOf(_lipId) {\n        require(msg.value >= clearTimeFee);\n        Lip storage lip = lips[_lipId];\n        lip.readyTime = uint32(10);\n    }\n}\n",
  "sourcePath": "C:\\Github\\nft_game\\src\\contracts\\LipToken.sol",
  "compiler": {
    "name": "solc",
    "version": "0.8.11+commit.d7f03943.Emscripten.clang"
  },
  "schemaVersion": "3.4.4",
  "updatedAt": "2022-02-04T13:04:03.621Z",
  "networkType": "ethereum",
  "devdoc": {
    "kind": "dev",
    "methods": {
      "approve(address,uint256)": {
        "details": "See {IERC721-approve}."
      },
      "balanceOf(address)": {
        "details": "See {IERC721-balanceOf}."
      },
      "getApproved(uint256)": {
        "details": "See {IERC721-getApproved}."
      },
      "isApprovedForAll(address,address)": {
        "details": "See {IERC721-isApprovedForAll}."
      },
      "name()": {
        "details": "See {IERC721Metadata-name}."
      },
      "owner()": {
        "details": "Returns the address of the current owner."
      },
      "ownerOf(uint256)": {
        "details": "See {IERC721-ownerOf}."
      },
      "renounceOwnership()": {
        "details": "Leaves the contract without owner. It will not be possible to call `onlyOwner` functions anymore. Can only be called by the current owner. NOTE: Renouncing ownership will leave the contract without an owner, thereby removing any functionality that is only available to the owner."
      },
      "safeTransferFrom(address,address,uint256)": {
        "details": "See {IERC721-safeTransferFrom}."
      },
      "safeTransferFrom(address,address,uint256,bytes)": {
        "details": "See {IERC721-safeTransferFrom}."
      },
      "setApprovalForAll(address,bool)": {
        "details": "See {IERC721-setApprovalForAll}."
      },
      "supportsInterface(bytes4)": {
        "details": "See {IERC165-supportsInterface}."
      },
      "symbol()": {
        "details": "See {IERC721Metadata-symbol}."
      },
      "tokenURI(uint256)": {
        "details": "See {IERC721Metadata-tokenURI}."
      },
      "transferFrom(address,address,uint256)": {
        "details": "See {IERC721-transferFrom}."
      },
      "transferOwnership(address)": {
        "details": "Transfers ownership of the contract to a new account (`newOwner`). Can only be called by the current owner."
      }
    },
    "version": 1
  },
  "userdoc": {
    "kind": "user",
    "methods": {},
    "version": 1
  }
}